:020000040020DA
:10400000F87F00201D412000F9832000F983200063
:10401000F9832000F9832000F9832000F983200030
:10402000F9832000F9832000F98320002F842000E9
:10403000F9832000F9832000F9832000F983200010
:10404000F9832000F9832000F9832000F983200000
:10405000F9832000F9832000F9832000F9832000F0
:10406000F9832000F9832000F9832000F9832000E0
:10407000F9832000F9832000F9832000F9832000D0
:10408000F9832000F9832000F9832000F9832000C0
:10409000F9832000F9832000F9832000F9832000B0
:1040A000F9832000F9832000F9832000F9832000A0
:1040B000F9832000F9832000F9832000F983200090
:1040C000F9832000F9832000F9832000F983200080
:1040D000F9832000F9832000F9832000F983200070
:1040E000F9832000F9832000F9832000F983200060
:1040F000F9832000F983200010B5074C54F8043CE4
:10410000B3F1FF3F06D0043C984754F8043DB3F1A7
:0C411000FF3FF9D110BD00BFE09A200075
:10411C0040400949094A086004319142FBDBFFF732
:10412C00E5FF00BF00F046FA00F08EFA01B405F08E
:10413C00B7F801F03FF8000004000020500D0020FB
:10414C0043680A1D5BB1D0F80CC00133CCF80420D5
:10415C004FF0000CC1F808C04360C26070478B6020
:10416C0001238260C2604360F8E700BF10B444686A
:10417C00012C17D0836801F1040C9C4517D04BB16E
:10418C005A682AB1944503D013465268002AF9D1D3
:10419C008A685A60C268944508BFC360013C446099
:1041AC0010BC704700238360C3604360F8E7002CA9
:1041BC00F6D08B68013C83604460F1E730B58468CD
:1041CC0005464CB12068294603681B68984764680B
:1041DC00002CF7D1012030BD2046FCE7F0B54B6A2E
:1041EC0081B004460D461746002B37D0AC462360F1
:1041FC005CF8043B04F1200E2361BCE80F00AEE830
:10420C000F009CE807008EE807000026AA6A66618A
:10421C00A661E461E663266405F12001204603F003
:10422C00ABFAAB6AA2686660D218A2F140034FF0F9
:10423C00807142F8401C0B4A01A942F001029A63BA
:10424C0047F00102DA63204641F8047DE3606946D9
:10425C004FF4406203F006FD01B0F0BD024B1B6849
:10426C00C4E700BFB551200088010020294B30B5B0
:10427C00186844682246002C47D06368572B07D82F
:10428C00482B11D0D268002A3FD05368572BF7D94E
:10429C00483B5360C1684839C16053B1126848212A
:1042AC00D018D150043030BD00235360C168483958
:1042BC00C160016801290BD0956875B1D468BCB197
:1042CC00EC60D2F80CC00139CCF808500160E5E77D
:1042DC000021416081600160E0E70029DED0D4F864
:1042EC000CC00139C0F804C00160CCF80850D5E707
:1042FC000029D3D0D0F808C00139DCF808C001601F
:10430C00C0F808C0CCF80C40C8E701F097FF0020BB
:10431C00C9E700BF58000020F0B598B00024002277
:10432C00002316940692079304920593029203932A
:10433C00169B4FF4406701930094089409940A97D4
:10434C00FFF794FF69461B4A0546FFF747FF6FF0DE
:10435C000043002217930023119212930F92109393
:10436C000D920E93179B01260C93139414940B9699
:10437C001597FFF77BFF0BA90F4AFFF72FFF0F4B8A
:10438C00E8681E7004F0EEFB0D4A012092E818005C
:10439C0000211B1844EB0104B34282E8180001D041
:1043AC0018B0F0BD002CFBD1064A14605460946028
:1043BC00F6E700BF30412000217A2000A801002040
:1043CC0008000020100000202DE9F007754E7368DE
:1043DC00002B78D05968002975D0DFF8CC81B24613
:1043EC0000270022D8F800505A60F268521AF26086
:1043FC005A68C2B9DAF80040012C00F08480986841
:10440C00002800F0A880D3F80CC0BCF1000F00F01D
:10441C00B280C0F80CC0DA689060DAF80020013A7B
:10442C00CAF800205A681C68A41849D00F2947D92B
:10443C0061602460A760E760EB6859186B68E960FD
:10444C00D4F800C06068002B4DD0D3F800906044C5
:10445C0048450CBF1A461A4604D0D26812B11168EE
:10446C008842FAD159688944CC4507D0DB68002BC7
:10447C0038D01868596841188C45F7D1194613463D
:10448C00CBB160685A68821862602868012802BF44
:10449C006F60AF602F600ED09A68002A3BD0D3F8C3
:1044AC000CC0BCF1000F40D0C2F80CC0DB689A60A5
:1044BC002B68013B2B6019B14A686368D3184B60B9
:1044CC007368002B1AD1394A012092E81800002198
:1044DC001B1844EB0104012B82E818005BD0BDE8EB
:1044EC00F007704713462968002929D1A160E160C3
:1044FC002A686C600132AC602A60C1E759680029F7
:10450C007FF46FAFDFE7CAF80420CAF80820CAF8B6
:10451C0000205A6887E70028CDD06B68DB686B6099
:10452C009A602B68013B2B60C5E70028C3D0AB68B1
:10453C009B68AB60C3F80CC02B68013B2B60BAE7DF
:10454C00AA683946D460AA68E760A2602A68AC60A1
:10455C0001322A6094E7002C3FF465AFDAF80400CE
:10456C00C068CAF804008260DAF80020013ACAF880
:10457C0000205A6857E7002C3FF455AFDAF80800D2
:10458C008068CAF80800C260DAF80020013ACAF85C
:10459C0000205A6847E7002CA1D1054A14605460EA
:1045AC0094609CE7380D0020580000200800002083
:1045BC0010000020704700BF0E4B0A2100221A7118
:1045CC0019600D4B01201A710C4A196010B492E855
:1045DC00180000211B1844EB0104012B82E8180081
:1045EC0001D010BC7047002CFBD1054A14605460FC
:1045FC009460F6E72800002020000020080000202E
:10460C00100000200D4B0A221A6000221A710C4A6D
:10461C000120002110B492E818001B1844EB01048F
:10462C00012B82E8180001D010BC7047002CFBD184
:10463C00044A146054609460F6E700BF3000002018
:10464C0008000020100000202DE9F045D74B012276
:10465C009BB01A7000231793D54B186844682346F7
:10466C00002C00F07C816268272A08D8182A06D012
:10467C00DB68002B00F073815A68272AF6D9183AA8
:10468C005A60C268183AC2605A688AB9016801292E
:10469C0000F076819D68002D00F06581DC68002CAF
:1046AC0000F07381EC60DA680139016095605A683A
:1046BC001B6818219D189950043502232B70013367
:1046CC006B7005336B604BF22003C4F20D03EB608F
:1046DC0000224BF220432A61C4F20D031968042016
:1046EC0021F0080119600123AB604BF20043C4F2C6
:1046FC000D03196841F00801196029786B780431B1
:10470C0003EBC10144F20003C4F20D0343F8210092
:10471C00297849F21C430903C4F20D03CB186968CC
:10472C0019602978D5F804C00803C9000CFA01F106
:10473C0049F21873C4F20D03C318186820EA01017A
:10474C0019602B69002B00F02F8129786B78994F19
:10475C0003EBC10347F82350284617A916AB169252
:10476C0003F01EFD1BAC44F8045D204600F0E0FE97
:10477C0044F240220023C0F20F0214A814921593A5
:10478C0009AE02F033FE8C4800F01CFD01AD304642
:10479C0001F08CFC32462146284601F0E3FB28460A
:1047AC0000F076FF42F22803C4F20D031A681621BA
:1047BC0042F002021A6042F22C03C4F20D031A6892
:1047CC004FF0FF3A42F002021A6042F23003C4F298
:1047DC000D031A684DF2240042F002021A6044F2F2
:1047EC005C03C4F20D0302221A6044F2DC03C4F22F
:1047FC000D0306321A6044F2D8030022C4F20D03F2
:10480C001A6044F20813C4F20D0319604BF22043F2
:10481C00C4F20D031968C4F2000041F0C001196024
:10482C004DF23003C4F2000319684FF0D00C21F0A4
:10483C00010119604DF24401C4F20001C1F800A05D
:10484C004DF23801C4F200010A60C0F800C04DF20C
:10485C002800C4F200004FF03E0CC0F800C04DF22E
:10486C002C000CF1320CC4F20000C0F800C0302057
:10487C0008601968DFF8448141F4407141F001018E
:10488C0019604DF20001C4F20001C8F8001019685B
:10489C00012621F0800119604948C8F80460009293
:1048AC0000F090FC009A474B1896474E1A60474B05
:1048BC0031781A60C3F804A049F210430903C4F21A
:1048CC000D03CB1819687068199221EA0001196060
:1048DC003F4B317833617378304603EBC10347F8B3
:1048EC00236018A919AB03F05BFC3A4800F06AFC92
:1048FC00394A3A4B3A481A60327849F2104312035B
:10490C00C4F20D03D3181968726812AF21EA0201C0
:10491C001960D8F8001010AEC1F844A0196841EA2B
:10492C0002021A6000F04EFC48F280420023C0F2F2
:10493C001E0238461292139302F058FD204600F0E6
:10494C00F7FD40F60012C0F23D02002330461092F3
:10495C00119302F04BFD284601F030F9E4E701F029
:10496C006DFC0025A9E600293FF4A2AED4F80CC0DA
:10497C0001390160C0F804C0CCF808205A6897E6E9
:10498C000260426082605A6892E600293FF490AE61
:10499C00D0F808C00139DCF808C00160C0F808C0C4
:1049AC00CCF80C205A6883E6024FDBE6640000204A
:1049BC0058000020E8010020E89220009803002015
:1049CC0020932000BC030020C0030020D40300204F
:1049DC00CD4B200038932000F1492000B00300207B
:1049EC006093200070B50546A2B0704800F0EAFB59
:1049FC0029466A466E4801F06BFC22AB181800255C
:104A0C0000F8885C684600F0DDFB0A2368468DF8E8
:104A1C0000308DF8015000F0D5FB664B01221A7066
:104A2C00654B2095186841680B46002900F0BA8048
:104A3C004A68272A08D8182A06D0DB68002B00F011
:104A4C00B1805A68272AF6D9183A5A60C268183ABF
:104A5C00C2605A688AB90468012C00F089809D688C
:104A6C00002D00F08A80D968002900F09080E96060
:104A7C00DA68013C046095605A681B6818219C1820
:104A8C00995004340223237003236370082363605A
:104A9C004BF22003C4F20D03E36000224BF22043DF
:104AAC002261C4F20D031968042021F00801196079
:104ABC000123A3604BF20043C4F20D03196841F0CB
:104ACC000801196021786378043103EBC10144F2C9
:104ADC000003C4F20D0343F82100217849F21C4372
:104AEC000903C4F20D03CB18616819602178D4F85E
:104AFC0004C00803C9000CFA01F149F21873C4F29E
:104B0C000D03C318186820EA01011960236963B109
:104B1C0063782178204603EBC101284B1F9243F8A0
:104B2C00214020A91FAB03F03BFB219418AC20467D
:104B3C0010AE21AD01F0BAFA29462246304601F0FA
:104B4C0011FA4FF000033046ADF86430ADF8663022
:104B5C008DF868308DF8693000F0E6FF28460121A9
:104B6C0000F0AAFC04F10C0002F0F0FC22B070BDC5
:104B7C000260426082605A687FE7002C3FF47DAF90
:104B8C00C968013C046041608A605A6875E7002C72
:104B9C003FF473AF8168013C896804608160CA602E
:104BAC005A686AE701F04AFB00246BE7C4932000C3
:104BBC00300000206400002058000020E801002094
:104BCC002DE9F04FDFF81CA298B0874802F05CFC8E
:104BDC009AF8002049F210431203C4F20D03D318C3
:104BEC001A68DAF80410814D22EA010229681A6069
:104BFC0000238DF8403001F118031A6812F0100FE1
:104C0C00FBD11A6812F0100FFBD1D1F800905FFAAB
:104C1C0089F91A6812F0100FFBD1D1F800B05FFAC5
:104C2C008BFB1F6817F01007FBD144F2412644F2AE
:104C3C003F24DFF8BC81C0F20F06C0F20F041868E5
:104C4C000A4610F0100F2DD018ABDF19002307F80F
:104C5C00203C9DF84180B8F1000F05D19DF8403003
:104C6C00232B6BD03F2B51D0624B09EB0B201B68D5
:104C7C0010A998472A684FF0FF3353649AF8002024
:104C8C0049F210431203C4F20D03D3181968DAF871
:104C9C000420554841EA02021A6002F0EBFB18B0FE
:104CAC00BDE8F08F1E2FCFDC1A6812F0100FFBD16D
:104CBC000A68D2B2B2F17E0118BF0121002A0CBFE2
:104CCC00002001F00100F0B118A8C11901F8202C46
:104CDC0001371A6812F0100F0ED00122196811F06A
:104CEC00100F0DD00132B242F8D14FF0010288F80A
:104CFC000420414800F066FA296801F118039EE788
:104D0C00A242F9DDF1E70029F6D0E2E73B4F386823
:104D1C000028B0D00FDB7B6809EB0B29994518BF35
:104D2C003B4604D14EE09968043389454AD008F1DA
:104D3C0001084045F7DA013838609CE72F4F09EB42
:104D4C000B2939686A46013147F8219039602C48A3
:104D5C0001F0BEFA18AA131803F8608C684600F02C
:104D6C0031FA284800F02EFA3B686E46002B1EDD07
:104D7C0001244FF05D09244800F024FA57F8241060
:104D8C006A461F4801F0A4FA18AB181800F8608C9A
:104D9C00684600F017FA68468DF800908DF801808F
:104DAC0000F010FA3A68234601349A42E3DC0A23F5
:104DBC008DF80030684600238DF8013000F002FABF
:104DCC002A6858E708F1020307EB8303196808F116
:104DDC00010843F8041C04334045F7DA0138386005
:104DEC0049E700BFC0030020A00300209803002067
:104DFC0038000020B003002074932000D40300205E
:104E0C00B4030020A0932000B093200030B501F033
:104E1C004FFBB3494B68002B00F04B815A6846F2AC
:104E2C000300824209D8B2F5C04F06D0DB68002BD4
:104E3C0000F03F815A688242F5D9A2F5C0425A600F
:104E4C00CA68A748A2F5C042CA605A6892B90468F9
:104E5C00012C00F0E3809968002900F01281DD68D4
:104E6C00002D00F01A81CD60DA6891600268013A79
:104E7C0002605A681968DFF86CC200238C18CCF8F1
:104E8C000030CCF80430CCF80830CCF80C304BD0D7
:104E9C004FF4C0408C506060A360E360DCF80C30D1
:104EAC001B18CCF80C30DCF8043051F802E06068C8
:104EBC00002B00F094801D687044A8420CBF1A4669
:104ECC001A4604D0D26812B111688842FAD15968D6
:104EDC006D18AE4507D0DB68002B7FD01868596879
:104EEC0041188E45F7D119461346C3B160685A680C
:104EFC0082186260DCF80000012800F087809A6854
:104F0C00002A00F09080DD68002D00F09B80D560B9
:104F1C00DB689A60DCF80030013BCCF8003019B14A
:104F2C004A686368D3184B606F4BC3F800C001F03C
:104F3C004DFC01F0C7FD6D4B93E8300043F2480384
:104F4C00C4F20303186849F20043C4F20D031A6853
:104F5C0022F020021A6044F29403C4F20D030122E1
:104F6C001A6047F20803B522C4F20D031A6047F227
:104F7C000002C4F20D02136813F0800FFBD047F24D
:104F8C001003C4F20D03D3F800C047F20C03C4F2B3
:104F9C000D031B68002144F66D6243EA0C2CC4F22D
:104FAC00C6120B1803FB02F303F540533933B3F16C
:104FBC00FF3F28BF01334E4A4CF30B1C8CEA030312
:104FCC0013604C4A012092E8180000211B1844EB96
:104FDC000104012B82E8180011D030BD1346DCF817
:104FEC00001000293DD1A160E160DCF80020CCF874
:104FFC0004400132CCF80840CCF8002075E7002CB6
:10500C00EBD13D4A146054609460E6E70023CCF881
:10501C000430CCF80830CCF8003080E74260826075
:10502C0002605A6826E700283FF479AFDCF80430B8
:10503C00DB68CCF804309A60DCF80030013BCCF82B
:10504C0000306CE700283FF46AAFDCF808309B684E
:10505C00CCF80830DD60DCF80030013BCCF80030D7
:10506C005DE7DCF808200021D460DCF80820E16062
:10507C00A260DCF80020CCF808400132CCF800200B
:10508C0033E7002C3FF4F6AE4168C96841608A6092
:10509C000268013A02605A68ECE6002C3FF4EAAE72
:1050AC00816889688160CA600268013A02605A6846
:1050BC00E0E6124C01232371114800F083F81148EB
:1050CC0000F080F8DFF81CC00A2323600023CCF822
:1050DC000030CCF80430CCF80830CCF80C3023E796
:1050EC00380D00204800002058000020480D0020FA
:1050FC00680000200800002010000020380000206C
:10510C00D09320001C93200010B501F0CBFA104A6C
:10511C00002313600F4A0A2113600F4A01201371F8
:10512C0011600E4A116013710D4A002192E81800AB
:10513C001B1844EB0104012B82E8180000D010BDB1
:10514C00002CFCD1074A146054609460F7E700BF50
:10515C00B0010020AC0100204000002038000020ED
:10516C0008000020100000200C4B00221A605A602E
:10517C000B4A0120002110B492E818001B1844EBD4
:10518C000104012B82E8180001D010BC7047002CE0
:10519C00FBD1044A146054609460F6E75C00002074
:1051AC00080000201000002000B5004602F034FE7C
:1051BC0000BD00BF00B502F02FFE00BD00B503F02E
:1051CC00B5FA00BD2DE9F045002507467C5D1C4E67
:1051DC00AA46DFF8708084B1092C29D00A2C18D08B
:1051EC00336820460133336003F034FB33684F2BB4
:1051FC0005DC01357C5D002CEED1BDE8F0850D2081
:10520C0003F028FB0A2003F025FB0135C6F800A0AB
:10521C00F0E70D2003F01EFB204603F01BFBD8F833
:10522C000030C6F800A00133C8F800300135E1E7C2
:10523C00204603F00FFB3368013508333360D9E7A0
:10524C00AC010020B001002010B549F2E83040F26A
:10525C0038040123C2F20004C0F220002371FFF7CE
:10526C00B1FF49F21C30C0F22000FFF7ABFF0A235C
:10527C00236010BD0A4A0120002110B492E81800E6
:10528C001B1844EB0104012B82E8180001D010BC60
:10529C007047002CFBD1034A146054609460F6E70D
:1052AC00080000201000002030B590B06A4604467B
:1052BC0001F00EF810AB1818002300F8403C6846BB
:1052CC00FFF780FF6D46204610B030BD00B5344B63
:1052DC0083B01B78D3B90A2201928DF808300E28BE
:1052EC0014D8DFE800F05A56524E423634302C08AF
:1052FC002824201915002B480091FFF763FF01A803
:10530C000099FFF7D1FF2848FFF75CFF03B000BD01
:10531C002648FFF757FFF9E701A8FFF7C5FF244818
:10532C00FFF750FFF2E72348FFF74CFFEEE7224868
:10533C00FFF748FFEAE72148FFF744FFE6E720487C
:10534C00FFF740FFE2E71F48FFF73CFFDEE71E4890
:10535C00D2E71E480091FFF735FF01A80099FFF72F
:10536C00A3FF1B48FFF72EFFD0E71A480091FFF769
:10537C0029FF01A80099FFF797FF1748FFF722FFB5
:10538C00C4E71648FFF71EFFC0E71548FFF71AFFE2
:10539C00BCE71448FFF716FFB8E71348ACE700BFAB
:1053AC0064000020349420001C93200038962000C8
:1053BC0004962000DC952000AC95200084952000FC
:1053CC006C952000449420005895200018952000DE
:1053DC001C952000EC942000F0942000D494200024
:1053EC009894200058942000149420002DE9F04F3C
:1053FC00044684B00D46904600295AD000273E46FC
:10540C000DF10809EA46BB4618E0DB68FF221A607A
:10541C004846CDF80880039701F0E8FF23689A68A6
:10542C00022A2BD0DB686846C3F800B00136CDF8F1
:10543C000080019701F0DAFFB5423AD923689A68E7
:10544C00022AE2D1197849F200420903C4F20D0292
:10545C008A1810685968DB6808431060FF201860D0
:10546C001368484623EA01011160CDF808800397C0
:10547C0001F0BCFF23689A68022AD3D1197849F24B
:10548C0000420903C4F20D028A1810685968DB68DF
:10549C0008431060C3F800B01368684623EA0101A2
:1054AC0011600136CDF80080019701F09FFFB542E5
:1054BC00C4D804B0BDE8F08F1C4B70B51C78064600
:1054CC000D469CB9012912D040F640520521C0F27C
:1054DC000302FFF78BFF08202146FFF7F7FE336826
:1054EC009A68022A0FD0DB68FF221A6070BD40F662
:1054FC0040520221C0F20302FFF778FF0620294632
:10550C00FFF7E4FEF2E7197849F200420903C4F20E
:10551C000D028A1810685968DB6808431060FF2078
:10552C001860136823EA01011160DFE764000020B2
:10553C00094B00B51B783BB149F2E0320321C0F2B4
:10554C000402FFF753FF00BD48F2A0621E21C0F217
:10555C000102FFF74BFFF6E76400002084B070B443
:10556C0003AC84E80F00079B0898022B059E049C53
:10557C00039D069901D80C33013940F23752CFF60E
:10558C00F572821840F26D1000FB012048F21F5C8E
:10559C00C5F2EB1C00EB9100ACFB012100EBD11030
:1055AC004FEA430C00EB4310CCEB000001334CF6FC
:1055BC00CD4C03EB4303CCF6CC4CA0EB5111ACFB24
:1055CC000320A300A401E41A4FF4616303FB064417
:1055DC0045F2801201EB9000C0F20102641902FB4B
:1055EC00004070BC04B0704700B540F2E57388B061
:1055FC000593012306930793002304930B23039332
:10560C001623029306AB93E803006B4683E8030072
:10561C0002AB0FCBFFF7A2FF08B000BD0A4A012076
:10562C00002110B492E818001B1844EB0104012B64
:10563C0082E8180001D010BC7047002CFBD1034A43
:10564C00146054609460F6E70800002010000020FD
:10565C0010B549F2886082B0C0F22000FFF7B2FDAD
:10566C0000210720FFF732FE48F28043C0F21E03F0
:10567C0002A8002420E91800684601F0B7FE49F2A0
:10568C00A060C0F22000FFF79DFD012002B010BD0C
:10569C0010B544F2402282B00446C0F20F0202A8B8
:1056AC00002320E90C00684601F0A0FE2046FFF71D
:1056BC00CFFF10B1024B01221A70002002B010BDB6
:1056CC00650000202DE9F04F4FF2FF7300F5141820
:1056DC000746C0F2270302EB08009EB098420391E4
:1056EC009246089000F2858118F0030F40F0C681B5
:1056FC00089807F5A023A0F50012013AD20ADB0A9C
:10570C009342099200F26F8103F58062511CC90229
:10571C00FD4C069103F500616118D20243F2080AB0
:10572C00059102920793C4F20D0A40F2FF76069B94
:10573C00089ADDF814C09A4294BFC8EB0202C8EB79
:10574C00030207999CF800300131072B0791019255
:10575C0000F2B180032A40F243810398D8F800206C
:10576C0003681A40934240F0A68003994346019A7D
:10577C00C8EB010C06E05CF8031018680840814285
:10578C0040F09980043A0433032AF4D81B681C9324
:10579C00BAB1DDF80CC09DF870109CF800301CAD4F
:1057AC0001EA03038B4240F08680002306E0E95CAB
:1057BC001CF8030001EA000088427CD101339342BB
:1057CC00F5D358231B681D93DAF8003013F0800FC3
:1057DC00FAD1019810F0030902BF00EB08010B91FC
:1057EC00834631D1BBF1000F14D0002708F1040C13
:1057FC000097C146CDF810B0CDF828C00398009999
:10580C001D9B00EB810528464946049A984708B928
:10581C005F4536D3DDF82C800599069A0B780798EE
:10582C00013301F8013B0591029B099902F50062D5
:10583C0003F5006388420692029300F2D480039A27
:10584C00019BD218039272E7019A1EAD4244C9EB38
:10585C0002073B680B9245F8083D284603994A46D7
:10586C0000F072FD1D9B284639464A469847002891
:10587C00D0D13A681C9B9A42F4D1019B23F0030BC4
:10588C00B0E7D9F800302A689A42B7D10A9AD319EE
:10589C000437BB45BED9DDF80CC0BA0853F8041B5D
:1058AC005CF822008842F3D0C7EB0B00009207EBA8
:1058BC0008090490A2E7029A424503D1089B069876
:1058CC00834212D0029A002352F8041BE150043395
:1058DC0040F2FC718B42F7D1029A40F2144CD2F890
:1058EC00FC37C2F2000CCCF8FC3754231B681D9318
:1058FC00DAF8005015F08005FAD1029F4FF40069D8
:10590C0007F1040B1D9B38464946984708B9B54228
:10591C002BD9029A0599C2EB0800002320F0030052
:10592C000B7020180399019A00F00EFD58231B6888
:10593C001D93DAF8007017F08007FAD1DDF80890A3
:10594C004FF4006348460430BB46009304904FEA82
:10595C008B051D9B60194946009A984700283CD13D
:10596C00B74216D9019A904456E73B68B3F1FF3F12
:10597C0008BF0BEB0503C5D10435B542C9D853F8A4
:10598C00042BB2F1FF3FF7D00298C5F50069471917
:10599C00B8E7D9F8003062599A42D8D10498C319A3
:1059AC000437B74202D9019B984435E74FEA970B6D
:1059BC0053F8042B54F82B109142F1D00299C7F5EF
:1059CC00006201EB070900924FEA8B051D9B6019E1
:1059DC004946009A98470028C2D0019988441BE791
:1059EC004346019AD2E6A8F5141738461EB0BDE816
:1059FC00F08F464C012323714548FFF7E3FB0CADB8
:105A0C0010232A46414623602046002300F01AFC4E
:105A1C001EA90B18002603F8486C2846FFF7D2FB8A
:105A2C003C48FFF7CFFB03992A46204600F05CFC6C
:105A3C001EAA131803F8486C2846FFF7C3FB4FF057
:105A4C000A083548FFF7BEFB51462A463346C4F8D0
:105A5C000080204600F0F6FB0DF1780C0CEB0003F7
:105A6C0003F8486C2846FFF7ADFB2C48FFF7AAFB60
:105A7C002B48FFF7A7FBC4F80080B6E7234C0123A3
:105A8C0023712348FFF79EFB0CAD10232A46414699
:105A9C0023602046002300F0D5FB1EA90B1800261E
:105AAC0003F8486C2846FFF78DFB1A48FFF78AFB72
:105ABC0003992A46204600F017FC1EAA131803F877
:105ACC00486C2846FFF77EFB4FF00A081248FFF798
:105ADC0079FB51462A463346C4F80080204600F034
:105AEC00B1FB0DF1780C0CEB000303F8486C284665
:105AFC00FFF768FB0B48FFF765FB0948FFF762FBF4
:105B0C00C4F8008071E700BF1404002038000020A6
:105B1C00B4962000D4962000D8962000DC96200065
:105B2C001C9320001C97200030B5002384B0044641
:105B3C001F488DF80F30FFF745FB2046FFF754FD4B
:105B4C00E36969461860184600F09CFAE06900F0B9
:105B5C00BBFA626942F6A8239A426D4623D02169AA
:105B6C00521840F23101D008C3F20301A1FB00C16D
:105B7C00090A03FB112303EB4303980000F50030E3
:105B8C0069460C221830FFF79DFD63690948013303
:105B9C006361FFF717FB4FF4003021461822FFF723
:105BAC0091FD04B030BD0448FFF70CFBF9E700BFD2
:105BBC005497200068972000849720002DE9F04F1F
:105BCC00A0B04FF00A0A00AFC7F870A043694FF0BD
:105BDC00000B5B45064687F874B040F30B81C7F8A1
:105BEC0008D0FAB0282BA8BF282305226846D24932
:105BFC00FB6100F0A9FBF869E846584540F3988131
:105C0C0040F231000DF105010DF109020DF10D030A
:105C1C00C3F20300F9607A613B616D464FF0050CED
:105C2C0007F1700907F13004B861B246BBF1000FFF
:105C3C0040F0E580DAF81430DBB1DAF81030B969ED
:105C4C00DA08A1FB021242F6A820120A00FB12335A
:105C5C0003EB43039B0003F51C1318331A4652F84D
:105C6C00041BF86801605B6879690B6053683A69DA
:105C7C00136000264146042207F17800C7F800C0E3
:105C8C0000F0D8FB87F87C6098F8071098F806307D
:105C9C00090441EA032198F8053098F80A201943C1
:105CAC0098F8083041EA036198F8093043EA022376
:105CBC003B6298F80C2098F80B3043EA02237B6285
:105CCC0098F80D30BB6298F80E007960F8629B482A
:105CDC00FFF778FA07F17800FFF774FA9848FFF7A6
:105CEC0071FA224633467968484600F0ABFA07F160
:105CFC008001081800F8506C2046FFF763FA9148B1
:105D0C00FFF760FA396A33462246484600F09AFAA1
:105D1C0007F18002101800F8506C2046FFF752FA79
:105D2C008948FFF74FFA796A22463346484600F015
:105D3C0089FA07F18003181800F8506C2046FFF719
:105D4C0041FA8248FFF73EFA22463346B96A484682
:105D5C0000F078FA07F18001081800F8506C204622
:105D6C00FFF730FA7A48FFF72DFA3346F96A2246E4
:105D7C00484600F067FA07F18002101800F8506CE2
:105D8C002046FFF71FFA7348FFF71CFA0A23D7F8CF
:105D9C0000C03B67FB690BF1010B0A359B450CF10D
:105DAC000A0CFFF643AF6C485646FFF70BFA40F26D
:105DBC003105D7F81CA00024C3F2030542F6A8282D
:105DCC00336901340133DA08A5FB0202120A08FB1D
:105DDC001233336173696148013B7361FFF7F2F968
:105DEC0018224FF400303146FFF76CFC5445E7DBCA
:105DFC00D7F808D007F18007BD46BDE8F08FDAF878
:105E0C0014305B451CD9DAF81030B8695B44DA08F9
:105E1C00A0FB020242F6A820120A00FB123303EB8D
:105E2C0043039B0003F51C1318331A4652F8040B5A
:105E3C0008EB0C0148F80C005B684B6053688B60F6
:105E4C00EE79AB79360446EA03266B79AA7A1E43BF
:105E5C002B7A434846EA03666B7A43EA02233B6299
:105E6C002A7BEB7A43EA02237B62697BB962AA7BC9
:105E7C00C7F800C0FA62FFF7A5F9314622460023A5
:105E8C00484600F0DFF907F180030026181800F8E7
:105E9C00506C2046FFF796F92A48FFF793F92246F3
:105EAC003346396A484600F0CDF907F180010818ED
:105EBC0000F8506C2046FFF785F92348FFF782F96C
:105ECC00796A33462246484600F0BCF907F1800255
:105EDC00101800F8506C2046FFF774F91B48FFF7B8
:105EEC0071F9B96A22463346484600F0ABF907F11E
:105EFC008003181800F8506C2046FFF763F914481B
:105F0C00FFF760F922463346F96A484600F09AF9E1
:105F1C0007F18001081800F8506C2046FFF752F981
:105F2C000C48FFF74FF90A223A67D7F800C031E75F
:105F3C000948FFF747F95BE7A8972000B0972000C6
:105F4C00C0972000D0972000DC972000E497200019
:105F5C00EC9720001C9320000898200068972000E4
:105F6C00F8972000F0B500230361436190B00E4612
:105F7C0015462D491022044600F0E6F92B48FFF790
:105F8C0021F940F214004FF41C13C0F22700E21860
:105F9C0019680433A2F51C1283421160F7D11F68F3
:105FAC0021486761214600F01BFA002839D122698B
:105FBC0042F6A8239A4201D89F422ED91C48FFF7DB
:105FCC0001F91C48FFF7FEF817491022204600F093
:105FDC00BBF90023184823616361FFF7F3F84FF412
:105FEC00003021461822FFF76DFBA661E5611348CE
:105FFC00FFF7E8F861696A46114800F069F910ABDF
:10600C001818002300F8403C6846FFF7DBF80D48F1
:10601C006C46FFF7D7F810B0F0BD0B48FFF7D2F87D
:10602C00E3E70A48CBE700BF189820002898200027
:10603C00789820006098200068972000C098200075
:10604C00400000201C9320009C9820003C982000CD
:10605C000A4A0120002110B492E818001B1844EBE6
:10606C000104012B82E8180001D010BC7047002CF1
:10607C00FBD1034A146054609460F6E708000020DA
:10608C0010000020F0B500F10C050F4606460A245E
:10609C00284601F047FA31462246384600F054F9BA
:1060AC00284601F02BFA2046F0BD00BF10B50121A7
:1060BC00044600F10C0001F001FA0022234643F8DB
:1060CC00042B62609A8010BD2DE9F045824649F29E
:1060DC001C3649F6D00092B000244FF00A08C0F2EA
:1060EC002006C0F22000CDF840808DF84440FFF728
:1060FC0069F83046FFF766F812AF49F6DC0047F84E
:10610C00088DC0F22000FFF75DF8BAF804106A465B
:10611C002346384600F096F812AB181800F8484C95
:10612C006846FFF74FF83046FFF74CF849F6E400A5
:10613C00C0F22000CDF84080FFF744F8BAF8061002
:10614C006A462346384600F07DF812AB181800F862
:10615C00484C6846FFF736F83046FFF733F849F6F7
:10616C00EC00C0F22000CDF84080FFF72BF89AF835
:10617C0008106A462346384600F064F812AB18182B
:10618C0000F8484C6846FFF71DF83046FFF71AF840
:10619C0049F6F400C0F22000CDF84080FFF712F869
:1061AC009AF809106A462346384600F04BF812ABB1
:1061BC00181800F8484C6846FFF704F83046FFF70B
:1061CC0001F849F6FC00C0F22000CDF84080FEF743
:1061DC00F9FFDAF800106A462346384600F032F828
:1061EC0012AB181800F8484C6846FEF7EBFF304627
:1061FC00FEF7E8FF30466D46CDF84080FEF7E2FF33
:10620C0012B0BDE8F08500BF0A4A0120002110B48D
:10621C0092E818001B1844EB0104012B82E81800CB
:10622C0001D010BC7047002CFBD1034A14605460A1
:10623C009460F6E7080000201000002000B5FEF77F
:10624C00BDFF00BD70B400293BD0B1F5807F1BD9D8
:10625C00D0F800C0BCF1080F14BF00240124BCF11D
:10626C00100F08BF44F0010484B14FF0300C02F859
:10627C0003C0D0F800C00133BCF1100F06D14FF0B1
:10628C00780C02F803C00133D0F800C00C465D1C3A
:10629C00B4FBFCF41E462B46002CF8D10B4C921987
:1062AC00B1FBFCF30CFB131C14F80C3002F8013995
:1062BC00D0F800C0B1FBFCF10029F1D1284670BC2C
:1062CC0070473021D154581CF9E700BF08992000C1
:1062DC00002900B503DB0023FFF7B4FF00BD2D231D
:1062EC00137049420123F7E7302310B41370084CA4
:1062FC0078235370072301F00F0C14F80CC0D0183E
:10630C000909013B80F802C0F5D20A2010BC704785
:10631C00089920000A4A0120002110B492E81800C4
:10632C001B1844EB0104012B82E8180001D010BCAF
:10633C007047002CFBD1034A146054609460F6E75C
:10634C0008000020100000200F2A30B405460C462F
:10635C0042D941EA000313F0030F02BF14468C46E6
:10636C00034609D0002314F803C005F803C0013319
:10637C009A42F8D130BC7047DCF80050103C1D60DC
:10638C00DCF804505D60DCF808509D60DCF80C50C3
:10639C000CF1100CDD6010330F2CEDD8A2F11004B1
:1063AC0004F00F0224F00F04103405190C19032A01
:1063BC0012D9002354F803C045F803C00433C3EBCF
:1063CC00020CBCF1030FF5D8043A22F0030304339A
:1063DC00ED18E41802F00302002AC3D1CAE700BF8B
:1063EC0041EA000313F0030F03D103680A689342D8
:1063FC000CD002789AB10B789A4212D0D01A70470E
:10640C0050F8043F51F8042F9342F2D1A3F101321A
:10641C0022EA030313F0803FF2D00020EFE70B7861
:10642C00ECE742780131002AF9D00B7801309A421E
:10643C00E4D1F6E741EA000313F0030F14BF002385
:10644C000123032A94BF002303F0010310B4002B93
:10645C002CD00346D1F800C0ACF1013424EA0C0472
:10646C0014F0803F1BD0C2B10C789C46013A0CF85A
:10647C00014B54B1023382B111F8014F9C4603F821
:10648C00014C013A0133002CF5D132B100231946ED
:10649C000CF8031001339A42FAD110BC7047043A3D
:1064AC000431032A43F804CBDDD9D3E70346DAE7FA
:1064BC0000B500F003F800F095F800BDDFF81CC142
:1064CC0047F2F832C2F20002CCEB020270B4002A9E
:1064DC004AD00023424DCCF800C0CCF80420CCF8B4
:1064EC000830CCF80C30EB686446D318EB606B6862
:1064FC00002B3CD01E680CEB8200B0420CBF1A463D
:10650C001A4604D0D26812B111688842FAD159687F
:10651C0006EB8106B44208D0DB68002B26D0586805
:10652C00196801EB80018C42F6D119461346ABB1C8
:10653C00DCF804005A688218CCF804202C68284A2D
:10654C00012C23D09868002825D0DD68002D3AD086
:10655C00C560DB6898601368013B136021B14A6821
:10656C00DCF80430D3184B6070BC704713462A68B3
:10657C001B48D2B90121CCF80820CCF80C200160C2
:10658C00C0F804C0C0F808C01146D0E7002353601F
:10659C0093601360E2E7002CE0D05368DB68536033
:1065AC0098601368013B1360D8E781680132C1F829
:1065BC000CC08168CCF808100021CCF80C10C0F885
:1065CC0008C00260B3E7002CC8D093689B68936046
:1065DC00DD601368013B1360C0E700BF500D002065
:1065EC00380D002043F20C03C4F203031A68122086
:1065FC0022F001021A6042F20802C4F20D02116884
:10660C0041F00801116042F20C02C4F20D02116853
:10661C0041F00801116042F21002C4F20D0211683F
:10662C0041F00801116043F200020021C4F20302A0
:10663C00116043F20402C4F20302106043F2280218
:10664C00C4F203024FF0FF30106043F23802C4F280
:10665C000302116043F21802C4F20302116841F004
:10666C00010111601A6842F001021A60704700BF04
:10667C000A4A0120002110B492E818001B1844EBC0
:10668C000104012B82E8180001D010BC7047002CCB
:10669C00FBD1034A146054609460F6E708000020B4
:1066AC00100000204CF22043C4F20D031A6822F0B3
:1066BC00C0021A604CF20043C4F20D031A6822F0B7
:1066CC00C0021A6044F2F8030122C4F20D031A60EE
:1066DC0044F2FC03C4F20D031A6042F20002C4F24D
:1066EC000D0211684FF6F873CFF6DC6301EA030371
:1066FC0043F4081342F204011360C4F20D010A685A
:10670C0040F20003C0F2011302EA0303002BF6D19E
:10671C0042F20003C4F20D031A6822F4E0621A601C
:10672C0042F20402C4F20D02136813F0806FFBD026
:10673C00704700BF4EF61453CEF200031A6842F0B5
:10674C0001021A6042F29803C4F20D031A6842F077
:10675C0001021A604EF60853CEF200034FF40112F8
:10676C001A6070470A4A0120002110B492E8180000
:10677C001B1844EB0104012B82E8180001D010BC5B
:10678C007047002CFBD1034A146054609460F6E708
:10679C0008000020100000200A4A0120002110B43B
:1067AC0092E818001B1844EB0104012B82E8180036
:1067BC0001D010BC7047002CFBD1034A146054600C
:1067CC009460F6E7080000201000002000B5FFF7E9
:1067DC00B1FF00F077FB00F02DF800F0C9F800F0E5
:1067EC0003F800F0ABF900BD044B082203F58071EF
:1067FC0083F8002801338B42FAD17047140400202F
:10680C000A4A0120002110B492E818001B1844EB2E
:10681C000104012B82E8180001D010BC7047002C39
:10682C00FBD1034A146054609460F6E70800002022
:10683C00100000204EF210034EF21802CEF20003AC
:10684C000021CEF20002196011604EF21402CEF259
:10685C0000024FF4FA41116006221A6048F2F971F5
:10686C0040F29822C2F20002C0F22001D1631A68F1
:10687C0042F001021A6070470A4A0120002110B44C
:10688C0092E818001B1844EB0104012B82E8180055
:10689C0001D010BC7047002CFBD1034A146054602B
:1068AC009460F6E7080000201000002040F272030C
:1068BC000022C2F200031A7040F27103C2F200030C
:1068CC001A7040F26C03C2F200030221196040F608
:1068DC002853C2F200031A6040F63453C2F200038C
:1068EC0049F2380C1A60C4F2080C032349F2400038
:1068FC0049F24C01CCF8003030B4C4F20800042446
:10690C00C4F2080149F244030460C4F208030A60AB
:10691C001D6845F040051D601D6845F008051D60AB
:10692C001D6845F008051D602023CCF8004002606E
:10693C000B6049F25003C4F208031A6842F080025B
:10694C001A601A6842F010021A6049F21C03C4F271
:10695C00080301221A6049F22403C4F208031A60E6
:10696C0049F22C03C4F208031C6030BC704700BF12
:10697C004BF22043C4F20D031A682DE9F04822F0C3
:10698C0004021A604BF20043C4F20D031A6842F081
:10699C0004021A604BF21003C4F20D03FF221A60BA
:1069AC0049F23C02C4F20802136843F0010313607D
:1069BC00136843F002031360136813F0800FFBD0CD
:1069CC0049F20403C4F208031A6822F001021A60A7
:1069DC00FFF76CFF1D4B01221A601D4A1D4BC3F8BB
:1069EC00F0204EF20413CEF200034FF480521A60E2
:1069FC00EFF31087FFB207B162B6174843F24806AF
:106A0C00C4F2030690E80018316800225B4612EBD2
:106A1C00010B49F20002C0F2D03243F1000C00230A
:106A2C001BEB020B4CEB030C90E80C0031680024C0
:106A3C001546621845F100039C45F5D801D19345E4
:106A4C00F2D807B162B6BDE8F08800BF6C00002038
:106A5C00F989200098020020480D00200A4A0120E4
:106A6C00002110B492E818001B1844EB0104012B10
:106A7C0082E8180001D010BC7047002CFBD1034AEF
:106A8C00146054609460F6E70800002010000020A9
:106A9C000A4A0120002110B492E818001B1844EB9C
:106AAC000104012B82E8180001D010BC7047002CA7
:106ABC00FBD1034A146054609460F6E70800002090
:106ACC001000002000B500F089FA00F001F800BDBC
:106ADC00704700BF0A4A0120002110B492E8180048
:106AEC001B1844EB0104012B82E8180001D010BCE8
:106AFC007047002CFBD1034A146054609460F6E795
:106B0C0008000020100000200A4A0120002110B4C7
:106B1C0092E818001B1844EB0104012B82E81800C2
:106B2C0001D010BC7047002CFBD1034A1460546098
:106B3C009460F6E7080000201000002070B582B0C9
:106B4C00944D00232868019341680B46002900F0FE
:106B5C001C814A68272A08D8182A06D0DB68002B23
:106B6C0000F013815A68272AF6D9183A5A60C2687D
:106B7C00183AC2605A688AB90468012C00F0B380D4
:106B8C009E68002E00F0D580D968002900F0E480C2
:106B9C00F160DA68013C046096605A681B68182141
:106BAC009C189950043403236370082363604AF2E1
:106BBC002003C4F20D03E360012100224AF22043BA
:106BCC0021702261C4F20D03186820F008001860CF
:106BDC004AF20043A160C4F20D031968042041F08D
:106BEC000801196021786378043103EBC10144F288
:106BFC000003C4F20D0343F82100217849F21C4331
:106C0C000903C4F20D03CB18616819602178D4F81C
:106C1C0004C00803C9000CFA01F149F21873C4F25C
:106C2C000D03C318186820EA01011960236963B1C8
:106C3C0063782178204603EBC101574B009243F84F
:106C4C00214001A96B4601F0ABFA544EF460286860
:106C5C0041680B46002900F094804A681F2A08D826
:106C6C00102A06D0DB68002B00F08B805A681F2A94
:106C7C00F6D9103A5A60C268103AC2605A6872B9B2
:106C8C000468012C34D09D68002D5CD0D968002993
:106C9C006DD0E960DA68013C046095605A681B6845
:106CAC001020991898500A1D052313600223536075
:106CBC000323936049F20043C4F20D03196821F0D9
:106CCC002001196044F29403C4F20D0301211960F0
:106CDC00334BDA60F3689A68022A0ED0DB68002224
:106CEC001A6002B070BD0260426082605A6855E75B
:106CFC000260426082605A68D1E7197849F200421A
:106D0C000903C4F20D028A181068596840EA01019F
:106D1C001160DA6800211160197849F20042090308
:106D2C00C4F20D028A1811685B6821EA0303136030
:106D3C00D7E7002C3FF432AFC968013C04604160D6
:106D4C008A605A682AE7002CA9D0C968013C046003
:106D5C0041608A605A68A2E7002C3FF41FAF81683B
:106D6C00013C896804608160CA605A6816E7002C8F
:106D7C0095D08168013C896804608160CA605A685A
:106D8C008DE7FFF75BFA00228EE7FFF757FA002436
:106D9C0009E700BF58000020E8010020680200202D
:106DAC008802002040F64853C2F200034DF804BD9F
:106DBC0093E806004FF0010B11EB0B014FF0000CA8
:106DCC0042EB0C0283E806005DF804BB704700BF81
:106DDC0049F21803C4F208031A6840F61C53C2F2B5
:106DEC000003196841EA02021A6049F20803C4F26E
:106DFC0008031A6840F62053C2F20003196841EAEE
:106E0C0002021A6049F21003C4F208031A6840F631
:106E1C002453C2F20003196841EA02021A60704757
:106E2C0048F60C0340F2E412C4F20803C2F200026A
:106E3C001968106840EA0101116000221A604EF2D4
:106E4C008013CEF200034FF080621A604EF2802362
:106E5C00CEF200031A6070474EF28413CEF2000398
:106E6C0002221A604EF28423CEF200031A6070479D
:106E7C000368232B0DD0252B13D0272B19D0332BA4
:106E8C0001BF43F22403C4F203034FF0FF321A6034
:106E9C00704740F22403C4F203034FF0FF321A6030
:106EAC00F6E741F22403C4F203034FF0FF321A60F9
:106EBC00EEE742F22403C4F203034FF0FF321A60F0
:106ECC00E6E700BF72B64EF280134FF0FF32CEF2FF
:106EDC0000031A604EF28413CEF200031A601B49B1
:106EEC001B4A0023CA500433B3F5807FFAD1002328
:106EFC00DFF860C018464CF803000433B3F5807F0C
:106F0C00144AF8D1144BC2F88C30C2F89430C2F841
:106F1C009C30C2F8CC30114BC2F8A830104BC2F8E0
:106F2C00C430104BC2F8F0300F4B136453649364AD
:106F3C00D3640E4B0822CB600D4BC1F8CC304EF213
:106F4C000413CEF200031A60704700BF98020020B1
:106F5C008D842000740000207D6E2000656E200062
:106F6C002D6E2000DD6D200025812000C5842000C1
:106F7C00B16D20000A4A0120002110B492E81800DB
:106F8C001B1844EB0104012B82E8180001D010BC43
:106F9C007047002CFBD1034A146054609460F6E7F0
:106FAC0008000020100000200A4A0120002110B423
:106FBC0092E818001B1844EB0104012B82E818001E
:106FCC0001D010BC7047002CFBD1034A14605460F4
:106FDC009460F6E7080000201000002010B5314B3B
:106FEC00186841680B46002957D04A68272A07D8E9
:106FFC00182A05D0DB68002B4FD05A68272AF7D9FE
:10700C00183A5A60C268183AC2605A6892B9D0F8F5
:10701C0000C0BCF1010F1FD09C68002C24D0D96893
:10702C0000292DD0E160DA680CF1FF3CC0F800C0FB
:10703C0094605A68196818208B18885004331A49C0
:10704C000122196119491A605A601A72486840B1D4
:10705C00DA60174A136010BD0260426082605A68A1
:10706C00E8E74B605A68F3E7BCF1000FE2D0C9685F
:10707C000CF1FF3CC0F800C041608A605A68D9E747
:10708C00BCF1000FD6D081680CF1FF3C8968C0F8C8
:10709C0000C08160CA605A68CCE7FFF7CFF80023C4
:1070AC00CDE700BF5800002049712000140D0020CE
:1070BC0078010020014B0360704700BF90992000BD
:1070CC00014B0360704700BF909920000D4B0022CC
:1070DC001A605A609A600C4A0120002110B492E8A0
:1070EC0018001B1844EB0104012B82E8180001D096
:1070FC0010BC7047002CFBD1044A1460546094609F
:10710C00F6E700BF7C0100200800002010000020E2
:10711C0000B5406800F0F2F900BD00BF024B00B5AD
:10712C00036001F0EBFD00BD90992000024B00B50F
:10713C00036001F0E3FD00BD90992000F0B572B63C
:10714C003F4B1A6801321A603E4A13682BB15168E2
:10715C00486801380028486007DD002362B61BB17F
:10716C00986803689B689847F0BD012B3CD0CB68AE
:10717C000020536098601368013B1360CB6823B107
:10718C00D3F804C04868604458600B68D868B0F104
:10719C00FF3F03D00138D8600028DFD0D3F810C0EF
:1071AC002848C1F804C01668002E35D047687C68A2
:1071BC00A445B8BF3D4609DBF868F8B1C4EB0C0C2C
:1071CC00C1F804C044680546A44514DAA868002830
:1071DC0029D0CCEB040C0136C5F804C0C160A96001
:1071EC00CD6088601660B9E7002353609360136824
:1071FC00013B1360C2E7C0680028DFD19068C4EB84
:10720C000C0CC1608860C1F804C00020C86091609B
:10721C00116801311160A1E701228E60CE6002601D
:10722C00416081609AE7CCEB040CC5F804C088601F
:10723C00CF60B96051601168013111608EE700BFF9
:10724C00740100207C01002030B472B6DFF880C0DD
:10725C00DCF80410E9B10B68984218BF0B462BD030
:10726C00DB68B3B11A689042FAD1DCF80000184C14
:10727C00012811D09D68002D20D0DA6892B1EA6007
:10728C00DA680138956020601AB151685B68CB18D8
:10729C00536062B630BC704700226260A26022600C
:1072AC00DA68F1E70028F4D0A16801388968206019
:1072BC00A160CA60DA68E7E70B46D6E708B9DA6876
:1072CC00E2E7CA680138626020609560DA68DBE743
:1072DC007C010020C360434BF0B591E8C0001B68F3
:1072EC0004465B68A26015464FF47A72B2FBF3F267
:1072FC0044F24023C0F20F0380E8C000B3FBF2F26B
:10730C0012464FF000035F084FEA320603C93618E5
:10731C0047EB01073046394601F06EFD0023206132
:10732C006461A061E361236272B628B962B62B680E
:10733C0028469B689847F0BDDFF8ACC004F11401F7
:10734C00DCF80060002E33D0DCF804707A689042D0
:10735C00B8BF3D461BDBFB6843B1801A48605A68D6
:10736C001D46904220DAA069824210DCDCF808301D
:10737C00821AD960A261E36100232362DCF8003039
:10738C00CCF808100133CCF8003062B6D3E7AB6808
:10739C00CBB1121A01366A60D960A9602562E3612B
:1073AC00CCF8006062B6C6E7DB68002BD5D1DAE713
:1073BC000123E6612662CCF80030CCF80410CCF83E
:1073CC00081062B6B7E7121A6A60E361DCF80030A5
:1073DC0027620133B960CCF80030CCF8041062B6E7
:1073EC00A9E700BF780100207C01002070B58FB0A8
:1073FC0009AC06460021204600F060F80B4B3146E4
:10740C000DAA0D93684601230E94FFF763FF2046E7
:10741C0000F088F86846FFF717FF054B20466D46CD
:10742C000D9300F093F80FB070BD00BF7C99200055
:10743C0090992000002303604360836003737047BE
:10744C000A4A0120002110B492E818001B1844EBE2
:10745C000104012B82E8180001D010BC7047002CED
:10746C00FBD1034A146054609460F6E708000020D6
:10747C001000002000B572B6036813B9037362B62E
:10748C0000BD00F051FCFBE700B572B64FF0010CEB
:10749C0000F10C01D1E84F2FC1E843CF002BF9D1FB
:1074AC0012F0FF0F01D162B600BD00F0A9F8FBE7A6
:1074BC0000B572B600F04AFB00BD00BF00230360AC
:1074CC0043608360C16070470A4A0120002110B4F8
:1074DC0092E818001B1844EB0104012B82E81800F9
:1074EC0001D010BC7047002CFBD1034A14605460CF
:1074FC009460F6E7080000201000002000B572B67A
:10750C0000F10C0151E8002F02F1010241E80023C7
:10751C00002BF7D1002A01DD62B600BD00F004FC9F
:10752C00FBE700BF00B572B600F10C0151E8002F6B
:10753C00A2F1010241E80023002BF7D1002A01DB64
:10754C0062B600BD00F05CF8FBE700BF00B572B698
:10755C0000F0FCFA00BD00BF0A4A0120002110B463
:10756C0092E818001B1844EB0104012B82E8180068
:10757C0001D010BC7047002CFBD1034A146054603E
:10758C009460F6E708000020100000200F4A00234A
:10759C00D3601360536093600D4A012013605360F5
:1075AC000C4A002110B492E818001B1844EB01049B
:1075BC00012B82E8180001D010BC7047002CFBD1C5
:1075CC00054A146054609460F6E700BF8C010020FB
:1075DC00A00100200800002010000020884200B507
:1075EC0009D003694BB100230B6150F80C3FCB68F9
:1075FC00C96801F059FB62B600BD01230361F2E7D3
:10760C005C492DE9F045CB68CB681A68CB68CB6830
:10761C0002F11C069E4263D00B68012B00F08380A4
:10762C00D46B002C72D0156C002D00F0818065623B
:10763C00D2F840C0013BCCF820400B60D0F8008061
:10764C0003231361B8F1000F25D0D0F804A002F188
:10765C002007DAF80430D2F820C00AF104059C4562
:10766C002EDA5346D5F800E0D2F820C0E6451BDCF4
:10767C00836808F101085E62D36300231364C0F8C9
:10768C0000808660CB685061196810460122FFF7B4
:10769C00A5FFBDE8F0850123C2F83C80C2F840800C
:1076AC00036046608660EDE71C6A002C56D008F13A
:1076BC00010866621E621364D463C0F80080E1E7BF
:1076CC00DAF8243023B9CCE75C6A002CCAD0234604
:1076DC00D3F804E0D7F800C01D1DE645F4DDC1E782
:1076EC000B687BB1012B30D0D1F804C00024DCF83E
:1076FC0024E0013BC1F804E00B60CEF82040C1F857
:10770C000CC09BE79C46C1F80CC097E7002B95D0AA
:10771C00D1F804C0013BDCF824C00B60C1F804C0F4
:10772C00CCF820408AE700234B608B600B6085E728
:10773C00002B83D0D1F808C0013BDCF820C00B60D3
:10774C00C1F808C0CCF8245078E7D1F804C0002365
:10775C004B608B600B60C1F80CC06FE708F101083F
:10776C00D463C2F840A0CAF82060C0F8008046601C
:10777C0088E700BF8C0100202DE9F045044672B665
:10778C00614B6248196804F11C0701311960C36828
:10779C00C368002B64D0D0F80080B8F1000F1FD064
:1077AC00D0F804A004F12006DAF80410236A0AF1D8
:1077BC000405994256DD5346D5F800C0216A8C4524
:1077CC0069DC83685F62E36300232364036887607A
:1077DC00013303604E4B18687AB9A260BDE8F0859E
:1077EC000123C4F83C80C4F8408003604760876084
:1077FC00474B18680AB9F0E7013212F0030FFBD1BE
:10780C00456804320F2A98BF10222B46002D76D0E3
:10781C00696802F1100C8C4507D9914205D0DB68E0
:10782C00002B6CD059686145F7D3891A5960C1682F
:10783C00891AC160596871B90668012E36D09F68E3
:10784C00002F42D0DD68002D4BD0FD60D968013E81
:10785C0006608F6059681B6858185A50021DBCE7A7
:10786C00C760C5E7DAF82430002BA4D0D3F804C0E5
:10787C0031681D1D8C459FDC596A00299CD00B4634
:10788C00D3F804C031681D1D8C45F5DDD5F800C05A
:10789C00216A8C4595DD196A69B108F101084F62BE
:1078AC001F622364E163C0F80080A1E701604160BE
:1078BC0081605968CFE70368E1630133C4F840A0E5
:1078CC00CAF820700360476092E7002EC3D0D5F849
:1078DC000CC0013E0660C0F804C0CCF80810596812
:1078EC00B9E7002EB7D0D0F808C0013EDCF808C0CC
:1078FC000660C0F808C0CCF80C105968ABE7FEF76E
:10790C009DFC002269E700BF9C0100208C01002037
:10791C0058000020F0B572B63D4BDA68DA68106892
:10792C00DA681A68002A3DD059686FF0004CD1F81B
:10793C0004E0E64536D0012AD3F80CE055D0D1F856
:10794C0024C00024013AC3F804C01A60CCF82040CB
:10795C001E682F4AD960002E2AD057680EF10405F4
:10796C007A68DEF804103C1D914243DB7A6A002AE7
:10797C0040D0D2F804C02968141D8C4523DDD4F8FE
:10798C0000C0DEF804108C4522DC9A68C2F824E0B2
:10799C00CEF820200022CEF824201A68C3F808E084
:1079AC0001321A60DB6801221968FFF717FEF0BD7F
:1079BC000121CEF82060CEF824601160C2F804E0FA
:1079CC00C2F808E0EEE7516A0029D8D00A46D0E7A1
:1079DC00116A89B10136C1F824E0C2F820E0CEF872
:1079EC002420CEF820101E60DCE700225A609A603A
:1079FC001A60ADE73A46C2E71A68CEF82010013299
:107A0C00CEF82470C7F820E01A60C3F804E0C9E788
:107A1C008C01002030B5114D114C2A682368012BC4
:107A2C0006D962B630BF002AF8D0FFF773FFF4E72F
:107A3C0072B60C4C0C48FDF7C5FB0A250B48FDF73C
:107A4C00C1FB25600A48FDF7BDFB0848FDF7BAFBF2
:107A5C00256000F04FFE30BF002030BD8C010020AF
:107A6C009C01002038000020C89920001C932000A5
:107A7C00E4992000344BF0B5DA681C681068DA68B9
:107A8C002CB9DB6801221968FFF7A8FDF0BDD3F80B
:107A9C000CE05F680EF104067A68DEF804103D1DF8
:107AAC00914243DB7A6A002A40D0D2F804C0316894
:107ABC00151D8C451FDDD5F800C0DEF804108C4573
:107ACC001EDC9A681C68C2F824E0CEF82020013431
:107ADC000022CEF824201C60C3F808E04CB1012C25
:107AEC001BD05C680021626A5A6011621A68013A04
:107AFC001A60DC60C5E7516A0029DCD00A46D4E77D
:107B0C00116AA9B10134C1F824E0C2F820E0CEF822
:107B1C002420CEF820101C60E0E700225C689A60FC
:107B2C005A601A68DC60013A1A60AAE73A46C2E762
:107B3C001C68CEF820100134CEF82470C7F820E071
:107B4C001C60C3F804E0C9E78C0100202DE9F04F5C
:107B5C00434D0446EB680368002B74D000264FF0AD
:107B6C0001082F46012B40D06268013B516A23600B
:107B7C0061600E621268C2F81080EB68EB685661A7
:107B8C0002F11C0C002B26D0D7F800A0BAF1000F84
:107B9C0030D0D7F8049002F1200ED9F80410136AF3
:107BAC0009F1040099422EDD4B460068116A8842A7
:107BBC003CDCAB68C3F824C0D3632B681664013378
:107BCC00C5F808C02B60FFF755FF72B62368002B71
:107BDC00C8D1BDE8F08FC7F80CC0FFF74BFF72B6E9
:107BEC002368002BF5D0012BBED16268A6606660BD
:107BFC002660BFE7D6631664C7F80080C7F804C0D8
:107C0C00C7F808C0E9E7D9F8243023B9CCE7596A9A
:107C1C000029CAD00B46D3F804B0DEF80010181DAA
:107C2C008B45F4DD0068116A8842C2DD196A61B1C6
:107C3C000AF1010AC1F824C0C3F820C01364D1634F
:107C4C00C5F800A0C9E762B6C3E72B68D16301335E
:107C5C00C2F84090C9F820C02B60C5F804C0BCE73E
:107C6C008C010020C368036910B5012B18D003697F
:107C7C00B3B12C4BDA68D96800F11C0291421CD0CC
:107C8C001A68012A29D0C16B002935D0046C002C4C
:107C9C003FD04C62D0F840C0013ACCF820101A60AA
:107CAC000369012B01D062B610BD026A6FF000436C
:107CBC009A42F8D0FFF7DEFEF6E71A68CAB1012A3D
:107CCC0010D059680024D1F824C0013AC3F804C07C
:107CDC001A60CCF82040D960E2E700225A609A6022
:107CEC001A60DDE7596800225A609A601A60D96000
:107CFC00D6E71146D960D3E7002AD1D0D3F804C017
:107D0C00013ADCF824C01A60C3F804C0CCF8201087
:107D1C00C6E7002AC4D09968013A096A1A609960CA
:107D2C004C62BDE78C0100203A4BF0B5DA68026872
:107D3C00002A37D0012A43D041684FF0000ED1F809
:107D4C0024C0013AC0F804C00260CCF820E00968F5
:107D5C0001200861D3F80CC0DD6800224A6101F1F2
:107D6C001C042C4A002D1FD01668002E20D05768FA
:107D7C0001F120057A68086A07F1040E904225DAB1
:107D8C003A46DEF800C0086A84452EDC9A685462D4
:107D9C00CA6300220A641A689C6001321A60FFF7F9
:107DAC0069FE00E062B6F0BDD460FFF763FEFAE74F
:107DBC00CE630E64106054609460FFF75BFEF2E7D4
:107DCC0000224168826042600260C0E77A6A22B990
:107DDC00D6E7506A0028D4D00246D2F804C02868EE
:107DEC0002F1040E8445F4DDCBE7106A40B1013694
:107DFC00446214620A64C8631E60FFF73BFED2E75C
:107E0C001A68C86301320F643C621A605C60FFF749
:107E1C0031FEC8E78C0100202DE9F04172B69E4B73
:107E2C00DA68DA68D9681268D3F80CC002F11C0160
:107E3C008C4500F09E801968012900F0DF80D46B1E
:107E4C00002C00F0AE80156C002D00F0EA8065620D
:107E5C00D2F840C00139CCF8204019609168086014
:107E6C00042111618D490868013808609169002965
:107E7C0000F09180916901240C61D2F818C0D86887
:107E8C00D86885490CF11C0570B30F68002F00F001
:107E9C00A180D1F804800CF12006D8F80410DCF88D
:107EAC00200008F104048842C0F2DD80D8F82410C8
:107EBC00002900F0D880D1F804E030680C1D86450C
:107ECC007DDDD4F800E0DCF82000864500F38A80E4
:107EDC0099681C684D62CCF83C1001340021CCF838
:107EEC0040101C609D6001E00C68CD600021916128
:107EFC006949D8683CB9DB68104619680122FFF75C
:107F0C006DFBBDE8F081D1F80CE04F680EF1040672
:107F1C007868DEF804103D1D884200F3A280796A6F
:107F2C00002900F09E80D1F804C030680D1D8445F6
:107F3C004BDDD5F800C0DEF80400844563DC99689D
:107F4C001C68C1F824E0CEF8201001340021CEF8D2
:107F5C0024101C60C3F808E04CB1012C6FD05C6895
:107F6C000020616A59600862196801391960DC6087
:107F7C00C1E7196889B101296AD0D3F804C000247B
:107F8C00DCF824E00139C3F804E01960CEF8204095
:107F9C00C3F80CC062E71C68AAE78C46C3F80CC097
:107FAC005CE700293FF45AAFD3F804C00139DCF880
:107FBC0024C01960C3F804C0CCF820404EE7486ACE
:107FCC0000283FF47EAF014675E7486A0028B0D020
:107FDC000146A8E7CCF83C70CCF840700C604D60C2
:107FEC008D6083E7086A00283FD07C1C45620D62D7
:107FFC00CCF84010CCF83C001C6077E700215960AD
:10800C00996019602AE7086A002839D00134C0F851
:10801C0024E0C1F820E0CEF82410CEF820001C603B
:10802C009AE700293FF41AAFD3F808C00139DCF8FD
:10803C0020C01960C3F808C0CCF824500EE700210A
:10804C005C68996059601968DC600139196052E705
:10805C00D3F804C00021596099601960C3F80CC0B2
:10806C00FCE6394665E741462BE71C68CCF83C003A
:10807C000134CCF84080C8F820501C605D6035E7B6
:10808C001C68CEF820000134CEF82470C7F820E02C
:10809C001C60C3F804E05FE78C0100209C01002009
:1080AC00704700BF174A0120002110B492E8180055
:1080BC001B1844EB0104012B82E818001AD0124A59
:1080CC00012092E8180000211B1844EB0104012B3D
:1080DC0082E8180001D010BC7047002CFBD10B4A71
:1080EC00146054609460D46054619461D4611462DF
:1080FC005462F0E7002CE2D1054A1460546094609D
:10810C00DDE700BF08000020B4010020BC01002006
:10811C0010000020704700BF2DE9F04F016840F2BD
:10812C00C903C0F20403CB1881B09B020093A1F1E8
:10813C001002009903F5837301F5E37B9B004FEA72
:10814C008B0B164D1F68DBF8009080464FEAC20A75
:10815C0005EB42150024012616FA04F33B4204D128
:10816C0003FA0AF313EA090F05D02B681BB11B693C
:10817C000BB14046984701340435082CECD1009AD9
:10818C0002F5827303339B004FF0FF321A60DBF869
:10819C000030CBF8003001B0BDE8F08FE8010020D2
:1081AC002DE9F00790F800C0D2B2BCF11F0F0CF112
:1081BC00100800F2AB80012505FA0CF54EF2801484
:1081CC00CEF2000425604EF28024CEF2000425602D
:1081DC0040F2D904C0F204046444A40204F582778A
:1081EC00BD004068D5F800A0C6430AEA060AC5F8E7
:1081FC0000A0DFF85C91DFF85CA109684AF82890D0
:10820C0004F5807A0AF101084FEA8808D8F8009042
:10821C00012909EA0609C8F8009063D002295AD04E
:10822C0000293CD04FEACC0610FA06F60337BF0003
:10823C0004F5E37138608900D1F80080F74308EA4F
:10824C000708C1F80080296841EA0000286092B153
:10825C001B68012B6DD03BB904F5E07301339B0017
:10826C001A6802EA07071F6004F5E274A400236889
:10827C0043EA06062660BCF11F0F22D9BCF13F0F62
:10828C000AD80123ACF1200C03FA0CFC4EF20413B7
:10829C00CEF20003C3F800C0BDE8F007704704F548
:1082AC0081718900D1F800800AF1030A08EA0606F8
:1082BC000E604FEA8A0ADAF800100143CAF800107F
:1082CC00B0E7012303FA0CFC4EF20013CEF20003CC
:1082DC00C3F800C0E0E704F5817189000E6806431D
:1082EC000E609FE704F581718900D1F800800AF1D6
:1082FC00030A08EA0608C1F800804FEA8A0ADAF88D
:10830C00001001EA0606CAF800608BE7BCF13F0FCB
:10831C003FF65EAFACF120040125A5404EF284146B
:10832C00CEF2000425604EF28424CEF200042560C7
:10833C004EE704F5E07301339B001A6804F5E27410
:10834C0032431A60A400236843EA0606266092E7CB
:10835C0021812000980200200A4A0120002110B43B
:10836C0092E818001B1844EB0104012B82E818005A
:10837C0001D010BC7047002CFBD1034A1460546030
:10838C009460F6E708000020100000200E4B0F4A06
:10839C0001201A6000225A609A60DA600C4A0021AF
:1083AC0010B492E818001B1844EB0104012B82E86E
:1083BC00180001D010BC7047002CFBD1054A14608A
:1083CC0054609460F6E700BF78020020DC92200035
:1083DC00080000201000002040F27823024AC2F26C
:1083EC0000031A60704700BFDC922000EFF303809B
:1083FC0000F03F0001B500F035F8BDE801404FF04A
:10840C0001034FEA03630D4941F001010C4AA2F14B
:10841C0001020EB42DE90F10BFF36F8F704707DF09
:10842C00FDE7079800F400704FEAD01000F120002F
:10843C008544BFF36F8F7047704700002A8420007B
:10844C005184200000B540F2982381B001AAC2F2F9
:10845C00000342F8040D53F820306846984701B0E9
:10846C0000BD00BF00B5054B81B053F82030009023
:10847C000BB16846984701B000BD00BF74000020E6
:10848C00704700BF0A4A0120002110B492E818007E
:10849C001B1844EB0104012B82E8180001D010BC1E
:1084AC007047002CFBD1034A146054609460F6E7CB
:1084BC00080000201000002000B500F037F900BDC6
:1084CC00012810B51DD0D8B97048FEF7F1FF704ADD
:1084DC001369002B00F0D880117849F2104308037F
:1084EC00C4F20D03C3181868D2F804C020EA0C00BB
:1084FC0018605378002203EBC101664B43F821202E
:10850C0010BD634A022313704BF2204106235370B3
:10851C00C4F20D014BF20013D1F800C0C4F20D03EC
:10852C004020D36000231361936050602CF0400C0A
:10853C004BF20042C1F800C0C4F20D021168DFF822
:10854C0058C121F04001116044F2D8020421C4F258
:10855C000D0211604BF21C42C4F20D0210604BF282
:10856C001872C4F20D0211684FF0FF3021F4800133
:10857C0011604A4A0A211371116042F22802C4F2B6
:10858C000D0211684FF0110E41F00101116042F221
:10859C002C02C4F20D02116841F00101116042F28B
:1085AC003002C4F20D02116841F00101116044F275
:1085BC000402C4F20D02136044F284020821C4F2D6
:1085CC000D02116044F28002C4F20D02136044F2F9
:1085DC000012C4F20D02136049F22042C4F20D02E3
:1085EC00116841F0030111604CF20002C4F2000268
:1085FC00CCF800204CF23002C4F20002116821F0D9
:10860C00010111604CF24401C4F2000108604CF20B
:10861C0038014CF22400C4F20001C4F200000B60DB
:10862C00C0F800E04CF22800C4F200004FF0050E38
:10863C00C0F800E04CF22C00C4F200004FF0700EB9
:10864C00C0F800E0302008601168CCF8043041F428
:10865C00407141F0010111600C48FEF7EBFE104A2D
:10866C00012092E8180000211B1844EB0104012B97
:10867C0082E818007FF444AF002C7FF441AF094A24
:10868C001460546094603BE7117832E7A00300203B
:10869C00C0030020E801002098030020B403002050
:1086AC00080000201000002000B50120FFF708FF93
:1086BC0000BD00BF00B50020FFF702FF00BD00BFEA
:1086CC000A4A0120002110B492E818001B1844EB50
:1086DC000104012B82E8180001D010BC7047002C5B
:1086EC00FBD1034A146054609460F6E70800002044
:1086FC001000002000B549F6282081B0C0F22000FF
:10870C00FCF760FD49F21C30C0F22000FCF75AFD6A
:10871C0040F23803C2F200030A221A605C231B6881
:10872C000093009B984701B000BD00BF2DE9F041BC
:10873C0072B61E4D1E4E15F8014C4FF000081D4F21
:10874C008CB1092C2AD00A2C1BD03368204601335B
:10875C00336000F07FF833684F2B08DC013515F8D7
:10876C00014C002CEDD1FFF7C5FFBDE8F0810D20C9
:10877C0000F070F80A2000F06DF80135C6F80080A2
:10878C00EDE70D2000F066F8204600F063F83B683A
:10879C00C6F8008001333B600135E0E7204600F06D
:1087AC0059F83368013508333360D8E73D9A200017
:1087BC00AC010020B00100200A4A0120002110B4B5
:1087CC0092E818001B1844EB0104012B82E81800F6
:1087DC0001D010BC7047002CFBD1034A14605460CC
:1087EC009460F6E7080000201000002030B50B4C18
:1087FC000546236823B1DA68013ADA60DA683AB1DF
:10880C00636823B15A682846DA601B69984730BD03
:10881C005A68DA601B699847F2E700BF140D002014
:10882C000A4A0120002110B492E818001B1844EBEE
:10883C000104012B82E8180001D010BC7047002CF9
:10884C00FBD1034A146054609460F6E708000020E2
:10885C0010000020144B10B41B78C0B213B3EFF30C
:10886C001084124BE4B21C7072B649F23803C4F295
:10887C000803032249F244011A60C4F208010A6891
:10888C0049F2440312F0010FC4F20803F7D149F284
:10889C009802C4F2080210601A6842F001021A60D1
:1088AC0004B962B610BC7047720000207000002042
:1088BC004378053B1D2B10D8DFE803F011570F0F41
:1088CC00400F0F0F0F0F0F0F0F0F0F0F0F0F0F0F7B
:1088DC000F0F0F0F0F0F0F20226D00207047037822
:1088EC00002BFAD18378C27843EA022249F20003C2
:1088FC00C4F208031A60364B03221A600120EDE71C
:10890C000378A12BE9D18378C27853EA0222E4D10F
:10891C00304B19681A715A7162F31F0108229A714F
:10892C002D4A196013608379C279012043EA02222F
:10893C002A4B072A28BF07221A60CFE70378002B9F
:10894C00CBD10379427953EA0222C6D18379C27919
:10895C0053EA0222C1D18378C07843EA002001286F
:10896C00BBD11B4B04221A60B8E70378802BB4D11F
:10897C00C378012B1ED0022BAFD1194A164B1A60AB
:10898C008379C279012043EA0222144B432A28BF7F
:10899C0043221A60A2E70378212B9ED18379C279F6
:1089AC0053EA022299D182780E4B02F001021A701E
:1089BC00012093E70C49084A11608279C179184665
:1089CC0042EA0121054A122928BF1221116085E7CC
:1089DC006C0000202C0D0020280D0020340D0020F0
:1089EC001C992000710000206099200070B549F29C
:1089FC003803554AC4F208031C68136882B023B1CB
:108A0C00002113F0040F116053D1504A136823B1A5
:108A1C00002113F0010F11600BD14D4B1A680AB1F4
:108A2C0000221A6049F23803C4F208031C6002B039
:108A3C0070BD484B1A783AB9474A127822B10122D4
:108A4C001A702020FFF706FF49F23803C4F208031E
:108A5C0000221A6049F24403C4F208031B6813F0A5
:108A6C00010F31D049F25803C4F208031B6849F2D4
:108A7C008001DBB26846C4F20801934206D9D1F8F2
:108A8C0000C000F802C00132082AF6D16846FFF790
:108A9C000FFF88B1DFF8C4C0DCF80030002B4AD0DF
:108AAC0049F24403C4F208031A6842F040021A6007
:108ABC0010E0FDF7FBFEA8E749F24403C4F20803FB
:108ACC001A6842F060021A60DFF890C0DCF80030DF
:108ADC00002BA2D0224E3268C2B149F28005DCF8DC
:108AEC0000100023C4F20805C85C0133013A286069
:108AFC00C818CCF80000101E18BF01201F2B8CBF0B
:108B0C00002000F0010032600028EDD152B949F28A
:108B1C004403C4F208031968CCF8002041F00A01A0
:108B2C0019607AE749F24403C4F208031A6842F068
:108B3C0002021A6071E749F24403C4F208031A688E
:108B4C0042F048021A6068E71C0D0020200D00203E
:108B5C00240D00207200002071000020280D002040
:108B6C00340D00204F4B70B41D6847F2F833C2F23D
:108B7C0000034FF440625A6000229A60DA60EA689F
:108B8C001B6002F54062EA605A686B68002B52D099
:108B9C0047F2F83CC2F2000C1E689444B4450CBF7A
:108BAC001A461A4604D0D26812B111688C45FAD113
:108BBC0047F2F831C2F200010C6859687618B442D9
:108BCC0008D0DB68002B35D0D3F800C0596861445D
:108BDC008C42F6D119461346BBB147F2F832C2F2B9
:108BEC0000025468D3F804C0A444C2F804C02A6834
:108BFC00012A2ED09C68002C39D0DE68002E2DD096
:108C0C00E660DB68013A9C602A6039B147F2F833C0
:108C1C00C2F200035B684A68D3184B608546BFF309
:108C2C006F8F5DF804CB8CF30388BDE8FF5F00BD4C
:108C3C0070BC704713462A6812BB47F2F831C2F277
:108C4C0000018A60CA606960A9600121296011462F
:108C5C00C2E700236B60AB602B60D6E7002AD4D050
:108C6C00AB68013A9B682A60AB60DE60CDE7002AF6
:108C7C00CBD06B68013ADB682A606B609C60C4E700
:108C8C00A96847F2F83CC2F2000CC1F80CC0CCF851
:108C9C00081001320021CCF80C102A60C5F808C06D
:108CAC009AE700BF5800002081B04DF804CD0FF2B8
:108CBC00340C4CF0010CCDF804C05DF804CB2DE95C
:108CCC00FF5FEFF3038C4DF804CDC0F800D08D4658
:108CDC00BFF36F8F5DF804CB8CF30388BDE8FF5FA7
:108CEC0062B600BD704700BF40F63853C2F20003B5
:108CFC0000221A605A609A60DA6070473D4B70B47B
:108D0C001D6850F8043C041F0F2B41D9002240F879
:108D1C00044C6360A260E260EA68D318EB606B6895
:108D2C0050F804CC6068002B35D01E686044B0420B
:108D3C000CBF1A461A4604D0D26812B11168884288
:108D4C00FAD159687618B44507D0DB68002B21D0CE
:108D5C001868596841188C45F7D11946134693B1D8
:108D6C0060685A6882186260286801281DD09A6869
:108D7C00002A1FD0DE68002E31D0D660DB689A60E6
:108D8C002B68013B2B6019B14A686368D3184B60A0
:108D9C0070BC704713462968B1B9A160E1602A68BC
:108DAC006C600132AC602A60D9E700236B60AB6069
:108DBC002B60E8E70028E6D06B68DB686B609A6094
:108DCC002B68013B2B60DEE7AA680021D460AA68FF
:108DDC00E160A2602A68AC6001322A60BFE700281B
:108DEC00D1D0AB689B68AB60DE602B68013B2B601D
:108DFC00C9E700BF58000020F0B50C4686B0064607
:108E0C00114615462746002B40F00381A24255D946
:108E1C00B2FA82F35BB112FA03F5C3F1200214FA31
:108E2C0003F730FA02F242EA070710FA03F62C0CA9
:108E3C002B04384621461B0C009300F0CDF921463B
:108E4C0084463846CDF808C000F082F9009B310CFE
:108E5C00DDF808C041EA0C4C03FB00F207469445D0
:108E6C0007D2471E1CEB050C03D2944501D2013FDF
:108E7C00AC44C2EB0C02214610460093019200F068
:108E8C00ABF9019A21463604360C84461046CDF8CF
:108E9C0008C000F05DF9009BDDF808C046EA0C4CF8
:108EAC0003FB00F39C4506D201381CEB050C02D2E7
:108EBC009C4538BF013840EA074540E11AB901200A
:108ECC0000F046F90546B5FA85F717B9621B01376C
:108EDC0055E0BD40C7F1200324FA03FCBC4036FA30
:108EEC0003F3280C2343039004932B04604603994B
:108EFC001B0CCDF808C0009300F06EF9DDF808C02B
:108F0C0003990590604600F023F9009B044603FB8F
:108F1C0000F10498020C059842EA00428A4206D2FB
:108F2C00013C521903D28A4201D2013C5219521A05
:108F3C00039910460093019200F04EF9019A03999F
:108F4C0084461046CDF808C000F002F9009B049945
:108F5C00DDF808C00A04120C42EA0C4C03FB00F3C7
:108F6C009C4507D201381CEB050C03D29C4501D261
:108F7C000138AC44BE40C3EB0C0240EA04472B0C56
:108F8C0003932B04104603991B0C0192009300F0E1
:108F9C0023F9019A039984461046CDF808C000F0D5
:108FAC00D7F8009B310CDDF808C041EA0C4C03FBF0
:108FBC0000F20446944507D2441E1CEB050C03D268
:108FCC00944501D2013CAC44C2EB0C02039910460F
:108FDC000093019200F000F9019A36040399360CC3
:108FEC0084461046CDF808C000F0B2F8009BDDF8BE
:108FFC0008C046EA0C4C03FB00F39C4506D2013832
:10900C001CEB050C02D29C4538BF013840EA0445E4
:10901C0099E0A34200F29580B3FA83F76FB99C42B2
:10902C0094BF00230123904234BF1D4643F0010539
:10903C00002D00F08680012585E0C7F12002BB40A1
:10904C00D140BD4041EA0303049534FA02F5BC401B
:10905C0030FA02F2284622431C0C03921A042146D1
:10906C000093120C019200F0B7F8214605902846A7
:10907C0000F06EF8019A009B02FB00F10546039884
:10908C004FEA104C05984CEA004C8C4507D2013D38
:10909C001CEB030C03D28C4501D2013D9C44C1EB6B
:1090AC000C0C2146604601920093CDF808C000F0EC
:1090BC0093F8DDF808C021460590604600F048F8AA
:1090CC000399019A009B0C040599240C44EA014471
:1090DC0002FB00F2944206D20138E41803D2944207
:1090EC0001D20138E41840EA05450498A41A2B046F
:1090FC004FEA154C0204000C1B0C120C02FB03F182
:10910C0002FB0CF200FB032300FB0CFC03EB1143F2
:10911C00934238BF0CF5803C0CEB134CA4450DD896
:10912C0014BF002201220904BE40090C01EB0341CB
:10913C00B14294BF002702F0010727B1013D00277F
:10914C0001E000273D462846394606B0F0BD00BF79
:10915C00002934D00123002210B488422CD30124DE
:10916C002407A14204D2814202D209011B01F8E773
:10917C00E400A14204D2814202D249005B00F8E72C
:10918C00884201D3401A1A434C08A04202D3001B58
:10919C005C0822438C08A04202D3001B9C0822438B
:1091AC00CC08A04202D3001BDC082243002803D0C9
:1091BC001B0901D00909E3E7101C10BC704702B56C
:1091CC0000F06CF8002002BD03B5FFF7C1FF0EBC28
:1091DC004243891A184700BF00295AD001238842FC
:1091EC0000D2704710B401242407A14204D281425A
:1091FC0002D209011B01F8E7E400A14204D281422A
:10920C0002D249005B00F8E70022884200D3401AE2
:10921C004C08A04205D3001B9C460124E3411A4391
:10922C0063468C08A04205D3001B9C460224E341F4
:10923C001A436346CC08A04205D3001B9C4603246A
:10924C00E3411A4363469C46002803D01B0901D016
:10925C000909D9E70E242407224018D063460724B5
:10926C00234214D063460324E3411A4201D0CC08B4
:10927C00001963460224E3411A4201D08C080019FC
:10928C0063460124E3411A4201D04C08001910BC7A
:10929C00704702B500F002F8002002BD704700BF15
:1092AC00074B10B51A6852B9064C01221A60636854
:1092BC002BB10434984754F8043F002BFAD110BD5D
:0892CC0004000020E49A2000D8
:1092D40000000000000000004D4120007941200002
:1092E400C94120002D2D2D2D2D2D2D2D2D2D2D2D34
:1092F400204C6F5261204D6573682050726F677205
:10930400616D3A2047617465776179202D2D2D2D8B
:109314002D2D2D2D2D2D2D2D0A000000436F6E6651
:1093240069677572696E67204C6F52612E2E2E0A22
:10933400000000004761746577617920737461727D
:109344007465642077616974696E6720666F722042
:109354006D657373616765730A0000004C6F526139
:1093640020636F6E666967757265640A00000000A9
:109374002D2D2D2D2D3E2054494D454F5554206102
:109384006368696576656420666F72206E657874BB
:10939400206D6573736167650A000000206E6F6459
:1093A400657320696E206E65743A0000205B0000CE
:1093B40052656365697665642066726F6D2000008E
:1093C4005265636569766564200000004D4D553A29
:1093D4003A616C6C6F632829206661696C6564214D
:1093E4000000000050757265205669727475616CD6
:1093F400206D6574686F642063616C6C6564210022
:109404004D6573736167653A200000000A0A000025
:109414004750525320637265617465642E20416322
:109424007475616C207374617475733A2000000064
:1094340047505253207374617475733A20000000CE
:1094440053657474696E6720757020475052532EAB
:109454002E2E0A004661696C20746F206C6F616463
:109464002047505253206D6F64756C6520286368E3
:1094740065636B20746865206861726477617265E6
:1094840020616E6420636F6E6E656374696F6E73C2
:10949400292E0A004661696C20746F2066696E6427
:1094A40020746865206E6574776F726B202863681A
:1094B40065636B2069662073696D20636172642043
:1094C400697320616374697665292E0A00000000BF
:1094D40053657474696E67207570206E6574776F58
:1094E400726B2E2E2E0A00000A5B00002074726933
:1094F400616C5D2053656E64696E6720636F6D6D8A
:10950400616E64207468726F7567682047505253A7
:109514002E0A00005B00000020747269616C5D20FB
:1095240057616974696E6720726573706F6E7365D5
:1095340020666F722073656E7420636F6D6D616E4B
:1095440064207468726F75676820475052532E0AFE
:1095540000000000446174612053656E642052650C
:1095640073756C743A20000047505253204D6F6459
:10957400756C6520737461727465642E2E2E000000
:109584004572726F7220746F2073656E642064611B
:1095940074612C20747279696E6720616761696EE9
:1095A4002E2E2E0A00000000436865636B696E6707
:1095B40020666F722073746F726564206D657373B7
:1095C40061676573206F6E2074686520666C6173D3
:1095D400682E2E2E0A00000047657474696E672099
:1095E400646174612073746F726564206F6E20749B
:1095F400686520666C6173682E2E2E0A00000000D8
:10960400206D657373616765732077657265206E7D
:109614006F742073656E742E205265626F6F746967
:109624006E67207468652073797374656D2E2E2EB1
:109634000A000000416C6C206D657373616765738B
:1096440020776572652073656E742E20536C656592
:109654007020666F722035206D696E757465732E87
:109664002E2E0A0053656E64696E67205B305D3D83
:1096740000000000205B315D3D000000205B325D96
:109684003D0000005B53656E6465723A3A696E6929
:10969400745F636F6E6669675D0A000049206775D1
:1096A4006573732049276D2066696E650A000000A2
:1096B40050657273697374656E745F53746F72610D
:1096C40067653A3A777269746528613D0000000065
:1096D4002C643D002C733D0029204552524F523AD0
:1096E40020777269746520776F756C64207061737C
:1096F400732074686520656E64206F6620666C61F3
:1097040073682073746F726167652C2061626F7275
:1097140074696E672100000029204552524F523A65
:10972400207772697465206D757374207374617227
:1097340074206174206120776F72642D616C696795
:109744006E656420616464726573732100000000B7
:1097540053656E64696E6720646174612E2E2E2ECB
:109764000A0000005B466C6173685F4649464F3AE5
:109774003A666C7573684865616465725D0A0000D9
:1097840053544F524147452046554C4C21204D657A
:109794007373616765206469736361726465642EC1
:1097A4000A000000685F6A330000000053746174AB
:1097B400696F6E206E616D65203D20002074696DB7
:1097C400657374616D70203D20000000206C657627
:1097D400656C203D2000000020747572203D20003F
:1097E40020706C75203D2000207369676E616C20C9
:1097F4003D20000074696D657374616D70203D20B7
:109804000000000053454E542066726F6D20666957
:10981400666F0A00464C4153485F4649464F5F48CD
:10982400454144005B466C6173685F4649464F3A64
:109834003A696E69745D0A005B466C6173685F46E1
:1098440049464F3A3A696E69745D206D6167696390
:10985400206D69736D617463680A00005B466C6116
:1098640073685F4649464F3A3A636C6561725D0AB4
:10987400000000005B466C6173685F4649464F3ADE
:109884003A696E69745D2068656164657220636F0E
:1098940072727570740A00005B466C6173685F468F
:1098A40049464F3A3A696E69745D2068656164653A
:1098B400722076616C69640A00000000556E73655D
:1098C4006E74206D7367733A200000000A0A4D45D8
:1098D40053534147450000006C766C2000000000A3
:1098E4007475722000000000706C75200000000088
:1098F400757372200000000074696D657374616D86
:1099040070200000303132333435363738396162F3
:10991400636465660000000009024300020100A0C0
:1099240019090400000102020100052400100104C9
:109934002402020524060001052401000107058212
:109944000340004009040100020A000000070583E7
:1099540002200000070504020001000012010002B9
:1099640002000020501D1C600300000000010000E4
:109974000000000000000000CD70200029712000CC
:109984001D7120000000000000000000C1702000D4
:1099940039712000555220005468726561643A3A66
:1099A40070617373203D3E20746872656164202881
:1099B4000000000029206E6F7420726561647921B3
:1099C40000000000546865206C6173742074687230
:1099D4006561642068617320657869746564210039
:1099E4005265626F6F74696E6720746865206D617B
:1099F4006368696E65202E2E2E0000005265737513
:109A04006D652063616C6C656420666F7220756E91
:109A140073757370656E646564206F626A656374E0
:109A2400210000004D616368696E653A3A726562AF
:109A34006F6F74282900000050414E4943210A00E9
:109A4400FFFFFFFF25432000D5432000C54520002C
:109A540011462000194E2000155120007551200098
:109A640081522000295620005D60200015622000EC
:109A7400216320007D66200071672000A567200017
:109A84000D68200085682000696A20009D6A200016
:109A9400E16A2000156B2000816F2000B56F200063
:109AA400D97020004D742000D57420006575200005
:109AB40099752000AD802000B180200065832000CE
:109AC4009983200091842000B5862000CD86200053
