:020000040020DA
:10400000F87F00201D41200085B1200085B12000EF
:1040100085B1200085B1200085B1200085B1200048
:1040200085B1200085B1200085B12000BBB1200002
:1040300085B1200085B1200085B1200085B1200028
:1040400085B1200085B1200085B1200085B1200018
:1040500085B1200085B1200085B1200085B1200008
:1040600085B1200085B1200085B1200085B12000F8
:1040700085B1200085B1200085B1200085B12000E8
:1040800085B1200085B1200085B1200085B12000D8
:1040900085B1200085B1200085B1200085B12000C8
:1040A00085B1200085B1200085B1200085B12000B8
:1040B00085B1200085B1200085B1200085B12000A8
:1040C00085B1200085B1200085B1200085B1200098
:1040D00085B1200085B1200085B1200085B1200088
:1040E00085B1200085B1200085B1200085B1200078
:1040F00085B1200085B1200010B5074C54F8043C70
:10410000B3F1FF3F06D0043C984754F8043DB3F1A7
:0C411000FF3FF9D110BD00BF6CD02000B3
:10411C0040400949094A086004319142FBDBFFF732
:10412C00E5FF00BF00F046FA01F0BEF901B408F05B
:10413C00A3FA02F0E1FD000004000020740D002041
:10414C0043680A1D5BB1D0F80CC00133CCF80420D5
:10415C004FF0000CC1F808C04360C26070478B6020
:10416C0001238260C2604360F8E700BF10B444686A
:10417C00012C17D0836801F1040C9C4517D04BB16E
:10418C005A682AB1944503D013465268002AF9D1D3
:10419C008A685A60C268944508BFC360013C446099
:1041AC0010BC704700238360C3604360F8E7002CA9
:1041BC00F6D08B68013C83604460F1E730B58468CD
:1041CC0005464CB12068294603681B68984764680B
:1041DC00002CF7D1012030BD2046FCE7F0B54B6A2E
:1041EC0081B004460D461746002B37D0AC462360F1
:1041FC005CF8043B04F1200E2361BCE80F00AEE830
:10420C000F009CE807008EE807000026AA6A66618A
:10421C00A661E461E663266405F12001204606F000
:10422C000BF8AB6AA2686660D218A2F140034FF09B
:10423C00807142F8401C0B4A01A942F001029A63BA
:10424C0047F00102DA63204641F8047DE3606946D9
:10425C004FF4406206F0D4FA01B0F0BD024B1B687B
:10426C00C4E700BFF96C2000CC010020294B30B50D
:10427C00186844682246002C47D06368572B07D82F
:10428C00482B11D0D268002A3FD05368572BF7D94E
:10429C00483B5360C1684839C16053B1126848212A
:1042AC00D018D150043030BD00235360C168483958
:1042BC00C160016801290BD0956875B1D468BCB197
:1042CC00EC60D2F80CC00139CCF808500160E5E77D
:1042DC000021416081600160E0E70029DED0D4F864
:1042EC000CC00139C0F804C00160CCF80850D5E707
:1042FC000029D3D0D0F808C00139DCF808C001601F
:10430C00C0F808C0CCF80C40C8E704F0D5FB00207E
:10431C00C9E700BF58000020F0B598B00024002277
:10432C00002316940692079304920593029203932A
:10433C00169B4FF4406701930094089409940A97D4
:10434C00FFF794FF69461B4A0546FFF747FF6FF0DE
:10435C000043002217930023119212930F92109393
:10436C000D920E93179B01260C93139414940B9699
:10437C001597FFF77BFF0BA90F4AFFF72FFF0F4B8A
:10438C00E8681E7007F0DEFA0D4A012092E818006A
:10439C0000211B1844EB0104B34282E8180001D041
:1043AC0018B0F0BD002CFBD1064A14605460946028
:1043BC00F6E700BF30412000E1A42000EC01002012
:1043CC0008000020100000202DE9F007754E7368DE
:1043DC00002B78D05968002975D0DFF8CC81B24613
:1043EC0000270022D8F800505A60F268521AF26086
:1043FC005A68C2B9DAF80040012C00F08480986841
:10440C00002800F0A880D3F80CC0BCF1000F00F01D
:10441C00B280C0F80CC0DA689060DAF80020013A7B
:10442C00CAF800205A681C68A41849D00F2947D92B
:10443C0061602460A760E760EB6859186B68E960FD
:10444C00D4F800C06068002B4DD0D3F800906044C5
:10445C0048450CBF1A461A4604D0D26812B11168EE
:10446C008842FAD159688944CC4507D0DB68002BC7
:10447C0038D01868596841188C45F7D1194613463D
:10448C00CBB160685A68821862602868012802BF44
:10449C006F60AF602F600ED09A68002A3BD0D3F8C3
:1044AC000CC0BCF1000F40D0C2F80CC0DB689A60A5
:1044BC002B68013B2B6019B14A686368D3184B60B9
:1044CC007368002B1AD1394A012092E81800002198
:1044DC001B1844EB0104012B82E818005BD0BDE8EB
:1044EC00F007704713462968002929D1A160E160C3
:1044FC002A686C600132AC602A60C1E759680029F7
:10450C007FF46FAFDFE7CAF80420CAF80820CAF8B6
:10451C0000205A6887E70028CDD06B68DB686B6099
:10452C009A602B68013B2B60C5E70028C3D0AB68B1
:10453C009B68AB60C3F80CC02B68013B2B60BAE7DF
:10454C00AA683946D460AA68E760A2602A68AC60A1
:10455C0001322A6094E7002C3FF465AFDAF80400CE
:10456C00C068CAF804008260DAF80020013ACAF880
:10457C0000205A6857E7002C3FF455AFDAF80800D2
:10458C008068CAF80800C260DAF80020013ACAF85C
:10459C0000205A6847E7002CA1D1054A14605460EA
:1045AC0094609CE75C0D002058000020080000205F
:1045BC0010000020704700BF0E4B0A2100221A7118
:1045CC0019600D4B01201A710C4A196010B492E855
:1045DC00180000211B1844EB0104012B82E8180081
:1045EC0001D010BC7047002CFBD1054A14605460FC
:1045FC009460F6E72800002020000020080000202E
:10460C00100000200D4B0A221A6000221A710C4A6D
:10461C000120002110B492E818001B1844EB01048F
:10462C00012B82E8180001D010BC7047002CFBD184
:10463C00044A146054609460F6E700BF3000002018
:10464C0008000020100000202DE9F0438CB00E462D
:10465C00044668469046139F04F0F2F833686D46A2
:10466C009A68022A5CD0DB68FF221A60D8F8003006
:10467C009A68022A72D0DB68FF221A6048F28042E4
:10468C0000230CA8C0F21E0220E90C0005F0CCFBA4
:10469C00614B186833689A68022A79D0DB6800226B
:1046AC001A60D8F800309A68022A00F09580DB680E
:1046BC0000221A60594B1968594B01F1040999E809
:1046CC0000030CCB4FF0010112EB08028DF808101F
:1046DC008DF8090000923B88ADF80410ADF80A3053
:1046EC007A88ADF80610ADF80C20BB882146ADF8E1
:1046FC000E30FA886846ADF810203B89ADF81230C0
:10470C007F89ADF8147004F039F8684604F0AEF8FF
:10471C0005F1180005F038FC16200CB0BDE8F0834C
:10472C00197849F200420903C4F20D028A18106884
:10473C00596808431060DA68FF2010601A7849F253
:10474C0000431203C4F20D03D3181A6822EA0101C4
:10475C001960D8F800309A68022A8CD1197849F27D
:10476C0000420903C4F20D028A1810685968084304
:10477C001060DA68FF2010601A7849F200431203C7
:10478C00C4F20D03D3181A6822EA0101196075E707
:10479C00197849F200420903C4F20D028A18D2F8C2
:1047AC0000C059684CEA010CC2F800C0DA684FF03E
:1047BC00000CC2F800C01A7849F200431203C4F28C
:1047CC000D03D3181A6822EA01011960D8F80030D9
:1047DC009A68022A7FF46BAF197849F200420903F8
:1047EC00C4F20D028A18D2F800C059684CEA010CC8
:1047FC00C2F800C0DA684FF0000CC2F800C01A789A
:10480C0049F200431203C4F20D03D3181A6822EACA
:10481C00010119604EE700BF100400203404002091
:10482C00280400202DE9F04F49F2380785B049F2F1
:10483C005006DFF820A1484D0090C4F208074FF055
:10484C000408C4F208064CF6C073C0F26A030024D4
:10485C0003A80393049405F0E7FA404802F054FAD5
:10486C003F4805F02FFB402006F0E4FE4EF260348A
:10487C004FF0000BC0F21604D9469AF800202B68B2
:10488C00032B4CDDEFF31082D2B272B6C7F8008066
:10489C00336802B962B613F0010F40D0002C8AF8CD
:1048AC00002044DD06F090FE8146B9F1460F48D059
:1048BC0001234FF0000BB9F1580F0CBF002303F08C
:1048CC000103002BD9D1BBF1030F18BF1C4615D027
:1048DC002B68032BFCDDEFF31083DBB272B6C7F849
:1048EC000080326803B962B612F0010FF0D00134C7
:1048FC008AF8003006F068FE082CE9D1184805F05B
:10490C00D7FA4AF22013C0F2070301A8002401933E
:10491C00029405F089FA009803F006FB93E7013C3A
:10492C00631C002BABDC002C8AF80020BADC402086
:10493C0006F080FE4EF26034B9F1460FC0F2160458
:10494C00B6D10BF1010BBBF1020FCCBF002301233D
:10495C00B1E700BFB4000020B00000203CC720002D
:10496C00940000202DE9F04F40F25801C2F20001F2
:10497C00DFF8EC3A08680122B2B01A7044680023E0
:10498C002F9344B16368272B00F20B81182B00F096
:10499C000881E468F5E704F08FF8022323700133F3
:1049AC006370053363604BF22003C4F20D03E360C4
:1049BC0000224BF220432261C4F20D03196804203B
:1049CC0021F0080119600123A3604BF20043C4F2EB
:1049DC000D03196841F008011960217863780431DE
:1049EC0003EBC10144F20003C4F20D0343F82100B0
:1049FC00217849F21C430903C4F20D03CB186168FA
:104A0C0019602178D4F804C00803C9000CFA01F12C
:104A1C0049F21873C4F20D03C318186820EA010197
:104A2C0019602369002B00F08D81DFF8383ADFF82C
:104A3C0034CA069321786378204603EBC1034CF803
:104A4C0023402FA92EAB2E9206F070FA32A840F814
:104A5C00044D089002F00EFB44F24021C0F20F010D
:104A6C00002219AC2BA82B912C9205F0DDF92046D5
:104A7C0003F0E6FE2246089929A803F01BFD29A89D
:104A8C0002F04CFB42F22803C4F20D031A68002416
:104A9C0042F002021A6042F22C03C4F20D031A68AF
:104AAC004FF0FF3142F002021A6042F23003C4F2BE
:104ABC000D031A68D02042F002021A6044F25C0323
:104ACC00C4F20D0302221A6044F2DC03C4F20D039B
:104ADC0006321A6044F2D803C4F20D031C6044F28F
:104AEC000813C4F20D030E321A604BF22043C4F2C9
:104AFC000D031A6840F2DC3C42F0C0021A604DF221
:104B0C003003C4F200031A68C2F2000C22F0010256
:104B1C001A604DF24402C4F2000211604DF23802E8
:104B2C004DF22401C4F20002C4F2000114600860CA
:104B3C004DF22801C4F200013E2008604DF22C0118
:104B4C00C4F2000132300860302111601A68DFF8BD
:104B5C00180942F4407242F001021A600122CCF8AA
:104B6C0004204DF20002C4F20002CCF800201A68B6
:104B7C0022F080021A6002F0C7F840F25801C2F22B
:104B8C0000010868DFF8E43845681C60002D28D067
:104B9C006B68232B00F2ED83142B00F0EA83ED6895
:104BAC00F4E7183B6360C368183BC360636893B950
:104BBC000168012900F00684A268002A00F0F6833F
:104BCC00E568002D00F02384D560E3689A600368E3
:104BDC00013B0360636822681821D418D150043457
:104BEC00DBE603F069FF40F2E83400220023C2F256
:104BFC00000484E80C004020AA60EB6006F01AFD6B
:104C0C0049F250024EF260374FF0000949F2380673
:104C1C00C4F20802DFF85888DFF85848CDF810A025
:104C2C00CDF814B0C0F21607AA46C4F20806CB465B
:104C3C00154698F800302268032A7DDDEFF31083C7
:104C4C00DBB272B64FF0040CC6F800C02A6803B988
:104C5C0062B612F0010F6FD0002F88F8003040F3CD
:104C6C00808306F0B1FC8346BBF1460F00F07183E4
:104C7C0001234FF00009BBF1580F0CBF002103F0CA
:104C8C0001010029D5D1B9F1030F55460DF1100BD7
:104C9C009BE8000C40D00E460020002104900591AA
:104CAC0049F2380749F25009C4F208074FF0040CD6
:104CBC00C4F208092368032BFCDDEFF31083DBB28D
:104CCC0072B6C7F800C0D9F8002003B962B612F06A
:104CDC00010FEFD088F80030CDF80CC006F074FC52
:104CEC00324600F0FF004FF0000106F0F7FE04AB77
:104CFC000CCB083602430B43402E04920593DDF88F
:104D0C000CC0D7D1AA60EB6040F2E8320020002141
:104D1C00C2F2000282E8030040F25803C2F2000320
:104D2C0018684668002E00F052837368232B0DD848
:104D3C00142B0BD0F668F5E7013F7A1C002A3FF7DD
:104D4C007AAF89E7DFF81C2706927FE6143B736085
:104D5C00C368143BC360736893B90168012900F000
:104D6C005183B268002A00F04183F768002F00F0ED
:104D7C003183D760F3689A600368013B0360736802
:104D8C0032681421D618D150043640F200030022A8
:104D9C00C4F2030340F20C0173603260C4F20301ED
:104DAC00086820F00100086042F20801C4F20D010D
:104DBC00086840F00100086042F20C01C4F20D01D9
:104DCC00086840F00100086042F21001C4F20D01C5
:104DDC00086840F0010008601A6040F20403C4F255
:104DEC0003030221196040F2280344F60001C4F2C7
:104DFC000303C0F2E811196073689A63DFF8783620
:104E0C00002B00F099827168886940F0010088617C
:104E1C007168C86840F00100C860B260DFF85C26B9
:104E2C00F360C2F88C304EF20013CEF200034FF454
:104E3C0000221A6040F2304CC2F2000C4AF22010F0
:104E4C006E600021CCF80050C0F20700DFF830563D
:104E5C002390249123A804F0E7FF2A7801233093B0
:104E6C0049F210431203C4F20D03D3181A6869688F
:104E7C00002622EA01021A60DFF808362A782B6134
:104E8C006B78069903EBC20341F82350324628464F
:104E9C0030A92DAB2D9606F049F8DFF8EC0501F0A2
:104EAC0033FFDFF8E825DFF8E83569681A602A78FF
:104EBC0049F210431203C4F20D03D3181A68DFF839
:104ECC00D40522EA01021A6040F2DC32C2F200027E
:104EDC0013684FF0FF325A642A7849F210431203D8
:104EEC00C4F20D03D31819686A6849F2500541EAF7
:104EFC0002021A6001F008FF049649F23806C4F267
:104F0C0008060427C4F208050498B0F5167FC0F211
:104F1C00F48040F23041C2F200010968DFF87805F4
:104F2C00069104F0CFFF402006F084FB4EF260396E
:104F3C000021CDF810A0CDF814B0C0F216098A46A5
:104F4C008B4698F800202368032B40F3AD81EFF3D8
:104F5C001082D2B272B637602B6802B962B613F007
:104F6C00010F00F0A181B9F1000F88F8002040F387
:104F7C00A88106F029FB8346BBF1460F00F0AC81FB
:104F8C0001224FF0000ABBF1580F0CBF002202F0B7
:104F9C000102002AD5D1514603290DF1100B9BE8D3
:104FAC00000C00F0C181914600230022049205936D
:104FBC002368032BFCDDEFF31083DBB272B6376092
:104FCC002A6803B962B612F0010FF1D088F80030EC
:104FDC0006F0FAFAA9F1200300F0FF004FF00001EF
:104FEC00C9F1200C10FA03F220FA0CFB00FA09FAB2
:104FFC001BEA230B38BF934609F1080904AA06CA19
:10500C00B9F1400F41EA0A0142EA0B020491059200
:10501C00CED1DFF8840404F04BFFDDF818C004ABEC
:10502C000CCBCCF80820CCF80C3040F23040C2F25B
:10503C000000036840F2E832C2F2000292E803007A
:10504C0003F108030CCB801841EB03010022D300C1
:10505C00C3F12009A3F1200C01FA09F930FA03F38A
:10506C0021FA0CFE49EA030313EA2C0338BF7346FA
:10507C000DF1240C0CF802300132082AE7D140F271
:10508C00DC31C2F20001086800F11802136813F059
:10509C00200FFBD1FF230360136813F0200FFBD10B
:1050AC0007230360116811F02001FBD12323036057
:1050BC0009AB13F801C0136813F02003FBD10131C5
:1050CC000829C0F800C0F3D140F2DC3CC2F2000C5D
:1050DC00DCF800004FF07E0C00F118010A6812F0A9
:1050EC002002FBD10133042BC0F800C0F6D104928E
:1050FC000498B0F5167FBFF60CAF48F6805000212F
:10510C00C0F25B002790289127A804F08DFE089828
:10511C0001F0B0FFE14801F0F7FD40F23041C2F27E
:10512C0000010B6840F2E831C2F2000103C90190A2
:10513C00029103F1080103C901AB0CCB121843EB2C
:10514C0001034FF00009114601920293D4481A460C
:10515C0009ABCDF8009003F083FD0DF1C80C0CEBFE
:10516C00000303F8A49C09A801F0CEFD0A2309A8AA
:10517C008DF824308DF8259001F0C6FDC94801F05A
:10518C00C3FDC54804F09EFE402006F053FA4EF2D3
:10519C006033C0F21603CDF818A0CDF81CB0CA4687
:1051AC009B4698F800202368032B40F39D80EFF377
:1051BC001082D2B272B637602B6802B962B613F0A5
:1051CC00010F00F09180BBF1000F88F8002040F334
:1051DC00988006F0F9F98146B9F1460F00F09C80F1
:1051EC0001224FF0000AB9F1580F0CBF002202F057
:1051FC000102002AD5D1514603290DF1180B9BE869
:10520C00000C17D091462368032BFCDDEFF31083C1
:10521C00DBB272B637602A6803B962B612F0010FBE
:10522C00F1D009F1010988F8003006F0CDF9B9F197
:10523C00080FE8D1984804F03BFE40F60010C0F28D
:10524C003D0000212590269125A804F0EDFD4FF09E
:10525C000009CDF818A0CDF81CB0AA4640F2FC31DC
:10526C00C2F2000151F8095001EB090B5DB12B6939
:10527C00042B08D1284605F0E1FC284603F020FC5D
:10528C000022CBF8002009F10409B9F1140FE5D183
:10529C0029A855460DF1180B9BE8000C02F044FEB2
:1052AC00049B013304932FE609F1FF3909F1010343
:1052BC00002B3FF748AEB9F1000F88F800203FF7FC
:1052CC0058AE402006F0B6F94EF26039BBF1460FED
:1052DC00C0F216097FF454AE0AF1010ABAF1020FBA
:1052EC00CCBF002201224EE60BF1FF3B0BF1010378
:1052FC00002B3FF758AFBBF1000F88F800203FF7A9
:10530C0068AF402006F096F94EF2603BB9F1460FBB
:10531C00C0F2160B7FF464AF0AF1010ABAF1020F66
:10532C00CCBF002201225EE75B4804F0C1FD0020E7
:10533C0000210490059170E67268916921F00101D9
:10534C0091617268D16841F00101D160B360F36082
:10535C0070E509F10109B9F1020FCCBF002301235B
:10536C0089E440204EF2603706F064F9C0F216076B
:10537C007AE4143B6B60C368143BC3606B687BB905
:10538C000168012966D0AA68002A58D0EC68002C64
:10539C004AD0D460EB689A600368013B03606B6889
:1053AC002A681421D518D15004351CE400293FF487
:1053BC0012AC4268D268426093600368013B0360A0
:1053CC00636808E4436083600360636803E403F08C
:1053DC0073FBDAE400293FF4D3AC826892688260F4
:1053EC00D3600368013B03607368C9E400293FF490
:1053FC00C7AC4268D268426093600368013B0360AB
:10540C007368BDE44360836003607368B8E400298B
:10541C003FF4E1AB826892688260D3600368013B21
:10542C0003606368FFF7D7BB0029B9D08268926824
:10543C008260D3600368013B03606B68B0E70029AE
:10544C00AED04268D268426093600368013B03604F
:10545C006B68A5E74360836003606B68A0E700BFDF
:10546C00640000202C02002048C7200010040020FB
:10547C00B4000020B0000020A1612000DC0200205C
:10548C00140400200567200060C72000795F20000D
:10549C00E403002088C72000940000209CC7200053
:1054AC00300000203CC7200000B5FFF75BFA00205D
:1054BC0000BD00BF2DE9F04F4AF22042DCB00124C0
:1054CC0000258DF8D4408DF8D550C4F20D02136828
:1054DC004AF2040723F0010313604AF20043C4F2BA
:1054EC000D03196844F20000214319609DF8D4C0E3
:1054FC009DF8D5100CF1040CC4F20D00C4F20D078C
:10550C0001EBCC0C0421369438973995379440F83C
:10551C002C109DF8D4E049F21C4C4FEA0E3EC4F21C
:10552C000D0CF444CCF800409DF8D4E049F2187C02
:10553C004FEA0E364FEACE0E04FA0EFEC4F20D0CF4
:10554C00B444DCF80060DFF8B8B926EA0E0ECCF8EB
:10555C0000E049F2004CC4F20D0CDCF8008002268D
:10556C0028F00408CCF8008044F28808C4F20D0836
:10557C00C8F800403D60DCF800700DF1D40827F04D
:10558C001007CCF8007044F290074FF0030ECDF8E2
:10559C004481C4F20D070DF58C7846964796CDF8EC
:1055AC0020E1CDF8488143914496CDF814E13C605C
:1055BC0005274097DCF80070419627F02007CCF8BF
:1055CC00007044F2940CC4F20D0CCCF800404AF27A
:1055DC00100C8DF8C0408DF8C160C4F20D0CCDF8E4
:1055EC00CCC0D2F800C0CDF808E12CF0040CC2F805
:1055FC0000C0D3F800C031914CEA010CC3F800C0D4
:10560C009DF8C0709DF8C1C07F180CEBC70C349589
:10561C00329440F82C109DF8C07049F21C4C3F039A
:10562C00C4F20D0CBC44CCF800109DF8C07049F2CB
:10563C00187C4FEA073807FA0EF711FA07F7C4F28D
:10564C000D0CC444DCF8008028EA0707CCF8007085
:10565C008DF8AC408DF8ADE0D2F800C04FF00808E2
:10566C002CF0080CC2F800C0D3F800C04AF2200E8F
:10567C00C4F20D0E4CEA080CCDF8B080CDF8B8E0B1
:10568C002F952D94C3F800C09DF8AC709DF8ADC05B
:10569C007F180CEBC70C40F82C109DF8AC7049F23D
:1056AC001C4C3F03C4F20D0CBC44CCF800809DF89C
:1056BC00AC7049F2187C4FEA073AFF0008FA07F77A
:1056CC00C4F20D0CD444DCF800A02AEA0707CCF88D
:1056DC0000700DF1540C2BAFCCF80070CCF80870A6
:1056EC0040AFCCF80C700DF5867A30AFCCF810705A
:1056FC00CCF804A04AF2080CCEF80050C4F20D0C01
:10570C008DF898408DF89940CDF8A4C0D2F800C01F
:10571C0027962CF0020CC2F800C0D3F800C02A95D2
:10572C004CEA060CC3F800C09DF898E09DF899C0AF
:10573C008E440CEBCE0C289440F82C109DF898E07D
:10574C0049F21C4C4FEA0E3EC4F20D0CF444CCF85A
:10575C0000609DF898E049F2187C4FEA0E374FEA4A
:10576C00CE0E06FA0EFEC4F20D0CBC44DCF8007032
:10577C0027EA0E0ECCF800E04AF2400EC4F20D0EF1
:10578C008DF884408DF88510CDF890E0D2F800E0CB
:10579C004FF0100C2EF0100EC2F800E01A68CDF885
:1057AC0088C022F010021A609DF884209DF8853084
:1057BC00521803EBC2032595239540F823109DF84E
:1057CC00842049F21C431203C4F20D03D318C3F80E
:1057DC0000C09DF8842049F218734FEA023ED200B3
:1057EC000CFA02F2C4F20D037344D3F800E021AFBB
:1057FC002EEA02021A6026AB3D93DFF808373DAA69
:10580C001A609DF8842049F200431203C4F20D0380
:10581C003E973F952395D3181A6822F010021A6010
:10582C009DF884209DF88530521803EBC20340F894
:10583C0023109DF8842049F210431203C4F20D0387
:10584C005895D3181A68384622F010021A60DFF8FF
:10585C00B8369DF8842025939DF8853058A903EB24
:10586C00C2034BF823702A4656AB569505F05EFBE7
:10587C0038462A4659A95AAB59945A9505F056FB05
:10588C0042F22803C4F20D031A684FF0FF31324381
:10589C001A6042F22C03C4F20D031A68D020324372
:1058AC001A6042F23003C4F20D031A68DFF85C761A
:1058BC0032431A6044F25C03C4F20D031E6044F2DE
:1058CC00DC03C4F20D03C3F8008044F2D803C4F225
:1058DC000D031D6044F208131622C4F20D031A6066
:1058EC004BF22043C4F20D031A68DFF8248642F011
:1058FC00C0021A604DF23003C4F200031A68C8F8F3
:10590C00044022F001021A604DF24402C4F200027B
:10591C0011604DF238024DF22401C4F20002C4F2BF
:10592C000001156008604DF228013E20C4F2000110
:10593C0008604DF22C013230C4F2000108603021B5
:10594C0011601A68DFF8CC0542F4407222431A60E9
:10595C004DF20002C4F20002C8F800201A68DFF809
:10596C00B86522F080021A6001F0CEF94BF23433A4
:10597C00C0F239233A9347F61033CFF672533B9368
:10598C0043F206733278CFF647633C9349F21043E7
:10599C001203C4F20D033C605794D3181A68716853
:1059AC00304622EA01021A60DFF870353278336132
:1059BC00737857A903EBC2034BF823602A4655AB07
:1059CC0005AC559505F0B2FADFF8540501F09CF9D9
:1059DC0039682246DFF84C0503F036F92554204689
:1059EC0001F092F9DFF8400501F08EF9DFF83C3553
:1059FC00DFF83C2571681360327849F210431203CA
:105A0C00C4F20D03D3181A6822EA01021A60D8F8FE
:105A1C0000304FF0FF325A64327849F210431203CF
:105A2C00C4F20D03D31819687268DFF8086541EAEF
:105A3C0002021A603068456835B16B681F2B1AD8A2
:105A4C00102B18D0ED68F7E703F036F82F46DFF887
:105A5C00E8940021002289E806007960BA60306879
:105A6C004568002D00F017826B68232B2CD8142B63
:105A7C002AD0ED68F5E7103B6B60C368103BC36040
:105A8C006B6883B90168012900F0D480AA68002AE8
:105A9C0000F0C480EF6867B1D760EB689A60036868
:105AAC00013B03606B682A681021D718D15004376A
:105ABC00CDE70029F7D0826892688260D3600368D2
:105ACC00013B03606B68EEE7143B6B60C368143BEF
:105ADC00C3606B68ABB90168012900F0F781AA6853
:105AEC00002A00F0E781D5F80CC0BCF1000F00F0E3
:105AFC00D581C2F80CC0EB689A600368013B036067
:105B0C006B682A681421D518D150043540F2000373
:105B1C000022C4F2030340F20C016B602A60C4F251
:105B2C000301086820F00100086042F20801C4F289
:105B3C000D01086840F00100086042F20C01C4F24B
:105B4C000D01086840F00100086042F21001C4F237
:105B5C000D01086840F0010008601A6040F204036F
:105B6C00C4F203030221196040F2280344F6000139
:105B7C00C4F20303C0F2E81119606B689A63EF4B2F
:105B8C00002B00F08A806968886940F00100886108
:105B9C006968C86840F00100C860AA60E84AEB6018
:105BAC00C2F88C304EF20013CEF200034FF40022F8
:105BBC001A60DFF890A33D60E348CAF8007001F06A
:105BCC00A3F849AF23254FF07E0CDAF800305A6861
:105BDC009B68134333D1D8F8002002F118010B68ED
:105BEC0013F02003FBD11560D8F8002002F1180146
:105BFC00086810F0200FFBD10133042BC2F800C051
:105C0C00F6D149A9D1A30CCB384681E80C00CDF8CC
:105C1C0008C004F009F9DDF808C0D6E700293FF404
:105C2C0042AF4268D268426093600368013B0360F4
:105C3C006B6838E74360836003606B6833E7C54883
:105C4C0001F062F8BF4B00251B68B64803F1040253
:105C5C0006CA2346009503F003F82554204601F0AC
:105C6C0053F8BD4801F050F840F2F4320A23C2F266
:105C7C0000021360B94801F047F83068B84B0122B4
:105C8C0044681A705495002C00F025816368272B0A
:105C9C0010D8182B0ED0E468F5E76A68916921F0EA
:105CAC00010191616A68D16841F00101D160AB607A
:105CBC00EB607EE7183B6360C368183BC3606368A6
:105CCC0093B90168012900F01581A268002A00F03F
:105CDC000581E568002D00F0D280D560E3689A60FC
:105CEC000368013B0360636822681821D418D15003
:105CFC0004340223237001336370053363604BF269
:105D0C002003C4F20D03E36000224BF22043226116
:105D1C00C4F20D031968042021F008011960012355
:105D2C00A3604BF20043C4F20D03196841F0080163
:105D3C00196021786378043103EBC10144F200034C
:105D4C00C4F20D0343F82100217849F21C430903E6
:105D5C00C4F20D03CB18616819602178D4F804C023
:105D6C000803C9000CFA01F149F21873C4F20D03CF
:105D7C00C318186820EA0101196023695BB1217806
:105D8C006378204603EBC1034BF8234054A953AB73
:105D9C00539205F0CBF848F280435B94C0F21E039B
:105DAC000DF59E7B00248BE81800584604F03CF857
:105DBC001BAD7E2605AF0DF1E80C51A915AA28469E
:105DCC003DABCDF800C0FEF73FFCD8F800C0002179
:105DDC000CF11802685C136813F02003FBD101313D
:105DEC001629CCF80000F5D1D8F8001001F11802F2
:105DFC00106810F02000FBD10133042B0E60F7D19A
:105E0C0001905BA801F036F949F280614DAB00229C
:105E1C00C0F2980183E80600184604F005F85148D2
:105E2C0000F072FF99E80600DAF80030019C03F1EB
:105E3C00040C9CE8001811EB0B0142EB0C023B46E6
:105E4C004948009402F00CFF3C54384600F05CFFCB
:105E5C00414800F059FF40F2300B49F280614BABE6
:105E6C004FF00A0CC2F2000BC0F298010022CBF8E2
:105E7C0000C083E80600184603F0D6FF9BE7002914
:105E8C003FF432AF826892688260D3600368013B52
:105E9C000360636828E702F00FFE37E600293FF441
:105EAC0030AE826892688260D3600368013B036005
:105EBC006B6826E600293FF424AE4268D268426043
:105ECC0093600368013B03606B681AE64360836070
:105EDC0003606B6815E602F0EFFD0AE700293FF45A
:105EEC0003AF4268D268426093600368013B036071
:105EFC006368F9E64360836003606368F4E600BF9F
:105F0C002C020020A8000020F961200010040020C1
:105F1C00DC03002048C72000140400203962200054
:105F2C00A4C72000F4030020B0C720004565200062
:105F3C00F00300205800002028040020CD61200030
:105F4C00DC02002034040020D0C72000404B4C0061
:105F5C0000000000F4C720001CCA200088C72000E5
:105F6C00640000200CC8200030000020F0B5864BE7
:105F7C0001228FB01A7000230D93844B0C461868C5
:105F8C0041680B46002900F0FA804A68272A08D895
:105F9C00182A06D0DB68002B00F0F1805A68272AFB
:105FAC00F6D9183A5A60C268183AC2605A688AB967
:105FBC000568012D00F0C9809E68002E00F0CA8093
:105FCC00D968002900F0D080F160DA68013D0560E5
:105FDC0096605A681B6818219D1899500435022345
:105FEC002B7003236B7008236B604BF22003C4F2FD
:105FFC000D03EB6000224BF220432A61C4F20D0327
:10600C001968042021F0080119600123AB604BF2E0
:10601C000043C4F20D03196841F008011960297896
:10602C006B78043103EBC10144F20003C4F20D039D
:10603C0043F82100297849F21C430903C4F20D03EB
:10604C00CB18696819602978D5F804C00803C90011
:10605C000CFA01F149F21873C4F20D03C318186855
:10606C0020EA010119602B6963B16B782978284605
:10607C0003EBC101464B0C9243F821500DA90CAB1C
:10608C0004F054FF68460AAF0EAE0E9502F0D8FB32
:10609C00314638466A4602F00DFAA37862781B0442
:1060AC0043EA0223227838461343E2786D4643EAEA
:1060BC00026300936279237943EA0223ADF804303A
:1060CC00E279A37943EA0223ADF80630237AE27A27
:1060DC008DF80830637A8DF80930237B1B0443EA72
:1060EC000223A27A1343627B43EA0263ADF80A30BF
:1060FC001B0CADF80C30237CE27B1B0443EA02231F
:10610C00A27B1343627C43EA0263ADF80E301B0C96
:10611C00ADF81030237DE27C1B0443EA0223A27C01
:10612C001343627D43EA0263ADF812301B0CADF8E9
:10613C00143001F077FA3046012100F05FFF06A819
:10614C0003F022FF00200FB0F0BD026042608260BD
:10615C005A683FE7002D3FF43DAFC968013D05602B
:10616C0041608A605A6835E7002D3FF433AF81688F
:10617C00013D896805608160CA605A682AE702F0AF
:10618C009BFC00252BE700BF64000020580000207A
:10619C002C02002040F2E833C2F200034DF804BD9B
:1061AC0093E806004FF0010B11EB0B014FF0000CC4
:1061BC0042EB0C0283E806005DF804BB704700BF9D
:1061CC0040F22843C2F200034DF804BD93E80600E8
:1061DC004FF0010B11EB0B014FF0000C42EB0C02DA
:1061EC0083E806005DF804BB704700BF0D4B81B01F
:1061FC001B68ABB10C490A7892B998680130986069
:10620C000092009B42F2F172C0F20902934205D84F
:10621C00009B01330093009B9342F9D900230B7030
:10622C0001B07047A8000020A40000202DE9F04F19
:10623C00B54C49F210432278C4F20D031203D31863
:10624C001A686168B14D22EA01021A602E688DB09D
:10625C0000238DF8003006F11802D2F800C01CF0B3
:10626C00100CFAD144F2412044F23F21E1466F4632
:10627C00C0F20F00C0F20F01136813F0100F4BD0D7
:10628C00A9F104090DA9002701EB0903A04E03F89D
:10629C00347CBB4656F8078006EB070AB8F1000FB2
:1062AC000BD0D8F81030042B07D1404604F0C6FCB4
:1062BC00404602F005FCCAF800B00437142FE9D1AF
:1062CC009DF80030232B14BF00230123B9F1090FD3
:1062DC008CBF002303F00103002B62D18D4B32687D
:1062EC00D3F800A08A4B002A76D05A68002A00F016
:1062FC00F2809A68002A00F0EB80DA68002A00F03D
:10630C00E4801B69002B00F0DD80834B01221A71A5
:10631C00824800F0F9FC26E0B9F1290FB0D01368DF
:10632C0013F01003FBD1D6F800805FFA88F8B8F1AF
:10633C007E0F07F8098018BF9C4609F1010929D086
:10634C00136813F0100F97D00123D2F8008018F0C7
:10635C00100F1BD001338342F7D16F4B01221A71FE
:10636C006F4800F0D1FC2B684FF0FF325A64227852
:10637C0049F210431203C4F20D03D3181968626872
:10638C0041EA02021A600DB0BDE8F08F8B427FF734
:10639C0073AFE2E70CF1010CBCF1030F3FF76CAFEC
:1063AC00CEE700221346002000216E46013316F87A
:1063BC0003C00CFA02FC0832082B40EA0C0041EA3C
:1063CC00EC71F3D1574B00221B6858609960564B07
:1063DC00002183E80600C6E79046544B18684368D2
:1063EC003BB15A68572A48D8482A46D0DB68002B5C
:1063FC00F7D102F061FB00274D4B01221B683A617B
:10640C004FF6FD723B60C7F6FF720023BB617B60E9
:10641C007B6100210A9200227963BA63F9623A63C4
:10642C007962BA62FF610A9A0DA93A62FB633B6416
:10643C00384641F8043D4FF4406203F0FDFEBB6862
:10644C0003F53C624FF08071C3F8C01B3949C3F8A7
:10645C00C4DB41F00101C3F8F81B4AF00101C3F899
:10646C00FC1B0DA9FA60384641F808AD4FF44062A8
:10647C0004F0C6F946F8287075E7483A5A60C268C5
:10648C00483AC2605A6892B90768012F15D09968CA
:10649C0000292ED0D3F80CC0BCF1000F1ED0C1F8CF
:1064AC000CC0DA6891600268013A02605A681B6895
:1064BC0048219F18995004379EE742608260026021
:1064CC005A68F4E74FF0040887E74FF0030884E7B5
:1064DC004FF0020881E74FF001087EE7002FE6D06D
:1064EC00816889688160CA600268013A02605A68F2
:1064FC00DDE7002FDBD04168C96841608A60026823
:10650C00013A02605A68D2E714040020DC03002030
:10651C00FC030020F003002038000020F4C620000B
:10652C00C0C620003404002028040020580000209D
:10653C00CC010020F96C200030B505464CF22870D7
:10654C0081B00024C0F220008DF8034000F0DCFB89
:10655C00284600F0D9FB0A2368468DF800308DF8E8
:10656C00014000F0D1FB204604F024FA204601B093
:10657C0030BD00BF2DE9F0475B4C83B02368064665
:10658C000F4690469BB16368002B00F08680A36891
:10659C00002B00F08580E368002B00F084802369D9
:1065AC00002B00F08380002003B0BDE8F0879946F3
:1065BC004E4B186843683BB15A68572A4ED8482A44
:1065CC004CD0DB68002BF7D102F076FA0025484B53
:1065DC004FF6FD721B684FF0010A2B60C7F6FF7275
:1065EC000023C5F810A06B60AB616B6100210292B7
:1065FC0000226963AA63E9622A636962AA62ED6197
:10660C00029A03A92A62EB632B64284641F80C3DDD
:10661C004FF44062694603F00FFEAB6803F53C6231
:10662C004FF08071C3F8C01B3249C3F8C47B41EAF8
:10663C000A01C3F8F81B46EA0A01C3F8FC1B03A9BC
:10664C00C2F808802846EA6041F8086D4FF44062B1
:10665C0004F0D6F844F829505046A5E7483A5A6059
:10666C00C268483AC2605A688AB90568012D20D0C0
:10667C00996819B3D3F80CC0BCF1000F29D0C1F83C
:10668C000CC0DA6891600268013A02605A681B68B3
:10669C0048219D189950043599E74FF0010987E777
:1066AC004FF0020984E74FF0030981E74FF004092A
:1066BC007EE74260826002605A68E8E7002DE6D00F
:1066CC004168C96841608A600268013A02605A6890
:1066DC00DDE7002DDBD0816889688160CA600268C3
:1066EC00013A02605A68D2E7FC03002058000020EF
:1066FC00CC010020F96C20002DE9F04F8B4C49F2B5
:10670C0010432278C4F20D031203D3181A6861687F
:10671C00874D22EA0102D5F800801A608CB0002364
:10672C008DF8003008F118031A6812F0100FFBD125
:10673C001A6812F0100FFBD1D8F800601A6812F02A
:10674C00100FFBD1D8F800B0186810F01000FBD176
:10675C0044F2412744F23F2C0146EA46C0F20F07AF
:10676C00C0F20F0C1A6812F0100F37D00CAB59187E
:10677C000027DFF8C0A101F8347C5AF807800AEB37
:10678C000709B8F1000F0CD0D8F81030042B08D141
:10679C00404604F053FA404602F092F90023C9F83F
:1067AC0000300437142FE8D19DF80120F6B25FFABF
:1067BC008BFA1AB99DF80030232B58D05E4B06EBA0
:1067CC000A2118686A46FFF7D5FE002834D15B4BC6
:1067DC0001221A715A4800F097FA2DE028298CBF33
:1067EC00002201220328CCBF002202F00102002A61
:1067FC00BCD01A6812F01002FBD1D8F800905FFAE6
:10680C0089F90AF801900131B9F17E0F18BF1046D1
:10681C0028D01A6812F0100FA4D00122D3F80090DF
:10682C0019F0100F1BD00132BA42F7D1434B0122A1
:10683C001A71444800F068FA2B684FF0FF325A6422
:10684C00227849F210431203C4F20D03D3181968CD
:10685C00626841EA02021A600CB0BDE8F08F624532
:10686C0080DDE3E7013004283FF47CAFD1E7364B01
:10687C0036491B6803C906EB0A2A03F10807C0CF87
:10688C00801941EB07010DF1280CD300C3F120084E
:10689C00A3F1200601FA08F830FA03F331FA06F7EF
:1068AC0048EA030313EA260338BF3B460CF80230D0
:1068BC000132082AE9D1296801F11802136813F092
:1068CC00200FFBD15FFA8AF30B60296801F11802E3
:1068DC00136813F0200FFBD12A68CAF3072AC1F8FA
:1068EC0000A002F11803196811F02001FBD1232339
:1068FC00136028681CF8016000F11802136813F08B
:10690C002003FBD1013108290660F2D14FF07E0C37
:10691C00286800F118010A6812F0200FFBD101332E
:10692C00042BC0F800C0F3D186E700BF140400208C
:10693C00DC030020FC030020E403002038000020CE
:10694C00F4C62000C0C6200030040020E80300205C
:10695C0030B502F0CBFAB3494B68002B00F04B81F9
:10696C005A6846F20300824209D8B2F5C04F06D0ED
:10697C00DB68002B00F03F815A688242F5D9A2F502
:10698C00C0425A60CA68A748A2F5C042CA605A6899
:10699C0092B90468012C00F0E3809968002900F09A
:1069AC001281DD68002D00F01A81CD60DA689160EB
:1069BC000268013A02605A681968DFF86CC2002359
:1069CC008C18CCF80030CCF80430CCF80830CCF86B
:1069DC000C304BD04FF4C0408C506060A360E3602F
:1069EC00DCF80C301B18CCF80C30DCF8043051F807
:1069FC0002E06068002B00F094801D687044A8428F
:106A0C000CBF1A461A4604D0D26812B111688842DB
:106A1C00FAD159686D18AE4507D0DB68002B7FD0D2
:106A2C001868596841188E45F7D119461346C3B1F9
:106A3C0060685A6882186260DCF80000012800F077
:106A4C0087809A68002A00F09080DD68002D00F0A5
:106A5C009B80D560DB689A60DCF80030013BCCF899
:106A6C00003019B14A686368D3184B606F4BC3F898
:106A7C0000C002F0C9FB02F043FD6D4B93E83000FF
:106A8C0043F24803C4F20303186849F20043C4F20A
:106A9C000D031A6822F020021A6044F29403C4F227
:106AAC000D0301221A6047F20803B522C4F20D034C
:106ABC001A6047F20002C4F20D02136813F0800F43
:106ACC00FBD047F21003C4F20D03D3F800C047F219
:106ADC000C03C4F20D031B68002144F66D6243EAFB
:106AEC000C2CC4F2C6120B1803FB02F303F5405333
:106AFC003933B3F1FF3F28BF01334E4A4CF30B1C23
:106B0C008CEA030313604C4A012092E81800002120
:106B1C001B1844EB0104012B82E8180011D030BD86
:106B2C001346DCF8001000293DD1A160E160DCF8CF
:106B3C000020CCF804400132CCF80840CCF80020FE
:106B4C0075E7002CEBD13D4A146054609460E6E785
:106B5C000023CCF80430CCF80830CCF8003080E7B7
:106B6C004260826002605A6826E700283FF479AFE1
:106B7C00DCF80430DB68CCF804309A60DCF80030C8
:106B8C00013BCCF800306CE700283FF46AAFDCF82E
:106B9C0008309B68CCF80830DD60DCF80030013B35
:106BAC00CCF800305DE7DCF808200021D460DCF87C
:106BBC000820E160A260DCF80020CCF8084001322B
:106BCC00CCF8002033E7002C3FF4F6AE4168C968DE
:106BDC0041608A600268013A02605A68ECE6002C57
:106BEC003FF4EAAE816889688160CA600268013A44
:106BFC0002605A68E0E6124C01232371114800F040
:106C0C0083F8114800F080F8DFF81CC00A232360D9
:106C1C000023CCF80030CCF80430CCF80830CCF899
:106C2C000C3023E75C0D00204800002058000020A9
:106C3C006C0D0020AC00002008000020100000208B
:106C4C003800002014C820001CCA200010B502F027
:106C5C0047FA104A002313600F4A0A2113600F4AA7
:106C6C000120137111600E4A116013710D4A00213D
:106C7C0092E818001B1844EB0104012B82E8180061
:106C8C0000D010BD002CFCD1074A146054609460F5
:106C9C00F7E700BFF4010020F001002040000020C5
:106CAC003800002008000020100000200C4B0022AF
:106CBC001A605A600B4A0120002110B492E81800A7
:106CCC001B1844EB0104012B82E8180001D010BC06
:106CDC007047002CFBD1044A146054609460F6E7B2
:106CEC005C000020080000201000002000B50046C9
:106CFC0003F060FE00BD00BF00B503F05BFE00BDFD
:106D0C0000B504F0CDFB00BD2DE9F045002507468C
:106D1C007C5D1C4EAA46DFF8708084B1092C29D00A
:106D2C000A2C18D0336820460133336004F082FCFF
:106D3C0033684F2B05DC01357C5D002CEED1BDE8B2
:106D4C00F0850D2004F076FC0A2004F073FC01356C
:106D5C00C6F800A0F0E70D2004F06CFC204604F00F
:106D6C0069FCD8F80030C6F800A00133C8F8003030
:106D7C000135E1E7204604F05DFC3368013508334A
:106D8C003360D9E7F0010020F401002010B54CF677
:106D9C002C0040F238040123C2F20004C0F220009F
:106DAC002371FFF7B1FF4CF61C20C0F22000FFF757
:106DBC00ABFF0A23236010BD0A4A0120002110B446
:106DCC0092E818001B1844EB0104012B82E8180010
:106DDC0001D010BC7047002CFBD1034A14605460E6
:106DEC009460F6E7080000201000002030B590B049
:106DFC006A46044601F028FF10AB1818002300F86F
:106E0C00403C6846FFF780FF6D46204610B030BD11
:106E1C0000B5344B83B01B78D3B90A2201928DF89C
:106E2C0008300E2814D8DFE800F05A56524E42367D
:106E3C0034302C082824201915002B480091FFF71A
:106E4C0063FF01A80099FFF7D1FF2848FFF75CFF0B
:106E5C0003B000BD2648FFF757FFF9E701A8FFF77D
:106E6C00C5FF2448FFF750FFF2E72348FFF74CFF1C
:106E7C00EEE72248FFF748FFEAE72148FFF744FF17
:106E8C00E6E72048FFF740FFE2E71F48FFF73CFF2B
:106E9C00DEE71E48D2E71E480091FFF735FF01A838
:106EAC000099FFF7A3FF1B48FFF72EFFD0E71A4806
:106EBC000091FFF729FF01A80099FFF797FF1748EA
:106ECC00FFF722FFC4E71648FFF71EFFC0E715487F
:106EDC00FFF71AFFBCE71448FFF716FFB8E7134893
:106EEC00ACE700BF6400002078C820001CCA20005A
:106EFC007CCA200048CA200020CA2000F0C920000B
:106F0C00C8C92000B0C9200088C820009CC9200036
:106F1C005CC9200060C9200030C9200034C92000A1
:106F2C0018C92000DCC820009CC8200058C82000CC
:106F3C002DE9F04F044684B00D46904600295AD0F6
:106F4C0000273E460DF10809EA46BB4618E0DB680F
:106F5C00FF221A604846CDF80880039702F064FFC0
:106F6C0023689A68022A2BD0DB686846C3F800B005
:106F7C000136CDF80080019702F056FFB5423AD9A0
:106F8C0023689A68022AE2D1197849F2004209036F
:106F9C00C4F20D028A1810685968DB680843106047
:106FAC00FF2018601368484623EA01011160CDF8F0
:106FBC000880039702F038FF23689A68022AD3D11D
:106FCC00197849F200420903C4F20D028A181068BC
:106FDC005968DB6808431060C3F800B01368684652
:106FEC0023EA010111600136CDF80080019702F00F
:106FFC001BFFB542C4D804B0BDE8F08F1C4B70B574
:10700C001C7806460D469CB9012912D040F6405218
:10701C000521C0F20302FFF78BFF08202146FFF782
:10702C00F7FE33689A68022A0FD0DB68FF221A60D9
:10703C0070BD40F640520221C0F20302FFF778FF08
:10704C0006202946FFF7E4FEF2E7197849F20042E0
:10705C000903C4F20D028A1810685968DB680843EA
:10706C001060FF201860136823EA01011160DFE74C
:10707C0064000020094B00B51B783BB149F2E032AB
:10708C000321C0F20402FFF753FF00BD48F2A062D7
:10709C001E21C0F20102FFF74BFFF6E7640000204F
:1070AC0030B5054690B040F238006A46C2F2000096
:1070BC0001F038FE10AB1818002300F8403C68466D
:1070CC00FFF722FE6C46284610B030BD30B590B0AC
:1070DC006A460023044601F071FD10AB181800231A
:1070EC0000F8403C6846FFF70FFE6D46204610B096
:1070FC0030BD00BF10B5072082B00021FFF788FE1D
:10710C0048F2804302A8C0F21E03002420E91800B4
:10711C00684602F089FE012002B010BD10B544F2A1
:10712C00402282B00446C0F20F0202A8002320E9DC
:10713C000C00684602F078FE2046FFF7DBFF10B12A
:10714C00024B01221A70002002B010BD6500002015
:10715C002DE9F04F4FF2FF7300F514180546C0F2FD
:10716C00270308F1180090B098420391089000F2A0
:10717C00858118F0030F40F0A581089905F5A0252D
:10718C00A1F50013013BED0ADB0A9D42079509931B
:10719C0000F26E8105F580635A1CD202DB4C06921C
:1071AC0005F50062A218DB0243F2080A059202936D
:1071BC00C4F20D0A40F2FF76089B0698DDF814C065
:1071CC00834294BFC8EB0303C8EB0003079A0193F7
:1071DC009CF800300132072B079200F2B180019825
:1071EC00032840F242810399D8F800200B681A401A
:1071FC00934240F0A5800398019A4346C8EB000CDB
:10720C0006E05CF8031018680840814240F0988052
:10721C00043A0433032AF4D81B680C93BAB1DDF892
:10722C000CC09DF830109CF800300CAD01EA030343
:10723C00994240F08580002306E0E95C1CF80300CD
:10724C0001EA000081427BD101339342F5D35823EC
:10725C001B680D93DAF8003013F0800FFAD1019906
:10726C0011F0030902BF01EB08020B928B4630D1DF
:10727C00BBF1000F13D0002708F104010097C146A1
:10728C00CDF810B00A91039A00980D9B02EB800583
:10729C0028464946049A984708B95F4536D3DDF825
:1072AC002C800599069A0B780998013301F8013B5B
:1072BC000591029B079902F5006203F50063884271
:1072CC0006920293C0F0D480039A019BD2180392C9
:1072DC0072E7019B10AD4344C9EB03070B933B686A
:1072EC00039945F8103D28464A4601F04BFD0D9B8D
:1072FC00284639464A4698470028D0D13A680C9B14
:10730C009A42F4D1019820F0030BB1E7D9F8003080
:10731C002A689A42B7D10A99CB190437BB45BED912
:10732C00DDF80CC0BA0853F8041B5CF82200884244
:10733C00F3D0C7EB0B00009207EB08090490A2E70F
:10734C000299414503D1089A069B9A4212D0029A9F
:10735C00002352F8041B40F2FC70E15004338342CA
:10736C00F7D1029940F23842D1F8FC37C2F2000250
:10737C00C2F8FC3754231B680D93DAF8005015F053
:10738C008005FAD1029F4FF4006907F1040B0D9BA5
:10739C0038464946984708B9B5422DD90299DDF8C7
:1073AC0014C0C1EB0800002320F003008CF800305F
:1073BC0020180399019A01F0E5FC58231B680D93E2
:1073CC00DAF8007017F08007FAD1DDF808904FF466
:1073DC0000624B460433BB46009204934FEA8B0584
:1073EC000D9B60194946009A984700283AD1B7423C
:1073FC0016D90199884454E73B68B3F1FF3F08BFA5
:10740C000BEB0503C3D10435B542C7D853F8042B95
:10741C00B2F1FF3FF7D0029BC5F500695F19B6E7E3
:10742C00D9F8003062599A42D8D1049AD31904374A
:10743C00B74217D84FEA970B53F8042B54F82B107C
:10744C009142F4D0029BC7F5006C03EB0709CDF811
:10745C0000C04FEA8B050D9B60194946009A98476E
:10746C000028C4D0019880441BE7019A4346D3E618
:10747C00A8F51415284610B0BDE8F08F244C012354
:10748C0023712448FFF740FC10232360414620461B
:10749C00FFF71CFE2048FFF737FC03990EA8FFF7F7
:1074AC00FFFD0A261D48FFF72FFC182126602046F9
:1074BC00FFF70CFE1A48FFF727FC1A48FFF724FCCD
:1074CC002660D7E7124C012323711248FFF71CFCEE
:1074DC001023236041462046FFF7F8FD0E48FFF7C6
:1074EC0013FC03990FA8FFF7DBFD0A260B48FFF7E7
:1074FC000BFC182126602046FFF7E8FD0A48FFF731
:10750C0003FC0848FFF700FC2660B3E738040020B2
:10751C0038000020E4CA200004CB200008CB200057
:10752C000CCB20001CCA20004CCB200000B540F234
:10753C006C0EC2F2000E4CF684330EF1100CC0F23D
:10754C0020030FCB8CE80F000023CEF82030CEF8B0
:10755C00243061464FF40030FFF7FAFD00BD00BF48
:10756C00012830B504D010B9244802F0BFFC30BD5E
:10757C00224C204602F07CFC002323626362204BE9
:10758C0004F1100C40F2140E0FCBC0F2270E8CE855
:10759C000F004FF41C1240F21003A0181168CFF624
:1075AC00D9730432C3187245144D1960F3D11368A2
:1075BC001348CCF8143005F1100101F02FFCD0B9B0
:1075CC002A6A41F254539A4215D86A6A9A4212D8DE
:1075DC000C4A012092E8180000211B1844EB01040E
:1075EC00012B82E81800C2D1002CC0D1064A1460CD
:1075FC0054609460BBE7FFF799FFE9E76C0000204B
:10760C0084CB2000080000201000002000B50120D1
:10761C00FFF7A6FF00BD00BF00B50020FFF7A0FFDD
:10762C0000BD00BF70B51C4C87B000234068694694
:10763C008DF81B3001F0F0F8626A41F254539A4213
:10764C006D4625D0216A521840F261019608C6F2A7
:10765C000601A1FB0606760A03FB1626204606EB5E
:10766C00460602F02FFCF00000F500306946183099
:10767C00FFF76EFD636A4FF40030013304F1100123
:10768C006362FFF765FD204602F012FC07B070BD87
:10769C000248FFF739FBF9E76C00002094CB20007F
:1076AC002DE9F04F002A99B0039240F3A98349F2D7
:1076BC00380A49F25008DFF83C58DFF83C9801F1E1
:1076CC000E064FF0000B0FAC0427C4F2080AC4F2EC
:1076DC00080811238DF83C30F378B2781B0443EA88
:1076EC0002227378169942EA0303327901F07F4142
:1076FC0043EA0263139A8DF84B3002F07F4242EA60
:10770C0013231393F379B2791B0443EA022273799E
:10771C0042EA0303327A43EA0263149A8DF84F303B
:10772C0002F07F4242EA13231493F37AB27A1B04D9
:10773C0043EA0222737A42EA0303327B43EA02638E
:10774C00159A8DF8533002F07F4242EA13231593B9
:10775C0016F8073C16F8082C1B0443EA022216F80C
:10776C00093C42EA030316F8062C43EA026212466D
:10777C004FEAE27341EA1221169117998DF85B30AA
:10778C0001F07F4141EA13238DF85720179333788A
:10779C008DF85F30189B9DF83C2003F07F431893C5
:1077AC0042F20043C9F2496342EA03030F936FF0BC
:1077BC007B038DF8403016F8033C16F8020C43EAB4
:1077CC00002004F0E9FA9DF840308DF8497043EA46
:1077DC000023000E1093C3B243EA0123DFF81C0709
:1077EC00090E11938DF848108DF84A7002F06AFB5F
:1077FC00522003F01FFF0023CDF80880B0461E4630
:10780C00A05D013603F016FF272EF9D1582046460D
:10781C00DDF8088003F00EFF582003F00BFF582012
:10782C0003F008FF2B68032BFCDDEFF31083DBB2B6
:10783C0072B6CAF80070D8F8002003B962B612F01C
:10784C00010FEFD089F8003003F0BEFE0346DFF8DD
:10785C00AC06009302F02CFB009B532B00F0BA817A
:10786C0040F26803C2F200031A683378DFF88C0622
:10787C000192009302F026FB019A009BB2F8A4E05F
:10788C00BEF1000F0FD051688B4200F0BD82104644
:10789C00002105E0D0F808C00430634500F0B48244
:1078AC0001318E45F6DC0EF1010E42F82E30A2F8B5
:1078BC00A4E0DFF8480602F0FBFA1123139A8DF8C6
:1078CC0010309DF84B3043EA02239DF8142042EA15
:1078DC0003221B0E8DF8183005929DF84F30149A28
:1078EC0043EA02239DF8182042EA03221B0E8DF86E
:1078FC001C3006929DF85330159A43EA02239DF8EA
:10790C001C2042EA03221B0EDBB243F41C1343F48B
:10791C00805308934FF000038DF8243007929DF8A4
:10792C005730169A43EA02209DF85B30179A43EAC7
:10793C0002214FF61842CFF6FF7212184FF0FF33A8
:10794C0043EB01039DF82410DFF8B00541EA022156
:10795C000991110EC9B241EA03211B0E8DF82C308E
:10796C000B9B4FF0FF326FEA03638DF830206FEA08
:10797C0013630B930C9B8DF834206FEA03636FEA4F
:10798C001363189A0C939DF85F300A9143EA022313
:10799C009DF8342042EA03221B0E0D929DF8102014
:1079AC008DF8383042F20043C9F2496342EA0303CE
:1079BC0004936FF07B038DF8143002F083FA53209C
:1079CC0003F038FE0023CDF80880B0461E4604AB09
:1079DC00985D013603F02EFE292EF8D1582046462C
:1079EC00DDF8088003F026FE582003F023FE582013
:1079FC0003F020FE2B68032BFCDDEFF31083DBB2CE
:107A0C0072B6CAF80070D8F8002003B962B612F04A
:107A1C00010FEFD089F8003003F0D6FD0346DFF8F4
:107A2C00DC04009302F044FA009B462B00F03682F3
:107A3C009DF8102042F60043C9F2492342EA0303A1
:107A4C000493DFF8B8046FF07B038DF8143002F068
:107A5C0039FA532003F0EEFD0023CDF80880B04630
:107A6C001E4604AB985D013603F0E4FD292EF8D1D7
:107A7C0058204646DDF8088003F0DCFD582003F062
:107A8C00D9FD582003F0D6FD2B68032BFCDDEFF35A
:107A9C001083DBB272B6CAF80070D8F8002003B9B4
:107AAC0062B612F0010FEFD089F8003003F08CFDB4
:107ABC00DFF8480402F0FCF99DF8102042F2004374
:107ACC00C9F2496342EA030304936FF07B038DF818
:107ADC0014309DF838300D9A1B0643EA122303F537
:107AEC00FE630F3302F0FF0242EA0322DFF80C04BC
:107AFC001B0E8DF838300D9202F0E4F9532003F090
:107B0C0099FD0023CDF80880B0461E4604AB985D65
:107B1C00013603F08FFD292EF8D158204646DDF8AA
:107B2C00088003F087FD582003F084FD582003F0F3
:107B3C0081FD2B68032BFCDDEFF31083DBB272B6F7
:107B4C00CAF80070D8F8002003B962B612F0010F21
:107B5C00EFD089F8003003F037FDE84802F0A8F9BF
:107B6C00E64802F0AFF9522003F064FD0023CDF893
:107B7C000880B0461E46A05D013603F05BFD272E43
:107B8C00F9D158204646DDF8088003F053FD582003
:107B9C0003F050FD582003F04DFD2B68032BFCDD4A
:107BAC00EFF31083DBB272B6CAF80070D8F800207D
:107BBC0003B962B612F0010FEFD089F8003003F070
:107BCC0003FD0346CD48009302F072F9009B532B42
:107BDC0040F02E81CA48FFF797F89DF83C2042F6FA
:107BEC000043C9F2492342EA03030F936FF07B036E
:107BFC008DF8403016F8073C16F8080C1B0443EAC5
:107C0C00002016F8093C40EA030316F8060C43EA78
:107C1C00006004F0C1F89DF8403043EA0023000EE8
:107C2C001093C3B243EA01231193090E0323B34803
:107C3C008DF849308DF84A308DF8481002F042F931
:107C4C00522003F0F7FC0023CDF80880B0461E4606
:107C5C00A05D013603F0EEFC272EF9D158204646E4
:107C6C00DDF8088003F0E6FC582003F0E3FC582014
:107C7C0003F0E0FC2B68032BFCDDEFF31083DBB28D
:107C8C0072B6CAF80070D8F8002003B962B612F0C8
:107C9C00010FEFD089F8003003F096FC03469748AB
:107CAC00009302F005F9009B532B40F0BC809548E3
:107CBC00FFF72AF89DF83C2042F20043C9F24963D1
:107CCC0042EA03030F936FF07B038DF8403016F8F4
:107CDC00053C16F8040C43EA002004F05DF89DF80E
:107CEC004030189A43EA0023000E1093C3B243EAC3
:107CFC000123119302238DF849308DF84A309DF8F9
:107D0C005F30090E43EA022303F5FE6302F07F4263
:107D1C000F338DF85F30794842EA132318938DF8AE
:107D2C00481002F0CFF8522003F084FC0023CDF869
:107D3C000880B0461E46A05D013603F07BFC272E62
:107D4C00F9D158204646DDF8088003F073FC582022
:107D5C0003F070FC582003F06DFC2B68032BFCDD4A
:107D6C00EFF31083DBB272B6CAF80070D8F80020BB
:107D7C0003B962B612F0010FEFD089F8003003F0AE
:107D8C0023FC03465D48009302F092F8009B532BB2
:107D9C0044D15D48FEF7B8FF5C4B18991A689DF802
:107DAC005F30564843EA0123A3F5FE630F3B019273
:107DBC00009302F087F8019A009BB2F8A4E0BEF1A0
:107DCC00000F0DD051688B4210D01046002104E0FA
:107DDC00D0F808C00430634508D001318E45F7DC7B
:107DEC000EF1010E42F82E30A2F8A4E0434802F046
:107DFC005FF8039B0BF1010B16365B453FF769AC43
:107E0C00012019B0BDE8F08F3C4802F051F8404811
:107E1C00FEF77AFF3F48FEF777FF4EE53E48FEF748
:107E2C0073FF0020EDE73D48FEF76EFF0020E8E70A
:107E3C003B48FEF769FF40F26803C2F200031D687D
:107E4C002E48347802F03EF8B5F8A400A8B12B46C1
:107E5C0001220026B6B1D3F808C01146C3F804C0FD
:107E6C00013204338842F5DC3EB14FF0FF32431C43
:107E7C00801845F82320A5F8A400204802F018F833
:107E8C000020BEE759688C4209BFD3F808C01146E0
:107E9C001146C3F804C008BF0126E1E72148FEF7EC
:107EAC0033FF40F26803C2F200031D6813483478B4
:107EBC0002F008F8B5F8A4000028DED000262B4606
:107ECC00012256B1D3F808C01146C3F804C00132E0
:107EDC0004338842C8DD002EF4D159688C4209BFA6
:107EEC00D3F808C011461146C3F804C008BF0126D8
:107EFC00EDE700BFB0000020B4000020940000208B
:107F0C0004CD200044CD200080CD2000680000204E
:107F1C00D4CB200020CC20005CCD200020CD200034
:107F2C00C0CC200078CC20002DE9F04FDFF8409534
:107F3C00A2B0D9F824304FF0000B00AF4FF00A0A72
:107F4C005B45F860C7F878A087F87CB040F35A819D
:107F5C00C7F808D0ADF5727D282BA8BF2823DFF811
:107F6C00141505226846BB6100F00CFFB9696E461A
:107F7C00594540F3FD8040F26101721D0523C6F2A4
:107F8C0006013A616D467B6307F1780807F1380406
:107F9C007961BBF1000F40F03A81D9F82430002B05
:107FAC0040F007824FF0000A0422314607F18000AE
:107FBC0000F05EFF87F884A0F179B379090441EAF7
:107FCC000321737996F80AC01943337A327B41EA5C
:107FDC000361737ADFF8A00443EA0C2CF37A43EACA
:107FEC000223FB61727B3A62B37B7B62737C327CD3
:107FFC001B0443EA0223F27B1343B27C43EA026282
:10800C00BA62737D327D1B0443EA0223F27C134374
:10801C00B27D43EA0262FA62737E327E1B0443EA4B
:10802C000223F27D1343B27EC7F800C043EA02621A
:10803C003A637960FEF768FE07F18000FEF764FE94
:10804C00DFF83804FEF760FE224653467968404656
:10805C0000F0B4FD07F18801081800F850AC204678
:10806C00FEF752FEDFF81804FEF74EFED7F800C0FC
:10807C00534661462246404600F0A0FD07F18802B7
:10808C00101800F850AC2046FEF73EFEFD48FEF7F7
:10809C003BFEF96922465346404600F08FFD07F13E
:1080AC008803181800F850AC2046FEF72DFEF64851
:1080BC00FEF72AFE22465346396A404600F07EFD02
:1080CC0007F18801081800F850AC2046FEF71CFE9A
:1080DC00EE48FEF719FE5346796A2246404600F0F8
:1080EC006DFD07F18802101800F850AC2046FEF721
:1080FC000BFEE748FEF708FEB96A2246404600F040
:10810C00A3FD07F18803181800F850AC2046FEF7C1
:10811C00FBFDE048FEF7F8FD2246F96A404600F008
:10812C0093FD07F18801081800F850AC2046FEF7C3
:10813C00EBFDD848FEF7E8FD396B2246404600F0CF
:10814C0083FD07F18802101800F850AC2046FEF7AA
:10815C00DBFDD148FEF7D8FD0A23BB677A6BBB6900
:10816C000BF1010B163216355B457A633FF711AFF5
:10817C00F8683146BA69FFF793FA002800F072816B
:10818C00C64807F13804FEF7BFFD2246B96907F16E
:10819C00780000F059FD07F188010818002500F857
:1081AC00505C2046FEF7B0FDBD48FEF7ADFDBA6948
:1081BC00AA4225DD2C4640F26105C6F2060541F2C5
:1081CC0054569046D9F82030A94801339A08A5FB9B
:1081DC000212520A06FB1233C9F82030D9F82430A7
:1081EC000134013BC9F8243001F06CFEAD494FF469
:1081FC000030FEF7ADFF9E4801F05AFEA045E1DCD1
:10820C00D7F808D007F18807BD46BDE8F08FD9F83C
:10821C0024309B45C0F0F98095F807A0AB794FEA64
:10822C000A4A4AEA032A6B7995F80AC04AEA030A11
:10823C002B7A2A7B4AEA036A6B7A9B4843EA0C2C1A
:10824C00EB7A43EA0223FB616B7B3B62A97B79628D
:10825C006B7C2A7C1B0443EA0223EA7B1343AA7C33
:10826C0043EA0262BA626B7D2A7D1B0443EA022355
:10827C00EA7C1343AA7D43EA0262FA626B7E2A7E91
:10828C001B0443EA0223EA7D1343AA7EC7F800C00D
:10829C0043EA02623A63FEF737FD51460023224659
:1082AC00404600F08BFC07F188024FF0000A1018D2
:1082BC0000F850AC2046FEF727FD7148FEF724FD70
:1082CC00D7F800C0224661465346404600F076FC83
:1082DC0007F18803181800F850AC2046FEF714FD7F
:1082EC006848FEF711FD22465346F969404600F0F6
:1082FC0065FC07F18801081800F850AC2046FEF721
:10830C0003FD6148FEF700FD396A5346224640469C
:10831C0000F054FC07F18802101800F850AC20460D
:10832C00FEF7F2FC5948FEF7EFFC796A22465346F9
:10833C00404600F043FC07F18803181800F850ACD5
:10834C002046FEF7E1FC5948FEF7DEFC2246B96AEE
:10835C00404600F079FC07F18801081800F850AC91
:10836C002046FEF7D1FC4B48FEF7CEFCF96A2246BC
:10837C00404600F069FC07F18802101800F850AC78
:10838C002046FEF7C1FC4348FEF7BEFC396B224683
:10839C00404600F059FC07F18803181800F850AC5F
:1083AC002046FEF7B1FC3C48FEF7AEFC0A21B9674B
:1083BC00D4E640F26C02C2F20002136A79694FEA09
:1083CC00930AA1FB0A1A41F254524FEA5A2A02FBB1
:1083DC001A3A0AEB4A0A4FEACA0A25480AF51C1A45
:1083EC0001F070FD0AF1180A386952465B4652F8E2
:1083FC00041BC1500433142BF9D1DAF81430396949
:10840C001B484B6101F054FDCCE540F26C01C2F20B
:10841C0000010B6A7A695B444FEA930AA2FB0A2AB1
:10842C0041F254514FEA5A2A01FB1A3A0AEB4A0A12
:10843C000F484FEACA0A01F045FD0AF51C1A7A6B7F
:10844C000AF1180AB0180023524652F8041BC15006
:10845C000433142BF9D1DAF814304361044801F0D9
:10846C0027FDD9E61248FEF74FFCD7F808D0C9E62D
:10847C006C0000209CCD2000A4CD2000ACCD2000B1
:10848C00BCCD2000C8CD2000D0CD2000D8CD200000
:10849C00E4CD2000F0CD20001CCA200010CE20001E
:1084AC0018CE20007C000020F4CD200004CE20004B
:1084BC0024CE20002DE9F04F954D93B02B78016020
:1084CC00426023B101232B7013B0BDE8F08F914BA8
:1084DC00186841680B46002900F016814A68BB2ACF
:1084EC0008D8AC2A06D0DB68002B00F00D815A6846
:1084FC00BB2AF6D9AC3A5A60C268AC3AC2605A6828
:10850C008AB90468012C00F0E5809E68002E00F00A
:10851C00E680D968002900F0EC80F160DA68013C53
:10852C00046096605A681B68AC219F1899500437F8
:10853C004FF00001A7F8A41001234FF0FF3247F8C9
:10854C0023200133292BFAD1734801F0BBFC44F2F0
:10855C004024252049F2380949F2500ADFF8BC8141
:10856C006F4E03F067F8C0F20F040023C4F2080941
:10857C004FF0040BC4F2080A98F800103268032A72
:10858C0040F39480EFF31081C9B272B6C9F800B011
:10859C00DAF8002001B962B612F0010F00F0868003
:1085AC00002C88F8001040F38B8003F00DF8034684
:1085BC00252BE1D15B4E0024305D013403F03AF8F9
:1085CC00082CF9D1582003F035F8582003F032F874
:1085DC00582003F02FF8544E0024305D013403F082
:1085EC0029F8082CF9D1582003F024F8582003F06E
:1085FC0021F8582003F01EF84C4E0024305D013455
:10860C0003F018F8092CF9D1582003F013F858206E
:10861C0003F010F8582003F00DF83F4801F048FC27
:10862C0041F6802313A8C0F20603002420E91800A9
:10863C0001F0FAFB3E4B3F4C1F603F4801AEFEF78A
:10864C0063FB3246616A3D4800F0FEFA13A9081834
:10865C00002300F8483C3046FEF756FB3848FEF73E
:10866C0053FB636A002B7FF72DAF40F26106C6F215
:10867C00060641F25457236A2E4801339A08A6FB8A
:10868C000212520A07FB12332362636A013B6362D4
:10869C0001F018FC2B494FF40030FEF759FD25482A
:1086AC0001F006FC636A002BE5DC0BE7013C621C65
:1086BC00002A3FF763AF002C88F800103FF775AF26
:1086CC00252044F240240093C0F20F0402F0B2FFC4
:1086DC00009B6DE70260426082605A6823E7002CC1
:1086EC003FF421AFC968013C046041608A605A685C
:1086FC0019E7002C3FF417AF8168013C89680460CE
:10870C008160CA605A680EE700F0D6F900270FE7BF
:10871C00650000205800002094000020B4000020C8
:10872C00B0000020D8CA20003CCE2000CCCA2000CB
:10873C00680000206C000020B8CB20004000002016
:10874C001CCA20007C0000200A4A0120002110B421
:10875C0092E818001B1844EB0104012B82E8180066
:10876C0001D010BC7047002CFBD1034A146054603C
:10877C009460F6E708000020100000202DE9F04F6F
:10878C0000F1180B044682B058460D4601F0E8FB88
:10879C006189A789268A41EA0747E189227A637AA7
:1087AC00D4F80080B4F80490B4F806A041EA064668
:1087BC00618AA48A584641EA04440092019301F06C
:1087CC00BBFB019B009A2846002128FA01FC80F88B
:1087DC0000C047FA01FC80F80AC046FA01FC80F898
:1087EC000EC044FA01FC083180F812C00130202977
:1087FC00EBD185F8049085F806A04FEA19294FEAC9
:10880C001A2A85F8059085F807A02A726B72162033
:10881C0002B0BDE8F08F00BFF0B500F118050F46AF
:10882C0006461624284601F09BFB31462246384664
:10883C0000F0A8FA284601F07FFB2046F0BD00BFEF
:10884C0010B50121044600F1180001F055FB00227F
:10885C00234643F8042B0433626043F8042B43F89B
:10886C00042B43F8042B1A8010BD00BF2DE9F047F0
:10887C0006464CF61C284CF6486092B000254FF08A
:10888C000A0AC0F22008C0F22000CDF840A08DF8F2
:10889C004450FEF739FA404612AFFEF735FA4CF663
:1088AC005C6047F808ADC0F22000FEF72DFAB188E5
:1088BC006A462B46384600F081F912AB181800F8BE
:1088CC00485C6846FEF720FA4046FEF71DFA4CF667
:1088DC006460C0F22000CDF840A0FEF715FAF188D4
:1088EC006A462B46384600F069F912AB181800F8A6
:1088FC00485C6846FEF708FA4046FEF705FA4CF667
:10890C006C60C0F22000CDF840A0FEF7FDF9317A82
:10891C006A462B46384600F051F912AB181800F88D
:10892C00485C6846FEF7F0F94046FEF7EDF94CF668
:10893C007460C0F22000CDF840A0FEF7E5F9717A22
:10894C006A462B46384600F039F912AB181800F875
:10895C00485C6846FEF7D8F94046FEF7D5F94CF668
:10896C007C60C0F22000CDF840A0FEF7CDF9316854
:10897C006A462B46384600F021F912AB181800F85D
:10898C00485C6846FEF7C0F94046FEF7BDF94CF668
:10899C008860C0F22000CDF840A0FEF7B5F97389CD
:1089AC00B1896A4643EA0141384600F04DF912ABF1
:1089BC0018184CF6F05900F8485CC0F220096846CB
:1089CC00FEF7A2F94846FEF79FF9F389318A6A4609
:1089DC0043EA0141384600F037F912AB181800F899
:1089EC00485C6846FEF790F94846FEF78DF9738AA5
:1089FC00B18A6A4643EA0141384600F025F912ABC8
:108A0C00181800F8485C6846FEF77EF94046FEF7F9
:108A1C007BF940466C46CDF840A0FEF775F912B0D4
:108A2C00BDE8F087012810B504D010B90C4801F04E
:108A3C005DFA10BD0A4801F01BFA0A4A012092E8BF
:108A4C00180000211B1844EB0104012B82E81800CC
:108A5C00EFD1002CEDD1044A146054609460E8E727
:108A6C0094000020080000201000002000B5012018
:108A7C00FFF7D8FF00BD00BF00B50020FFF7D2FF05
:108A8C0000BD00BF0A4A0120002110B492E8180072
:108A9C001B1844EB0104012B82E8180001D010BC18
:108AAC007047002CFBD1034A146054609460F6E7C5
:108ABC00080000201000002000B5FEF721F900BDD1
:108ACC003D4B70B41D6850F8043C041F0F2B41D96A
:108ADC00002240F8044C6360A260E260EA68D3189C
:108AEC00EB606B6850F804CC6068002B35D01E68C6
:108AFC006044B0420CBF1A461A4604D0D26812B178
:108B0C0011688842FAD159687618B44507D0DB68E9
:108B1C00002B21D01868596841188C45F7D119469B
:108B2C00134693B160685A688218626028680128FD
:108B3C001DD09A68002A1FD0DE68002E31D0D66076
:108B4C00DB689A602B68013B2B6019B14A6863683B
:108B5C00D3184B6070BC704713462968B1B9A1603B
:108B6C00E1602A686C600132AC602A60D9E70023AE
:108B7C006B60AB602B60E8E70028E6D06B68DB68C5
:108B8C006B609A602B68013B2B60DEE7AA680021C2
:108B9C00D460AA68E160A2602A68AC6001322A60E5
:108BAC00BFE70028D1D0AB689B68AB60DE602B6858
:108BBC00013B2B60C9E700BF5800002070B40029AE
:108BCC003BD0B1F5807F1BD9D0F800C0BCF1080FA9
:108BDC0014BF00240124BCF1100F08BF44F00104A1
:108BEC0084B14FF0300C02F803C0D0F800C0013350
:108BFC00BCF1100F06D14FF0780C02F803C0013312
:108C0C00D0F800C00C465D1CB4FBFCF41E462B4691
:108C1C00002CF8D10B4C9219B1FBFCF30CFB131C80
:108C2C0014F80C3002F80139D0F800C0B1FBFCF19B
:108C3C000029F1D1284670BC70473021D154581C02
:108C4C00F9E700BF90CE2000002900B503DB00231C
:108C5C00FFF7B4FF00BD2D23137049420123F7E742
:108C6C002DE9F04F144651EA040281460D469B460D
:108C7C00099E4BD0002C4ED0D9F80070082F14BF91
:108C8C0000230123102F08BF43F001036BB13023E5
:108C9C000BF80630D9F800700136102F05D1782367
:108CAC000BF806300136D9F800703F464FEAE778EA
:108CBC00284621463A46434603F0D6F806F1010A07
:108CCC0050EA010233465646F4D10BEB0306DFF8AB
:108CDC0050B03A4643462846214603F071FA1BF839
:108CEC000030214606F80139D9F8007028463F4675
:108CFC004FEAE77843463A4603F0B6F850EA0103E8
:108D0C0005460C46E5D15046BDE8F08F30230BF8F4
:108D1C000630701CF8E7B1F5807FADD8C3E700BF13
:108D2C0090CE2000302310B41370084C782353706D
:108D3C00072301F00F0C14F80CC0D0180909013BE3
:108D4C0080F802C0F5D20A2010BC704790CE2000EB
:108D5C000A4A0120002110B492E818001B1844EBB9
:108D6C000104012B82E8180001D010BC7047002CC4
:108D7C00FBD1034A146054609460F6E708000020AD
:108D8C00100000200F2A30B405460C4642D941EAA7
:108D9C00000313F0030F02BF14468C46034609D0A0
:108DAC00002314F803C005F803C001339A42F8D12C
:108DBC0030BC7047DCF80050103C1D60DCF80450EF
:108DCC005D60DCF808509D60DCF80C500CF1100C68
:108DDC00DD6010330F2CEDD8A2F1100404F00F025B
:108DEC0024F00F04103405190C19032A12D900238E
:108DFC0054F803C045F803C00433C3EB020CBCF1B8
:108E0C00030FF5D8043A22F003030433ED18E418E9
:108E1C0002F00302002AC3D1CAE700BF41EA0003F3
:108E2C0013F0030F03D103680A6893420CD0027845
:108E3C009AB10B789A4212D0D01A704750F8043F6E
:108E4C0051F8042F9342F2D1A3F1013222EA030329
:108E5C0013F0803FF2D00020EFE70B78ECE742787C
:108E6C000131002AF9D00B7801309A42E4D1F6E7AF
:108E7C0041EA000313F0030F14BF00230123032A5C
:108E8C0094BF002303F0010310B4002B2CD0034635
:108E9C00D1F800C0ACF1013424EA0C0414F0803F8A
:108EAC001BD0C2B10C789C46013A0CF8014B54B162
:108EBC00023382B111F8014F9C4603F8014C013A80
:108ECC000133002CF5D132B1002319460CF80310F4
:108EDC0001339A42FAD110BC7047043A0431032A88
:108EEC0043F804CBDDD9D3E70346DAE700B500F04D
:108EFC0003F800F095F800BDDFF81CC147F2F8321A
:108F0C00C2F20002CCEB020270B4002A4AD0002359
:108F1C00424DCCF800C0CCF80420CCF80830CCF88A
:108F2C000C30EB686446D318EB606B68002B3CD0BC
:108F3C001E680CEB8200B0420CBF1A461A4604D0D5
:108F4C00D26812B111688842FAD1596806EB8106D1
:108F5C00B44208D0DB68002B26D05868196801EBA6
:108F6C0080018C42F6D119461346ABB1DCF80400F3
:108F7C005A688218CCF804202C68284A012C23D07B
:108F8C009868002825D0DD68002D3AD0C560DB68D4
:108F9C0098601368013B136021B14A68DCF8043017
:108FAC00D3184B6070BC704713462A681B48D2B963
:108FBC000121CCF80820CCF80C200160C0F804C0CA
:108FCC00C0F808C01146D0E70023536093601360CB
:108FDC00E2E7002CE0D05368DB68536098601368BC
:108FEC00013B1360D8E781680132C1F80CC081687D
:108FFC00CCF808100021CCF80C10C0F808C00260A6
:10900C00B3E7002CC8D093689B689360DD6013684D
:10901C00013B1360C0E700BF740D00205C0D002005
:10902C0043F20C03C4F203031A68122022F001026B
:10903C001A6042F20802C4F20D02116841F00801F4
:10904C00116042F20C02C4F20D02116841F00801E9
:10905C00116042F21002C4F20D02116841F00801D5
:10906C00116043F200020021C4F20302116043F2CA
:10907C000402C4F20302106043F22802C4F2030299
:10908C004FF0FF30106043F23802C4F2030211605B
:10909C0043F21802C4F20302116841F0010111609D
:1090AC001A6842F001021A60704700BF0A4A012098
:1090BC00002110B492E818001B1844EB0104012B9A
:1090CC0082E8180001D010BC7047002CFBD1034A79
:1090DC00146054609460F6E7080000201000002033
:1090EC004CF22043C4F20D031A6822F0C0021A603D
:1090FC004CF20043C4F20D031A6822F0C0021A604D
:10910C0044F2F8030122C4F20D031A6044F2FC038A
:10911C00C4F20D031A6042F20002C4F20D0211688F
:10912C004FF6F873CFF6DC6301EA030343F408133C
:10913C0042F204011360C4F20D010A6840F200030C
:10914C00C0F2011302EA0303002BF6D142F2000332
:10915C00C4F20D031A6822F4E0621A6042F20402AF
:10916C00C4F20D02136813F0806FFBD0704700BF80
:10917C004EF61453CEF200031A6842F001021A6044
:10918C0042F29803C4F20D031A6842F001021A600D
:10919C004EF60853CEF200034FF401121A607047DA
:1091AC000A4A0120002110B492E818001B1844EB65
:1091BC000104012B82E8180001D010BC7047002C70
:1091CC00FBD1034A146054609460F6E70800002059
:1091DC00100000200A4A0120002110B492E8180067
:1091EC001B1844EB0104012B82E8180001D010BCC1
:1091FC007047002CFBD1034A146054609460F6E76E
:10920C00080000201000002000B5FFF7B1FF00F0AF
:10921C0077FB00F02DF800F0C9F800F003F800F02F
:10922C00ABF900BD044B082203F5807183F80028CC
:10923C0001338B42FAD17047380400200A4A0120CE
:10924C00002110B492E818001B1844EB0104012B08
:10925C0082E8180001D010BC7047002CFBD1034AE7
:10926C00146054609460F6E70800002010000020A1
:10927C004EF210034EF21802CEF200030021CEF291
:10928C000002196011604EF21402CEF200024FF48B
:10929C00FA41116006221A604BF26D5140F2DC2249
:1092AC00C2F20002C0F22001D1631A6842F001023E
:1092BC001A6070470A4A0120002110B492E8180085
:1092CC001B1844EB0104012B82E8180001D010BCE0
:1092DC007047002CFBD1034A146054609460F6E78D
:1092EC00080000201000002040F2B6030022C2F259
:1092FC0000031A7040F2B503C2F200031A7040F278
:10930C00B003C2F200030221196040F64C53C2F2C2
:10931C0000031A6040F65853C2F2000349F2380CAD
:10932C001A60C4F2080C032349F2400049F24C01C4
:10933C00CCF8003030B4C4F208000424C4F20801A4
:10934C0049F244030460C4F208030A601D6845F046
:10935C0040051D601D6845F008051D601D6845F041
:10936C0008051D602023CCF8004002600B6049F218
:10937C005003C4F208031A6842F080021A601A689B
:10938C0042F010021A6049F21C03C4F208030122D5
:10939C001A6049F22403C4F208031A6049F22C0340
:1093AC00C4F208031C6030BC704700BF4BF2204372
:1093BC00C4F20D031A682DE9F04822F004021A6079
:1093CC004BF20043C4F20D031A6842F004021A6017
:1093DC004BF21003C4F20D03FF221A6049F23C0257
:1093EC00C4F20802136843F001031360136843F0DE
:1093FC0002031360136813F0800FFBD049F20403CF
:10940C00C4F208031A6822F001021A60FFF76CFF1D
:10941C001D4B01221A601D4A1D4BC3F8F0204EF261
:10942C000413CEF200034FF480521A60EFF310874E
:10943C00FFB207B162B6174843F24806C4F20306FE
:10944C0090E80018316800225B4612EB010B49F2E0
:10945C000002C0F2D03243F1000C00231BEB020BD4
:10946C004CEB030C90E80C00316800241546621894
:10947C0045F100039C45F5D801D19345F2D807B1CD
:10948C0062B6BDE8F08800BFB0000020D9B720005C
:10949C00DC0200206C0D00200A4A0120002110B4CF
:1094AC0092E818001B1844EB0104012B82E8180009
:1094BC0001D010BC7047002CFBD1034A14605460DF
:1094CC009460F6E708000020100000200A4A0120F2
:1094DC00002110B492E818001B1844EB0104012B76
:1094EC0082E8180001D010BC7047002CFBD1034A55
:1094FC00146054609460F6E708000020100000200F
:10950C0000B500F089FA00F001F800BD704700BF0B
:10951C000A4A0120002110B492E818001B1844EBF1
:10952C000104012B82E8180001D010BC7047002CFC
:10953C00FBD1034A146054609460F6E708000020E5
:10954C00100000200A4A0120002110B492E81800F3
:10955C001B1844EB0104012B82E8180001D010BC4D
:10956C007047002CFBD1034A146054609460F6E7FA
:10957C00080000201000002070B582B0944D00232C
:10958C002868019341680B46002900F01C814A6849
:10959C00272A08D8182A06D0DB68002B00F0138184
:1095AC005A68272AF6D9183A5A60C268183AC26023
:1095BC005A688AB90468012C00F0B3809E68002EAA
:1095CC0000F0D580D968002900F0E480F160DA68F9
:1095DC00013C046096605A681B6818219C189950CD
:1095EC00043403236370082363604AF22003C4F23B
:1095FC000D03E360012100224AF220432170226115
:10960C00C4F20D03186820F0080018604AF20043F9
:10961C00A160C4F20D031968042041F0080119601F
:10962C0021786378043103EBC10144F20003C4F2E6
:10963C000D0343F82100217849F21C430903C4F2BD
:10964C000D03CB18616819602178D4F804C00803A5
:10965C00C9000CFA01F149F21873C4F20D03C318D6
:10966C00186820EA01011960236963B163782178D5
:10967C00204603EBC101574B009243F8214001A94E
:10968C006B4601F053FC544EF460286841680B465D
:10969C00002900F094804A681F2A08D8102A06D0A6
:1096AC00DB68002B00F08B805A681F2AF6D9103A21
:1096BC005A60C268103AC2605A6872B90468012CC8
:1096CC0034D09D68002D5CD0D96800296DD0E9603C
:1096DC00DA68013C046095605A681B681020991880
:1096EC0098500A1D052313600223536003239360D3
:1096FC0049F20043C4F20D03196821F020011960EE
:10970C0044F29403C4F20D0301211960334BDA6067
:10971C00F3689A68022A0ED0DB6800221A6002B045
:10972C0070BD0260426082605A6855E70260426018
:10973C0082605A68D1E7197849F200420903C4F2F1
:10974C000D028A181068596840EA01011160DA6844
:10975C0000211160197849F200420903C4F20D028C
:10976C008A1811685B6821EA03031360D7E7002CA1
:10977C003FF432AFC968013C046041608A605A68AA
:10978C002AE7002CA9D0C968013C046041608A60BA
:10979C005A68A2E7002C3FF41FAF8168013C89682E
:1097AC0004608160CA605A6816E7002C95D0816805
:1097BC00013C896804608160CA605A688DE7FFF7D4
:1097CC007BF900228EE7FFF777F9002409E700BF49
:1097DC00580000202C020020AC020020CC020020FB
:1097EC0040F66C53C2F200034DF804BD93E806003A
:1097FC004FF0010B11EB0B014FF0000C42EB0C0284
:10980C0083E806005DF804BB704700BF49F21803FB
:10981C00C4F208031A6840F64053C2F200031968F8
:10982C0041EA02021A6049F20803C4F208031A68FA
:10983C0040F64453C2F20003196841EA02021A606E
:10984C0049F21003C4F208031A6840F64853C2F2F6
:10985C000003196841EA02021A60704748F60C03CB
:10986C0040F22822C4F20803C2F200021968106800
:10987C0040EA0101116000221A604EF28013CEF210
:10988C0000034FF080621A604EF28023CEF2000388
:10989C001A6070474EF28413CEF2000302221A6053
:1098AC004EF28423CEF200031A6070470368232B18
:1098BC000DD0252B13D0272B19D0332B01BF43F2FE
:1098CC002403C4F203034FF0FF321A60704740F2D6
:1098DC002403C4F203034FF0FF321A60F6E741F29F
:1098EC002403C4F203034FF0FF321A60EEE742F296
:1098FC002403C4F203034FF0FF321A60E6E700BF03
:10990C0072B64EF280134FF0FF32CEF200031A60A3
:10991C004EF28413CEF200031A601B491B4A00233B
:10992C00CA500433B3F5807FFAD10023DFF860C04E
:10993C0018464CF803000433B3F5807F144AF8D171
:10994C00144BC2F88C30C2F89430C2F89C30C2F878
:10995C00CC30114BC2F8A830104BC2F8C430104BAD
:10996C00C2F8F0300F4B136453649364D3640E4B02
:10997C000822CB600D4BC1F8CC304EF20413CEF262
:10998C0000031A60704700BFDC02002019B22000EF
:10999C00B8000020B9982000A198200069982000F8
:1099AC0019982000B1AE200051B22000ED97200094
:1099BC000A4A0120002110B492E818001B1844EB4D
:1099CC000104012B82E8180001D010BC7047002C58
:1099DC00FBD1034A146054609460F6E70800002041
:1099EC00100000200A4A0120002110B492E818004F
:1099FC001B1844EB0104012B82E8180001D010BCA9
:109A0C007047002CFBD1034A146054609460F6E755
:109A1C00080000201000002010B5314B1868416878
:109A2C000B46002957D04A68272A07D8182A05D090
:109A3C00DB68002B4FD05A68272AF7D9183A5A609E
:109A4C00C268183AC2605A6892B9D0F800C0BCF12A
:109A5C00010F1FD09C68002C24D0D96800292DD070
:109A6C00E160DA680CF1FF3CC0F800C094605A6801
:109A7C00196818208B18885004331A49012219616F
:109A8C0019491A605A601A72486840B1DA60174A6C
:109A9C00136010BD0260426082605A68E8E74B6058
:109AAC005A68F3E7BCF1000FE2D0C9680CF1FF3C37
:109ABC00C0F800C041608A605A68D9E7BCF1000F59
:109ACC00D6D081680CF1FF3C8968C0F800C0816079
