:020000040020DA
:10400000F87F00201D4120008D7020008D70200061
:104010008D7020008D7020008D7020008D7020002C
:104020008D7020008D7020008D702000C3702000E6
:104030008D7020008D7020008D7020008D7020000C
:104040008D7020008D7020008D7020008D702000FC
:104050008D7020008D7020008D7020008D702000EC
:104060008D7020008D7020008D7020008D702000DC
:104070008D7020008D7020008D7020008D702000CC
:104080008D7020008D7020008D7020008D702000BC
:104090008D7020008D7020008D7020008D702000AC
:1040A0008D7020008D7020008D7020008D7020009C
:1040B0008D7020008D7020008D7020008D7020008C
:1040C0008D7020008D7020008D7020008D7020007C
:1040D0008D7020008D7020008D7020008D7020006C
:1040E0008D7020008D7020008D7020008D7020005C
:1040F0008D7020008D70200010B5074C54F8043CE2
:10410000B3F1FF3F06D0043C984754F8043DB3F1A7
:0C411000FF3FF9D110BD00BF8C792000EA
:10411C0040400949094A086004319142FBDBFFF732
:10412C00E5FF00BF00F0B2F900F004FD01B403F0AC
:10413C00C7FA01F011F8000004000020880C0020E0
:10414C00F0B5CB6881B004460D461746002B2DD038
:10415C0023602B68002623616B68666123622A69E1
:10416C00A661E4616662A66205F10801204602F0D0
:10417C0063F82B69A2686660D218A2F140034FF075
:10418C00807142F8401C0B4A01A942F001029A636B
:10419C0047F00102DA63204641F8047DE36069468A
:1041AC004FF4406202F032FB01B0F0BD024B1B68D1
:1041BC00CEE700BF5951200098010020294B30B5A3
:1041CC00186844682246002C47D063683F2B07D8F8
:1041DC00302B11D0D268002A3FD053683F2BF7D92F
:1041EC00303B5360C1683039C16053B11268302123
:1041FC00D018D150043030BD00235360C168303921
:10420C00C160016801290BD0956875B1D468BCB147
:10421C00EC60D2F80CC00139CCF808500160E5E72D
:10422C000021416081600160E0E70029DED0D4F814
:10423C000CC00139C0F804C00160CCF80850D5E7B7
:10424C000029D3D0D0F808C00139DCF808C00160CF
:10425C00C0F808C0CCF80C40C8E700F0DDFF002027
:10426C00C9E700BF6C000020F0B58CB000240A94A4
:10427C000A9B4FF4406701930094029403940497B3
:10428C00FFF79CFF44F23012C0F22002694605464B
:10429C00FFF756FF6FF000430B930B9B0126069321
:1042AC000596079408940997FFF788FF46F2E142B8
:1042BC00C0F2200205A9FFF743FF40F2BC13C2F283
:1042CC0000031E70E86803F02FF90CB0F0BD00BFBE
:1042DC002DE9F0076B4E7368002B76D059680029D6
:1042EC0073D0DFF8A481B24600270022D8F8005022
:1042FC005A60F268521AF2605A68BAB9DAF8004099
:10430C00012C76D09868002800F09B80D3F80CC064
:10431C00BCF1000F00F0A580C0F80CC0DA6890600A
:10432C00DAF80020013ACAF800205A681C68A41870
:10433C0049D00F2947D961602460A760E760EB681A
:10434C0059186B68E960D4F800C06068002B40D045
:10435C00D3F80090604448450CBF1A461A4604D066
:10436C00D26812B111688842FAD159688944CC4597
:10437C0007D0DB68002B2BD01868596841188C4586
:10438C00F7D119461346CBB160685A68821862603F
:10439C002868012802BF6F60AF602F600ED09A684A
:1043AC00002A2ED0D3F80CC0BCF1000F33D0C2F8C9
:1043BC000CC0DB689A602B68013B2B6019B14A6812
:1043CC006368D3184B60736873B9BDE8F007704726
:1043DC0013462968002929D1A160E1602A686C6024
:1043EC000132AC602A60CEE7596800297FF47DAFBA
:1043FC00EBE7CAF80420CAF80820CAF800205A686B
:10440C0094E70028DAD06B68DB686B609A602B68E5
:10441C00013B2B60D2E70028D0D0AB689B68AB6027
:10442C00C3F80CC02B68013B2B60C7E7AA68394660
:10443C00D460AA68E760A2602A68AC6001322A6086
:10444C00A1E7002C3FF472AFDAF80400C068CAF898
:10445C0004008260DAF80020013ACAF800205A6899
:10446C0064E7002C3FF462AFDAF808008068CAF801
:10447C000800C260DAF80020013ACAF800205A6835
:10448C0054E700BF700C00206C000020704700BF88
:10449C0040F21403C2F200030A2100221A711960BF
:1044AC0040F20C03C2F2000319601A71704700BF8E
:1044BC00F0B5344C49F210432278C4F20D031203C8
:1044CC00D3181A686168D4F814E022EA01021A6061
:1044DC0088B000238DF800300EF11802136813F029
:1044EC00100FFBD1136813F0100FFBD1DEF8006036
:1044FC00136813F0100FFBD1DEF80070D2F800C077
:10450C001CF0100CFAD1694640F6B835136813F05C
:10451C00100F1DD008AB9C44F8B20023F6B20CF877
:10452C00203C6946E36906EB0020984763694FF02D
:10453C00FF325A64227849F210431203C4F20D037D
:10454C00D3181968626841EA02021A6008B0F0BD1B
:10455C00BCF11F0FDED0136813F01003FBD1DEF893
:10456C00000001F80C0010680CF1010C10F0100F99
:10457C00CCD0AB42CAD01068013310F0100FC5D0AC
:10458C00F7E700BF1C0000202DE9F04789B04FF081
:10459C00000A09AD184E814605F824AD0DF120082E
:1045AC0040F6B837716901F11802146814F0100460
:1045BC00FBD1136813F0100312D11C46136813F0CF
:1045CC00100FFBD10B6840462B55089701F0B0FC3F
:1045DC00716901348B6901F1180213F0100F08D0C6
:1045EC0009AB1C1904F824AC6846C8478DF800A028
:1045FC00D8E71F2CE2D1F3E71C00002047F2F4604F
:10460C0000B5C0F2200000F0AFFD40F21C03C2F276
:10461C000003197840F2D902C0F204028A1812037E
:10462C0002F5826211685B6821EA0303136000BD26
:10463C0010B510480C4600F097FDB4B10E4AD46189
:10464C00117849F210430903C4F20D03CB18186812
:10465C005168526920EA010018604FF0FF30506435
:10466C001A6842EA0101196010BD034A034BD36179
:10467C00E6E700BF207720001C000020BD4620008C
:10468C0010B5044647F2487081B0C0F2200000F02B
:10469C006BFD204600F068FD0A238DF8003068465B
:1046AC0000238DF8013000F05FFD01B010BD00BF9C
:1046BC0070B5064647F24C7090B0C0F220000D4623
:1046CC0000F052FD31466A460F4800F06DFE10AB0B
:1046DC001818002600F8406C684600F045FD47F2BB
:1046EC005C70C0F2200000F03FFD284600F03CFD5D
:1046FC000A2368466C468DF800308DF8016000F096
:10470C0033FD10B070BD00BF3C00002030B5044636
:10471C0090B00F4800F028FD21886A4600230D4810
:10472C0000F0FCFD10AB1818002300F8403C684664
:10473C0000F01AFD084800F017FD64696D462CB1B5
:10474C00204602F081FA204600F06AFD10B030BD20
:10475C00607720003C0000206C77200070B50D467F
:10476C00284600F02DFE0024A042094E0ED9716996
:10477C00285D01F11802136813F0200FFBD10860BB
:10478C00284600F01DFE0134A042F0D870BD00BFD9
:10479C001C000020124BF0B55F69164689B207F178
:1047AC001804236813F0200FFBD1CBB23B602568B3
:1047BC0015F02005FBD1090A3960304600F000FEE7
:1047CC00A8420BD9725D236813F0200FFBD13A601D
:1047DC00304600F0F5FD0135A842F3D8F0BD00BF1E
:1047EC001C0000200A4600B540F2FF71FFF7D2FF13
:1047FC0000BD00BF012870B41BD0B0B95F4A13696B
:10480C00ABB1117849F210430803C4F20D03C3187D
:10481C001868D2F804C020EA0C0018605378002203
:10482C0003EBC101564B43F8212070BC7047117843
:10483C00F4E7524B002242F2280183F82420C4F200
:10484C000D010868082440F00100086042F22C01B8
:10485C00C4F20D0108684FF0FF3540F0010008600C
:10486C0042F23001C4F20D010868112640F001003B
:10487C00086044F20401C4F20D010A6044F28401A0
:10488C00C4F20D010C6044F28001C4F20D010A6007
:10489C0044F20011C4F20D010A6049F22041C4F245
:1048AC000D0108684FF00A0C40F0030008604CF250
:1048BC000001C4F2000159614CF23001C4F2000154
:1048CC000868C3F820C020F0010008604CF24400D6
:1048DC00C4F2000005604CF238004CF22405C4F21E
:1048EC000000C4F2000502602E604CF22805C4F2F0
:1048FC00000505262E604CF22C05C4F2000570262E
:10490C002E603025056008689A6140F4407040F0D4
:10491C000100086002211970032159704BF220012B
:10492C00C4F20D01D9604BF22041C4F20D010868AC
:10493C005C6020F0080008604BF20041C4F20D01ED
:10494C001A619A600868C3F828C020F00800086053
:10495C0044F2CC01C4F20D01042008604BF21C415E
:10496C00C4F20D010C604BF21871C4F20D01086811
:10497C0020F40020086083F82C2056E71C0000204F
:10498C00CC01002000B50120FFF734FF00BD00BFB3
:10499C0000B50020FFF72EFF00BD00BF70B5034629
:1049AC0090B06A460D461048194600F0FDFC10AB5D
:1049BC001818002600F8406C684600F0D5FB47F24A
:1049CC009070C0F2200000F0CFFB284600F0CCFB2A
:1049DC000A2368466C468DF800308DF8016000F0B3
:1049EC00C3FB10B070BD00BF44000020F0B50446FE
:1049FC0093B049480E4600F0B7FB21886A46002365
:104A0C00464800F08BFC13AB1818002300F84C3C04
:104A1C00684600F0A9FB424800F0A6FB414B186821
:104A2C0043683BB15A683F2A08D8302A06D0DB6865
:104A3C00002BF7D100F0F0FB00251BE0303A5A6058
:104A4C00C268303AC2605A687AB90568012D47D0FD
:104A5C009968002949D0DF68002F51D0CF60DA68FF
:104A6C0091600268013A02605A681B6830219D18F7
:104A7C00995004352C4B01221B682A612B600023B2
:104A8C00AB616B606B611292ED61129A13A92A6291
:104A9C006B62AB62284641F80C3D4FF4406201F06A
:104AAC00CBFBAB6803F53C614FF08070C3F8C00BD7
:104ABC001E481F4A40F00100C3F8F80B42F00100F9
:104ACC00C3F8FC0BC3F8C46BE96013A941F8082DBB
:104ADC0028464FF4406201F099FE656113B0F0BDB9
:104AEC004260826002605A68BFE7002DBDD0416809
:104AFC00C96841608A600268013A02605A68B4E78A
:104B0C00002DB2D0816889688160CA600268013A60
:104B1C0002605A68A9E700BF607720003C000020C3
:104B2C00947720006C00002098010020595120003F
:104B3C00954520002DE9F04748F280439AB0C0F229
:104B4C001E031AA840F8043D01F0F2F9B34800F036
:104B5C000BFB42F22801C4F20D010B6842F22C024D
:104B6C0043F001030B60C4F20D021368002543F0FF
:104B7C000103136042F23003C4F20D0318680827D6
:104B8C0040F00100186044F20400C4F20D0005600E
:104B9C0044F28400C4F20D00076044F28000C4F2B9
:104BAC000D00056044F20010C4F20D00056049F2DE
:104BBC002040C4F20D00D0F800C04FF0FF364CF08E
:104BCC00030CC0F800C04CF20000C4F200001390BB
:104BDC004CF23000C4F20000D0F800C04CF2240EAD
:104BEC002CF0010CC0F800C04CF2440CC4F2000CC8
:104BFC00CCF800604CF2380CC4F2000CC4F2000E7D
:104C0C001124CCF80050CEF800404CF2280EC4F21F
:104C1C00000E0524CEF800404CF22C0E6B34C4F27E
:104C2C00000ECEF800404FF0300ECCF800E0D0F87B
:104C3C0000C014954CF4407C4CF0010CC0F800C042
:104C4C0008684FF0D00C40F0020008601168022098
:104C5C0041F0020111601A684DF2240142F0020287
:104C6C001A6044F25003C4F20D03186044F2D003EE
:104C7C00C4F20D031F6044F2CC03C4F20D031D609B
:104C8C0044F20813C4F20D0313221A604BF22043B2
:104C9C00C4F20D031A68C4F2000142F018021A6043
:104CAC004DF23003C4F200031A68ADF8405022F004
:104CBC0001021A604DF24402C4F2000216604DF279
:104CCC003802C4F200021560C1F800C04DF2280190
:104CDC004FF03E0CC4F20001C1F800C04DF22C01A3
:104CEC00C4F200010C60C2F800E01A684C4C42F4AB
:104CFC00407242F001024DF200011A60C4F2000150
:104D0C0061611968012221F08001196040F21A6377
:104D1C00ADF842300C238DF8443004238DF8463026
:104D2C0010338DF847303F4BA2618DF84820159217
:104D3C002278E36149F210431203C4F20D038DF89B
:104D4C004500D3181A686168204622EA01021A60ED
:104D5C00354B22782361637815A903EBC202334BE0
:104D6C0010AF43F822402A4616AB169502F0ACF869
:104D7C00E1692F4B3846A94208BF1946FFF758FC8A
:104D8C0044F240260DF1600AA8464FF00A09C0F221
:104D9C000F06294600236A46264800F0BFFA1AAAD5
:104DAC00131803F8688C684600F0DEF968468DF835
:104DBC0000908DF80180013500F0D6F95046189618
:104DCC0001F0B6F8052DE4D13846FFF717FC0025A5
:104DDC000DF15C0AA8464FF00A09294600236A46E1
:104DEC00144800F09BFA1AAA131803F8688C68464A
:104DFC0000F0BAF968468DF800908DF80180013505
:104E0C0000F0B2F95046179601F092F8052DE4D156
:104E1C0038460021FFF70CFCFEE700BFB4772000FA
:104E2C001C000020A9492000BD442000CC0100201A
:104E3C00BD4620004400002030B500F0EBFAA94933
:104E4C004B68002B00F037815A6846F2030082420F
:104E5C0009D8B2F5C04F06D0DB68002B00F02B81CF
:104E6C005A688242F5D9A2F5C0425A60CA689D4878
:104E7C00A2F5C042CA605A6892B90468012C00F0CD
:104E8C00D0809968002900F0FE80DD68002D00F0CC
:104E9C000681CD60DA6891600268013A02605A6856
:104EAC001968DFF844C200238C18CCF80030CCF819
:104EBC000430CCF80830CCF80C3049D04FF4C0405A
:104ECC008C506060A360E360DCF80C301B18CCF8ED
:104EDC000C30DCF8043051F802E06068002B00F074
:104EEC0088801D687044A8420CBF1A461A4604D02C
:104EFC00D26812B111688842FAD159686D18AE4562
:104F0C0007D0DB68002B73D01868596841188E45A0
:104F1C00F7D119461346B3B160685A6882186260BB
:104F2C00DCF80000012874D09A68002A7ED0DD6875
:104F3C00002D00F08980D560DB689A60DCF80030C9
:104F4C00013BCCF8003019B14A686368D3184B6048
:104F5C00664BC3F800C000F09DFB00F0ADFC644B49
:104F6C0093E8300043F24803C4F20303186849F293
:104F7C000043C4F20D031A6822F020021A6044F2B6
:104F8C009403C4F20D0301221A6047F20803B52200
:104F9C00C4F20D031A6047F20002C4F20D0213684A
:104FAC0013F0800FFBD047F21003C4F20D03D3F8BB
:104FBC0000C047F20C03C4F20D031B68002144F639
:104FCC006D6243EA0C2CC4F2C6120B1803FB02F3FD
:104FDC0003F5405344F1000439334CF30B1CB3F18B
:104FEC00FF3F28BF0133434A8CEA0303136030BDF3
:104FFC001346DCF80010002935D1A160E160DCF823
:10500C000020CCF804400132CCF80840CCF8002049
:10501C0081E70023CCF80430CCF80830CCF8003011
:10502C0091E74260826002605A6839E700288AD0B2
:10503C00DCF80430DB68CCF804309A60DCF8003023
:10504C00013BCCF800307EE700283FF47CAFDCF865
:10505C0008309B68CCF80830DD60DCF80030013B90
:10506C00CCF800306FE7DCF808200021D460DCF8C5
:10507C000820E160A260DCF80020CCF80840013286
:10508C00CCF8002047E7002C3FF40AAF4168C96810
:10509C0041608A600268013A02605A6800E7002C9D
:1050AC003FF4FEAE816889688160CA600268013A8B
:1050BC0002605A68F4E6104C012323710F4800F08B
:1050CC0053F80F4800F050F8DFF81CC00A23236097
:1050DC000023CCF80030CCF80430CCF80830CCF8F5
:1050EC000C3035E7700C00205C0000206C000020B8
:1050FC00800C0020780000204C000020EC77200071
:10510C00E877200000B500F065FA40F2C4130022E5
:10511C00C2F200031A6040F2C013C2F200031A601C
:10512C0040F25403C2F200030A211A71196040F2D2
:10513C004C03C2F2000319601A7100BD40F27003F7
:10514C00C2F2000300221A605A60704700B5004694
:10515C0001F036FC00BD00BF00B501F031FC00BD14
:10516C0000B501F0F9FF00BD2DE9F045002507461B
:10517C007C5D1C4EAA46DFF8708084B1092C29D0C6
:10518C000A2C18D0336820460133336002F044F8FF
:10519C0033684F2B05DC01357C5D002CEED1BDE86E
:1051AC00F0850D2002F038F80A2002F035F80135B0
:1051BC00C6F800A0F0E70D2002F02EF8204602F011
:1051CC002BF8D8F80030C6F800A00133C8F800302E
:1051DC000135E1E7204602F01FF83368013508334A
:1051EC003360D9E7C0010020C401002010B547F698
:1051FC00040040F24C040123C2F20004C0F220006F
:10520C002371FFF7B1FF47F2E870C0F22000FFF7FF
:10521C00ABFF0A23236010BD00B5FFF7A1FF00BD53
:10522C003D4B70B41D6850F8043C041F0F2B41D942
:10523C00002240F8044C6360A260E260EA68D31874
:10524C00EB606B6850F804CC6068002B35D01E689E
:10525C006044B0420CBF1A461A4604D0D26812B150
:10526C0011688842FAD159687618B44507D0DB68C2
:10527C00002B21D01868596841188C45F7D1194674
:10528C00134693B160685A688218626028680128D6
:10529C001DD09A68002A1FD0DE68002E31D0D6604F
:1052AC00DB689A602B68013B2B6019B14A68636814
:1052BC00D3184B6070BC704713462968B1B9A16014
:1052CC00E1602A686C600132AC602A60D9E7002387
:1052DC006B60AB602B60E8E70028E6D06B68DB689E
:1052EC006B609A602B68013B2B60DEE7AA6800219B
:1052FC00D460AA68E160A2602A68AC6001322A60BE
:10530C00BFE70028D1D0AB689B68AB60DE602B6830
:10531C00013B2B60C9E700BF6C00002070B4002972
:10532C003BD0B1F5807F1BD9D0F800C0BCF1080F81
:10533C0014BF00240124BCF1100F08BF44F0010479
:10534C0084B14FF0300C02F803C0D0F800C0013328
:10535C00BCF1100F06D14FF0780C02F803C00133EA
:10536C00D0F800C00C465D1CB4FBFCF41E462B466A
:10537C00002CF8D10B4C9219B1FBFCF30CFB131C59
:10538C0014F80C3002F80139D0F800C0B1FBFCF174
:10539C000029F1D1284670BC70473021D154581CDB
:1053AC00F9E700BF20782000002900B503DB0023BB
:1053BC00FFF7B4FF00BD2D23137049420123F7E71B
:1053CC0010F0030F08BF034609D0037803B303465C
:1053DC0001E01A78D2B1013313F0030FF9D11A6836
:1053EC00A2F1013121EA020212F0803F08D153F8F8
:1053FC00042FA2F1013121EA020212F0803FF6D013
:10540C001A781AB113F8012F002AFBD1181A704719
:10541C001846FCE700B500F003F800F095F800BD65
:10542C00DFF81CC147F2F832C2F20002CCEB0202E8
:10543C0070B4002A4AD00023424DCCF800C0CCF8FE
:10544C000420CCF80830CCF80C30EB686446D31848
:10545C00EB606B68002B3CD01E680CEB8200B042FA
:10546C000CBF1A461A4604D0D26812B11168884291
:10547C00FAD1596806EB8106B44208D0DB68002BE0
:10548C0026D05868196801EB80018C42F6D1194678
:10549C001346ABB1DCF804005A688218CCF804202F
:1054AC002C68284A012C23D09868002825D0DD6868
:1054BC00002D3AD0C560DB6898601368013B13601F
:1054CC0021B14A68DCF80430D3184B6070BC7047CB
:1054DC0013462A681B48D2B90121CCF80820CCF815
:1054EC000C200160C0F804C0C0F808C01146D0E719
:1054FC000023536093601360E2E7002CE0D0536804
:10550C00DB68536098601368013B1360D8E78168CF
:10551C000132C1F80CC08168CCF808100021CCF81D
:10552C000C10C0F808C00260B3E7002CC8D0936818
:10553C009B689360DD601368013B1360C0E700BF9C
:10554C00880C0020700C002043F20C03C4F20303FF
:10555C001A68122022F001021A6042F20802C4F208
:10556C000D02116841F00801116042F20C02C4F204
:10557C000D02116841F00801116042F21002C4F2F0
:10558C000D02116841F00801116043F20002002184
:10559C00C4F20302116043F20402C4F2030210606D
:1055AC0043F22802C4F203024FF0FF30106043F2C2
:1055BC003802C4F20302116043F21802C4F203026F
:1055CC00116841F0010111601A6842F001021A6081
:1055DC00704700BF4CF22043C4F20D031A6822F04E
:1055EC00C0021A604CF20043C4F20D031A6822F098
:1055FC00C0021A6044F2F8030122C4F20D031A60CF
:10560C0044F2FC03C4F20D031A6042F20002C4F22D
:10561C000D0211684FF6F873CFF6DC6301EA030351
:10562C0043F4081342F204011360C4F20D010A683A
:10563C0040F20003C0F2011302EA0303002BF6D17F
:10564C0042F20003C4F20D031A6822F4E0621A60FD
:10565C0042F20402C4F20D02136813F0806FFBD007
:10566C00704700BF4EF61453CEF200031A6842F096
:10567C0001021A6042F29803C4F20D031A6842F058
:10568C0001021A604EF60853CEF200034FF40112D9
:10569C001A60704700B5FFF7E5FF00F011FA00F053
:1056AC0011F800F093F800F001F800BD044B08224B
:1056BC0003F5807183F8002801338B42FAD17047CF
:1056CC004C0300204EF210034EF21802CEF20003EF
:1056DC000021CEF20002196011604EF21402CEF2DB
:1056EC0000024FF4FA41116006221A6047F2F111E0
:1056FC0040F24C22C2F20002C0F22001D1631A68BF
:10570C0042F001021A60704740F282030022C2F29A
:10571C0000031A7040F28103C2F200031A7040F2C7
:10572C007C03C2F200030221196040F66043C2F20E
:10573C0000031A6040F66C43C2F2000349F2380CC5
:10574C001A60C4F2080C032349F2400049F24C01E0
:10575C00CCF8003030B4C4F208000424C4F20801C0
:10576C0049F244030460C4F208030A601D6845F062
:10577C0040051D601D6845F008051D601D6845F05D
:10578C0008051D602023CCF8004002600B6049F234
:10579C005003C4F208031A6842F080021A601A68B7
:1057AC0042F010021A6049F21C03C4F208030122F1
:1057BC001A6049F22403C4F208031A6049F22C035C
:1057CC00C4F208031C6030BC704700BF4BF220438E
:1057DC00C4F20D031A682DE9F04822F004021A6095
:1057EC004BF20043C4F20D031A6842F004021A6033
:1057FC004BF21003C4F20D03FF221A6049F23C0273
:10580C00C4F20802136843F001031360136843F0F9
:10581C0002031360136813F0800FFBD049F20403EA
:10582C00C4F208031A6822F001021A60FFF76CFF39
:10583C001D4B01221A601D4A1D4BC3F8F0204EF27D
:10584C000413CEF200034FF480521A60EFF310876A
:10585C00FFB207B162B6174843F24806C4F203061A
:10586C0090E80018316800225B4612EB010B49F2FC
:10587C000002C0F2D03243F1000C00231BEB020BF0
:10588C004CEB030C90E80C003168002415466218B0
:10589C0045F100039C45F5D801D19345F2D807B1E9
:1058AC0062B6BDE8F08800BF7C000020BD7320000C
:1058BC004C020020800C002000B500F059F900F0DB
:1058CC0001F800BD10B5324B186841680B46002931
:1058DC0059D04A68272A07D8182A05D0DB68002B2C
:1058EC0051D05A68272AF7D9183A5A60C268183A20
:1058FC00C2605A6892B9D0F800C0BCF1010F21D037
:10590C009C68002C26D0D96800292FD0E160DA6879
:10591C000CF1FF3CC0F800C094605A68196818205C
:10592C008B1888500433012119721A4900221A600D
:10593C0019610A2218495A60086840B1DA60174A9E
:10594C00136010BD0260426082605A68E6E70B602B
:10595C005A68F3E7BCF1000FE0D0C9680CF1FF3CCA
:10596C00C0F800C041608A605A68D7E7BCF1000FEC
:10597C00D4D081680CF1FF3C8968C0F800C081600C
:10598C00CA605A68CAE7FFF747FC0023CBE700BFA1
:10599C006C000020196620004C0C00209C0100209B
:1059AC0040F68043C2F200034DF804BD93E80600B4
:1059BC004FF0010B11EB0B014FF0000C42EB0C0202
:1059CC0083E806005DF804BB704700BF49F218037A
:1059DC00C4F208031A6840F65443C2F20003196873
:1059EC0041EA02021A6049F20803C4F208031A6879
:1059FC0040F65843C2F20003196841EA02021A60E9
:105A0C0049F21003C4F208031A6840F65C43C2F270
:105A1C000003196841EA02021A60704748F60C0349
:105A2C0040F2C812C4F20803C2F2000219681068EE
:105A3C0040EA0101116000221A604EF28013CEF28E
:105A4C0000034FF080621A604EF28023CEF2000306
:105A5C001A6070474EF28413CEF2000302221A60D1
:105A6C004EF28423CEF200031A6070470368232B96
:105A7C000DD0252B13D0272B19D0332B01BF43F27C
:105A8C002403C4F203034FF0FF321A60704740F254
:105A9C002403C4F203034FF0FF321A60F6E741F21D
:105AAC002403C4F203034FF0FF321A60EEE742F214
:105ABC002403C4F203034FF0FF321A60E6E700BF81
:105ACC0072B64EF280134FF0FF32CEF200031A6022
:105ADC004EF28413CEF200031A601B491B4A0023BA
:105AEC00CA500433B3F5807FFAD10023DFF860C0CD
:105AFC0018464CF803000433B3F5807F144AF8D1F0
:105B0C00144BC2F88C30C2F89430C2F89C30C2F8F6
:105B1C00CC30114BC2F8A830104BC2F8C430104B2B
:105B2C00C2F8F0300F4B136453649364D3640E4B80
:105B3C000822CB600D4BC1F8CC304EF20413CEF2E0
:105B4C0000031A60704700BF4C0200202171200036
:105B5C0084000020795A2000615A2000295A200024
:105B6C00D95920004D6E200025712000AD59200020
:105B7C0010B5314B186841680B46002957D04A685C
:105B8C00272A07D8182A05D0DB68002B4FD05A6873
:105B9C00272AF7D9183A5A60C268183AC2605A686C
:105BAC0092B9D0F800C0BCF1010F1FD09C68002C3A
:105BBC0024D0D96800292DD0E160DA680CF1FF3CC3
:105BCC00C0F800C094605A68196818208B18885067
:105BDC0004331A490122196119491A605A601A7260
:105BEC00486840B1DA60174A136010BD0260426029
:105BFC0082605A68E8E74B605A68F3E7BCF1000F23
:105C0C00E2D0C9680CF1FF3CC0F800C041608A606A
:105C1C005A68D9E7BCF1000FD6D081680CF1FF3C73
:105C2C008968C0F800C08160CA605A68CCE7FFF789
:105C3C00F3FA0023CDE700BF6C000020AD5C200020
:105C4C004C0C002088010020014B0360704700BF02
:105C5C00A8782000014B0360704700BFA878200093
:105C6C0040F28C13C2F2000300221A605A609A6050
:105C7C00704700BF00B5406800F084F900BD00BF5C
:105C8C00024B00B50360FFF7CBFA00BDA8782000EB
:105C9C00024B00B50360FFF7C3FA00BDA8782000E3
:105CAC00F0B572B63F4B1A6801321A603E4A13685F
:105CBC002BB15168486801380028486007DD002383
:105CCC0062B61BB1586803689B689847F0BD012BFE
:105CDC003CD0CB680020536098601368013B136084
:105CEC00CB6823B1D3F804C04868604458600B6893
:105CFC009868B0F1FF3F03D0013898600028DFD0DE
:105D0C00D3F80CC02848C1F804C01668002E35D052
:105D1C0047687C68A445B8BF3D4609DBF868F8B114
:105D2C00C4EB0C0CC1F804C044680546A44514DA55
:105D3C00A868002829D0CCEB040C0136C5F804C0A7
:105D4C00C160A960CD6088601660B9E7002353601C
:105D5C0093601368013B1360C2E7C0680028DFD171
:105D6C009068C4EB0C0CC1608860C1F804C00020C2
:105D7C00C8609160116801311160A1E701228E6049
:105D8C00CE600260416081609AE7CCEB040CC5F8F0
:105D9C0004C08860CF60B960516011680131116036
:105DAC008EE700BF840100208C01002030B472B655
:105DBC00DFF880C0DCF80410E9B10B68984218BF1A
:105DCC000B462BD0DB68B3B11A689042FAD1DCF8E1
:105DDC000000184C012811D09D68002D20D0DA68E5
:105DEC0092B1EA60DA680138956020601AB15168A6
:105DFC005B68CB18536062B630BC7047002262609F
:105E0C00A2602260DA68F1E70028F4D0A1680138BA
:105E1C0089682060A160CA60DA68E7E70B46D6E7BC
:105E2C0008B9DA68E2E7CA680138626020609560F8
:105E3C00DA68DBE78C01002083603B4BD1F800C0B3
:105E4C001B68C0F800C05B684FF47A7CBCFBF3F3B2
:105E5C0044F2402CC0F20F0CBCFBF3FC0B6800218D
:105E6C0003EB5C03B3FBFCF3F0B54260C360006171
:105E7C0043618161C16172B62BB962B61368104679
:105E8C009B689847F0BD294C00F1100C2668002E39
:105E9C0032D0676879688B42B8BF3D461ADBFA6826
:105EAC004AB15B1ACCF80430516815468B421FDAA4
:105EBC00436999420EDC5B1A4361A368C3F80CC0BA
:105ECC0083610023C3612368C4F808C001332360D5
:105EDC0062B6D7E7AA68CAB1CB1A01366B60C2F8B2
:105EEC000CC0C5F808C0C5618261266062B6C9E7FE
:105EFC00D268002AD5D1DBE701238661C661236015
:105F0C00C4F804C0C4F808C062B6BBE7CB1A6B6017
:105F1C00236882610133C761C7F808C02360C4F8E5
:105F2C0004C062B6AEE700BF880100208C010020DF
:105F3C0070B58EB008AC06460021204600F01CF867
:105F4C000B4B31460CAA0C93684601230D94FFF7BA
:105F5C0073FF204600F02AF86846FFF727FF054B31
:105F6C0020466D460C9300F035F80EB070BD00BFA6
:105F7C0094782000A878200000230360436083609D
:105F8C00C160704700B572B600F10C0151E8002FEA
:105F9C0002F1010241E80023002BF7D1002A01DDB8
:105FAC0062B600BD00F094FCFBE700BF00B572B612
:105FBC0000F10C0151E8002FA2F1010241E800238D
:105FCC00002BF7D1002A01DB62B600BD00F078F897
:105FDC00FBE700BF00B572B600F01EFB00BD00BFB2
:105FEC00F0B40668002E23D047680D1D7B684A6804
:105FFC003C1D9A422CDBFB68002B29D0D3F804C043
:10600C002A681C1D94450EDDD4F800C04A689445DE
:10601C0015DC83680136D9608B600023CB60066089
:10602C008160F0BC7047DA68002AEDD01346E5E7D2
:10603C0001238E60CE60036041608160F1E79A6855
:10604C0042B10136D1609960CB608A600660E8E7A6
:10605C003B46D9E701368A60CF60B9600660416083
:10606C00DFE700BF40F2A0120023C2F20002D360AF
:10607C0013605360936040F2B412C2F200021360DA
:10608C005360704712F0FF0F18BF0C4B00B51FBFC9
:10609C001B68DA685A68DA60884209D003694BB128
:1060AC0000230B6150F80C3FCB68C96801F0DEFA95
:1060BC0062B600BD01230361F2E700BF9C01002022
:1060CC005C492DE9F045CB68CB681A68CB68CB6886
:1060DC0002F11C069E4263D00B68012B00F08380FA
:1060EC00546A002C72D0956A002D00F08180E56016
:1060FC00D2F828C0013BCCF808400B60D0F80080E7
:10610C0003231361B8F1000F25D0D0F804A002F1DD
:10611C002007DAF80430D2F820C00AF104059C45B7
:10612C002EDA5346D5F800E0D2F820C0E6451BDC49
:10613C00836808F10108DE60536200239362C0F8A3
:10614C0000808660CB685061196810460122FFF709
:10615C0099FFBDE8F0850123C2F82480C2F828809D
:10616C00036046608660EDE79C68002C56D008F111
:10617C000108E6609E6093625462C0F80080E1E71B
:10618C00DAF80C3023B9CCE7DC68002CCAD02346F3
:10619C00D3F804E0D7F800C01D1DE645F4DDC1E7D7
:1061AC000B687BB1012B30D0D1F804C00024DCF893
:1061BC000CE0013BC1F804E00B60CEF80840C1F8DC
:1061CC000CC09BE79C46C1F80CC097E7002B95D000
:1061DC00D1F804C0013BDCF80CC00B60C1F804C062
:1061EC00CCF808408AE700234B608B600B6085E796
:1061FC00002B83D0D1F808C0013BDCF808C00B6041
:10620C00C1F808C0CCF80C5078E7D1F804C00023D2
:10621C004B608B600B60C1F80CC06FE708F1010894
:10622C005462C2F828A0CAF80860C0F80080466022
:10623C0088E700BFA00100202DE9F045044672B6A6
:10624C00614B6248196804F11C0701311960C3687D
:10625C00C368002B64D0D0F80080B8F1000F1FD0B9
:10626C00D0F804A004F12006DAF80410236A0AF12D
:10627C000405994256DD5346D5F800C0216A8C4579
:10628C0069DC8368DF6063620023A3620368876054
:10629C00013303604E4B18687AB9A260BDE8F085F3
:1062AC000123C4F82480C4F8288003604760876009
:1062BC00474B18680AB9F0E7013212F0030FFBD113
:1062CC00456804320F2A98BF10222B46002D76D039
:1062DC00696802F1100C8C4507D9914205D0DB6836
:1062EC00002B6CD059686145F7D3891A5960C16885
:1062FC00891AC160596871B90668012E36D09F6839
:10630C00002F42D0DD68002D4BD0FD60D968013ED6
:10631C0006608F6059681B6858185A50021DBCE7FC
:10632C00C760C5E7DAF80C30002BA4D0D3F804C052
:10633C0031681D1D8C459FDCD96800299CD00B460B
:10634C00D3F804C031681D1D8C45F5DDD5F800C0AF
:10635C00216A8C4595DD996869B108F10108CF6017
:10636C009F60A3626162C0F80080A1E70160416098
:10637C0081605968CFE7036861620133C4F828A0D3
:10638C00CAF808700360476092E7002EC3D0D5F8B6
:10639C000CC0013E0660C0F804C0CCF80810596867
:1063AC00B9E7002EB7D0D0F808C0013EDCF808C021
:1063BC000660C0F808C0CCF80C105968ABE7FEF7C3
:1063CC002BFF002269E700BFB0010020A0010020D4
:1063DC006C000020F0B572B63D4BDA68DA681068D4
:1063EC00DA681A68002A3DD059686FF0004CD1F871
:1063FC0004E0E64536D0012AD3F80CE055D0D1F8AC
:10640C000CC00024013AC3F804C01A60CCF8084050
:10641C001E682F4AD960002E2AD057680EF1040549
:10642C007A68DEF804103C1D914243DBFA68002ABE
:10643C0040D0D2F804C02968141D8C4523DDD4F853
:10644C0000C0DEF804108C4522DC9A68C2F80CE01F
:10645C00CEF808200022CEF80C201A68C3F808E009
:10646C0001321A60DB6801221968FFF70BFEF0BDE0
:10647C000121CEF80860CEF80C601160C2F804E07F
:10648C00C2F808E0EEE7D1680029D8D00A46D0E778
:10649C00916889B10136C1F80CE0C2F808E0CEF879
:1064AC000C20CEF808101E60DCE700225A609A60BF
:1064BC001A60ADE73A46C2E71A68CEF80810013206
:1064CC00CEF80C70C7F808E01A60C3F804E0C9E70E
:1064DC00A001002030B5114D114C2A682368012B06
:1064EC0006D962B630BF002AF8D0FFF773FFF4E785
:1064FC0072B60C4C0C48FEF737FE0A250B48FEF71B
:10650C0033FE25600A48FEF72FFE0848FEF72CFEE6
:10651C00256000F005FE30BF002030BDA00100203A
:10652C00B00100204C000020E0782000E87720002B
:10653C00FC782000344BF0B5DA681C681068DA6817
:10654C002CB9DB6801221968FFF79CFDF0BDD3F86C
:10655C000CE05F680EF104067A68DEF804103D1D4D
:10656C00914243DBFA68002A40D0D2F804C031686B
:10657C00151D8C451FDDD5F800C0DEF804108C45C8
:10658C001EDC9A681C68C2F80CE0CEF808200134B6
:10659C000022CEF80C201C60C3F808E04CB1012C92
:1065AC001BD05C680021E2685A6091601A68013A5D
:1065BC001A60DC60C5E7D1680029DCD00A46D4E754
:1065CC009168A9B10134C1F80CE0C2F808E0CEF82A
:1065DC000C20CEF808101C60E0E700225C689A6082
:1065EC005A601A68DC60013A1A60AAE73A46C2E7B8
:1065FC001C68CEF808100134CEF80C70C7F808E00F
:10660C001C60C3F804E0C9E7A001002000B572B615
:10661C00FFF790FF00BD00BF2DE9F04F434D04463E
:10662C00EB680368002B74D000264FF001082F464E
:10663C00012B40D06268013BD168236061608E60A1
:10664C001268C2F81080EB68EB68566102F11C0C02
:10665C00002B26D0D7F800A0BAF1000F30D0D7F815
:10666C00049002F1200ED9F80410136A09F1040009
:10667C0099422EDD4B460068116A88423CDCAB68BF
:10668C00C3F80CC053622B6896620133C5F808C07E
:10669C002B60FFF74FFF72B62368002BC8D1BDE803
:1066AC00F08FC7F80CC0FFF745FF72B62368002BBC
:1066BC00F5D0012BBED16268A66066602660BFE78C
:1066CC0056629662C7F80080C7F804C0C7F808C0C5
:1066DC00E9E7D9F80C3023B9CCE7D9680029CAD03E
:1066EC000B46D3F804B0DEF80010181D8B45F4DD12
:1066FC000068116A8842C2DD996861B10AF1010A29
:10670C00C1F80CC0C3F808C093625162C5F800A070
:10671C00C9E762B6C3E72B6851620133C2F828900F
:10672C00C9F808C02B60C5F804C0BCE7A001002064
:10673C00F0B572B60369022B0AD03048FEF714FD8F
:10674C002F48FEF711FD2F4B0A221A6062B6F0BDDE
:10675C002D4A01230361D168D16800F11C0429B3CF
:10676C001668002E2DD0576800F120057B68016A51
:10677C0007F1040E99421DDBFB68DBB1D3F804C0B2
:10678C00296803F1040E8C4516DDDEF800C0016AA1
:10679C008C451EDC9368DC604362002383621368C3
:1067AC00946001331360FFF7C5FED0E7D460FFF7A8
:1067BC00C1FECCE73B46E8E7D9680029E5D00B469B
:1067CC00DCE746628662136054609460FFF7B2FEA9
:1067DC00BDE7996841B10136CC609C60836241622F
:1067EC001660FFF7A7FEB2E71368416201338762B8
:1067FC00BC6013605460FFF79DFEA8E71879200079
:10680C00E87720004C000020A0010020C368036939
:10681C0010B5012B18D00369B3B12C4BDA68D968C9
:10682C0000F11C0291421CD01A68012A29D0416A3D
:10683C00002935D0846A002C3FD0CC60D0F828C019
:10684C00013ACCF808101A600369012B01D062B62A
:10685C0010BD026A6FF000439A42F8D0FFF76AFE4F
:10686C00F6E71A68CAB1012A10D059680024D1F889
:10687C000CC0013AC3F804C01A60CCF80840D960C7
:10688C00E2E700225A609A601A60DDE7596800223C
:10689C005A609A601A60D960D6E71146D960D3E77E
:1068AC00002AD1D0D3F804C0013ADCF80CC01A602D
:1068BC00C3F804C0CCF80810C6E7002AC4D0996805
:1068CC00013A89681A609960CC60BDE7A00100208C
:1068DC003A4BF0B5DA680268002A37D0012A43D067
:1068EC0041684FF0000ED1F80CC0013AC0F804C05A
:1068FC000260CCF808E0096801200861D3F80CC0EC
:10690C00DD6800224A6101F11C042C4A002D1FD0C5
:10691C001668002E20D0576801F120057A68086AA5
:10692C0007F1040E904225DA3A46DEF800C0086AF8
:10693C0084452EDC9A68D4604A6200228A621A6806
:10694C009C6001321A60FFF7F5FD00E062B6F0BD05
:10695C00D460FFF7EFFDFAE74E628E621060546070
:10696C009460FFF7E7FDF2E7002241688260426025
:10697C000260C0E7FA6822B9D6E7D0680028D4D004
:10698C000246D2F804C0286802F1040E8445F4DDF6
:10699C00CBE7906840B10136C46094608A6248626B
:1069AC001E60FFF7C7FDD2E71A68486201328F629A
:1069BC00BC601A605C60FFF7BDFDC8E7A001002059
:1069CC002DE9F04172B69E4BDA68DA68D968126824
:1069DC00D3F80CC002F11C018C4500F09E801968A4
:1069EC00012900F0DF80546A002C00F0AE80956A1B
:1069FC00002D00F0EA80E560D2F828C00139CCF80F
:106A0C000840196091680860042111618D4908687B
:106A1C00013808609169002900F091809169012486
:106A2C000C61D2F818C0D868D86885490CF11C05DF
:106A3C0070B30F68002F00F0A180D1F804800CF126
:106A4C002006D8F80410DCF8200008F10404884271
:106A5C00C0F2DD80D8F80C10002900F0D880D1F8F5
:106A6C0004E030680C1D86457DDDD4F800E0DCF8D0
:106A7C002000864500F38A8099681C68CD60CCF8AC
:106A8C00241001340021CCF828101C609D6001E01A
:106A9C000C68CD60002191616949D8683CB9DB680C
:106AAC00104619680122FFF7EDFABDE8F081D1F824
:106ABC000CE04F680EF104067868DEF804103D1DFA
:106ACC00884200F3A280F968002900F09E80D1F87A
:106ADC0004C030680D1D84454BDDD5F800C0DEF8D0
:106AEC000400844563DC99681C68C1F80CE0CEF89E
:106AFC00081001340021CEF80C101C60C3F808E01B
:106B0C004CB1012C6FD05C680020E1685960886042
:106B1C00196801391960DC60C1E7196889B101296C
:106B2C006AD0D3F804C00024DCF80CE00139C3F8B7
:106B3C0004E01960CEF80840C3F80CC062E71C688A
:106B4C00AAE78C46C3F80CC05CE700293FF45AAFA7
:106B5C00D3F804C00139DCF80CC01960C3F804C0C8
:106B6C00CCF808404EE7C86800283FF47EAF0146D9
:106B7C0075E7C8680028B0D00146A8E7CCF82470A7
:106B8C00CCF828700C604D608D6083E78868002815
:106B9C003FD07C1CC5608D60CCF82810CCF824004C
:106BAC001C6077E700215960996019602AE78868B2
:106BBC00002839D00134C0F80CE0C1F808E0CEF858
:106BCC000C10CEF808001C609AE700293FF41AAFAD
:106BDC00D3F808C00139DCF808C01960C3F808C044
:106BEC00CCF80C500EE700215C689960596019686C
:106BFC00DC600139196052E7D3F804C000215960F8
:106C0C0099601960C3F80CC0FCE6394665E741464B
:106C1C002BE71C68CCF824000134CCF82880C8F889
:106C2C0008501C605D6035E71C68CEF80800013424
:106C3C00CEF80C70C7F808E01C60C3F804E05FE7FE
:106C4C00A0010020B001002070B5044672B6C368E4
:106C5C000369032B37D8DFE803F05740145C034675
:106C6C000A68012A00F0AA809D68002D00F0BC8003
:106C7C00D868002800F0C180E860DB68013A9D60AC
:106C8C000A606B4D04F11C06EB68EB68002B5ED0C0
:106C9C0028463146FFF7A4F9EA68EA68644B964245
:106CAC005BD01A68012A67D0616A002969D0A06A92
:106CBC00002875D0C860A06A013A81601A605D4BEB
:106CCC001A68013A1A60A36913B1A069FFF730FD85
:106CDC0062B6A068FEF7A4FA70BD554DEB68EA6881
:106CEC0000F11C039A4224D02B68012B61D0426A1C
:106CFC00002A6FD0816A002900F08980D160816AF6
:106D0C00013B8A602B60DAE74FF0FF30FFF758FE4B
:106D1C00D9E7416948680028B3D003689C4218BF82
:106D2C0003469CD0DB68002BABD01A689442F9D197
:106D3C0096E72B68002B2DD0012B72D06A680020AF
:106D4C00D168013B69602B608860EA60B7E7EE6050
:106D5C00EA68EA68364B9642A3D11A68EAB1012A6E
:106D6C0031D059684FF0000CC868013A58601A606D
:106D7C00C0F808C0E960A2E700225A609A601A6065
:106D8C009DE7002A9BD05868013AC0681A60586089
:106D9C00816094E71A46EA6091E71146E9608EE754
:106DAC00002A8CD09968013A89681A609960C86089
:106DBC0085E700236B60AB602B6080E700234B60A2
:106DCC008B600B605DE7596800225A609A601A600C
:106DDC00E96074E7002B3FF472AF6968013BC96846
:106DEC002B6069608A606AE7002A3FF44AAFC36887
:106DFC00013A4B600A609D6043E7002A3FF441AFC3
:106E0C008B68013A9B680A608B60D86039E7002B6D
:106E1C003FF455AFAA68013B92682B60AA60D16021
:106E2C004DE76A6800236B60AB602B60EA6046E755
:106E3C00A0010020B0010020704700BF704700BFC8
:106E4C002DE9F04F016840F2C903C0F20403CB18DE
:106E5C0081B09B020093A1F11002009903F583739A
:106E6C0001F5E37B9B004FEA8B0B164D1F68DBF89B
:106E7C00009080464FEAC20A05EB42150024012619
:106E8C0016FA04F33B4204D103FA0AF313EA090F8E
:106E9C0005D02B681BB11B690BB1404698470134D8
:106EAC000435082CECD1009A02F5827303339B0055
:106EBC004FF0FF321A60DBF80030CBF8003001B035
:106ECC00BDE8F08FCC0100202DE9F00790F800C050
:106EDC00D2B2BCF11F0F0CF1100800F2AB800125EF
:106EEC0005FA0CF54EF28014CEF2000425604EF239
:106EFC008024CEF20004256040F2D904C0F20404D0
:106F0C006444A40204F58277BD004068D5F800A063
:106F1C00C6430AEA060AC5F800A0DFF85C91DFF860
:106F2C005CA109684AF8289004F5807A0AF10108F6
:106F3C004FEA8808D8F80090012909EA0609C8F830
:106F4C00009063D002295AD000293CD04FEACC06DD
:106F5C0010FA06F60337BF0004F5E37138608900B8
:106F6C00D1F80080F74308EA0708C1F800802968C7
:106F7C0041EA0000286092B11B68012B6DD03BB92F
:106F8C0004F5E07301339B001A6802EA07071F60DF
:106F9C0004F5E274A400236843EA06062660BCF1FB
:106FAC001F0F22D9BCF13F0F0AD80123ACF1200CE2
:106FBC0003FA0CFC4EF20413CEF20003C3F800C02B
:106FCC00BDE8F007704704F581718900D1F80080A5
:106FDC000AF1030A08EA06060E604FEA8A0ADAF892
:106FEC0000100143CAF80010B0E7012303FA0CFCAF
:106FFC004EF20013CEF20003C3F800C0E0E704F534
:10700C00817189000E6806430E609FE704F581715B
:10701C008900D1F800800AF1030A08EA0608C1F8D1
:10702C0000804FEA8A0ADAF8001001EA0606CAF86C
:10703C0000608BE7BCF13F0F3FF65EAFACF1200474
:10704C000125A5404EF28414CEF2000425604EF2C8
:10705C008424CEF2000425604EE704F5E07301337E
:10706C009B001A6804F5E27432431A60A40023688A
:10707C0043EA0606266092E7496E20004C02002087
:10708C00EFF3038000F03F0001B500F035F8BDE8E8
:10709C0001404FF001034FEA03630D4941F0010138
:1070AC000C4AA2F101020EB42DE90F10BFF36F8F41
:1070BC00704707DFFDE7079800F400704FEAD01027
:1070CC0000F120008544BFF36F8F704770470000BC
:1070DC00BE702000E570200000B540F24C2381B05A
:1070EC0001AAC2F2000342F8040D53F8203068469E
:1070FC00984701B000BD00BF00B5054B81B053F8F7
:10710C00203000900BB16846984701B000BD00BF1D
:10711C0084000020704700BF00B500F01DF800BDD2
:10712C0000B547F6401081B0C0F22000FEF71CF805
:10713C0047F2E870C0F22000FEF716F840F24C035C
:10714C00C2F200030A221A605C231B680093009BA6
:10715C00984701B000BD00BF2DE9F04172B61E4D3D
:10716C001E4E15F8014C4FF000081D4F8CB1092C28
:10717C002AD00A2C1BD0336820460133336000F030
:10718C004BF833684F2B08DC013515F8014C002CFB
:10719C00EDD1FFF7C5FFBDE8F0810D2000F03CF804
:1071AC000A2000F039F80135C6F80080EDE70D2013
:1071BC0000F032F8204600F02FF83B68C6F800804B
:1071CC0001333B600135E0E7204600F025F83368D9
:1071DC00013508333360D8E755792000C001002011
:1071EC00C401002030B50B4C0546236823B1DA6886
:1071FC00013ADA60DA683AB1636823B15A68284612
:10720C00DA601B69984730BD5A68DA601B69984789
:10721C00F2E700BF4C0C0020144B10B41B78C0B22A
:10722C0013B3EFF31084124BE4B21C7072B649F234
:10723C003803C4F20803032249F244011A60C4F271
:10724C0008010A6849F2440312F0010FC4F2080362
:10725C00F7D149F29802C4F2080210601A6842F0A1
:10726C0001021A6004B962B610BC7047820000209B
:10727C00800000204378053B1D2B10D8DFE803F07D
:10728C0011570F0F400F0F0F0F0F0F0F0F0F0F0F87
:10729C000F0F0F0F0F0F0F0F0F0F0F20226D00206E
:1072AC0070470378002BFAD18378C27843EA022224
:1072BC0049F20003C4F208031A60364B03221A6029
:1072CC000120EDE70378A12BE9D18378C27853EA4A
:1072DC000222E4D1304B19681A715A7162F31F0102
:1072EC0008229A712D4A196013608379C2790120A2
:1072FC0043EA02222A4B072A28BF07221A60CFE74B
:10730C000378002BCBD10379427953EA0222C6D100
:10731C008379C27953EA0222C1D18378C07843EAD7
:10732C0000200128BBD11B4B04221A60B8E703785C
:10733C00802BB4D1C378012B1ED0022BAFD1194AAC
:10734C00164B1A608379C279012043EA0222144B4E
:10735C00432A28BF43221A60A2E70378212B9ED12F
:10736C008379C27953EA022299D182780E4B02F0CA
:10737C0001021A70012093E70C49084A11608279C6
:10738C00C179184642EA0121054A122928BF122167
:10739C00116085E77C000020640C0020600C00204C
:1073AC006C0C0020347820008100002078782000BC
:1073BC0070B549F23803554AC4F208031C681368C7
:1073CC0082B023B1002113F0040F116053D1504A45
:1073DC00136823B1002113F0010F11600BD14D4B39
:1073EC001A680AB100221A6049F23803C4F2080381
:1073FC001C6002B070BD484B1A783AB9474A1278F3
:10740C0022B101221A702020FFF706FF49F238033F
:10741C00C4F2080300221A6049F24403C4F20803C0
:10742C001B6813F0010F31D049F25803C4F2080362
:10743C001B6849F28001DBB26846C4F20801934232
:10744C0006D9D1F800C000F802C00132082AF6D1E2
:10745C006846FFF70FFF88B1DFF8C4C0DCF80030D6
:10746C00002B4AD049F24403C4F208031A6842F0D4
:10747C0040021A6010E0FEF747F9A8E749F244030E
:10748C00C4F208031A6842F060021A60DFF890C078
:10749C00DCF80030002BA2D0224E3268C2B149F287
:1074AC008005DCF800100023C4F20805C85C013329
:1074BC00013A2860C818CCF80000101E18BF012033
:1074CC001F2B8CBF002000F0010032600028EDD192
:1074DC0052B949F24403C4F208031968CCF80020ED
:1074EC0041F00A0119607AE749F24403C4F2080337
:1074FC001A6842F002021A6071E749F24403C4F2BE
:10750C0008031A6842F048021A6068E7540C00201D
:10751C00580C00205C0C0020820000208100002010
:10752C00600C00206C0C00204F4B70B41D6847F2AF
:10753C00F833C2F200034FF440625A6000229A60A2
:10754C00DA60EA681B6002F54062EA605A686B68B0
:10755C00002B52D047F2F83CC2F2000C1E68944447
:10756C00B4450CBF1A461A4604D0D26812B1116841
:10757C008C45FAD147F2F831C2F200010C68596817
:10758C007618B44208D0DB68002B35D0D3F800C095
:10759C00596861448C42F6D119461346BBB147F287
:1075AC00F832C2F200025468D3F804C0A444C2F802
:1075BC0004C02A68012A2ED09C68002C39D0DE68C1
:1075CC00002E2DD0E660DB68013A9C602A6039B150
:1075DC0047F2F833C2F200035B684A68D3184B6079
:1075EC008546BFF36F8F5DF804CB8CF30388BDE841
:1075FC00FF5F00BD70BC704713462A6812BB47F290
:10760C00F831C2F200018A60CA606960A960012188
:10761C0029601146C2E700236B60AB602B60D6E794
:10762C00002AD4D0AB68013A9B682A60AB60DE605C
:10763C00CDE7002ACBD06B68013ADB682A606B601F
:10764C009C60C4E7A96847F2F83CC2F2000CC1F890
:10765C000CC0CCF8081001320021CCF80C102A60B8
:10766C00C5F808C09AE700BF6C00002081B04DF847
:10767C0004CD0FF2340C4CF0010CCDF804C05DF8C5
:10768C0004CB2DE9FF5FEFF3038C4DF804CDC0F86C
:10769C0000D08D46BFF36F8F5DF804CB8CF303885D
:1076AC00BDE8FF5F62B600BD704700BF40F6704397
:1076BC00C2F2000300221A605A609A60DA607047C6
:1076CC00074B10B51A6852B9064C01221A60636850
:1076DC002BB10434984754F8043F002BFAD110BD59
:0876EC00040000209079200049
:1076F400476174657761792073746F707065642075
:1077040077616974696E6720666F72206E65772091
:107714006D657373616765730A0000004761746582
:107724007761792073746172746564207761697418
:10773400696E6720666F72206D6573736167657328
:107744000A0000003E2000005265636569766564A6
:107754002066726F6D2000003A200000456E6420A0
:1077640044657669636520002073746F7070656486
:107774002077616974696E6720666F72206E657721
:10778400206D657373616765730A0000203E2000F5
:1077940020737461727465642077616974696E67BB
:1077A40020666F72206D657373616765730A0000EC
:1077B4002D2D2D2D2D2D2D2D2D2D2D2D204C6F527C
:1077C40061204D6573682050726F6772616D3A2055
:1077D40047617465776179202D2D2D2D2D2D2D2D4B
:1077E4002D2D2D2D0A0000004D4D553A3A616C6C3B
:1077F4006F632829206661696C65642100000000BC
:1078040050757265205669727475616C206D65746B
:10781400686F642063616C6C6564210030313233BD
:1078240034353637383961626364656600000000B8
:1078340009024300020100A0190904000001020228
:10784400010005240010010424020205240600019D
:1078540005240100010705820340004009040100DA
:10786400020A000000070583022000000705040245
:10787400000100001201000202000020501D1C60E3
:1078840003000000000100000000000000000000F0
:10789400615C20008D5C2000815C20000000000001
:1078A40000000000555C20009D5C2000F951200080
:1078B4005468726561643A3A70617373203D3E2086
:1078C40074687265616420280000000029206E6FCE
:1078D4007420726561647921000000005468652099
:1078E4006C617374207468726561642068617320CC
:1078F40065786974656421005265626F6F74696E9E
:107904006720746865206D616368696E65202E2E3A
:107914002E000000526573756D652063616C6C65A3
:107924006420666F7220756E73757370656E64651E
:1079340064206F626A656374210000004D616368AE
:10794400696E653A3A7265626F6F742829000000A7
:0879540050414E4943210A0095
:10795C00FFFFFFFF75422000DD4220009D44200008
:10796C0091492000454E2000115120004951200022
:10797C006D5C200071602000456E2000B9762000FF
:04798C0000000000F7
:0C799000FFFFFFFF9D49200000000000E9
:040000050020411C7A
:020000040027D3
:0CFFD400FFFFFFEF000000000000200015
:00000001FF
