:020000040020DA
:10400000F87F00201D41200075A2200075A220002D
:1040100075A2200075A2200075A2200075A22000C4
:1040200075A2200075A2200075A22000ABA220007E
:1040300075A2200075A2200075A2200075A22000A4
:1040400075A2200075A2200075A2200075A2200094
:1040500075A2200075A2200075A2200075A2200084
:1040600075A2200075A2200075A2200075A2200074
:1040700075A2200075A2200075A2200075A2200064
:1040800075A2200075A2200075A2200075A2200054
:1040900075A2200075A2200075A2200075A2200044
:1040A00075A2200075A2200075A2200075A2200034
:1040B00075A2200075A2200075A2200075A2200024
:1040C00075A2200075A2200075A2200075A2200014
:1040D00075A2200075A2200075A2200075A2200004
:1040E00075A2200075A2200075A2200075A22000F4
:1040F00075A2200075A2200010B5074C54F8043CAE
:10410000B3F1FF3F06D0043C984754F8043DB3F1A7
:0C411000FF3FF9D110BD00BF3CC22000F1
:10411C0040400949094A086004319142FBDBFFF732
:10412C00E5FF00BF00F046FA01F030F801B407F0EB
:10413C00A5FB02F077F9000004000020500D0020D0
:10414C0043680A1D5BB1D0F80CC00133CCF80420D5
:10415C004FF0000CC1F808C04360C26070478B6020
:10416C0001238260C2604360F8E700BF10B444686A
:10417C00012C17D0836801F1040C9C4517D04BB16E
:10418C005A682AB1944503D013465268002AF9D1D3
:10419C008A685A60C268944508BFC360013C446099
:1041AC0010BC704700238360C3604360F8E7002CA9
:1041BC00F6D08B68013C83604460F1E730B58468CD
:1041CC0005464CB12068294603681B68984764680B
:1041DC00002CF7D1012030BD2046FCE7F0B54B6A2E
:1041EC0081B004460D461746002B37D0AC462360F1
:1041FC005CF8043B04F1200E2361BCE80F00AEE830
:10420C000F009CE807008EE807000026AA6A66618A
:10421C00A661E461E663266405F12001204605F001
:10422C00E9F9AB6AA2686660D218A2F140034FF0BC
:10423C00807142F8401C0B4A01A942F001029A63BA
:10424C0047F00102DA63204641F8047DE3606946D9
:10425C004FF4406205F044FC01B0F0BD024B1B680A
:10426C00C4E700BF25642000AC010020294B30B509
:10427C00186844682246002C47D06368572B07D82F
:10428C00482B11D0D268002A3FD05368572BF7D94E
:10429C00483B5360C1684839C16053B1126848212A
:1042AC00D018D150043030BD00235360C168483958
:1042BC00C160016801290BD0956875B1D468BCB197
:1042CC00EC60D2F80CC00139CCF808500160E5E77D
:1042DC000021416081600160E0E70029DED0D4F864
:1042EC000CC00139C0F804C00160CCF80850D5E707
:1042FC000029D3D0D0F808C00139DCF808C001601F
:10430C00C0F808C0CCF80C40C8E703F073FE0020DE
:10431C00C9E700BF58000020F0B598B00024002277
:10432C00002316940692079304920593029203932A
:10433C00169B4FF4406701930094089409940A97D4
:10434C00FFF794FF69461B4A0546FFF747FF6FF0DE
:10435C000043002217930023119212930F92109393
:10436C000D920E93179B01260C93139414940B9699
:10437C001597FFF77BFF0BA90F4AFFF72FFF0F4B8A
:10438C00E8681E7006F062FB0D4A012092E81800E6
:10439C0000211B1844EB0104B34282E8180001D041
:1043AC0018B0F0BD002CFBD1064A14605460946028
:1043BC00F6E700BF304120009D982000CC01002082
:1043CC0008000020100000202DE9F007754E7368DE
:1043DC00002B78D05968002975D0DFF8CC81B24613
:1043EC0000270022D8F800505A60F268521AF26086
:1043FC005A68C2B9DAF80040012C00F08480986841
:10440C00002800F0A880D3F80CC0BCF1000F00F01D
:10441C00B280C0F80CC0DA689060DAF80020013A7B
:10442C00CAF800205A681C68A41849D00F2947D92B
:10443C0061602460A760E760EB6859186B68E960FD
:10444C00D4F800C06068002B4DD0D3F800906044C5
:10445C0048450CBF1A461A4604D0D26812B11168EE
:10446C008842FAD159688944CC4507D0DB68002BC7
:10447C0038D01868596841188C45F7D1194613463D
:10448C00CBB160685A68821862602868012802BF44
:10449C006F60AF602F600ED09A68002A3BD0D3F8C3
:1044AC000CC0BCF1000F40D0C2F80CC0DB689A60A5
:1044BC002B68013B2B6019B14A686368D3184B60B9
:1044CC007368002B1AD1394A012092E81800002198
:1044DC001B1844EB0104012B82E818005BD0BDE8EB
:1044EC00F007704713462968002929D1A160E160C3
:1044FC002A686C600132AC602A60C1E759680029F7
:10450C007FF46FAFDFE7CAF80420CAF80820CAF8B6
:10451C0000205A6887E70028CDD06B68DB686B6099
:10452C009A602B68013B2B60C5E70028C3D0AB68B1
:10453C009B68AB60C3F80CC02B68013B2B60BAE7DF
:10454C00AA683946D460AA68E760A2602A68AC60A1
:10455C0001322A6094E7002C3FF465AFDAF80400CE
:10456C00C068CAF804008260DAF80020013ACAF880
:10457C0000205A6857E7002C3FF455AFDAF80800D2
:10458C008068CAF80800C260DAF80020013ACAF85C
:10459C0000205A6847E7002CA1D1054A14605460EA
:1045AC0094609CE7380D0020580000200800002083
:1045BC0010000020704700BF0E4B0A2100221A7118
:1045CC0019600D4B01201A710C4A196010B492E855
:1045DC00180000211B1844EB0104012B82E8180081
:1045EC0001D010BC7047002CFBD1054A14605460FC
:1045FC009460F6E72800002020000020080000202E
:10460C00100000200D4B0A221A6000221A710C4A6D
:10461C000120002110B492E818001B1844EB01048F
:10462C00012B82E8180001D010BC7047002CFBD184
:10463C00044A146054609460F6E700BF3000002018
:10464C0008000020100000202DE9F0438CB00E462D
:10465C00044668469046139F03F0C0FB33686D46D2
:10466C009A68022A5CD0DB68FF221A60D8F8003006
:10467C009A68022A72D0DB68FF221A6048F28042E4
:10468C0000230CA8C0F21E0220E90C0004F0ECFD83
:10469C00614B186833689A68022A79D0DB6800226B
:1046AC001A60D8F800309A68022A00F09580DB680E
:1046BC0000221A60594B1968594B01F1040999E809
:1046CC0000030CCB4FF0010112EB08028DF808101F
:1046DC008DF8090000923B88ADF80410ADF80A3053
:1046EC007A88ADF80610ADF80C20BB882146ADF8E1
:1046FC000E30FA886846ADF810203B89ADF81230C0
:10470C007F89ADF8147003F007FB684603F07CFB5F
:10471C0005F1180004F058FE16200CB0BDE8F0832B
:10472C00197849F200420903C4F20D028A18106884
:10473C00596808431060DA68FF2010601A7849F253
:10474C0000431203C4F20D03D3181A6822EA0101C4
:10475C001960D8F800309A68022A8CD1197849F27D
:10476C0000420903C4F20D028A1810685968084304
:10477C001060DA68FF2010601A7849F200431203C7
:10478C00C4F20D03D3181A6822EA0101196075E707
:10479C00197849F200420903C4F20D028A18D2F8C2
:1047AC0000C059684CEA010CC2F800C0DA684FF03E
:1047BC00000CC2F800C01A7849F200431203C4F28C
:1047CC000D03D3181A6822EA01011960D8F80030D9
:1047DC009A68022A7FF46BAF197849F200420903F8
:1047EC00C4F20D028A18D2F800C059684CEA010CC8
:1047FC00C2F800C0DA684FF0000CC2F800C01A789A
:10480C0049F200431203C4F20D03D3181A6822EACA
:10481C00010119604EE700BFEC03002010040020DA
:10482C0004040020F0B5854B01228FB01A700023D0
:10483C000D93834B0C46186841680B46002900F019
:10484C00F9804A68272A08D8182A06D0DB68002B7A
:10485C0000F0F0805A68272AF6D9183A5A60C268D4
:10486C00183AC2605A688AB90568012D00F0C880F0
:10487C009E68002E00F0C980D968002900F0CF8016
:10488C00F160DA68013D056096605A681B68182172
:10489C009D189950043502232B7003236B70082349
:1048AC006B604BF22003C4F20D03EB6000224BF261
:1048BC0020432A61C4F20D031968042021F0080179
:1048CC0019600123AB604BF20043C4F20D0319686D
:1048DC0041F00801196029786B78043103EBC101B0
:1048EC0044F20003C4F20D0343F82100297849F285
:1048FC001C430903C4F20D03CB18696819602978AD
:10490C00D5F804C00803C9000CFA01F149F2187378
:10491C00C4F20D03C318186820EA010119602B6951
:10492C0063B16B782978284603EBC101454B0C9297
:10493C0043F821500DA90CAB05F070FB68460AAF8B
:10494C000EAE0E9503F04AFA314638466A4603F02D
:10495C0095F8A37862781B0443EA02232278384640
:10496C001343E2786D4643EA02630093627923793C
:10497C0043EA0223ADF80430E279A37943EA022337
:10498C00ADF80630237AE27A8DF80830637A8DF828
:10499C000930237B1B0443EA0223A27A1343627B74
:1049AC0043EA0263ADF80A301B0CADF80C30237CE3
:1049BC00E27B1B0443EA0223A27B1343627C43EA9F
:1049CC000263ADF80E301B0CADF81030237DE27C89
:1049DC001B0443EA0223A27C1343627D43EA026375
:1049EC00ADF812301B0CADF8143002F099F93046CA
:1049FC00012101F099FE06A804F0E6FC0FB0F0BD11
:104A0C000260426082605A6840E7002D3FF43EAF7E
:104A1C00C968013D056041608A605A6836E7002D1F
:104A2C003FF434AF8168013D896805608160CA60DC
:104A3C005A682BE703F0DEFA00252CE7640000200F
:104A4C00580000200C0200202DE9F04FDFF8FCB6D6
:104A5C00DFF8FC360122DBF80000A3B01A7000234B
:104A6C00209343684BB15A68272A00F2BD82182A5A
:104A7C0000F0BA82DB68002BF5D103F0BBFA0024FE
:104A8C000223237001336370053363604BF2200300
:104A9C00C4F20D03E36000224BF220432261C4F206
:104AAC000D031968042021F0080119600123A3608B
:104ABC004BF20043C4F20D03196841F00801196070
:104ACC0021786378043103EBC10144F20003C4F292
:104ADC000D0343F82100217849F21C430903C4F269
:104AEC000D03CB18616819602178D4F804C0080351
:104AFC00C9000CFA01F149F21873C4F20D03C31882
:104B0C00186820EA010119602369002B00F00D835D
:104B1C00DFF84036DFF83C6607932178637820464F
:104B2C0003EBC10346F8234020A91FAB1F9205F0ED
:104B3C0075FA23AE46F8044D304601F031FE44F2CE
:104B4C004021C0F20F01002208AD1CA81C911D923F
:104B5C001AAC04F089FB284603F040F931462A468A
:104B6C00204602F08BFF204601F06EFE42F2280335
:104B7C00C4F20D031A68002542F002021A6042F2D8
:104B8C002C03C4F20D031A684FF0FF3142F00202FD
:104B9C001A6042F23003C4F20D031A68D02042F0BE
:104BAC0002021A6044F25C03C4F20D0302221A6082
:104BBC0044F2DC03C4F20D0306321A6044F2D8034B
:104BCC00C4F20D031D6044F20813C4F20D030E323F
:104BDC001A604BF22043C4F20D031A6840F2BC3643
:104BEC0042F0C0021A604DF23003C4F200031A689E
:104BFC00C2F2000622F001021A604DF24402C4F225
:104C0C00000211604DF238024DF22401C4F2000290
:104C1C00C4F20001156008604DF22801C4F20001D5
:104C2C003E2008604DF22C01C4F2000132300860C5
:104C3C00302111601A68DFF8200542F4407242F00E
:104C4C0001021A60012272604DF20002C4F20002ED
:104C5C0032601A6822F080021A6001F0EBFBDFF878
:104C6C00FC34DBF800001D6043684BB15A68232A02
:104C7C0000F2D781142A00F0D481DB68002BF5D127
:104C8C0003F0B8F9002640F2D83300220021C2F21A
:104C9C00000383E806004020B160F26049F2500A3C
:104CAC0005F04CFDC4F2080A49F23803C4F20803BB
:104CBC0052464EF260384FF00009DFF8A4C4DFF81A
:104CCC00A45405969A46C0F216084E4613469CF814
:104CDC0000102A68032A40F36181EFF31081C9B2F6
:104CEC0072B60427CAF800701A6801B962B612F0DD
:104CFC00010F00F05381B8F1000F8CF8001040F355
:104D0C00B4810093CDF810C005F0E2FC009BDDF8F7
:104D1C0010C00646462E00F0A08101224FF000097B
:104D2C00582E0CBF002102F001010029CFD1B9F19E
:104D3C00030F059E49D08A46002200210591069258
:104D4C0049F2380849F25009C4F208080423C4F2A5
:104D5C00080901962A68032AFCDDEFF31082D2B20F
:104D6C0072B6C8F80030D9F8001002B962B611F06A
:104D7C00010FEFD08CF800200093CDF810C005F097
:104D8C00A7FC524600F0FF004FF0000105F0A8FF11
:104D9C0005AFC0CF0AF1080A06430F43BAF1400F22
:104DAC000290039105960697009BDDF810C0D1D1B7
:104DBC00019E40F2D83705AA06CA0023B160F26002
:104DCC00C2F20007002287E80C00DBF80000436801
:104DDC004BB15A68232A00F2E980142A00F0E680CD
:104DEC00DB68002BF5D103F005F9002340F200023B
:104DFC000021C4F2030240F20C005A601960C4F2A4
:104E0C000300D0F800C02CF0010CC0F800C042F236
:104E1C000800C4F20D00D0F800C04CF0010CC0F832
:104E2C0000C042F20C00C4F20D00D0F800C04CF0EF
:104E3C00010CC0F800C042F21000C4F20D00D0F812
:104E4C0000C04CF0010CC0F800C0116040F204022C
:104E5C00C4F203020220106040F2280244F6000063
:104E6C00C4F20302C0F2E81010605A689163BE4AA3
:104E7C00002A00F05D815868D0F818C04CF0010C85
:104E8C00C0F818C05868D0F80CC04CF0010CC0F831
:104E9C000CC09960B549DA60C1F88C204EF2001252
:104EAC00CEF200024FF4002111607360B04BB14D93
:104EBC004AF220111E60C0F20701002212A81291C2
:104ECC00139204F0D1F92A780123219349F210436B
:104EDC001203C4F20D03D3181A686968284622EA33
:104EEC0001021A60A44B2A782B616B7821A903EB81
:104EFC00C203079A40F2BC3642F8235000221EAB84
:104F0C001E9205F08BF89D4801F094FA9C4A9D4B3B
:104F1C0069681A602A7849F210431203C4F20D032F
:104F2C00D3181A68C2F2000622EA01021A6033682A
:104F3C004FF0FF325A642A7849F210431203C4F23C
:104F4C000D03D31819686A688F4841EA02021A6087
:104F5C0001F070FA4AF22011C0F20701002218A8E1
:104F6C001891199204F080F916AE14AD48F28042F3
:104F7C000023C0F21E0230461692179304F074F907
:104F8C0040F60011C0F23D01002228461491159202
:104F9C0004F06AF9204602F0B7FAE7E708F1FF38A7
:104FAC0008F10102002A3FF794AEA4E6143A5A60C5
:104FBC00C268143AC2605A6882B90568012D78D06B
:104FCC00996800296AD0DF68002F00F0A280CF60BA
:104FDC00DA6891600268013A02605A681968142014
:104FEC008B188850043301E7183A5A60C268183A93
:104FFC00C2605A687AB90468012C6AD09968002991
:10500C005CD0DD68002D79D0CD60DA6891600268E3
:10501C00013A02605A681B6818219C189950043494
:10502C002EE5143A5A60C268143AC2605A6872B9D2
:10503C000568012D5DD0996800294FD0DE6816B344
:10504C00CE60DA6891600268013A02605A681B68A7
:10505C0014219E189950043615E609F10109B9F18D
:10506C00020FCCBF002201225AE640204EF26038DB
:10507C000093CDF810C0C0F2160805F05FFBDDF808
:10508C0010C0009B46E6002DE1D0816889688160E4
:10509C00CA600268013A02605A68D8E7002D9DD0B8
:1050AC004168C96841608A600268013A02605A68C6
:1050BC0094E74260826002605A688FE7002CAAD0A5
:1050CC004168C96841608A600268013A02605A68A6
:1050DC00A1E74260826002605A689CE7002DB6D05E
:1050EC004168C96841608A600268013A02605A6886
:1050FC00ADE74260826002605A68A8E7002C8AD053
:10510C00816889688160CA600268013A02605A68E5
:10511C0081E7002D3FF462AF816889688160CA60C5
:10512C000268013A02605A6858E70A49079100E59B
:10513C005968886920F0010088615968C86840F096
:10514C000100C8609A60DA60AFE600BF580000202A
:10515C00640000200C02002030B92000EC03002079
:10516C009400002090000020015C2000BC02002074
:10517C000C040020F0030020CD5C200048B9200076
:10518C0031482000D403002070B9200000B5FFF78F
:10519C005BFC002000BD00BF2DE9F04F4AF220421D
:1051AC00D4B0012500248DF8C4508DF8C540C4F24C
:1051BC000D0213684AF2040723F0010313604AF24C
:1051CC000043C4F20D03196844F20000294319602E
:1051DC009DF8C4C09DF8C5100CF1040CC4F20D0070
:1051EC00C4F20D0701EBCC0C0421329534973594A5
:1051FC00339540F82C109DF8C4E049F21C4C4FEA52
:10520C000E3EC4F20D0CF444CCF800509DF8C4E0F2
:10521C0049F2187C4FEA0E364FEACE0E05FA0EFE16
:10522C00C4F20D0CB444DCF80060DFF8609926EA97
:10523C000E0ECCF800E049F2004CC4F20D0CDCF878
:10524C000080022628F00408CCF8008044F288087C
:10525C00C4F20D08C8F800503C60DCF800700DF189
:10526C00C40827F01007CCF8007044F290074FF0F8
:10527C00030ECDF82481C4F20D070DF58478429607
:10528C004396CDF810E1CDF828813F914096CDF8AA
:10529C0004E13D6005273C97DCF800703D9627F053
:1052AC002007CCF8007044F2940CC4F20D0CCCF82E
:1052BC0000504AF2100C8DF8B0508DF8B160C4F269
:1052CC000D0CCDF8BCC0D2F800C0CDF8F8E02CF035
:1052DC00040CC2F800C0D3F800C02D914CEA010CAC
:1052EC00C3F800C09DF8B0709DF8B1C07F180CEBEE
:1052FC00C70C30942E9540F82C109DF8B07049F2E4
:10530C001C4C3F03C4F20D0CBC44CCF800109DF8AF
:10531C00B07049F2187C4FEA073807FA0EF711FA09
:10532C0007F7C4F20D0CC444DCF8008028EA070728
:10533C00CCF800708DF89C508DF89DE0D2F800C030
:10534C004FF008082CF0080CC2F800C0D3F800C0CD
:10535C004AF2200EC4F20D0E4CEA080CCDF8A080D7
:10536C00CDF8A8E02B942995C3F800C09DF89C704B
:10537C009DF89DC07F180CEBC70C40F82C109DF8C5
:10538C009C7049F21C4C3F03C4F20D0CBC44CCF88D
:10539C0000809DF89C7049F2187C4FEA073AFF0098
:1053AC0008FA07F7C4F20D0CD444DCF800A02AEA82
:1053BC000707CCF800700DF1440C27AFCCF8007047
:1053CC00CCF808700DF1FC0A3CAFCCF804A0CCF87A
:1053DC000C700DF1B00CCDF854C04AF2080CCEF89C
:1053EC000040C4F20D0C8DF888508DF88950CDF822
:1053FC0094C0D2F800C023962CF0020CC2F800C066
:10540C00D3F800C026944CEA060CC3F800C09DF8F3
:10541C0088E09DF889C08E440CEBCE0C249540F8A6
:10542C002C109DF888E049F21C4C4FEA0E3EC4F259
:10543C000D0CF444CCF800609DF888E049F2187C1F
:10544C004FEA0E374FEACE0E06FA0EFEC4F20D0CE2
:10545C00BC44DCF80070DFF838A727EA0E0ECCF855
:10546C0000E04AF2400EC4F20D0E8DF874508DF827
:10547C007510CDF880E0D2F800E04FF0100C2EF053
:10548C00100EC2F800E01A68CDF878C022F01002B5
:10549C001A609DF874209DF87530521803EBC20306
:1054AC0021941F9440F823109DF8742049F21C435A
:1054BC001203C4F20D03D318C3F800C09DF8742076
:1054CC0049F218734FEA023ED2000CFA02F2C4F20F
:1054DC000D037344D3F800E01DAF2EEA02021A60EC
:1054EC0022AB3993DFF8AC3639AA1A609DF87420D8
:1054FC0049F200431203C4F20D033A973B941F94F4
:10550C00D3181A6822F010021A609DF874209DF8C6
:10551C007530521803EBC20340F823109DF8742029
:10552C0049F210431203C4F20D035094D3181A68B5
:10553C00384622F010021A60DFF85C369DF87420B1
:10554C0021939DF8753050A903EBC2034AF82370E0
:10555C0022464EAB4E9404F061FD3846224651A9CA
:10556C0052AB5195529404F059FD42F22803C4F207
:10557C000D031A684FF0FF3132431A6042F22C03CC
:10558C00C4F20D031A68D02032431A6042F2300381
:10559C00C4F20D031A6801AF32431A6044F25C0383
:1055AC00C4F20D031E6044F2DC03C4F20D03C3F815
:1055BC00008044F2D803C4F20D031C6044F20813BB
:1055CC001622C4F20D031A604BF22043C4F20D03F1
:1055DC001A68DFF8C86542F0C0021A604DF2300359
:1055EC00C4F200031A68756022F001021A604DF2D1
:1055FC004402C4F2000211604DF238024DF2240153
:10560C00C4F20002C4F20001146008604DF22801DB
:10561C003E20C4F2000108604DF22C013230C4F27D
:10562C0000010860302111601A68DFF8740542F43B
:10563C0040722A431A604DF20002C4F2000232603A
:10564C001A68DFF8608522F080021A6000F0F2FE22
:10565C004BF23433C0F23923369347F61033C8F883
:10566C0000504F95CFF67253DFF83C55379343F209
:10567C0006732A78CFF64763389349F21043120326
:10568C00C4F20D03D3181A686968284622EA01028D
:10569C001A60DFF818352A782B616B784FA903EB69
:1056AC00C2034AF8235022464DAB4D9404F0B6FC8D
:1056BC00DFF8FC0400F0BEFED8F800103A4648466D
:1056CC0002F0E2FC3C54384600F0B4FEDFF8E4048F
:1056DC0000F0B0FEDFF8E034DFF8E0246968136016
:1056EC002A7849F210431203C4F20D03D3181A6836
:1056FC00DFF8CC4422EA01021A6033684FF0FF3223
:10570C005A642A7849F210431203C4F20D03D318D9
:10571C0019686A6841EA02021A602068456835B166
:10572C006B681F2B1CD8102B1AD0ED68F7E702F012
:10573C0061FCA846DFF88C340021002283E80600C7
:10574C00C8F80410C8F8082020684568002D00F03F
:10575C00E9816B68232B32D8142B30D0ED68F5E738
:10576C00103B6B60C368103BC3606B68A3B90168E6
:10577C00012900F0DD80AA68002A00F0CD80D5F860
:10578C000CC0BCF1000F0FD0C2F80CC0EB689A60D3
:10579C000368013B03606B682A68102102EB030865
:1057AC00D15008F10408C5E70029F5D08268926849
:1057BC008260D3600368013B03606B68ECE7143BC9
:1057CC006B60C368143BC3606B68ABB9016801299B
:1057DC0000F0C381AA68002A00F0B381D5F80CC090
:1057EC00BCF1000F00F0A181C2F80CC0EB689A600C
:1057FC000368013B03606B682A681421D518D150EB
:10580C00043540F200030022C4F2030340F20C0101
:10581C006B602A60C4F20301086820F00100086084
:10582C0042F20801C4F20D01086840F00100086062
:10583C0042F20C01C4F20D01086840F0010008604E
:10584C0042F21001C4F20D01086840F0010008603A
:10585C001A6040F20403C4F203030221196040F2FF
:10586C00280344F60001C4F20303C0F2E8111960E6
:10587C006B689A63D44B002B00F08A806968886946
:10588C0040F0010088616968C86840F00100C86098
:10589C00AA60CE4AEB60C2F88C304EF20013CEF206
:1058AC0000034FF400221A60C8F80050C84DC948D4
:1058BC00C5F8008000F0BEFD4FF0230B4FF07E08C2
:1058CC002B685A689B68134337D1C34803F01AFD01
:1058DC00326802F118010B6813F02003FBD1C2F8F7
:1058EC0000B0326802F11801086810F0200FFBD1EB
:1058FC000133042BC2F80080F6D1B74803F0F8FC52
:10590C0048F6805245A9C0F25B02002381E80C00E6
:10591C00084603F0A9FCD3E700293FF43DAF4268E9
:10592C00D268426093600368013B03606B6833E7A5
:10593C004360836003606B682EE7A84800F07AFD33
:10594C00A34B00251B68914803F1040206CA3B4691
:10595C00009502F0A5FB3D54384600F06BFDA048C5
:10596C0000F068FD0A23C9F800309E4800F062FD83
:10597C0020689D4B012244681A704C95002C00F055
:10598C00F1806368272B10D8182B0ED0E468F5E74C
:10599C006A68916921F0010191616A68D16841F0EE
:1059AC000101D160AB60EB607EE7183B6360C368BC
:1059BC00183BC360636893B90168012900F0E1806A
:1059CC00A268002A00F0D180E568002D00F09E80CE
:1059DC00D560E3689A600368013B036063682268E2
:1059EC001821D418D150043402232370013363706E
:1059FC00053363604BF22003C4F20D03E360002215
:105A0C004BF220432261C4F20D031968042021F0EB
:105A1C00080119600123A3604BF20043C4F20D038B
:105A2C00196841F00801196021786378043103EB9F
:105A3C00C10144F20003C4F20D0343F821002178A4
:105A4C0049F21C430903C4F20D03CB1861681960B9
:105A5C002178D4F804C00803C9000CFA01F149F20A
:105A6C001873C4F20D03C318186820EA01011960F9
:105A7C0023695BB121786378204603EBC1034AF8B4
:105A8C0023404CA94BAB4B9204F0C8FA539447AF4C
:105A9C0017AC0DF592780DF1D80A0DF5A6790DF12C
:105AAC00440B7E2547A951A30CCB384681E80C004A
:105ABC0003F0DAFB41465A4639AB2046CDF800A03C
:105ACC00FEF7C2FD444803F01DFCD6F800C00021CF
:105ADC000CF11802605C136813F02003FBD1013148
:105AEC001629CCF80000F5D1306800F118010A68CD
:105AFC0012F0200FFBD10133042B0560F7D136488F
:105B0C0003F0F6FB484600F04BFECBE700293FF4D0
:105B1C0066AF826892688260D3600368013B036061
:105B2C0063685CE702F066FA6BE600293FF464AE4A
:105B3C00826892688260D3600368013B03606B6883
:105B4C005AE600293FF458AE4268D268426093602E
:105B5C000368013B03606B684EE64360836003603F
:105B6C006B6849E602F046FA3EE700293FF437AF8E
:105B7C004268D268426093600368013B03606368CB
:105B8C002DE7436083600360636828E7E40300202B
:105B9C000C02002088000020595C2000BC0300206F
:105BAC0030B92000EC030020F0030020095F200036
:105BBC0084B9200090B92000995C2000E0030020FB
:105BCC0058000020040400202D5C2000BC020020A2
:105BDC0010040020B0B92000C4030020D4B9200068
:105BEC00F4BB200070B9200064000020002D3101AE
:105BFC000000000040F2D833C2F200034DF804BD9F
:105C0C0093E806004FF0010B11EB0B014FF0000C69
:105C1C0042EB0C0283E806005DF804BB704700BF42
:105C2C0040F20443C2F200034DF804BD93E80600B1
:105C3C004FF0010B11EB0B014FF0000C42EB0C027F
:105C4C0083E806005DF804BB704700BF0D4B81B0C4
:105C5C001B68ABB10C490A7892B99868013098600E
:105C6C000092009B42F2F172C0F20902934205D8F5
:105C7C00009B01330093009B9342F9D900230B70D6
:105C8C0001B07047880000208400002030B5054624
:105C9C004BF6C40081B00024C0F220008DF8034004
:105CAC0000F0C8FB284600F0C5FB0A2368468DF8B7
:105CBC0000308DF8014000F0BDFB01B030BD00BFDD
:105CCC002DE9F04F854D8EB0854803F01BFB2A78EB
:105CDC0049F210431203C4F20D03D3181A68696811
:105CEC00804C22EA01021A60226800238DF80830E9
:105CFC0002F11803196811F0100FFBD1196811F09B
:105D0C00100FFBD11168C9B20191196811F0100F75
:105D1C00FBD11168C9B20091196811F01007FBD1C1
:105D2C0044F2412A44F23F28DFF8BCB13E460DF163
:105D3C000809C0F20F0AC0F20F081968104611F0DA
:105D4C00100F2CD00EA98E19002106F8341C9DF8CA
:105D5C000910002940F0B7809DF808C0BCF1230F52
:105D6C0053D00199009A614B01EB02201B6802A9E8
:105D7C00984720684FF0FF3343642A7849F2104368
:105D8C001203C4F20D03D31819686A68544841EA27
:105D9C0002021A6003F0ACFA0EB0BDE8F08F282EA8
:105DAC008CBF00210121032FCCBF002101F0010188
:105DBC000029C7D0196811F01001FBD11268D2B2BA
:105DCC007E2A09F8062018BF0F461AD01A6812F05E
:105DDC00100F0ED00122196811F0100F0ED00132E5
:105DEC005245F8D14FF001018BF80410404800F0F7
:105DFC0021FB2268013602F118039EE74245F8DDCB
:105E0C00F0E70137042FF4D0E0E7DFF8E8C0019C9D
:105E1C00009EDCF800C0DFF8E0E00CF1080B9BE81A
:105E2C00000C04EB06299EE8C00016EB0A0647EBB3
:105E3C000B078C460CAC4FEACC01C1F1200AA1F146
:105E4C00200E07FA0AFA36FA01F127FA0EF84AEA96
:105E5C00010111EA2E0138BF414604F80C100CF177
:105E6C00010CBCF1080FE6D1196811F0200FFBD121
:105E7C005FFA89F11160196811F0200FFBD1C9F399
:105E8C000729C2F80090196811F0200CFBD12321CE
:105E9C00116014F80CE0196811F02001FBD10CF121
:105EAC00010CBCF1080FC2F800E0F2D14FF07E0EED
:105EBC00D3F800C01CF0200FFAD101310429C2F82C
:105ECC0000E0F5D156E7019B009E02A903EB0620EA
:105EDC00064B1B68984720684CE700BFF003002076
:105EEC00C4030020BC03002038000020D403002091
:105EFC00C8B820000C040020D80300202DE9F04F76
:105F0C0057488AB003F0FEF940F2F030C2F20000BC
:105F1C00027849F210431203C4F20D03D3181A6825
:105F2C004168DFF840A122EA0102DAF800101A6099
:105F3C0000238DF8003001F11802176817F01007D4
:105F4C00FBD144F2412644F23F25DFF81C913C463C
:105F5C00E8464FF0010BC0F20F06C0F20F051368B4
:105F6C00084613F0100345D0043C0AA90A19002373
:105F7C0002F8283C9DF80020232A14BF002201229D
:105F8C00092C8CBF002402F00104002C36D01A46D8
:105F9C0000240025013218F80210994008330C43F4
:105FAC00082A45EAE175F5D1304B00211B68002227
:105FBC005C609D602E4B83E806004FF0FF3343641A
:105FCC0040F2F033C2F200031A7849F21043120384
:105FDC00C4F20D0340F2F030D318C2F2000019687D
:105FEC0042681F4841EA02021A6003F081F90AB0C4
:105FFC00BDE8F08F292C08D18DF825301D4B684653
:10600C001B689847DAF80000D7E7136813F0100301
:10601C00FBD10968C9B27E2908F8041018BF1F46C5
:10602C0019D0136813F0100F0CD00123116811F064
:10603C00100F0DD00133B342F8D10F4889F804B0DA
:10604C0000F0F8F9DAF80010013401F1180286E7D3
:10605C00AB42F7DDF1E70137032FF3DCE1E700BFDB
:10606C00C4030020BC0300203800002010040020D2
:10607C0004040020E0030020F4B8200030B502F046
:10608C0055F9B3494B68002B00F04B815A6846F226
:10609C000300824209D8B2F5C04F06D0DB68002B52
:1060AC0000F03F815A688242F5D9A2F5C0425A608D
:1060BC00CA68A748A2F5C042CA605A6892B9046877
:1060CC00012C00F0E3809968002900F01281DD6852
:1060DC00002D00F01A81CD60DA6891600268013AF7
:1060EC0002605A681968DFF86CC200238C18CCF86F
:1060FC000030CCF80430CCF80830CCF80C304BD055
:10610C004FF4C0408C506060A360E360DCF80C304E
:10611C001B18CCF80C30DCF8043051F802E0606845
:10612C00002B00F094801D687044A8420CBF1A46E6
:10613C001A4604D0D26812B111688842FAD1596853
:10614C006D18AE4507D0DB68002B7FD018685968F6
:10615C0041188E45F7D119461346C3B160685A6889
:10616C0082186260DCF80000012800F087809A68D1
:10617C00002A00F09080DD68002D00F09B80D56037
:10618C00DB689A60DCF80030013BCCF8003019B1C8
:10619C004A686368D3184B606F4BC3F800C002F0B9
:1061AC0053FA02F0CDFB6D4B93E8300043F24803F9
:1061BC00C4F20303186849F20043C4F20D031A68D1
:1061CC0022F020021A6044F29403C4F20D0301225F
:1061DC001A6047F20803B522C4F20D031A6047F2A5
:1061EC000002C4F20D02136813F0800FFBD047F2CB
:1061FC001003C4F20D03D3F800C047F20C03C4F231
:10620C000D031B68002144F66D6243EA0C2CC4F2AA
:10621C00C6120B1803FB02F303F540533933B3F1E9
:10622C00FF3F28BF01334E4A4CF30B1C8CEA03038F
:10623C0013604C4A012092E8180000211B1844EB13
:10624C000104012B82E8180011D030BD1346DCF894
:10625C00001000293DD1A160E160DCF80020CCF8F1
:10626C0004400132CCF80840CCF8002075E7002C33
:10627C00EBD13D4A146054609460E6E70023CCF8FF
:10628C000430CCF80830CCF8003080E742608260F3
:10629C0002605A6826E700283FF479AFDCF8043036
:1062AC00DB68CCF804309A60DCF80030013BCCF8A9
:1062BC0000306CE700283FF46AAFDCF808309B68CC
:1062CC00CCF80830DD60DCF80030013BCCF8003055
:1062DC005DE7DCF808200021D460DCF80820E160E0
:1062EC00A260DCF80020CCF808400132CCF8002089
:1062FC0033E7002C3FF4F6AE4168C96841608A6010
:10630C000268013A02605A68ECE6002C3FF4EAAEEF
:10631C00816889688160CA600268013A02605A68C3
:10632C00E0E6124C01232371114800F083F8114868
:10633C0000F080F8DFF81CC00A2323600023CCF89F
:10634C000030CCF80430CCF80830CCF80C3023E713
:10635C00380D00204800002058000020480D002077
:10636C008C000020080000201000002038000020C5
:10637C00ECB92000F4BB200010B502F0D1F8104AA3
:10638C00002313600F4A0A2113600F4A0120137176
:10639C0011600E4A116013710D4A002192E8180029
:1063AC001B1844EB0104012B82E8180000D010BD2F
:1063BC00002CFCD1074A146054609460F7E700BFCE
:1063CC00D4010020D0010020400000203800002023
:1063DC0008000020100000200C4B00221A605A60AC
:1063EC000B4A0120002110B492E818001B1844EB52
:1063FC000104012B82E8180001D010BC7047002C5E
:10640C00FBD1044A146054609460F6E75C000020F1
:10641C00080000201000002000B5004603F03AFCF4
:10642C0000BD00BF00B503F035FC00BD00B504F0A5
:10643C00BBF800BD2DE9F045002507467C5D1C4EE0
:10644C00AA46DFF8708084B1092C29D00A2C18D008
:10645C00336820460133336004F070F933684F2BF6
:10646C0005DC01357C5D002CEED1BDE8F0850D20FE
:10647C0004F064F90A2004F061F90135C6F800A0B3
:10648C00F0E70D2004F05AF9204604F057F9D8F83B
:10649C000030C6F800A00133C8F800300135E1E740
:1064AC00204604F04BF93368013508333360D9E7E3
:1064BC00D0010020D401002010B54BF6042040F28E
:1064CC0038040123C2F20004C0F220002371FFF74C
:1064DC00B1FF4BF6F430C0F22000FFF7ABFF0A23FC
:1064EC00236010BD0A4A0120002110B492E8180064
:1064FC001B1844EB0104012B82E8180001D010BCDE
:10650C007047002CFBD1034A146054609460F6E78A
:10651C00080000201000002030B590B06A460446F8
:10652C0001F0B2FD10AB1818002300F8403C68468F
:10653C00FFF780FF6D46204610B030BD00B5344BE0
:10654C0083B01B78D3B90A2201928DF808300E283B
:10655C0014D8DFE800F05A56524E423634302C082C
:10656C002824201915002B480091FFF763FF01A880
:10657C000099FFF7D1FF2848FFF75CFF03B000BD7F
:10658C002648FFF757FFF9E701A8FFF7C5FF244896
:10659C00FFF750FFF2E72348FFF74CFFEEE72248E6
:1065AC00FFF748FFEAE72148FFF744FFE6E72048FA
:1065BC00FFF740FFE2E71F48FFF73CFFDEE71E480E
:1065CC00D2E71E480091FFF735FF01A80099FFF7AD
:1065DC00A3FF1B48FFF72EFFD0E71A480091FFF7E7
:1065EC0029FF01A80099FFF797FF1748FFF722FF33
:1065FC00C4E71648FFF71EFFC0E71548FFF71AFF60
:10660C00BCE71448FFF716FFB8E71348ACE700BF28
:10661C006400002050BA2000F4BB200054BC2000C1
:10662C0020BC2000F8BB2000C8BB2000A0BB200071
:10663C0088BB200060BA200074BB200034BB200053
:10664C0038BB200008BB20000CBB2000F0BA200097
:10665C00B4BA200074BA200030BA20002DE9F04FF3
:10666C00044684B00D46904600295AD000273E4679
:10667C000DF10809EA46BB4618E0DB68FF221A60F8
:10668C004846CDF80880039702F0EEFD23689A681F
:10669C00022A2BD0DB686846C3F800B00136CDF86F
:1066AC000080019702F0E0FDB5423AD923689A6860
:1066BC00022AE2D1197849F200420903C4F20D0210
:1066CC008A1810685968DB6808431060FF2018604E
:1066DC001368484623EA01011160CDF8088003973E
:1066EC0002F0C2FD23689A68022AD3D1197849F2C4
:1066FC0000420903C4F20D028A1810685968DB685D
:10670C0008431060C3F800B01368684623EA01011F
:10671C0011600136CDF80080019702F0A5FDB5425D
:10672C00C4D804B0BDE8F08F1C4B70B51C7806467D
:10673C000D469CB9012912D040F640520521C0F2F9
:10674C000302FFF78BFF08202146FFF7F7FE3368A3
:10675C009A68022A0FD0DB68FF221A6070BD40F6DF
:10676C0040520221C0F20302FFF778FF06202946AF
:10677C00FFF7E4FEF2E7197849F200420903C4F28C
:10678C000D028A1810685968DB6808431060FF20F6
:10679C001860136823EA01011160DFE76400002030
:1067AC00094B00B51B783BB149F2E0320321C0F232
:1067BC000402FFF753FF00BD48F2A0621E21C0F295
:1067CC000102FFF74BFFF6E76400002030B50546E9
:1067DC0090B040F238006A46C2F2000001F0C2FCF0
:1067EC0010AB1818002300F8403C6846FFF722FE57
:1067FC006C46284610B030BD30B590B06A460023C8
:10680C00044601F0FBFB10AB1818002300F8403CC9
:10681C006846FFF70FFE6D46204610B030BD00BF36
:10682C0010B5072082B00021FFF788FE48F28043A4
:10683C0002A8C0F21E03002420E91800684602F0EA
:10684C0013FD012002B010BD10B544F2402282B0FD
:10685C000446C0F20F0202A8002320E90C0068468F
:10686C0002F002FD2046FFF7DBFF10B1024B0122C4
:10687C001A70002002B010BD650000202DE9F04F09
:10688C004FF2FF7300F514180546C0F2270308F108
:10689C00180090B098420391089000F2858118F08E
:1068AC00030F40F0A581089905F5A025A1F500136B
:1068BC00013BED0ADB0A9D420795099300F26E81BC
:1068CC0005F580635A1CD202DB4C069205F500627A
:1068DC00A218DB0243F2080A05920293C4F20D0AD5
:1068EC0040F2FF76089B0698DDF814C0834294BFF3
:1068FC00C8EB0303C8EB0003079A01939CF8003024
:10690C000132072B079200F2B1800198032840F264
:10691C0042810399D8F800200B681A40934240F04A
:10692C00A5800398019A4346C8EB000C06E05CF87E
:10693C00031018680840814240F09880043A0433F0
:10694C00032AF4D81B680C93BAB1DDF80CC09DF87F
:10695C0030109CF800300CAD01EA0303994240F072
:10696C008580002306E0E95C1CF8030001EA0000C6
:10697C0081427BD101339342F5D358231B680D938D
:10698C00DAF8003013F0800FFAD1019911F00309F5
:10699C0002BF01EB08020B928B4630D1BBF1000F0A
:1069AC0013D0002708F104010097C146CDF810B0B0
:1069BC000A91039A00980D9B02EB800528464946E4
:1069CC00049A984708B95F4536D3DDF82C800599B1
:1069DC00069A0B780998013301F8013B0591029B4B
:1069EC00079902F5006203F5006388420692029350
:1069FC00C0F0D480039A019BD218039272E7019BDA
:106A0C0010AD4344C9EB03070B933B68039945F85E
:106A1C00103D28464A4601F0D5FB0D9B28463946C9
:106A2C004A4698470028D0D13A680C9B9A42F4D138
:106A3C00019820F0030BB1E7D9F800302A689A428C
:106A4C00B7D10A99CB190437BB45BED9DDF80CC0B8
:106A5C00BA0853F8041B5CF822008842F3D0C7EB49
:106A6C000B00009207EB08090490A2E7029941453C
:106A7C0003D1089A069B9A4212D0029A002352F82C
:106A8C00041B40F2FC70E15004338342F7D10299AD
:106A9C0040F21442D1F8FC37C2F20002C2F8FC37C3
:106AAC0054231B680D93DAF8005015F08005FAD1C9
:106ABC00029F4FF4006907F1040B0D9B38464946C1
:106ACC00984708B9B5422DD90299DDF814C0C1EB2D
:106ADC000800002320F003008CF8003020180399E4
:106AEC00019A01F06FFB58231B680D93DAF80070C4
:106AFC0017F08007FAD1DDF808904FF400624B468E
:106B0C000433BB46009204934FEA8B050D9B60192E
:106B1C004946009A984700283AD1B74216D90199AC
:106B2C00884454E73B68B3F1FF3F08BF0BEB050308
:106B3C00C3D10435B542C7D853F8042BB2F1FF3F8B
:106B4C00F7D0029BC5F500695F19B6E7D9F800309C
:106B5C0062599A42D8D1049AD3190437B74217D83C
:106B6C004FEA970B53F8042B54F82B109142F4D0A6
:106B7C00029BC7F5006C03EB0709CDF800C04FEA88
:106B8C008B050D9B60194946009A98470028C4D084
:106B9C00019880441BE7019A4346D3E6A8F51415E7
:106BAC00284610B0BDE8F08F244C012323712448F3
:106BBC00FFF740FC1023236041462046FFF71CFEE4
:106BCC002048FFF737FC03990EA8FFF7FFFD0A26B4
:106BDC001D48FFF72FFC182126602046FFF70CFEFE
:106BEC001A48FFF727FC1A48FFF724FC2660D7E762
:106BFC00124C012323711248FFF71CFC1023236055
:106C0C0041462046FFF7F8FD0E48FFF713FC0399A9
:106C1C000FA8FFF7DBFD0A260B48FFF70BFC18212A
:106C2C0026602046FFF7E8FD0A48FFF703FC0848FA
:106C3C00FFF700FC2660B3E71404002038000020A6
:106C4C00BCBC2000DCBC2000E0BC2000E4BC20006C
:106C5C00F4BB200024BD200000B540F26C0C4BF6B8
:106C6C005C53C2F2000CC0F220030FCB8CE80F0077
:106C7C00002361464FF40030CCF81030CCF81430BF
:106C8C00FFF7FCFD00BD00BF10B5DFF884C000238A
:106C9C00CCF81030CCF814301E4BE6460FCB8CE8F9
:106CAC000F0040F214004FF41C13C0F227001968B7
:106CBC000CEB03020433A2F51C128342144C11603A
:106CCC00F5D11B681348CEF81430214601F0C6FAF2
:106CDC00A0B9226941F254539A420FD862699A4280
:106CEC000CD80D4A012092E8180000211B1844EB27
:106CFC000104012B82E8180003D010BDFFF7ACFF94
:106D0C00EFE7002CF9D1054A146054609460F4E765
:106D1C006C0000205CBD200008000020100000204A
:106D2C0030B5194C87B00023406869468DF81B308C
:106D3C0001F040F8626941F254539A426D461ED0FC
:106D4C002169521840F261019008C6F20601A1FBBC
:106D5C0000C1490A03FB112303EB4303D80000F5E0
:106D6C00003069461830FFF789FD63694FF4003035
:106D7C00013321466361FFF781FD07B030BD034845
:106D8C00FFF758FBF9E700BF6C0000206CBD20003A
:106D9C002DE9F04F002A97B0019240F32F8349F26E
:106DAC00380A49F25008DFF83457DFF8349701F10C
:106DBC000E064FF0000B0DAC0427C4F2080AC4F207
:106DCC00080811238DF83430F378B2781B0443EAA9
:106DDC0002227378149942EA0303327901F07F415D
:106DEC0043EA0263119A8DF8433002F07F4242EA83
:106DFC0013231193F379B2791B0443EA02227379BA
:106E0C0042EA0303327A43EA0263129A8DF847305E
:106E1C0002F07F4242EA13231293F37AB27A1B04F4
:106E2C0043EA0222737A42EA0303327B43EA0263A7
:106E3C00139A8DF84B3002F07F4242EA13231393DE
:106E4C0016F8073C16F8082C1B0443EA022216F825
:106E5C00093C42EA030316F8062C43EA0262124686
:106E6C004FEAE27341EA1221149115998DF85330CF
:106E7C0001F07F4141EA13238DF84F2015933378AD
:106E8C008DF85730169B9DF8342003F07F431693F2
:106E9C0042F20043C9F2496342EA03030D936FF0D7
:106EAC007B038DF8383016F8033C16F8020C43EAD5
:106EBC00002004F073F89DF838308DF8417043EAE7
:106ECC000023000E0E93C3B243EA01235220090E95
:106EDC000F938DF840108DF8427003F02FFC0023B7
:106EEC00CDF80080B0461E46A05D013603F026FCAE
:106EFC00272EF9D158204646DDF8008003F01EFC01
:106F0C00582003F01BFC582003F018FC2B68032BB3
:106F1C00FCDDEFF31083DBB272B6CAF80070D8F860
:106F2C00002003B962B612F0010FEFD089F80030DF
:106F3C0003F0CEFB532800F08A8140F26803C2F2C2
:106F4C000003D3F800E096F800C0BEF8A40078B1B6
:106F5C00DEF804309C4500F055827246002304E0B4
:106F6C00916804328C4500F04D8201338342F7DB8B
:106F7C0001304EF820C0AEF8A4001123119A8DF800
:106F8C0008309DF8433043EA02239DF80C2042EA76
:106F9C0003221B0E8DF8103003929DF84730129A85
:106FAC0043EA02239DF8102042EA03221B0E8DF8BF
:106FBC00143004929DF84B30139A43EA02239DF847
:106FCC00142042EA03221B0EDBB243F41C1343F4DD
:106FDC00805306934FF000038DF81C3005929DF8FA
:106FEC004F30149A43EA02209DF85330159A43EA25
:106FFC0002214FF61842CFF6FF7212184FF0FF33F2
:10700C0043EB01039DF81C10532041EA0221079128
:10701C00110EC9B241EA03211B0E8DF82430099BD5
:10702C004FF0FF326FEA03638DF828206FEA136389
:10703C0009930A9B8DF82C206FEA03636FEA1363A4
:10704C00169A0A939DF85730089143EA02239DF84B
:10705C002C2042EA03221B0E0B929DF808208DF87F
:10706C00303042F20043C9F2496342EA030302930F
:10707C006FF07B038DF80C3003F060FB0023CDF830
:10708C000080B0461E4602AB985D013603F056FBFD
:10709C00292EF8D158204646DDF8008003F04EFB2F
:1070AC00582003F04BFB582003F048FB2B68032BB4
:1070BC00FCDDEFF31083DBB272B6CAF80070D8F8BF
:1070CC00002003B962B612F0010FEFD089F800303E
:1070DC0003F0FEFA462800F0D8819DF8082042F60D
:1070EC000043C9F2492342EA0303029353206FF091
:1070FC007B038DF80C3003F021FB0023CDF80080CE
:10710C00B0461E4602AB985D013603F017FB292EE4
:10711C00F8D158204646DDF8008003F00FFB5820CC
:10712C0003F00CFB582003F009FB2B68032BFCDD50
:10713C00EFF31083DBB272B6CAF80070D8F80020F7
:10714C0003B962B612F0010FEFD089F8003003F0EA
:10715C00BFFA9DF8082042F20043C9F2496342EAA3
:10716C00030302936FF07B038DF80C309DF83030E5
:10717C000B9A1B0643EA122303F5FE630F3302F04E
:10718C00FF0242EA032253201B0E8DF830300B9283
:10719C0003F0D4FA0023CDF80080B0461E4602ABB3
:1071AC00985D013603F0CAFA292EF8D158204646CC
:1071BC00DDF8008003F0C2FA582003F0BFFA582023
:1071CC0003F0BCFA2B68032BFCDDEFF31083DBB26E
:1071DC0072B6CAF80070D8F8002003B962B612F083
:1071EC00010FEFD089F8003003F072FA522003F04F
:1071FC00A5FA0023CDF80080B0461E46A05D0136EE
:10720C0003F09CFA272EF9D158204646DDF8008071
:10721C0003F094FA582003F091FA582003F08EFAF8
:10722C002B68032BFCDDEFF31083DBB272B6CAF8CC
:10723C000070D8F8002003B962B612F0010FEFD03D
:10724C0089F8003003F044FA532840F0EC80A5484C
:10725C00FFF7F0F89DF8342042F60043C9F24923B9
:10726C0042EA03030D936FF07B038DF8383016F868
:10727C00073C16F8080C1B0443EA002016F8093CDE
:10728C0040EA030316F8060C43EA006003F086FE9E
:10729C009DF8383043EA0023000E0E93C3B243EA44
:1072AC0001230F93090E032352208DF841308DF8E2
:1072BC0042308DF8401003F041FA0023CDF80080E5
:1072CC00B0461E46A05D013603F038FA272EF9D1E0
:1072DC0058204646DDF8008003F030FA582003F0C1
:1072EC002DFA582003F02AFA2B68032BFCDDEFF360
:1072FC001083DBB272B6CAF80070D8F8002003B95C
:10730C0062B612F0010FEFD089F8003003F0E0F90B
:10731C00532840F083807448FFF78CF89DF8342094
:10732C0042F20043C9F2496342EA03030D936FF042
:10733C007B038DF8383016F8053C16F8040C43EA3C
:10734C00002003F02BFE9DF83830169A43EA0023F8
:10735C00000E0E93C3B243EA01230F9302238DF860
:10736C0041308DF842309DF85730090E43EA022324
:10737C0003F5FE630F3302F07F428DF85730522035
:10738C0042EA132316938DF8401003F0D7F900232B
:10739C00CDF80080B0461E46A05D013603F0CEF954
:1073AC00272EF9D158204646DDF8008003F0C6F9A7
:1073BC00582003F0C3F9582003F0C0F92B68032BB5
:1073CC00FCDDEFF31083DBB272B6CAF80070D8F8AC
:1073DC00002003B962B612F0010FEFD089F800302B
:1073EC0003F076F9532814D14048FFF723F8019B9A
:1073FC000BF1010B16365B453FF7E3AC012017B0E0
:10740C00BDE8F08F3A48FFF715F83A48FFF712F845
:10741C00B3E53948FFF70EF80020F0E73748FFF7DF
:10742C0009F80020EBE73648FFF704F840F2680350
:10743C00C2F200031F683578B7F8A40018B33B46B6
:10744C00012200249CB1D3F808C01146C3F804C033
:10745C00013204338842F5DCACB14FF0FF32431CEF
:10746C008018A7F8A40047F823200020C7E7596824
:10747C008D4209BFD3F808C011461146C3F804C0A9
:10748C0008BF0124E4E70020B9E71E48FEF7D2FF4D
:10749C0040F26803C2F200031F683578B7F8A40005
:1074AC000028F0D000243B46012254B1D3F808C088
:1074BC001146C3F804C0013204338842CCDD002CE1
:1074CC00F4D159688D4209BFD3F808C01146114652
:1074DC00C3F804C008BF0124EDE700BF90000020F2
:1074EC0094000020DCBE20001CBF200058BF2000F0
:1074FC00ACBD2000F8BD200034BF2000F8BE200039
:10750C0098BE200050BE20002DE9F04FDFF83085EA
:10751C00A2B0D8F814304FF0000B00AF4FF00A09AE
:10752C005B45F860C7F8789087F87CB040F34081F1
:10753C00C7F808D0ADF5727D282BA8BF2823DFF83B
:10754C00041505226846BB6100F03CFEB9696E4625
:10755C00594540F3FC8040F26103721DC6F20603EC
:10756C003A616D464FF0050C07F1780A07F13804C3
:10757C007B61BBF1000F40F02081D8F81430002B58
:10758C0040F0ED814FF000090422314607F18000F4
:10759C00C7F800C000F08CFE87F88490F179B379BD
:1075AC00090441EA03217379B27A1943337ADFF87B
:1075BC00980441EA0361737A43EA0223FB61327B4C
:1075CC00F37A43EA02233B62737B7B62B27BBA623F
:1075DC00737C327C1B0443EA0223F27B1343B27CA0
:1075EC0043EA0262FA62737D327D1B0443EA022392
:1075FC00F27C1343B27D43EA02623A63737E327EBD
:10760C001B0443EA0223F27D1343B27E796043EA02
:10761C0002627A63FEF70EFF07F18000FEF70AFFA5
:10762C00DFF82804FEF706FF796822464B465046E1
:10763C0000F0E4FC07F18803181800F8509C204671
:10764C00FEF7F8FEDFF80804FEF7F4FE22464B4680
:10765C00F969504600F0D2FC07F18801081800F8CF
:10766C00509C2046FEF7E6FEFA48FEF7E3FE396A28
:10767C004B462246504600F0C1FC07F18802101818
:10768C0000F8509C2046FEF7D5FEF348FEF7D2FEDC
:10769C00796A22464B46504600F0B0FC07F188034D
:1076AC00181800F8509C2046FEF7C4FEEB48FEF775
:1076BC00C1FE4B462246B96A504600F09FFC07F1CA
:1076CC008801081800F8509C2046FEF7B3FEE448E9
:1076DC00FEF7B0FEF96A2246504600F0D5FC07F1E1
:1076EC008802101800F8509C2046FEF7A3FEDD48D7
:1076FC00FEF7A0FE396B2246504600F0C5FC07F1A0
:10770C008803181800F8509C2046FEF793FED548C5
:10771C00FEF790FE2246796B504600F0B5FC07F15F
:10772C008801081800F8509C2046FEF783FECE48CE
:10773C00FEF780FE0A22D7F800C0BA67B9690BF1D0
:10774C00010B16358B450CF1160CFFF612AFF868D1
:10775C003146BA69FFF71CFB0446002800F047814C
:10776C00C248FEF767FEBA69002A1FDD40F26105C8
:10777C000024C6F2060541F254569246D8F8103051
:10778C004FF4003001339A08A5FB0212520A06FB93
:10779C001233C8F81030D8F81430A949013B013421
:1077AC00C8F81430FFF76AF85445E7DBD7F808D06F
:1077BC0007F18807BD46BDE8F08FD8F814309B451B
:1077CC00C0F0F08095F80790AB794FEA094949EA87
:1077DC0003296B79AA7A49EA03092B7AA44849EA66
:1077EC0003696B7A43EA0223FB612A7BEB7A43EA57
:1077FC0002233B626A7B7A62AB7BBB626B7C2A7C2A
:10780C001B0443EA0223EA7B1343AA7C43EA026289
:10781C00FA626B7D2A7D1B0443EA0223EA7C134344
:10782C00AA7D43EA02623A636B7E2A7E1B0443EA1A
:10783C000223EA7D1343AA7EC7F800C043EA026222
:10784C007A63FEF7F7FD002322464946504600F0C6
:10785C00D5FB07F188014FF00009081800F8509C7F
:10786C002046FEF7E7FD7A48FEF7E4FDF9694B4642
:10787C002246504600F0C2FB07F18802101800F8AF
:10788C00509C2046FEF7D6FD7248FEF7D3FD396AB0
:10789C0022464B46504600F0B1FB07F188031818FE
:1078AC0000F8509C2046FEF7C5FD6B48FEF7C2FD64
:1078BC0022464B46796A504600F0A0FB07F188013E
:1078CC00081800F8509C2046FEF7B4FD6348FEF7FC
:1078DC00B1FD4B46B96A2246504600F08FFB07F1CA
:1078EC008802101800F8509C2046FEF7A3FD614852
:1078FC00FEF7A0FDF96A2246504600F0C5FB07F1E1
:10790C008803181800F8509C2046FEF793FD554844
:10791C00FEF790FD2246396B504600F0B5FB07F19F
:10792C008801081800F8509C2046FEF783FD4D484E
:10793C00FEF780FD796B2246504600F0A5FB07F15F
:10794C008802101800F8509C2046FEF773FD46483C
:10795C00FEF770FD0A23BB67D7F800C0EEE640F2D5
:10796C006C01C2F200010B6979699A08A1FB021241
:10797C0041F25451520A01FB123303EB4303D8007A
:10798C0000F51C101830D7F810E002465B4652F890
:10799C00041B4EF803100433142BF8D143693A69D5
:1079AC005361EFE540F26C01C2F200010B69796999
:1079BC005B449A08A1FB021241F25451520A01FB9A
:1079CC00123303EB43034FEAC30E0EF51C1E0EF1EC
:1079DC00180E06EB0C007246002352F8041BC15023
:1079EC000433142BF9D1DEF814304361EAE6224853
:1079FC00FEF720FDBA69002A7FF7D8AE40F2610588
:107A0C00C6F2060541F254569246D8F810304FF49F
:107A1C00003001339A08A5FB0212520A06FB1233FE
:107A2C00C8F81030D8F814300549013B0134C8F8B7
:107A3C001430FEF723FF5445E7DBD7F808D0B7E640
:107A4C006C00002074BF20007CBF200084BF20008D
:107A5C0094BF2000A0BF2000A8BF2000B0BF200012
:107A6C00BCBF2000C8BF2000F4BB2000E8BF200032
:107A7C00CCBF2000DCBF2000F8BF20002DE9F04F68
:107A8C008C4D93B02E780160426026B101232B708F
:107A9C0013B0BDE8F08F884C884801AFFEF7CAFCE4
:107AAC003A466169864800F0EFFA13A9081800F805
:107ABC00486C3846FEF7BEFC8248FEF7BBFC636997
:107ACC00002B19DD40F26106C6F2060641F254574E
:107ADC0023694FF4003001339A08A6FB0212520AB4
:107AEC0007FB1233236163697349013B6361FEF742
:107AFC00C5FE6369002BEBDC734B186841680B46C1
:107B0C00002900F0D2804A68BB2A08D8AC2A06D0DB
:107B1C00DB68002B00F0C9805A68BB2AF6D9AC3A56
:107B2C005A60C268AC3AC2605A688AB90468012CBF
:107B3C0000F0A1809E68002E00F0A280D968002978
:107B4C0000F0A880F160DA68013C046096605A6825
:107B5C001B68AC219F18995004374FF00003A7F80D
:107B6C00A4304FF0FF32012347F823200133292B97
:107B7C00FAD1252044F2402449F2380949F2500A3E
:107B8C00DFF84881524E02F0D9FDC0F20F040023F9
:107B9C00C4F208094FF0040BC4F2080A98F800105C
:107BAC003268032A55DDEFF31081C9B272B6C9F8F9
:107BBC0000B0DAF8002001B962B612F0010F48D01B
:107BCC00002C88F800104CDD02F082FD0346252BBA
:107BDC00E4D1404E0024305D013402F0AFFD082C9E
:107BEC00F9D1582002F0AAFD582002F0A7FD582028
:107BFC0002F0A4FD384E0024305D013402F09EFDED
:107C0C00082CF9D1582002F099FD582002F096FD6D
:107C1C00582002F093FD314E0024305D013402F007
:107C2C008DFD092CF9D1582002F088FD582002F066
:107C3C0085FD582002F082FD41F68023C0F2060338
:107C4C0013A8002420E9180001F00EFB244B1F6040
:107C5C001CE7013C621C002AA2DC002C88F80010F6
:107C6C00B2DC252044F240240093C0F20F0402F051
:107C7C0065FD009BABE70260426082605A6867E773
:107C8C00002C3FF465AFC968013C046041608A6018
:107C9C005A685DE7002C3FF45BAF8168013C896852
:107CAC0004608160CA605A6852E700F0A3F90027AB
:107CBC0053E700BF650000206C00002090BD200041
:107CCC0040000020F4BB200058000020940000204D
:107CDC0090000020B0BC200010C02000A4BC2000EC
:107CEC00680000200A4A0120002110B492E8180014
:107CFC001B1844EB0104012B82E8180001D010BCC6
:107D0C007047002CFBD1034A146054609460F6E772
:107D1C0008000020100000202DE9F04F00F1180B96
:107D2C00044682B058460D4601F03AFB6189A7899A
:107D3C00268A41EA0747E189227A637AD4F80080DF
:107D4C00B4F80490B4F806A041EA0646618AA48A05
:107D5C00584641EA04440092019301F00DFB019B4B
:107D6C00009A2846002128FA01FC80F800C047FA46
:107D7C0001FC80F80AC046FA01FC80F80EC044FAF7
:107D8C0001FC083180F812C001302029EBD185F8B4
:107D9C00049085F806A04FEA19294FEA1A2A85F8AB
:107DAC00059085F807A02A726B72162002B0BDE808
:107DBC00F08F00BFF0B500F118050F4606461624EB
:107DCC00284601F0EDFA31462246384600F0FAF921
:107DDC00284601F0D1FA2046F0BD00BF10B50121B4
:107DEC00044600F1180001F0A7FA0022234643F8DC
:107DFC00042B0433626043F8042B43F8042B43F840
:107E0C00042B1A8010BD00BF2DE9F04706464BF637
:107E1C00F4384CF21C0092B000254FF00A0AC0F264
:107E2C002008C0F22000CDF840A08DF84450FEF799
:107E3C0001FB404612AFFEF7FDFA4CF2300047F85A
:107E4C0008ADC0F22000FEF7F5FAB1886A462B4661
:107E5C00384600F0D3F812AB181800F8485C6846A6
:107E6C00FEF7E8FA4046FEF7E5FA4CF23800C0F2AD
:107E7C002000CDF840A0FEF7DDFAF1886A462B46CB
:107E8C00384600F0BBF812AB181800F8485C68468E
:107E9C00FEF7D0FA4046FEF7CDFA4CF24000C0F2A5
:107EAC002000CDF840A0FEF7C5FA317A6A462B4681
:107EBC00384600F0A3F812AB181800F8485C684676
:107ECC00FEF7B8FA4046FEF7B5FA4CF24800C0F29D
:107EDC002000CDF840A0FEF7ADFA717A6A462B4629
:107EEC00384600F08BF812AB181800F8485C68465E
:107EFC00FEF7A0FA4046FEF79DFA4CF25000C0F295
:107F0C002000CDF840A0FEF795FA31686A462B4662
:107F1C00384600F073F812AB181800F8485C684645
:107F2C00FEF788FA4046FEF785FA4CF25C00C0F288
:107F3C002000CDF840A0FEF77DFA7389B1896A461E
:107F4C0043EA0141384600F09FF812AB18184BF683
:107F5C00C87900F8485CC0F220096846FEF76AFA56
:107F6C004846FEF767FAF389318A6A4643EA0141CB
:107F7C00384600F089F812AB181800F8485C6846CF
:107F8C00FEF758FA4846FEF755FA738AB18A6A46E4
:107F9C0043EA0141384600F077F812AB181800F8A4
:107FAC00485C6846FEF746FA4046FEF743FA404600
:107FBC006C46CDF840A0FEF73DFA12B0BDE8F08754
:107FCC000A4A0120002110B492E818001B1844EB57
:107FDC000104012B82E8180001D010BC7047002C62
:107FEC00FBD1034A146054609460F6E7080000204B
:107FFC001000002000B5FEF719FA00BD70B400297E
:10800C003BD0B1F5807F1BD9D0F800C0BCF1080F74
:10801C0014BF00240124BCF1100F08BF44F001046C
:10802C0084B14FF0300C02F803C0D0F800C001331B
:10803C00BCF1100F06D14FF0780C02F803C00133DD
:10804C00D0F800C00C465D1CB4FBFCF41E462B465D
:10805C00002CF8D10B4C9219B1FBFCF30CFB131C4C
:10806C0014F80C3002F80139D0F800C0B1FBFCF167
:10807C000029F1D1284670BC70473021D154581CCE
:10808C00F9E700BF64C02000002900B503DB002322
:10809C00FFF7B4FF00BD2D23137049420123F7E70E
:1080AC002DE9F04F144651EA040281460D469B46D9
:1080BC00099E4BD0002C4ED0D9F80070082F14BF5D
:1080CC0000230123102F08BF43F001036BB13023B1
:1080DC000BF80630D9F800700136102F05D1782333
:1080EC000BF806300136D9F800703F464FEAE778B6
:1080FC00284621463A46434602F0B8FF06F1010AEB
:10810C0050EA010233465646F4D10BEB0306DFF876
:10811C0050B03A4643462846214603F053F91BF823
:10812C000030214606F80139D9F8007028463F4640
:10813C004FEAE77843463A4602F098FF50EA0103CB
:10814C0005460C46E5D15046BDE8F08F30230BF8C0
:10815C000630701CF8E7B1F5807FADD8C3E700BFDF
:10816C0064C02000302310B41370084C7823537073
:10817C00072301F00F0C14F80CC0D0180909013BAF
:10818C0080F802C0F5D20A2010BC704764C02000F1
:10819C000A4A0120002110B492E818001B1844EB85
:1081AC000104012B82E8180001D010BC7047002C90
:1081BC00FBD1034A146054609460F6E70800002079
:1081CC00100000200F2A30B405460C4642D941EA73
:1081DC00000313F0030F02BF14468C46034609D06C
:1081EC00002314F803C005F803C001339A42F8D1F8
:1081FC0030BC7047DCF80050103C1D60DCF80450BB
:10820C005D60DCF808509D60DCF80C500CF1100C33
:10821C00DD6010330F2CEDD8A2F1100404F00F0226
:10822C0024F00F04103405190C19032A12D9002359
:10823C0054F803C045F803C00433C3EB020CBCF183
:10824C00030FF5D8043A22F003030433ED18E418B5
:10825C0002F00302002AC3D1CAE700BF41EA0003BF
:10826C0013F0030F03D103680A6893420CD0027811
:10827C009AB10B789A4212D0D01A704750F8043F3A
:10828C0051F8042F9342F2D1A3F1013222EA0303F5
:10829C0013F0803FF2D00020EFE70B78ECE7427848
:1082AC000131002AF9D00B7801309A42E4D1F6E77B
:1082BC0041EA000313F0030F14BF00230123032A28
:1082CC0094BF002303F0010310B4002B2CD0034601
:1082DC00D1F800C0ACF1013424EA0C0414F0803F56
:1082EC001BD0C2B10C789C46013A0CF8014B54B12E
:1082FC00023382B111F8014F9C4603F8014C013A4C
:10830C000133002CF5D132B1002319460CF80310BF
:10831C0001339A42FAD110BC7047043A0431032A53
:10832C0043F804CBDDD9D3E70346DAE700B500F018
:10833C0003F800F095F800BDDFF81CC147F2F832E5
:10834C00C2F20002CCEB020270B4002A4AD0002325
:10835C00424DCCF800C0CCF80420CCF80830CCF856
:10836C000C30EB686446D318EB606B68002B3CD088
:10837C001E680CEB8200B0420CBF1A461A4604D0A1
:10838C00D26812B111688842FAD1596806EB81069D
:10839C00B44208D0DB68002B26D05868196801EB72
:1083AC0080018C42F6D119461346ABB1DCF80400BF
:1083BC005A688218CCF804202C68284A012C23D047
:1083CC009868002825D0DD68002D3AD0C560DB68A0
:1083DC0098601368013B136021B14A68DCF80430E3
:1083EC00D3184B6070BC704713462A681B48D2B92F
:1083FC000121CCF80820CCF80C200160C0F804C096
:10840C00C0F808C01146D0E7002353609360136096
:10841C00E2E7002CE0D05368DB6853609860136887
:10842C00013B1360D8E781680132C1F80CC0816848
:10843C00CCF808100021CCF80C10C0F808C0026071
:10844C00B3E7002CC8D093689B689360DD60136819
:10845C00013B1360C0E700BF500D0020380D002019
:10846C0043F20C03C4F203031A68122022F0010237
:10847C001A6042F20802C4F20D02116841F00801C0
:10848C00116042F20C02C4F20D02116841F00801B5
:10849C00116042F21002C4F20D02116841F00801A1
:1084AC00116043F200020021C4F20302116043F296
:1084BC000402C4F20302106043F22802C4F2030265
:1084CC004FF0FF30106043F23802C4F20302116027
:1084DC0043F21802C4F20302116841F00101116069
:1084EC001A6842F001021A60704700BF0A4A012064
:1084FC00002110B492E818001B1844EB0104012B66
:10850C0082E8180001D010BC7047002CFBD1034A44
:10851C00146054609460F6E70800002010000020FE
:10852C004CF22043C4F20D031A6822F0C0021A6008
:10853C004CF20043C4F20D031A6822F0C0021A6018
:10854C0044F2F8030122C4F20D031A6044F2FC0356
:10855C00C4F20D031A6042F20002C4F20D0211685B
:10856C004FF6F873CFF6DC6301EA030343F4081308
:10857C0042F204011360C4F20D010A6840F20003D8
:10858C00C0F2011302EA0303002BF6D142F20003FE
:10859C00C4F20D031A6822F4E0621A6042F204027B
:1085AC00C4F20D02136813F0806FFBD0704700BF4C
:1085BC004EF61453CEF200031A6842F001021A6010
:1085CC0042F29803C4F20D031A6842F001021A60D9
:1085DC004EF60853CEF200034FF401121A607047A6
:1085EC000A4A0120002110B492E818001B1844EB31
:1085FC000104012B82E8180001D010BC7047002C3C
:10860C00FBD1034A146054609460F6E70800002024
:10861C00100000200A4A0120002110B492E8180032
:10862C001B1844EB0104012B82E8180001D010BC8C
:10863C007047002CFBD1034A146054609460F6E739
:10864C00080000201000002000B5FFF7B1FF00F07B
:10865C0077FB00F02DF800F0C9F800F003F800F0FB
:10866C00ABF900BD044B082203F5807183F8002898
:10867C0001338B42FAD17047140400200A4A0120BE
:10868C00002110B492E818001B1844EB0104012BD4
:10869C0082E8180001D010BC7047002CFBD1034AB3
:1086AC00146054609460F6E708000020100000206D
:1086BC004EF210034EF21802CEF200030021CEF25D
:1086CC000002196011604EF21402CEF200024FF457
:1086DC00FA41116006221A604AF2756140F2BC221E
:1086EC00C2F20002C0F22001D1631A6842F001020A
:1086FC001A6070470A4A0120002110B492E8180051
:10870C001B1844EB0104012B82E8180001D010BCAB
:10871C007047002CFBD1034A146054609460F6E758
:10872C00080000201000002040F296030022C2F244
:10873C0000031A7040F29503C2F200031A7040F263
:10874C009003C2F200030221196040F62853C2F2D2
:10875C0000031A6040F63453C2F2000349F2380C9D
:10876C001A60C4F2080C032349F2400049F24C0190
:10877C00CCF8003030B4C4F208000424C4F2080170
:10878C0049F244030460C4F208030A601D6845F012
:10879C0040051D601D6845F008051D601D6845F00D
:1087AC0008051D602023CCF8004002600B6049F2E4
:1087BC005003C4F208031A6842F080021A601A6867
:1087CC0042F010021A6049F21C03C4F208030122A1
:1087DC001A6049F22403C4F208031A6049F22C030C
:1087EC00C4F208031C6030BC704700BF4BF220433E
:1087FC00C4F20D031A682DE9F04822F004021A6045
:10880C004BF20043C4F20D031A6842F004021A60E2
:10881C004BF21003C4F20D03FF221A6049F23C0222
:10882C00C4F20802136843F001031360136843F0A9
:10883C0002031360136813F0800FFBD049F204039A
:10884C00C4F208031A6822F001021A60FFF76CFFE9
:10885C001D4B01221A601D4A1D4BC3F8F0204EF22D
:10886C000413CEF200034FF480521A60EFF310871A
:10887C00FFB207B162B6174843F24806C4F20306CA
:10888C0090E80018316800225B4612EB010B49F2AC
:10889C000002C0F2D03243F1000C00231BEB020BA0
:1088AC004CEB030C90E80C00316800241546621860
:1088BC0045F100039C45F5D801D19345F2D807B199
:1088CC0062B6BDE8F08800BF90000020E1A820004F
:1088DC00BC020020480D00200A4A0120002110B4DF
:1088EC0092E818001B1844EB0104012B82E81800D5
:1088FC0001D010BC7047002CFBD1034A14605460AB
:10890C009460F6E708000020100000200A4A0120BD
:10891C00002110B492E818001B1844EB0104012B41
:10892C0082E8180001D010BC7047002CFBD1034A20
:10893C00146054609460F6E70800002010000020DA
:10894C0000B500F089FA00F001F800BD704700BFD7
:10895C000A4A0120002110B492E818001B1844EBBD
:10896C000104012B82E8180001D010BC7047002CC8
:10897C00FBD1034A146054609460F6E708000020B1
:10898C00100000200A4A0120002110B492E81800BF
:10899C001B1844EB0104012B82E8180001D010BC19
:1089AC007047002CFBD1034A146054609460F6E7C6
:1089BC00080000201000002070B582B0944D0023F8
:1089CC002868019341680B46002900F01C814A6815
:1089DC00272A08D8182A06D0DB68002B00F0138150
:1089EC005A68272AF6D9183A5A60C268183AC260EF
:1089FC005A688AB90468012C00F0B3809E68002E76
:108A0C0000F0D580D968002900F0E480F160DA68C4
:108A1C00013C046096605A681B6818219C18995098
:108A2C00043403236370082363604AF22003C4F206
:108A3C000D03E360012100224AF2204321702261E0
:108A4C00C4F20D03186820F0080018604AF20043C5
:108A5C00A160C4F20D031968042041F008011960EB
:108A6C0021786378043103EBC10144F20003C4F2B2
:108A7C000D0343F82100217849F21C430903C4F289
:108A8C000D03CB18616819602178D4F804C0080371
:108A9C00C9000CFA01F149F21873C4F20D03C318A2
:108AAC00186820EA01011960236963B163782178A1
:108ABC00204603EBC101574B009243F8214001A91A
:108ACC006B4601F0ABFA544EF460286841680B46D3
:108ADC00002900F094804A681F2A08D8102A06D072
:108AEC00DB68002B00F08B805A681F2AF6D9103AED
:108AFC005A60C268103AC2605A6872B90468012C94
:108B0C0034D09D68002D5CD0D96800296DD0E96007
:108B1C00DA68013C046095605A681B68102099184B
:108B2C0098500A1D0523136002235360032393609E
:108B3C0049F20043C4F20D03196821F020011960B9
:108B4C0044F29403C4F20D0301211960334BDA6033
:108B5C00F3689A68022A0ED0DB6800221A6002B011
:108B6C0070BD0260426082605A6855E702604260E4
:108B7C0082605A68D1E7197849F200420903C4F2BD
:108B8C000D028A181068596840EA01011160DA6810
:108B9C0000211160197849F200420903C4F20D0258
:108BAC008A1811685B6821EA03031360D7E7002C6D
:108BBC003FF432AFC968013C046041608A605A6876
:108BCC002AE7002CA9D0C968013C046041608A6086
:108BDC005A68A2E7002C3FF41FAF8168013C8968FA
:108BEC0004608160CA605A6816E7002C95D08168D1
:108BFC00013C896804608160CA605A688DE7FFF7A0
:108C0C00F9F900228EE7FFF7F5F9002409E700BF18
:108C1C00580000200C0200208C020020AC02002026
:108C2C0040F64853C2F200034DF804BD93E8060029
:108C3C004FF0010B11EB0B014FF0000C42EB0C024F
:108C4C0083E806005DF804BB704700BF49F21803C7
:108C5C00C4F208031A6840F61C53C2F200031968E8
:108C6C0041EA02021A6049F20803C4F208031A68C6
:108C7C0040F62053C2F20003196841EA02021A605E
:108C8C0049F21003C4F208031A6840F62453C2F2E6
:108C9C000003196841EA02021A60704748F60C0397
:108CAC0040F20822C4F20803C2F2000219681068EC
:108CBC0040EA0101116000221A604EF28013CEF2DC
:108CCC0000034FF080621A604EF28023CEF2000354
:108CDC001A6070474EF28413CEF2000302221A601F
:108CEC004EF28423CEF200031A6070470368232BE4
:108CFC000DD0252B13D0272B19D0332B01BF43F2CA
:108D0C002403C4F203034FF0FF321A60704740F2A1
:108D1C002403C4F203034FF0FF321A60F6E741F26A
:108D2C002403C4F203034FF0FF321A60EEE742F261
:108D3C002403C4F203034FF0FF321A60E6E700BFCE
:108D4C0072B64EF280134FF0FF32CEF200031A606F
:108D5C004EF28413CEF200031A601B491B4A002307
:108D6C00CA500433B3F5807FFAD10023DFF860C01A
:108D7C0018464CF803000433B3F5807F144AF8D13D
:108D8C00144BC2F88C30C2F89430C2F89C30C2F844
:108D9C00CC30114BC2F8A830104BC2F8C430104B79
:108DAC00C2F8F0300F4B136453649364D3640E4BCE
:108DBC000822CB600D4BC1F8CC304EF20413CEF22E
:108DCC0000031A60704700BFBC02002009A32000FA
:108DDC0098000020F98C2000E18C2000A98C200048
:108DEC00598C2000A19F200041A320002D8C200035
:108DFC000A4A0120002110B492E818001B1844EB19
:108E0C000104012B82E8180001D010BC7047002C23
:108E1C00FBD1034A146054609460F6E7080000200C
:108E2C00100000200A4A0120002110B492E818001A
:108E3C001B1844EB0104012B82E8180001D010BC74
:108E4C007047002CFBD1034A146054609460F6E721
:108E5C00080000201000002010B5314B1868416844
:108E6C000B46002957D04A68272A07D8182A05D05C
:108E7C00DB68002B4FD05A68272AF7D9183A5A606A
:108E8C00C268183AC2605A6892B9D0F800C0BCF1F6
:108E9C00010F1FD09C68002C24D0D96800292DD03C
:108EAC00E160DA680CF1FF3CC0F800C094605A68CD
:108EBC00196818208B18885004331A49012219613B
:108ECC0019491A605A601A72486840B1DA60174A38
:108EDC00136010BD0260426082605A68E8E74B6024
:108EEC005A68F3E7BCF1000FE2D0C9680CF1FF3C03
:108EFC00C0F800C041608A605A68D9E7BCF1000F25
:108F0C00D6D081680CF1FF3C8968C0F800C0816044
:108F1C00CA605A68CCE7FFF76DF80023CDE700BFB5
:108F2C0058000020C58F2000140D00209C0100204B
:108F3C00014B0360704700BFECC02000014B036085
:108F4C00704700BFECC020000D4B00221A605A6025
:108F5C009A600C4A0120002110B492E818001B18EA
:108F6C0044EB0104012B82E8180001D010BC7047BF
:108F7C00002CFBD1044A146054609460F6E700BFE7
:108F8C00A0010020080000201000002000B540685F
:108F9C0000F0F2F900BD00BF024B00B5036001F018
:108FAC0021FE00BDECC02000024B00B5036001F0B7
:108FBC0019FE00BDECC02000F0B572B63F4B1A682C
:108FCC0001321A603E4A13682BB151684868013867
:108FDC000028486007DD002362B61BB1986803685F
:108FEC009B689847F0BD012B3CD0CB6800205360A8
:108FFC0098601368013B1360CB6823B1D3F804C0AD
:10900C004868604458600B68D868B0F1FF3F03D0E3
:10901C000138D8600028DFD0D3F810C02848C1F838
:10902C0004C01668002E35D047687C68A445B8BFCC
:10903C003D4609DBF868F8B1C4EB0C0CC1F804C070
:10904C0044680546A44514DAA868002829D0CCEB5E
:10905C00040C0136C5F804C0C160A960CD608860FD
:10906C001660B9E70023536093601368013B1360EB
:10907C00C2E7C0680028DFD19068C4EB0C0CC1605B
:10908C008860C1F804C00020C8609160116801318B
:10909C001160A1E701228E60CE60026041608160A8
:1090AC009AE7CCEB040CC5F804C08860CF60B960BB
:1090BC0051601168013111608EE700BF98010020EA
:1090CC00A001002030B472B6DFF880C0DCF80410C8
:1090DC00E9B10B68984218BF0B462BD0DB68B3B1D3
:1090EC001A689042FAD1DCF80000184C012811D013
:1090FC009D68002D20D0DA6892B1EA60DA680138F8
:10910C00956020601AB151685B68CB18536062B6E9
:10911C0030BC704700226260A2602260DA68F1E71E
:10912C000028F4D0A168013889682060A160CA6069
:10913C00DA68E7E70B46D6E708B9DA68E2E7CA6807
:10914C000138626020609560DA68DBE7A0010020DE
:10915C00C360434BF0B591E8C0001B6804465B68E4
:10916C00A26015464FF47A72B2FBF3F244F240233C
:10917C00C0F20F0380E8C000B3FBF2F212464FF0CE
:10918C0000035F084FEA320603C9361847EB0107A4
:10919C003046394601F06AFF002320616461A0610A
:1091AC00E361236272B628B962B62B6828469B68C5
:1091BC009847F0BDDFF8ACC004F11401DCF8006096
:1091CC00002E33D0DCF804707A689042B8BF3D466C
:1091DC001BDBFB6843B1801A48605A681D469042FD
:1091EC0020DAA069824210DCDCF80830821AD960DF
:1091FC00A261E36100232362DCF80030CCF8081094
:10920C000133CCF8003062B6D3E7AB68CBB1121A9D
:10921C0001366A60D960A9602562E361CCF8006010
:10922C0062B6C6E7DB68002BD5D1DAE70123E6612D
:10923C002662CCF80030CCF80410CCF8081062B6DA
:10924C00B7E7121A6A60E361DCF800302762013379
:10925C00B960CCF80030CCF8041062B6A9E700BFB6
:10926C009C010020A001002070B58FB009AC06460F
:10927C000021204600F060F80B4B31460DAA0D93EF
:10928C00684601230E94FFF763FF204600F088F830
:10929C006846FFF717FF054B20466D460D9300F00F
:1092AC0093F80FB070BD00BFD8C02000ECC02000F8
:1092BC000023036043608360037370470A4A0120F4
:1092CC00002110B492E818001B1844EB0104012B88
:1092DC0082E8180001D010BC7047002CFBD1034A67
:1092EC00146054609460F6E7080000201000002021
:1092FC0000B572B6036813B9037362B600BD00F013
:10930C0051FCFBE700B572B64FF0010C00F10C01FB
:10931C00D1E84F2FC1E843CF002BF9D112F0FF0F4A
:10932C0001D162B600BD00F0A9F8FBE700B572B63A
:10933C0000F04AFB00BD00BF002303604360836064
:10934C00C16070470A4A0120002110B492E818004D
:10935C001B1844EB0104012B82E8180001D010BC4F
:10936C007047002CFBD1034A146054609460F6E7FC
:10937C00080000201000002000B572B600F10C01AE
:10938C0051E8002F02F1010241E80023002BF7D134
:10939C00002A01DD62B600BD00F004FCFBE700BF53
:1093AC0000B572B600F10C0151E8002FA2F10102D8
:1093BC0041E80023002BF7D1002A01DB62B600BD87
:1093CC0000F05CF8FBE700BF00B572B600F0FCFAE9
:1093DC0000BD00BF0A4A0120002110B492E8180019
:1093EC001B1844EB0104012B82E8180001D010BCBF
:1093FC007047002CFBD1034A146054609460F6E76C
:10940C0008000020100000200F4A0023D3601360D6
:10941C00536093600D4A0120136053600C4A002185
:10942C0010B492E818001B1844EB0104012B82E8DD
:10943C00180001D010BC7047002CFBD1054A1460F9
:10944C0054609460F6E700BFB0010020C401002016
:10945C000800002010000020884200B509D00369E4
:10946C004BB100230B6150F80C3FCB68C96801F07D
:10947C008FFB62B600BD01230361F2E75C492DE965
:10948C00F045CB68CB681A68CB68CB6802F11C0638
:10949C009E4263D00B68012B00F08380D46B002CB0
:1094AC0072D0156C002D00F081806562D2F840C03E
:1094BC00013BCCF820400B60D0F8008003231361F3
:1094CC00B8F1000F25D0D0F804A002F12007DAF88B
:1094DC000430D2F820C00AF104059C452EDA53461C
:1094EC00D5F800E0D2F820C0E6451BDC836808F113
:1094FC0001085E62D36300231364C0F800808660A9
:10950C00CB685061196810460122FFF7A5FFBDE832
:10951C00F0850123C2F83C80C2F8408003604660AD
:10952C008660EDE71C6A002C56D008F101086662D3
:10953C001E621364D463C0F80080E1E7DAF82430CB
:10954C0023B9CCE75C6A002CCAD02346D3F804E0DC
:10955C00D7F800C01D1DE645F4DDC1E70B687BB1F3
:10956C00012B30D0D1F804C00024DCF824E0013BFE
:10957C00C1F804E00B60CEF82040C1F80CC09BE7AA
:10958C009C46C1F80CC097E7002B95D0D1F804C0CD
:10959C00013BDCF824C00B60C1F804C0CCF82040BF
:1095AC008AE700234B608B600B6085E7002B83D030
:1095BC00D1F808C0013BDCF820C00B60C1F808C032
:1095CC00CCF8245078E7D1F804C000234B608B60B2
:1095DC000B60C1F80CC06FE708F10108D463C2F846
:1095EC0040A0CAF82060C0F80080466088E700BF41
:1095FC00B00100202DE9F045044672B6614B62487B
:10960C00196804F11C0701311960C368C368002B89
:10961C0064D0D0F80080B8F1000F1FD0D0F804A0AF
:10962C0004F12006DAF80410236A0AF104059942C1
:10963C0056DD5346D5F800C0216A8C4569DC836839
:10964C005F62E36300232364036887600133036074
:10965C004E4B18687AB9A260BDE8F0850123C4F8B6
:10966C003C80C4F84080036047608760474B1868B3
:10967C000AB9F0E7013212F0030FFBD1456804324E
:10968C000F2A98BF10222B46002D76D0696802F164
:10969C00100C8C4507D9914205D0DB68002B6CD09F
:1096AC0059686145F7D3891A5960C168891AC16034
:1096BC00596871B90668012E36D09F68002F42D0C8
:1096CC00DD68002D4BD0FD60D968013E06608F60CF
:1096DC0059681B6858185A50021DBCE7C760C5E78B
:1096EC00DAF82430002BA4D0D3F804C031681D1D47
:1096FC008C459FDC596A00299CD00B46D3F804C0DA
:10970C0031681D1D8C45F5DDD5F800C0216A8C45EE
:10971C0095DD196A69B108F101084F621F62236473
:10972C00E163C0F80080A1E7016041608160596885
:10973C00CFE70368E1630133C4F840A0CAF8207096
:10974C000360476092E7002EC3D0D5F80CC0013EF1
:10975C000660C0F804C0CCF808105968B9E7002EB0
:10976C00B7D0D0F808C0013EDCF808C00660C0F8DD
:10977C0008C0CCF80C105968ABE7FEF73BFC002294
:10978C0069E700BFC0010020B00100205800002094
:10979C00F0B572B63D4BDA68DA681068DA681A68A8
:1097AC00002A3DD059686FF0004CD1F804E0E64532
:1097BC0036D0012AD3F80CE055D0D1F824C00024BF
:1097CC00013AC3F804C01A60CCF820401E682F4A36
:1097DC00D960002E2AD057680EF104057A68DEF89D
:1097EC0004103C1D914243DB7A6A002A40D0D2F827
:1097FC0004C02968141D8C4523DDD4F800C0DEF8A4
:10980C0004108C4522DC9A68C2F824E0CEF82020A3
:10981C000022CEF824201A68C3F808E001321A603E
:10982C00DB6801221968FFF717FEF0BD0121CEF8A5
:10983C002060CEF824601160C2F804E0C2F808E0A1
:10984C00EEE7516A0029D8D00A46D0E7116A89B1EF
:10985C000136C1F824E0C2F820E0CEF82420CEF87E
:10986C0020101E60DCE700225A609A601A60ADE797
:10987C003A46C2E71A68CEF820100132CEF82470AE
:10988C00C7F820E01A60C3F804E0C9E7B001002073
:10989C0030B5114D114C2A682368012B06D962B6DC
:1098AC0030BF002AF8D0FFF773FFF4E772B60C4C08
:1098BC000C48FCF7BFFD0A250B48FCF7BBFD2560E7
:1098CC000A48FCF7B7FD0848FCF7B4FD256000F02A
:1098DC004FFE30BF002030BDB0010020C001002081
:1098EC003800002024C12000F4BB200040C120001F
:1098FC00344BF0B5DA681C681068DA682CB9DB6890
:10990C0001221968FFF7A8FDF0BDD3F80CE05F68E1
:10991C000EF104067A68DEF804103D1D914243DB1B
:10992C007A6A002A40D0D2F804C03168151D8C45E3
:10993C001FDDD5F800C0DEF804108C451EDC9A68DB
:10994C001C68C2F824E0CEF8202001340022CEF8A6
:10995C0024201C60C3F808E04CB1012C1BD05C68BF
:10996C000021626A5A6011621A68013A1A60DC605E
:10997C00C5E7516A0029DCD00A46D4E7116AA9B1BF
:10998C000134C1F824E0C2F820E0CEF82420CEF84F
:10999C0020101C60E0E700225C689A605A601A682C
:1099AC00DC60013A1A60AAE73A46C2E71C68CEF8B6
:1099BC0020100134CEF82470C7F820E01C60C3F8E6
:1099CC0004E0C9E7B00100202DE9F04F434D0446F7
:1099DC00EB680368002B74D000264FF001082F466B
:1099EC00012B40D06268013B516A236061600E62BA
:1099FC001268C2F81080EB68EB68566102F11C0C1F
:109A0C00002B26D0D7F800A0BAF1000F30D0D7F831
:109A1C00049002F1200ED9F80410136A09F1040025
:109A2C0099422EDD4B460068116A88423CDCAB68DB
:109A3C00C3F824C0D3632B6816640133C5F808C07F
:109A4C002B60FFF755FF72B62368002BC8D1BDE819
:109A5C00F08FC7F80CC0FFF74BFF72B62368002BD2
:109A6C00F5D0012BBED16268A66066602660BFE7A8
:109A7C00D6631664C7F80080C7F804C0C7F808C0DE
:109A8C00E9E7D9F8243023B9CCE7596A0029CAD0C0
:109A9C000B46D3F804B0DEF80010181D8B45F4DD2E
:109AAC000068116A8842C2DD196A61B10AF1010AC3
:109ABC00C1F824C0C3F820C01364D163C5F800A05A
:109ACC00C9E762B6C3E72B68D1630133C2F8409093
