:020000040020DA
:10400000F87F00201D412000A19B2000A19B2000E3
:10401000A19B2000A19B2000A19B2000A19B200030
:10402000A19B2000A19B2000A19B2000D79B2000EA
:10403000A19B2000A19B2000A19B2000A19B200010
:10404000A19B2000A19B2000A19B2000A19B200000
:10405000A19B2000A19B2000A19B2000A19B2000F0
:10406000A19B2000A19B2000A19B2000A19B2000E0
:10407000A19B2000A19B2000A19B2000A19B2000D0
:10408000A19B2000A19B2000A19B2000A19B2000C0
:10409000A19B2000A19B2000A19B2000A19B2000B0
:1040A000A19B2000A19B2000A19B2000A19B2000A0
:1040B000A19B2000A19B2000A19B2000A19B200090
:1040C000A19B2000A19B2000A19B2000A19B200080
:1040D000A19B2000A19B2000A19B2000A19B200070
:1040E000A19B2000A19B2000A19B2000A19B200060
:1040F000A19B2000A19B200010B5074C54F8043C64
:10410000B3F1FF3F06D0043C984754F8043DB3F1A7
:0C411000FF3FF9D110BD00BFE4B5200056
:10411C0040400949094A086004319142FBDBFFF732
:10412C00E5FF00BF00F046FA01F0CAF801B406F052
:10413C0081FE02F049FB000004000020040F002067
:10414C0043680A1D5BB1D0F80CC00133CCF80420D5
:10415C004FF0000CC1F808C04360C26070478B6020
:10416C0001238260C2604360F8E700BF10B444686A
:10417C00012C17D0836801F1040C9C4517D04BB16E
:10418C005A682AB1944503D013465268002AF9D1D3
:10419C008A685A60C268944508BFC360013C446099
:1041AC0010BC704700238360C3604360F8E7002CA9
:1041BC00F6D08B68013C83604460F1E730B58468CD
:1041CC0005464CB12068294603681B68984764680B
:1041DC00002CF7D1012030BD2046FCE7F0B54B6A2E
:1041EC0081B004460D461746002B37D0AC462360F1
:1041FC005CF8043B04F1200E2361BCE80F00AEE830
:10420C000F009CE807008EE807000026AA6A66618A
:10421C00A661E461E663266405F12001204604F002
:10422C007FFEAB6AA2686660D218A2F140034FF021
:10423C00807142F8401C0B4A01A942F001029A63BA
:10424C0047F00102DA63204641F8047DE3606946D9
:10425C004FF4406205F0DAF801B0F0BD024B1B6878
:10426C00C4E700BFC967200060030020294B30B5AC
:10427C00186844682246002C47D06368572B07D82F
:10428C00482B11D0D268002A3FD05368572BF7D94E
:10429C00483B5360C1684839C16053B1126848212A
:1042AC00D018D150043030BD00235360C168483958
:1042BC00C160016801290BD0956875B1D468BCB197
:1042CC00EC60D2F80CC00139CCF808500160E5E77D
:1042DC000021416081600160E0E70029DED0D4F864
:1042EC000CC00139C0F804C00160CCF80850D5E707
:1042FC000029D3D0D0F808C00139DCF808C001601F
:10430C00C0F808C0CCF80C40C8E703F009FB00204B
:10431C00C9E700BF10020020F0B598B000240022BD
:10432C00002316940692079304920593029203932A
:10433C00169B4FF4406701930094089409940A97D4
:10434C00FFF794FF69461B4A0546FFF747FF6FF0DE
:10435C000043002217930023119212930F92109393
:10436C000D920E93179B01260C93139414940B9699
:10437C001597FFF77BFF0BA90F4AFFF72FFF0F4B8A
:10438C00E8681E7005F0F8FF0D4A012092E818004D
:10439C0000211B1844EB0104B34282E8180001D041
:1043AC0018B0F0BD002CFBD1064A14605460946028
:1043BC00F6E700BF30412000C991200080030020A7
:1043CC0008000020100000202DE9F007754E7368DE
:1043DC00002B78D05968002975D0DFF8CC81B24613
:1043EC0000270022D8F800505A60F268521AF26086
:1043FC005A68C2B9DAF80040012C00F08480986841
:10440C00002800F0A880D3F80CC0BCF1000F00F01D
:10441C00B280C0F80CC0DA689060DAF80020013A7B
:10442C00CAF800205A681C68A41849D00F2947D92B
:10443C0061602460A760E760EB6859186B68E960FD
:10444C00D4F800C06068002B4DD0D3F800906044C5
:10445C0048450CBF1A461A4604D0D26812B11168EE
:10446C008842FAD159688944CC4507D0DB68002BC7
:10447C0038D01868596841188C45F7D1194613463D
:10448C00CBB160685A68821862602868012802BF44
:10449C006F60AF602F600ED09A68002A3BD0D3F8C3
:1044AC000CC0BCF1000F40D0C2F80CC0DB689A60A5
:1044BC002B68013B2B6019B14A686368D3184B60B9
:1044CC007368002B1AD1394A012092E81800002198
:1044DC001B1844EB0104012B82E818005BD0BDE8EB
:1044EC00F007704713462968002929D1A160E160C3
:1044FC002A686C600132AC602A60C1E759680029F7
:10450C007FF46FAFDFE7CAF80420CAF80820CAF8B6
:10451C0000205A6887E70028CDD06B68DB686B6099
:10452C009A602B68013B2B60C5E70028C3D0AB68B1
:10453C009B68AB60C3F80CC02B68013B2B60BAE7DF
:10454C00AA683946D460AA68E760A2602A68AC60A1
:10455C0001322A6094E7002C3FF465AFDAF80400CE
:10456C00C068CAF804008260DAF80020013ACAF880
:10457C0000205A6857E7002C3FF455AFDAF80800D2
:10458C008068CAF80800C260DAF80020013ACAF85C
:10459C0000205A6847E7002CA1D1054A14605460EA
:1045AC0094609CE7EC0E0020100200200800002014
:1045BC0010000020704700BF0E4B0A2100221A7118
:1045CC0019600D4B01201A710C4A196010B492E855
:1045DC00180000211B1844EB0104012B82E8180081
:1045EC0001D010BC7047002CFBD1054A14605460FC
:1045FC009460F6E72800002020000020080000202E
:10460C00100000202DE9F0418CB00E46044668469F
:10461C009046129F03F078F833686D469A68022A28
:10462C0059D0DB68FF221A60D8F800309A68022A49
:10463C006FD0DB68FF221A6048F280420023C0F280
:10464C001E020CA820E90C0004F0A4FA33689A6846
:10465C00022A78D0DB6800221A60D8F800309A68F9
:10466C00022A00F08F80DB6800221A60524B196816
:10467C00524B01F1040103C94FF001010CCB8DF831
:10468C0008101218ADF80410ADF806102B218DF897
:10469C00091000923B882146ADF80A307A886846AA
:1046AC00ADF80C20BB88ADF80E30FA88ADF81020B0
:1046BC003B89ADF812307F89ADF8147002F0C2FF5F
:1046CC00684603F037F805F1180004F013FB1620C8
:1046DC000CB0BDE8F081197849F200420903C4F22C
:1046EC000D028A181068596808431060DA68FF20B8
:1046FC0010601A7849F200431203C4F20D03D31868
:10470C001A6822EA01011960D8F800309A68022A66
:10471C008FD1197849F200420903C4F20D028A18AC
:10472C001068596808431060DA68FF2010601A7826
:10473C0049F200431203C4F20D03D3181A6822EA9B
:10474C000101196078E7197849F200420903C4F2B3
:10475C000D028A181068596808431060DA68002046
:10476C0010601A7849F200431203C4F20D03D318F7
:10477C001A6822EA01011960D8F800309A68022AF6
:10478C007FF471AF197849F200420903C4F20D02AB
:10479C008A181068596808431060DA6800201060A5
:1047AC001A7849F200431203C4F20D03D3181A68A5
:1047BC0022EA0101196059E7C4050020B805002060
:1047CC00012810B40FD060B9334B344AC3F8A02081
:1047DC00C3F89020C3F880201A671A661A651A610C
:1047EC001A6010BC70472C4BDFF8B0C00022194681
:1047FC00C3F800C05A609A60DA60C3F810C05A61FE
:10480C009A61DA6141F8202F03F1400041F8042F3E
:10481C008142FBD15A649A64DA645A659A65DA6506
:10482C005A669A66DA665A679A67DA67C3F884201A
:10483C00C3F88820C3F88C20C3F89420C3F89820C0
:10484C00C3F89C20C3F8A420C3F8A820C3F8AC205C
:10485C0083F8B420124A0A210120C3F8B010C3F81F
:10486C0050C00021C3F860C0C3F870C0C3F880C04A
:10487C00C3F890C0C3F8A0C092E818001B1844EB12
:10488C000104012B82E81800ABD1002CA9D1054AF8
:10489C00146054609460A4E73000002070AE2000D7
:1048AC00080000201000002000B50020FFF788FF52
:1048BC0000BD00BF00B50120FFF782FF00BD00BFA7
:1048CC0070B5834B01228FB01A7000230D93814B6E
:1048DC000C46186841680B46002900F0F4804A68C1
:1048EC00272A08D8182A06D0DB68002B00F0EB80AA
:1048FC005A68272AF6D9183A5A60C268183AC26020
:10490C005A688AB90568012D00F0C3809E68002E94
:10491C0000F0C480D968002900F0CA80F160DA6820
:10492C00013D056096605A681B6818219D189950C6
:10493C00043502232B7003236B7008236B604BF23E
:10494C002003C4F20D03EB6000224BF220432A61DA
:10495C00C4F20D031968042021F008011960012329
:10496C00AB604BF20043C4F20D03196841F008012F
:10497C00196029786B78043103EBC10144F2000310
:10498C00C4F20D0343F82100297849F21C430903B2
:10499C00C4F20D03CB18696819602978D5F804C0E6
:1049AC000803C9000CFA01F149F21873C4F20D03A3
:1049BC00C318186820EA010119602B6963B16B7880
:1049CC002978284603EBC101434B0C9243F8215044
:1049DC000DA90CAB04F0B8FF68460AAE0E9502F0B8
:1049EC0093FE30460EA96A4602F0DEF8A378627890
:1049FC001B0443EA0223227830461343E2786D46C7
:104A0C0043EA026300936279237943EA0223ADF807
:104A1C000430E279A37943EA0223ADF80630237A15
:104A2C00E27A8DF80830637A8DF80930237B1B0409
:104A3C0043EA0223A27A1343627B43EA0263ADF892
:104A4C000A301B0CADF80C30237CE27B1B0443EAD0
:104A5C000223A27B1343627C43EA0263ADF80E305F
:104A6C001B0CADF81030237DE27C1B0443EA0223BF
:104A7C00A27C1343627D43EA0263ADF812301B0C37
:104A8C00ADF8143002F0A6FA06A804F033F90FB012
:104A9C0070BD0260426082605A6845E7002D3FF4A9
:104AAC0043AFC968013D056041608A605A683BE7C5
:104ABC00002D3FF439AF8168013D89680560816044
:104ACC00CA605A6830E702F02BFF002531E700BFBF
:104ADC001C02002010020020C00300202DE9F04F22
:104AEC0040F21021DFF88837C2F200010122086879
:104AFC00B0B01A7000232D9343684BB15A68272A23
:104B0C0000F2F782182A00F0F482DB68002BF5D152
:104B1C0002F006FF00240223237001336370053377
:104B2C0063604BF22003C4F20D03E36000224BF2EE
:104B3C0020432261C4F20D031968042021F00801FE
:104B4C0019600123A3604BF20043C4F20D031968F2
:104B5C0041F00801196021786378043103EBC1013D
:104B6C0044F20003C4F20D0343F82100217849F20A
:104B7C001C430903C4F20D03CB186168196021783A
:104B8C00D4F804C00803C9000CFA01F149F21873F7
:104B9C00C4F20D03C318186820EA010119602369D7
:104BAC00002B00F02983DFF8CC36DFF8C8B604936D
:104BBC0021786378204603EBC1034BF823402DA9E1
:104BCC002CAB2C9204F0C0FE30AE46F8044D3046AF
:104BDC0001F07CFF44F24021C0F20F01002215AC21
:104BEC0029A829912A920DF19C0803F0D3FF2046A5
:104BFC0002F08AFD22463146404601F0D5FF404680
:104C0C0001F0B8FF42F22803C4F20D031A68002425
:104C1C0042F002021A6042F22C03C4F20D031A682D
:104C2C004FF0FF3142F002021A6042F23003C4F23C
:104C3C000D031A68D02042F002021A6044F25C03A1
:104C4C00C4F20D0302221A6044F2DC03C4F20D0319
:104C5C0006321A6044F2D803C4F20D031C6044F20D
:104C6C000813C4F20D030E321A604BF22043C4F247
:104C7C000D031A6840F2705B42F0C0021A604DF2EC
:104C8C003003C4F200031A68C2F2000B22F00102D6
:104C9C001A604DF24402C4F2000211604DF2380267
:104CAC004DF22401C4F20002C4F200011460086049
:104CBC004DF22801C4F200013E2008604DF22C0197
:104CCC00C4F2000132300860302111601A68DFF83C
:104CDC00A80542F4407242F001021A600122CBF89E
:104CEC0004204DF20002C4F20002CBF800201A6836
:104CFC0022F080021A6001F06FFD40F2102CC2F21B
:104D0C00000CDFF87835DCF800001C6043684BB110
:104D1C005A68232A00F20C82142A00F00982DB68FC
:104D2C00002BF5D102F0FCFD0025DFF854A5002185
:104D3C0000228AE806004020A960EA6005F094F998
:104D4C0049F2380949F25007DFF83845C4F208092E
:104D5C004FF0040BC4F208072368032BFCDDEFF3C0
:104D6C001083DBB272B6C9F800B03A6803B962B608
:104D7C0012F0010FF0D040F24822C2F20002137080
:104D8C0005F03CF95828E7D14FF0000B4FF0000C20
:104D9C00CDF808B0CDF80CC049F2380949F2500BE7
:104DAC000027C4F208094FF0040CC4F2080B236866
:104DBC00032BFCDDEFF31083DBB272B6C9F800C035
:104DCC00DBF8002003B962B612F0010FEFD040F20D
:104DDC004821C2F200010B70CDF804C005F00EF9A9
:104DEC003A4600F0FF004FF0000105F00FFC02AB5B
:104DFC000CCB083702430B43402F02920393DDF890
:104E0C0004C0D4D1AA60EB60002100228AE806001D
:104E1C0040F21022C2F20002106843684BB15A688B
:104E2C00232A00F2A481142A00F0A181DB68002B54
:104E3C00F5D102F075FD002340F200020021C4F20E
:104E4C00030240F20C005A601960C4F20300D0F85F
:104E5C0000C02CF0010CC0F800C042F20800C4F2F3
:104E6C000D00D0F800C04CF0010CC0F800C042F2AC
:104E7C000C00C4F20D00D0F800C04CF0010CC0F8CE
:104E8C0000C042F21000C4F20D00D0F800C04CF08B
:104E9C00010CC0F800C0116040F20402C4F203021D
:104EAC000220106040F2280244F60000C4F2030213
:104EBC00C0F2E81010605A689163F34A002A00F0BF
:104ECC00A9815868D0F818C04CF0010CC0F818C073
:104EDC005868D0F80CC04CF0010CC0F80CC09960AC
:104EEC00EA49DA60C1F88C204EF20012CEF20002D0
:104EFC004FF400211160E64F6B604AF220113D60C7
:104F0C00E44DC0F20701002221A82191229203F066
:104F1C0041FE2A7801232E9349F210431203C4F266
:104F2C000D03D3181A686968284622EA01021A6030
:104F3C00D94B2A782B616B782EA903EBC203049A08
:104F4C0040F2705B42F8235000222BAB2B9204F002
:104F5C00FBFCD24801F040FCD14AD24B69681A6084
:104F6C002A7849F210431203C4F20D03D3181A68BD
:104F7C00C2F2000B22EA01021A60DBF800304FF09B
:104F8C00FF325A642A7849F210431203C4F20D031B
:104F9C00D31819686A68C44841EA02021A6001F021
:104FAC001BFC252005F060F849F2380949F2500540
:104FBC00C4F208094FF0040BC4F208052368032B54
:104FCC00FCDDEFF31083DBB272B6C9F800B02A68CF
:104FDC0003B962B612F0010FF0D040F2482CC2F2C5
:104FEC00000C8CF8003005F009F82528E6D1AF4DFF
:104FFC000024285D013405F037F8082CF9D158202D
:10500C0005F032F8582005F02FF8582005F02CF850
:10501C00A74D0024285D013405F026F8082CF9D1A1
:10502C00582005F021F8582005F01EF8582005F0FE
:10503C001BF8A04D0024285D013405F015F8082C50
:10504C00F9D1582005F010F8582005F00DF858202B
:10505C0005F00AF841F68021C0F2060100221FA8D3
:10506C001F91209203F096FD0DF1940905AD48F2C5
:10507C0080420023C0F21E0248462592269303F07C
:10508C0089FD8D4801F0A8FB9AE806003B688B4827
:10509C0003F1080C9CE8001811EB0B0142EB0C021D
:1050AC002B460024009402F091FC0DF1C00B5844E7
:1050BC0000F8AC4C284601F08FFB4FF00A014FF082
:1050CC00000228468DF814108DF8152001F084FB91
:1050DC00304601F0FBFC40F60013C0F23D0323A860
:1050EC0000242393249403F055FD404602F016F857
:1050FC00BDE7183A5A60C268183AC2605A688AB951
:10510C000468012C00F09F809968002900F08F80C2
:10511C00DD68002D73D0CD60DA6891600268013AC9
:10512C0002605A681B6818219C1899500434F2E4E8
:10513C00143A5A60C268143AC2605A688AB9046850
:10514C00012C00F090809968002900F08180DD68C6
:10515C00002D46D0CD60DA6891600268013A026099
:10516C005A681B6814219D1899500435DDE5143AD2
:10517C005A60C268143AC2605A688AB90768012F2B
:10518C002AD09968E9B1D3F80CC0BCF1000F0DD04E
:10519C00C1F80CC0DA6891600268013A02605A6882
:1051AC00196814208B188850043345E6002FF7D06B
:1051BC00816889688160CA600268013A02605A6835
:1051CC00EEE7002FECD04168C96841608A60026844
:1051DC00013A02605A68E3E74260826002605A68F2
:1051EC00DEE7002CBDD0816889688160CA600268E6
:1051FC00013A02605A68B4E71E4A0492E4E4002CB7
:10520C0090D0816889688160CA600268013A026046
:10521C005A6887E75968886920F0010088615968E5
:10522C00C86840F00100C8609A60DA6063E6002C40
:10523C003FF478AF4168C96841608A600268013AFE
:10524C0002605A686EE74260826002605A6869E7E1
:10525C00002C86D04168C96841608A600268013AB6
:10526C0002605A687DE74260826002605A6878E7A3
:10527C001C020020C0030020E0AE2000A00500208E
:10528C008C05002044020020A55F20007004002043
:10529C00C0050020A405002071602000F8AE20009D
:1052AC00CD4820008805002020AF20007CAE2000D7
:1052BC0088AE200094AE200034AF2000E000002027
:1052CC0000B5FFF70BFC002000BD00BF2DE9F04F2F
:1052DC004AF22042D8B0012400258DF8D4408DF834
:1052EC00D550C4F20D0213684AF2040723F00103EF
:1052FC0013604AF20043C4F20D03196844F2000033
:10530C00214319609DF8D4C09DF8D5100CF1040C04
:10531C00C4F20D00C4F20D0701EBCC0C0421369441
:10532C0038973995379440F82C109DF8D4E049F211
:10533C001C4C4FEA0E3EC4F20D0CF444CCF8004069
:10534C009DF8D4E049F2187C4FEA0E364FEACE0EA7
:10535C0004FA0EFEC4F20D0CB444DCF80060DFF865
:10536C00A8B926EA0E0ECCF800E049F2004CC4F2C3
:10537C000D0CDCF80080022628F00408CCF8008024
:10538C0044F28808C4F20D08C8F800403D60DCF80F
:10539C0000700DF1D40827F01007CCF8007044F21F
:1053AC0090074FF0030ECDF83481C4F20D070DF5C4
:1053BC008C7846964796CDF820E1CDF8388143910C
:1053CC004496CDF814E13C6005274097DCF800705A
:1053DC00419627F02007CCF8007044F2940CC4F2EC
:1053EC000D0CCCF800404AF2100C8DF8C0408DF832
:1053FC00C160C4F20D0CCDF8CCC0D2F800C0CDF811
:10540C0008E12CF0040CC2F800C0D3F800C03191B4
:10541C004CEA010CC3F800C09DF8C0709DF8C1C0E7
:10542C007F180CEBC70C3495329440F82C109DF877
:10543C00C07049F21C4C3F03C4F20D0CBC44CCF8B8
:10544C0000109DF8C07049F2187C4FEA073807FA33
:10545C000EF711FA07F7C4F20D0CC444DCF8008007
:10546C0028EA0707CCF800708DF8AC408DF8ADE059
:10547C00D2F800C04FF008082CF0080CC2F800C09D
:10548C00D3F800C04AF2200EC4F20D0E4CEA080C00
:10549C00CDF8B080CDF8B8E02F952D94C3F800C0AE
:1054AC009DF8AC709DF8ADC07F180CEBC70C40F8A4
:1054BC002C109DF8AC7049F21C4C3F03C4F20D0C3F
:1054CC00BC44CCF800809DF8AC7049F2187C4FEAD3
:1054DC00073AFF0008FA07F7C4F20D0CD444DCF8C5
:1054EC0000A02AEA0707CCF800700DF1540C2BAF82
:1054FC00CCF80070CCF808700DF5867A40AFCCF87B
:10550C000C70CCF804A00DF1C00CCDF864C04AF2BC
:10551C00080CCEF80050C4F20D0C8DF898408DF8A4
:10552C009940CDF8A4C0D2F800C027962CF0020CFC
:10553C00C2F800C0D3F800C02A954CEA060CC3F898
:10554C0000C09DF898E09DF899C08E440CEBCE0CF1
:10555C00289440F82C109DF898E049F21C4C4FEA26
:10556C000E3EC4F20D0CF444CCF800609DF898E0AB
:10557C0049F2187C4FEA0E374FEACE0E06FA0EFEB1
:10558C00C4F20D0CBC44DCF8007027EA0E0ECCF80B
:10559C0000E04AF2400EC4F20D0E8DF884408DF8F6
:1055AC008510CDF890E0D2F800E04FF0100C2EF002
:1055BC00100EC2F800E01A68CDF888C022F0100274
:1055CC001A609DF884209DF88530521803EBC203B5
:1055DC002595239540F823109DF8842049F21C430F
:1055EC001203C4F20D03D318C3F800C09DF8842035
:1055FC0049F218734FEA023ED2000CFA02F2C4F2DE
:10560C000D037344D3F800E021AF2EEA02021A60B6
:10561C0026AB3D93DFF8F4363DAA1A609DF8842042
:10562C0049F200431203C4F20D033E973F952395B4
:10563C00D3181A6822F010021A609DF884209DF885
:10564C008530521803EBC20340F823109DF88420D8
:10565C0049F210431203C4F20D035495D3181A687F
:10566C00384622F010021A60DFF8A4369DF8842028
:10567C0025939DF8853054A903EBC2034BF8237096
:10568C002A4652AB529504F05FF938462A4655A982
:10569C0056AB5594569504F057F942F22803C4F2D0
:1056AC000D031A684FF0FF3132431A6042F22C039B
:1056BC00C4F20D031A68D02032431A6042F2300350
:1056CC00C4F20D031A68DFF84C7632431A6044F2C8
:1056DC005C03C4F20D031E6044F2DC03C4F20D0340
:1056EC00C3F8008044F2D803C4F20D031D6044F2E9
:1056FC0008131622C4F20D031A604BF22043C4F2B5
:10570C000D031A68DFF8108642F0C0021A604DF2E1
:10571C003003C4F200031A68C8F8044022F00102F6
:10572C001A604DF24402C4F2000211604DF23802CC
:10573C004DF22401C4F20002C4F2000115600860AD
:10574C004DF228013E20C4F2000108604DF22C01FC
:10575C003230C4F200010860302111601A68DFF8A1
:10576C00BC0542F4407222431A604DF20002C4F2AE
:10577C000002C8F800201A68DFF8A46522F0800245
:10578C001A6001F029F846F24E13C0F2BC033A93AA
:10579C0040F61633CFF670333B9349F290133278C0
:1057AC00C0F20F033C9349F210431203C4F20D03F1
:1057BC003C605394D3181A687168304622EA01028F
:1057CC001A60DFF8603532783361737853A903EBD4
:1057DC00C2034BF823602A4651AB05AC519504F03B
:1057EC00B3F8DFF8440500F0F7FF39682246DFF81C
:1057FC003C0502F0DFF82554204600F0EDFFDFF801
:10580C00300500F0E9FFDFF82C35DFF82C25716846
:10581C001360327849F210431203C4F20D03D3180B
:10582C001A6822EA01021A60D8F800304FF0FF32F1
:10583C005A64327849F210431203C4F20D03D318A0
:10584C0019687268DFF8F46441EA02021A60306881
:10585C00456835B16B681F2B1AD8102B18D0ED6822
:10586C00F7E702F05DF82F46DFF8D4940020002112
:10587C0089E803007860B96030684568002D00F055
:10588C000E826B68232B2CD8142B2AD0ED68F5E7ED
:10589C00103B6B60C368103BC3606B6883B90168D5
:1058AC00012900F0D980AA68002A00F0C980EF68AD
:1058BC0067B1D760EB689A600368013B03606B6863
:1058CC002A681021D718D1500437CDE70029F7D01A
:1058DC00826892688260D3600368013B03606B68E6
:1058EC00EEE7143B6B60C368143BC3606B68ABB9E9
:1058FC000168012900F0EE81AA68002A00F0DE811F
:10590C00D5F80CC0BCF1000F00F0CC81C2F80CC073
:10591C00EB689A600368013B03606B682A6814218A
:10592C00D518D150043540F200030022C4F2030311
:10593C0040F20C016B602A60C4F20301086820F08D
:10594C000100086042F20801C4F20D01086840F041
:10595C000100086042F20C01C4F20D01086840F02D
:10596C000100086042F21001C4F20D01086840F019
:10597C00010008601A6040F20403C4F20303022120
:10598C00196040F2280344F60001C4F20303C0F28C
:10599C00E81119606B689A63EA4B002B00F0908059
:1059AC006968886940F0010088616968C86840F0DE
:1059BC000100C860AA60E44AEB60C2F88C304EF279
:1059CC000013CEF200034FF400221A60DFF87CA320
:1059DC003D60DF48CAF8007000F0FEFE49AF232599
:1059EC00DAF800305A689B6813433AD1D94803F06F
:1059FC001FF9D8F8002002F118010B6813F02003EE
:105A0C00FBD11560D8F8002002F11801086810F0DD
:105A1C00200FFBD101334FF07E0C042BC2F800C0D9
:105A2C00F4D1CC4803F0FAF848F68050C0F25B0091
:105A3C00002149AA82E80300384603F0ABF8CFE70F
:105A4C0000293FF43DAF4268D2684260936003681E
:105A5C00013B03606B6833E74360836003606B68F2
:105A6C002EE7BD4800F0B8FEB84B00251B68AF48C8
:105A7C0003F1040206CA2346009501F0A7FF255442
:105A8C00204600F0A9FEB54800F0A6FE40F2985C56
:105A9C000A23C2F2000CCCF80030B14800F09CFE96
:105AAC003068B04B012244681A705095002C00F0FD
:105ABC0016816368272B10D8182B0ED0E468F5E7F5
:105ACC006A68916921F0010191616A68D16841F0BD
:105ADC000101D160AB60EB6078E7183B6360C36891
:105AEC00183BC360636893B90168012900F0068113
:105AFC00A268002A00F0F680E568002D00F0C38053
:105B0C00D560E3689A600368013B036063682268B0
:105B1C001821D418D150043402232370013363703C
:105B2C00053363604BF22003C4F20D03E3600022E3
:105B3C004BF220432261C4F20D031968042021F0BA
:105B4C00080119600123A3604BF20043C4F20D035A
:105B5C00196841F00801196021786378043103EB6E
:105B6C00C10144F20003C4F20D0343F82100217873
:105B7C0049F21C430903C4F20D03CB186168196088
:105B8C002178D4F804C00803C9000CFA01F149F2D9
:105B9C001873C4F20D03C318186820EA01011960C8
:105BAC0023695BB121786378204603EBC1034BF882
:105BBC00234050A94FAB4F9203F0C6FE579405AF4C
:105BCC001BAC00267E254CF6C07000214BAAC0F2FF
:105BDC006A0082E80300104602F0DCFF624800F025
:105BEC00FBFD99E80018DAF8003003F1040103C951
:105BFC001BEB00024CEB01030192029311465B4834
:105C0C001A463B46009601F0E1FE3E54384600F041
:105C1C00E3FD524800F0E0FD40F23003C2F2000315
:105C2C004FF00A0B0DF1E80CC3F8B0B04DA915AA52
:105C3C003DAB2046CDF800C0FEF7E4FC454802F031
:105C4C00F7FFD8F800C031460CF11802605C1368FD
:105C5C0013F02003FBD101311629CCF80000F5D14B
:105C6C00D8F8000000F118010A6812F0200FFBD1DF
:105C7C000133042B0560F7D1364802F0CFFF57A84B
:105C8C0000F024FF9FE700293FF441AF826892683F
:105C9C008260D3600368013B0360636837E701F0FF
:105CAC003FFE40E600293FF439AE8268926882607C
:105CBC00D3600368013B03606B682FE600293FF457
:105CCC002DAE4268D268426093600368013B03606A
:105CDC006B6823E64360836003606B681EE601F02B
:105CEC001FFE19E700293FF412AF4268D2684260E8
:105CFC0093600368013B0360636808E7436083605B
:105D0C000360636803E700BFC00300203C0200206F
:105D1C00FD5F2000A005002070050020E0AE2000F3
:105D2C00A4050020AD6220003CAF200098050020A7
:105D3C0048AF20003D602000940500201002002098
:105D4C00B8050020D15F200070040020C40500209D
:105D5C0068AF2000780500208CAF200024B3200011
:105D6C0020AF20001C020020A4AF2000E000002087
:105D7C002DE9F04F854B01229CB01A7000231A9329
:105D8C00834B186844682346002C00F0DA80626864
:105D9C00272A08D8182A06D0DB68002B00F0D180FF
:105DAC005A68272AF6D9183A5A60C268183AC2605B
:105DBC005A688AB90168012900F0E3809D68002DBA
:105DCC0000F0D280DC68002C00F0BF80EC60DA6858
:105DDC000139016095605A681B6818219C1899500C
:105DEC0004340223237001336370053363604BF278
:105DFC002003C4F20D03E36000224BF22043226126
:105E0C00C4F20D031968042021F008011960012364
:105E1C00A3604BF20043C4F20D03196841F0080172
:105E2C00196021786378043103EBC10144F200035B
:105E3C00C4F20D0343F82100217849F21C430903F5
:105E4C00C4F20D03CB18616819602178D4F804C032
:105E5C000803C9000CFA01F149F21873C4F20D03DE
:105E6C00C318186820EA01011960236963B16378CB
:105E7C002178204603EBC101464B199243F821408F
:105E8C001AA919AB03F060FD0AAE30461B9401F061
:105E9C003BFC1BAC684601F037FC204600F016FEBC
:105EAC000DF15C0B0DF150094FF0010A4FF0000899
:105EBC006FF07F4748F28042C0F21E020023584622
:105ECC001792189302F066FE204600F0FFFD4FF08B
:105EDC00010330464946ADF82C30ADF82E308DF824
:105EEC0030A08DF831800A9701F0ACFB9DF8523050
:105EFC009DF851201B0443EA02239DF8502068466C
:105F0C0013439DF8532043EA026300939DF85520F8
:105F1C009DF8543043EA0223ADF804309DF8572025
:105F2C009DF8563043EA0223ADF806309DF8583000
:105F3C008DF808309DF859308DF8093001F0FAFBD6
:105F4C00B8E701F0EDFC00244BE700293FF444AF27
:105F5C00D0F808C00139DCF808C00160C0F808C0EE
:105F6C00CCF80C205A6837E700293FF435AFD4F849
:105F7C000CC001390160C0F804C0CCF808205A6884
:105F8C002AE70260426082605A6825E71C02002002
:105F9C0010020020C003002040F28C53C2F2000318
:105FAC004DF804BD93E806004FF0010B11EB0B010B
:105FBC004FF0000C42EB0C0283E806005DF804BBCA
:105FCC00704700BF40F2B853C2F200034DF804BD55
:105FDC0093E806004FF0010B11EB0B014FF0000C96
:105FEC0042EB0C0283E806005DF804BB704700BF6F
:105FFC000D4B81B01B68ABB10C490A7892B998680B
:10600C00013098600092009B42F2F172C0F20902DA
:10601C00934205D8009B01330093009B9342F9D91E
:10602C0000230B7001B070473C02002038020020A6
:10603C0030B505464AF6A06081B00024C0F22000BD
:10604C008DF8034000F0C8FB284600F0C5FB0A237E
:10605C0068468DF800308DF8014000F0BDFB01B0B2
:10606C0030BD00BF2DE9F04F854D8EB0854802F054
:10607C00DFFD2A7849F210431203C4F20D03D31842
:10608C001A686968804C22EA01021A6022680023AF
:10609C008DF8083002F11803196811F0100FFBD1BC
:1060AC00196811F0100FFBD11168C9B20191196870
:1060BC0011F0100FFBD11168C9B20091196811F0E1
:1060CC001007FBD148F2A16A48F29F68DFF8BCB117
:1060DC003E460DF10809C0F2010AC0F20108196828
:1060EC00104611F0100F2CD00EA98E19002106F8B5
:1060FC00341C9DF80910002940F0B7809DF808C0A9
:10610C00BCF1230F53D00199009A614B01EB022093
:10611C001B6802A9984720684FF0FF3343642A7824
:10612C0049F210431203C4F20D03D31819686A68BC
:10613C00544841EA02021A6002F070FD0EB0BDE84C
:10614C00F08F282E8CBF00210121032FCCBF002102
:10615C0001F001010029C7D0196811F01001FBD121
:10616C001268D2B27E2A09F8062018BF0F461AD040
:10617C001A6812F0100F0ED00122196811F0100FCE
:10618C000ED001325245F8D14FF001018BF80410BA
:10619C00404800F021FB2268013602F118039EE70B
:1061AC004245F8DDF0E70137042FF4D0E0E7DFF8E3
:1061BC00E8C0019C009EDCF800C0DFF8E0E00CF1C8
:1061CC00080B9BE8000C04EB06299EE8C00016EBBC
:1061DC000A0647EB0B078C460CAC4FEACC01C1F11D
:1061EC00200AA1F1200E07FA0AFA36FA01F127FA71
:1061FC000EF84AEA010111EA2E0138BF414604F8B3
:10620C000C100CF1010CBCF1080FE6D1196811F05F
:10621C00200FFBD15FFA89F11160196811F0200F82
:10622C00FBD1C9F30729C2F80090196811F0200CB2
:10623C00FBD12321116014F80CE0196811F0200136
:10624C00FBD10CF1010CBCF1080FC2F800E0F2D14B
:10625C004FF07E0ED3F800C01CF0200FFAD10131A4
:10626C000429C2F800E0F5D156E7019B009E02A973
:10627C0003EB0620064B1B68984720684CE700BFD1
:10628C00A40500207805002070050020F0010020F6
:10629C0088050020A4AE2000C00500208C0500203D
:1062AC002DE9F04F57488AB002F0C2FC40F2A450DE
:1062BC00C2F20000027849F210431203C4F20D033B
:1062CC00D3181A684168DFF840A122EA0102DAF813
:1062DC0000101A6000238DF8003001F118021768C5
:1062EC0017F01007FBD148F2A16648F29F65DFF862
:1062FC001C913C46E8464FF0010BC0F20106C0F27F
:10630C0001051368084613F0100345D0043C0AA994
:10631C000A19002302F8283C9DF80020232A14BFF8
:10632C0000220122092C8CBF002402F00104002C55
:10633C0036D01A4600240025013218F80210994074
:10634C0008330C43082A45EAE175F5D1304B00219E
:10635C001B6800225C609D602E4B83E806004FF0AA
:10636C00FF33436440F2A453C2F200031A7849F29B
:10637C0010431203C4F20D0340F2A450D318C2F21E
:10638C000000196842681F4841EA02021A6002F0D4
:10639C0045FC0AB0BDE8F08F292C08D18DF82530CA
:1063AC001D4B68461B689847DAF80000D7E713685E
:1063BC0013F01003FBD10968C9B27E2908F8041048
:1063CC0018BF1F4619D0136813F0100F0CD00123FF
:1063DC00116811F0100F0DD00133B342F8D10F48F2
:1063EC0089F804B000F0F8F9DAF80010013401F182
:1063FC00180286E7AB42F7DDF1E70137032FF3DC38
:10640C00E1E700BF7805002070050020F0010020B6
:10641C00C4050020B805002094050020A4AE20007F
:10642C0030B501F019FCB3494B68002B00F04B81DF
:10643C005A6846F20300824209D8B2F5C04F06D022
:10644C00DB68002B00F03F815A688242F5D9A2F537
:10645C00C0425A60CA68A748A2F5C042CA605A68CE
:10646C0092B90468012C00F0E3809968002900F0CF
:10647C001281DD68002D00F01A81CD60DA68916020
:10648C000268013A02605A681968DFF86CC200238E
:10649C008C18CCF80030CCF80430CCF80830CCF8A0
:1064AC000C304BD04FF4C0408C506060A360E36064
:1064BC00DCF80C301B18CCF80C30DCF8043051F83C
:1064CC0002E06068002B00F094801D687044A842C4
:1064DC000CBF1A461A4604D0D26812B11168884211
:1064EC00FAD159686D18AE4507D0DB68002B7FD008
:1064FC001868596841188E45F7D119461346C3B12F
:10650C0060685A6882186260DCF80000012800F0AC
:10651C0087809A68002A00F09080DD68002D00F0DA
:10652C009B80D560DB689A60DCF80030013BCCF8CE
:10653C00003019B14A686368D3184B606F4BC3F8CD
:10654C0000C001F017FD01F091FE6D4B93E8300097
:10655C0043F24803C4F20303186849F20043C4F23F
:10656C000D031A6822F020021A6044F29403C4F25C
:10657C000D0301221A6047F20803B522C4F20D0381
:10658C001A6047F20002C4F20D02136813F0800F78
:10659C00FBD047F21003C4F20D03D3F800C047F24E
:1065AC000C03C4F20D031B68002144F66D6243EA30
:1065BC000C2CC4F2C6120B1803FB02F303F5405368
:1065CC003933B3F1FF3F28BF01334E4A4CF30B1C58
:1065DC008CEA030313604C4A012092E81800002156
:1065EC001B1844EB0104012B82E8180011D030BDBC
:1065FC001346DCF8001000293DD1A160E160DCF805
:10660C000020CCF804400132CCF80840CCF8002033
:10661C0075E7002CEBD13D4A146054609460E6E7BA
:10662C000023CCF80430CCF80830CCF8003080E7EC
:10663C004260826002605A6826E700283FF479AF16
:10664C00DCF80430DB68CCF804309A60DCF80030FD
:10665C00013BCCF800306CE700283FF46AAFDCF863
:10666C0008309B68CCF80830DD60DCF80030013B6A
:10667C00CCF800305DE7DCF808200021D460DCF8B1
:10668C000820E160A260DCF80020CCF80840013260
:10669C00CCF8002033E7002C3FF4F6AE4168C96813
:1066AC0041608A600268013A02605A68ECE6002C8C
:1066BC003FF4EAAE816889688160CA600268013A79
:1066CC0002605A68E0E6124C01232371114800F075
:1066DC0083F8114800F080F8DFF81CC00A2323600F
:1066EC000023CCF80030CCF80430CCF80830CCF8CF
:1066FC000C3023E7EC0E00200002002010020020DA
:10670C00FC0E002040020020080000201000002099
:10671C00F0010020ACAF200024B3200010B501F034
:10672C0095FB104A002313600F4A0A2113600F4A8D
:10673C000120137111600E4A116013710D4A002172
:10674C0092E818001B1844EB0104012B82E8180096
:10675C0000D010BD002CFCD1074A1460546094602A
:10676C00F7E700BF8803002084030020F801002015
:10677C00F001002008000020100000200C4B00222B
:10678C001A605A600B4A0120002110B492E81800DC
:10679C001B1844EB0104012B82E8180001D010BC3B
:1067AC007047002CFBD1044A146054609460F6E7E7
:1067BC0014020020080000201000002000B5004644
:1067CC0002F0FEFE00BD00BF00B502F0F9FE00BDF8
:1067DC0000B503F07FFB00BD2DE9F0450025074611
:1067EC007C5D1C4EAA46DFF8708084B1092C29D040
:1067FC000A2C18D0336820460133336003F034FC84
:10680C0033684F2B05DC01357C5D002CEED1BDE8E7
:10681C00F0850D2003F028FC0A2003F025FC01353F
:10682C00C6F800A0F0E70D2003F01EFC204603F094
:10683C001BFCD8F80030C6F800A00133C8F80030B3
:10684C000135E1E7204603F00FFC336801350833CE
:10685C003360D9E7840300208803002010B54AF682
:10686C00C47040F2F0140123C2F20004C0F2200004
:10687C002371FFF7B1FF4BF22430C0F22000FFF779
:10688C00ABFF0A23236010BD0A4A0120002110B47B
:10689C0092E818001B1844EB0104012B82E8180045
:1068AC0001D010BC7047002CFBD1034A146054601B
:1068BC009460F6E7080000201000002030B590B07E
:1068CC006A46044601F076F810AB1818002300F85D
:1068DC00403C6846FFF780FF6D46204610B030BD47
:1068EC0000B5344B83B01B78D3B90A2201928DF8D2
:1068FC0008300E2814D8DFE800F05A56524E4236B3
:10690C0034302C082824201915002B480091FFF74F
:10691C0063FF01A80099FFF7D1FF2848FFF75CFF40
:10692C0003B000BD2648FFF757FFF9E701A8FFF7B2
:10693C00C5FF2448FFF750FFF2E72348FFF74CFF51
:10694C00EEE72248FFF748FFEAE72148FFF744FF4C
:10695C00E6E72048FFF740FFE2E71F48FFF73CFF60
:10696C00DEE71E48D2E71E480091FFF735FF01A86D
:10697C000099FFF7A3FF1B48FFF72EFFD0E71A483B
:10698C000091FFF729FF01A80099FFF797FF17481F
:10699C00FFF722FFC4E71648FFF71EFFC0E71548B4
:1069AC00FFF71AFFBCE71448FFF716FFB8E71348C8
:1069BC00ACE700BF1C02002010B0200024B3200064
:1069CC0014B22000E0B12000B8B1200088B1200042
:1069DC0060B1200048B1200020B0200034B120006C
:1069EC00F4B02000F8B02000C8B02000CCB02000DB
:1069FC00B0B0200074B0200034B02000F0AF200004
:106A0C002DE9F04F044684B00D46904600295AD02B
:106A1C0000273E460DF10809EA46BB4618E0DB6844
:106A2C00FF221A604846CDF80880039702F0B2F8AE
:106A3C0023689A68022A2BD0DB686846C3F800B03A
:106A4C000136CDF80080019702F0A4F8B5423AD98E
:106A5C0023689A68022AE2D1197849F200420903A4
:106A6C00C4F20D028A1810685968DB68084310607C
:106A7C00FF2018601368484623EA01011160CDF825
:106A8C000880039702F086F823689A68022AD3D10B
:106A9C00197849F200420903C4F20D028A181068F1
:106AAC005968DB6808431060C3F800B01368684687
:106ABC0023EA010111600136CDF80080019702F044
:106ACC0069F8B542C4D804B0BDE8F08F094B00B5E5
:106ADC001B783BB149F2E0320321C0F20402FFF70C
:106AEC008FFF00BD48F2A0621E21C0F20102FFF729
:106AFC0087FFF6E71C02002030B5054690B040F247
:106B0C00F0106A46C2F2000000F0C2FF10AB181879
:106B1C00002300F8403C6846FFF75EFE6C462846B2
:106B2C0010B030BD30B590B06A460023044600F07A
:106B3C00FBFE10AB1818002300F8403C6846FFF72A
:106B4C004BFE6D46204610B030BD00BF10B507207F
:106B5C0082B00021FFF7C4FE48F2804302A8C0F2C5
:106B6C001E03002420E91800684602F013F80120E7
:106B7C0002B010BD10B544F2402282B00446C0F2FF
:106B8C000F0202A8002320E90C00684602F002F86C
:106B9C002046FFF7DBFF10B1024B01221A700020D8
:106BAC0002B010BD1D02002010B5016042604BF216
:106BBC00642090B0C0F22000FFF70EFE40F22023BC
:106BCC00C2F2000340F2F81059696A46C2F20000A2
:106BDC0000F0F0FE10AB1818002300F8403C68469B
:106BEC00FFF7FAFD4BF22430C0F220006C46FFF7A1
:106BFC00F3FD10B010BD00BF2DE9F04F4FF2FF7345
:106C0C0000F514180546C0F2270308F1180090B0DF
:106C1C0098420391089000F2858118F0030F40F020
:106C2C00A581089905F5A025A1F50013013BED0AF6
:106C3C00DB0A9D420795099300F26E8105F580638E
:106C4C005A1CD202DB4C069205F50062A218DB023C
:106C5C0043F2080A05920293C4F20D0A40F2FF7641
:106C6C00089B0698DDF814C0834294BFC8EB03035D
:106C7C00C8EB0003079A01939CF800300132072BF4
:106C8C00079200F2B1800198032840F242810399E7
:106C9C00D8F800200B681A40934240F0A580039866
:106CAC00019A4346C8EB000C06E05CF80310186828
:106CBC000840814240F09880043A0433032AF4D807
:106CCC001B680C93BAB1DDF80CC09DF830109CF821
:106CDC0000300CAD01EA0303994240F0858000239B
:106CEC0006E0E95C1CF8030001EA000081427BD15C
:106CFC0001339342F5D358231B680D93DAF8003017
:106D0C0013F0800FFAD1019911F0030902BF01EBC6
:106D1C0008020B928B4630D1BBF1000F13D0002729
:106D2C0008F104010097C146CDF810B00A91039AFE
:106D3C0000980D9B02EB800528464946049A98471B
:106D4C0008B95F4536D3DDF82C800599069A0B7887
:106D5C000998013301F8013B0591029B079902F553
:106D6C00006203F50063884206920293C0F0D4805F
:106D7C00039A019BD218039272E7019B10AD434416
:106D8C00C9EB03070B933B68039945F8103D284664
:106D9C004A4600F0ADFE0D9B284639464A469847B8
:106DAC000028D0D13A680C9B9A42F4D1019820F07B
:106DBC00030BB1E7D9F800302A689A42B7D10A9987
:106DCC00CB190437BB45BED9DDF80CC0BA0853F853
:106DDC00041B5CF822008842F3D0C7EB0B00009236
:106DEC0007EB08090490A2E70299414503D1089AE0
:106DFC00069B9A4212D0029A002352F8041B40F2CE
:106E0C00FC70E15004338342F7D1029940F2C8522E
:106E1C00D1F8FC37C2F20002C2F8FC3754231B68CD
:106E2C000D93DAF8005015F08005FAD1029F4FF45B
:106E3C00006907F1040B0D9B38464946984708B981
:106E4C00B5422DD90299DDF814C0C1EB080000231E
:106E5C0020F003008CF8003020180399019A00F000
:106E6C0047FE58231B680D93DAF8007017F0800763
:106E7C00FAD1DDF808904FF400624B460433BB4660
:106E8C00009204934FEA8B050D9B60194946009ABA
:106E9C00984700283AD1B74216D90199884454E74B
:106EAC003B68B3F1FF3F08BF0BEB0503C3D10435BF
:106EBC00B542C7D853F8042BB2F1FF3FF7D0029B71
:106ECC00C5F500695F19B6E7D9F8003062599A42E6
:106EDC00D8D1049AD3190437B74217D84FEA970B75
:106EEC0053F8042B54F82B109142F4D0029BC7F5A5
:106EFC00006C03EB0709CDF800C04FEA8B050D9B26
:106F0C0060194946009A98470028C4D001988044DB
:106F1C001BE7019A4346D3E6A8F51415284610B092
:106F2C00BDE8F08F244C012323712448FFF754FC57
:106F3C001023236041462046FFF7F4FD2048FFF75D
:106F4C004BFC03990EA8FFF7D7FD0A261D48FFF747
:106F5C0043FC182126602046FFF7E4FD1A48FFF792
:106F6C003BFC1A48FFF738FC2660D7E7124C01238C
:106F7C0023711248FFF730FC102323604146204652
:106F8C00FFF7D0FD0E48FFF727FC03990FA8FFF77A
:106F9C00B3FD0A260B48FFF71FFC1821266020467C
:106FAC00FFF7C0FD0A48FFF717FC0848FFF714FC71
:106FBC002660B3E7C8050020F001002074B2200061
:106FCC0094B2200098B220009CB2200024B3200080
:106FDC00DCB2200030B5002387B004461A488DF887
:106FEC001B30FFF7F9FB6068694600F079FB6068BD
:106FFC00164C00F09FFB626941F254539A426D4665
:10700C001ED02169521840F261019008C6F20601A7
:10701C00A1FB00C1490A03FB112303EB4303D80076
:10702C0000F5003069461830FFF7E6FD63694FF450
:10703C000030013363612146FFF7DEFD07B030BD40
:10704C000348FFF7C9FBF9E714B320002002002026
:10705C0028B3200000B540F2202C4BF24C33C2F286
:10706C00000CC0F220030FCB8CE80F00002361460C
:10707C004FF40030CCF81030CCF81430FFF7BCFDD6
:10708C0000BD00BF10B5DFF884C00023CCF8103071
:10709C00CCF814301E4BE6460FCB8CE80F0040F2B8
:1070AC0014004FF41C13C0F2270019680CEB0302F8
:1070BC000433A2F51C128342144C1160F5D11B68E9
:1070CC001348CEF81430214600F05EFDA0B92269B9
:1070DC0041F254539A420FD862699A420CD80D4A25
:1070EC00012092E8180000211B1844EB0104012B2D
:1070FC0082E8180003D010BDFFF7ACFFEFE7002CBF
:10710C00F9D1054A146054609460F4E72002002021
:10711C004CB3200008000020100000202DE9F04F97
:10712C00DFF8BC84A1B0D8F814304FF0000B00AFDE
:10713C004FF00A095B45C7F8749087F878B040F3B4
:10714C002F81C7F808D0ADF5727D282BA8BF282356
:10715C00DFF89014052268467B6100F0C9FC796960
:10716C006E46594540F31A8140F26103721DC6F216
:10717C000603FA606D464FF0050C07F1740A07F12F
:10718C0034043B61BBF1000F40F00F81D8F8143090
:10719C00002B40F0DC814FF000090422314607F14E
:1071AC007C00C7F800C000F019FD87F88090F179D9
:1071BC00B379090441EA03217379B27A1943337A1A
:1071CC00DFF8240441EA0361737A43EA0223BB61CA
:1071DC00327BF37A43EA0223FB61737B3B62B27B23
:1071EC007A62737C327C1B0443EA0223F27B1343E6
:1071FC00B27C43EA0262BA62737D327D1B0443EABD
:10720C000223F27C1343B27D43EA0262FA62737E7C
:10721C00327E1B0443EA0223F27D1343B27E796073
:10722C0043EA02623A63FFF7D7FA07F17C00FFF7F3
:10723C00D3FAEE48FFF7D0FA796822464B4650460F
:10724C0000F072FB07F18403181800F8509C2046DC
:10725C00FFF7C2FAE648FFF7BFFA22464B46B96978
:10726C00504600F061FB07F18401081800F8509CAF
:10727C002046FFF7B1FADF48FFF7AEFAF9694B4643
:10728C002246504600F050FB07F18402101800F81B
:10729C00509C2046FFF7A0FAD748FFF79DFA396AB1
:1072AC0022464B46504600F03FFB07F1840318186A
:1072BC0000F8509C2046FFF78FFAD048FFF78CFA65
:1072CC004B462246796A504600F02EFB07F18401AA
:1072DC00081800F8509C2046FFF77EFAC848FFF7C4
:1072EC007BFAB96A2246504600F064FB07F184022F
:1072FC00101800F8509C2046FFF76EFAC148FFF7B3
:10730C006BFAF96A2246504600F054FB07F18403ED
:10731C00181800F8509C2046FFF75EFAB948FFF7A2
:10732C005BFA2246396B504600F044FB07F18401AE
:10733C00081800F8509C2046FFF74EFAB248FFF7A9
:10734C004BFA0A22D7F800C07A6779690BF1010B66
:10735C0016358B450CF1160CFFF614AF40F2610597
:10736C000024C6F2060541F254568A46D8F810306D
:10737C004FF4003001339A08A5FB0212520A06FBA7
:10738C001233C8F81030D8F814309549013B013449
:10739C00C8F81430FFF730FC5445E7DBD7F808D0B9
:1073AC0007F18407BD46BDE8F08FD8F814305B4573
:1073BC0000F2F08095F80790AB794FEA094949EA59
:1073CC0003296B79AA7A49EA03092B7A8F4849EA8F
:1073DC0003696B7A43EA0223BB612A7BEB7A43EAAB
:1073EC000223FB616A7B3A62AB7B7B626B7C2A7CFF
:1073FC001B0443EA0223EA7B1343AA7C43EA02629E
:10740C00BA626B7D2A7D1B0443EA0223EA7C134398
:10741C00AA7D43EA0262FA626B7E2A7E1B0443EA6F
:10742C000223EA7D1343AA7EC7F800C043EA026236
:10743C003A63FFF7D1F9002322464946504600F043
:10744C0073FA07F184014FF00009081800F8509CFA
:10745C002046FFF7C1F96648FFF7BEF9B9694B46FC
:10746C002246504600F060FA07F18402101800F82A
:10747C00509C2046FFF7B0F95E48FFF7ADF9F9696B
:10748C0022464B46504600F04FFA07F18403181879
:10749C0000F8509C2046FFF79FF95748FFF79CF9DE
:1074AC0022464B46396A504600F03EFA07F18401F9
:1074BC00081800F8509C2046FFF78EF94F48FFF74C
:1074CC008BF94B46796A2246504600F02DFA07F1AB
:1074DC008402101800F8509C2046FFF77DF94848AC
:1074EC00FFF77AF9B96A2246504600F063FA07F1C1
:1074FC008403181800F8509C2046FFF76DF941489A
:10750C00FFF76AF92246F96A504600F053FA07F180
:10751C008401081800F8509C2046FFF75DF93948A3
:10752C00FFF75AF9396B2246504600F043FA07F13F
:10753C008402101800F8509C2046FFF74DF9324891
:10754C00FFF74AF90A237B67D7F800C0FDE640F243
:10755C002021C2F200010B693A699808A2FB0020B5
:10756C0041F25451400A01FB103000EB4000C000C6
:10757C0000F51C101830D7F80CE002465B4652F8A8
:10758C00041B4EF803100433142BF8D14369FA682A
:10759C00536100E640F22021C2F200010B69396907
:1075AC005B449A08A1FB021241F25451520A01FBAE
:1075BC00123303EB43034FEAC30E0EF51C1E0EF100
:1075CC00180E06EB0C007246002352F8041BC15037
:1075DC000433142BF9D1DEF814304361EAE600BF12
:1075EC00200200205CB3200064B3200074B32000A0
:1075FC0084B3200090B3200098B32000A0B32000E7
:10760C00ACB32000B8B3200024B32000BCB32000DE
:10761C000A4A0120002110B492E818001B1844EB10
:10762C000104012B82E8180001D010BC7047002C1B
:10763C00FBD1034A146054609460F6E70800002004
:10764C00100000202DE9F04F00F1180B044682B019
:10765C0058460D4601F03AFB6189A789268A41EA12
:10766C000747E189227A637AD4F80080B4F8049051
:10767C00B4F806A041EA0646618AA48A584641EA53
:10768C0004440092019301F00DFB019B009A2846E3
:10769C00002128FA01FC80F800C047FA01FC80F8B0
:1076AC000AC046FA01FC80F80EC044FA01FC08310D
:1076BC0080F812C001302029EBD185F8049085F8B0
:1076CC0006A04FEA19294FEA1A2A85F8059085F881
:1076DC0007A02A726B72162002B0BDE8F08F00BFB3
:1076EC00F0B500F118050F4606461624284601F0A1
:1076FC00EDFA31462246384600F0FAF9284601F0F8
:10770C00D1FA2046F0BD00BF10B50121044600F1AE
:10771C00180001F0A7FA0022234643F8042B043387
:10772C00626043F8042B43F8042B43F8042B1A80B3
:10773C0010BD00BF2DE9F04706464BF224384BF242
:10774C00CC3092B000254FF00A0AC0F22008C0F2EB
:10775C002000CDF840A08DF84450FFF73DF840468E
:10776C0012AFFFF739F84BF2D83047F808ADC0F23A
:10777C002000FFF731F8B1886A462B46384600F0F6
:10778C00D3F812AB181800F8485C6846FFF724F8D9
:10779C004046FFF721F84BF2E030C0F22000CDF864
:1077AC0040A0FFF719F8F1886A462B46384600F0DE
:1077BC00BBF812AB181800F8485C6846FFF70CF8D9
:1077CC004046FFF709F84BF2E830C0F22000CDF844
:1077DC0040A0FFF701F8317A6A462B46384600F094
:1077EC00A3F812AB181800F8485C6846FEF7F4FFD3
:1077FC004046FEF7F1FF4BF2F030C0F22000CDF81E
:10780C0040A0FEF7E9FF717A6A462B46384600F035
:10781C008BF812AB181800F8485C6846FEF7DCFFD2
:10782C004046FEF7D9FF4BF2F830C0F22000CDF8FD
:10783C0040A0FEF7D1FF31686A462B46384600F06F
:10784C0073F812AB181800F8485C6846FEF7C4FFD2
:10785C004046FEF7C1FF4BF20440C0F22000CDF8C9
:10786C0040A0FEF7B9FF7389B1896A4643EA01412A
:10787C00384600F09FF812AB18184BF2B83900F8E4
:10788C00485CC0F220096846FEF7A6FF4846FEF7A2
:10789C00A3FFF389318A6A4643EA0141384600F076
:1078AC0089F812AB181800F8485C6846FEF794FF8C
:1078BC004846FEF791FF738AB18A6A4643EA014152
:1078CC00384600F077F812AB181800F8485C684698
:1078DC00FEF782FF4046FEF77FFF40466C46CDF830
:1078EC0040A0FEF779FF12B0BDE8F0870A4A0120EC
:1078FC00002110B492E818001B1844EB0104012B72
:10790C0082E8180001D010BC7047002CFBD1034A50
:10791C00146054609460F6E708000020100000200A
:10792C0000B5FEF755FF00BD70B400293BD0B1F592
:10793C00807F1BD9D0F800C0BCF1080F14BF002405
:10794C000124BCF1100F08BF44F0010484B14FF0C6
:10795C00300C02F803C0D0F800C00133BCF1100F9A
:10796C0006D14FF0780C02F803C00133D0F800C0F8
:10797C000C465D1CB4FBFCF41E462B46002CF8D1C7
:10798C000B4C9219B1FBFCF30CFB131C14F80C30D0
:10799C0002F80139D0F800C0B1FBFCF10029F1D19B
:1079AC00284670BC70473021D154581CF9E700BFF1
:1079BC000CB42000002900B503DB0023FFF7B4FF53
:1079CC0000BD2D23137049420123F7E72DE9F04F39
:1079DC00144651EA040281460D469B46099E4BD043
:1079EC00002C4ED0D9F80070082F14BF00230123AF
:1079FC00102F08BF43F001036BB130230BF8063096
:107A0C00D9F800700136102F05D178230BF8063009
:107A1C000136D9F800703F464FEAE77828462146F0
:107A2C003A46434602F0FEFD06F1010A50EA010215
:107A3C0033465646F4D10BEB0306DFF850B03A460A
:107A4C0043462846214602F099FF1BF80030214698
:107A5C0006F80139D9F8007028463F464FEAE77816
:107A6C0043463A4602F0DEFD50EA010305460C4659
:107A7C00E5D15046BDE8F08F30230BF80630701C72
:107A8C00F8E7B1F5807FADD8C3E700BF0CB4200098
:107A9C00302310B41370084C78235370072301F073
:107AAC000F0C14F80CC0D0180909013B80F802C067
:107ABC00F5D20A2010BC70470CB420000A4A0120F1
:107ACC00002110B492E818001B1844EB0104012BA0
:107ADC0082E8180001D010BC7047002CFBD1034A7F
:107AEC00146054609460F6E7080000201000002039
:107AFC000F2A30B405460C4642D941EA000313F074
:107B0C00030F02BF14468C46034609D0002314F819
:107B1C0003C005F803C001339A42F8D130BC70475A
:107B2C00DCF80050103C1D60DCF804505D60DCF8A3
:107B3C0008509D60DCF80C500CF1100CDD6010331B
:107B4C000F2CEDD8A2F1100404F00F0224F00F0456
:107B5C00103405190C19032A12D9002354F803C048
:107B6C0045F803C00433C3EB020CBCF1030FF5D88A
:107B7C00043A22F003030433ED18E41802F0030274
:107B8C00002AC3D1CAE700BF41EA000313F0030F78
:107B9C0003D103680A6893420CD002789AB10B782F
:107BAC009A4212D0D01A704750F8043F51F8042F63
:107BBC009342F2D1A3F1013222EA030313F0803F86
:107BCC00F2D00020EFE70B78ECE742780131002A85
:107BDC00F9D00B7801309A42E4D1F6E741EA000380
:107BEC0013F0030F14BF00230123032A94BF0023B7
:107BFC0003F0010310B4002B2CD00346D1F800C0C5
:107C0C00ACF1013424EA0C0414F0803F1BD0C2B157
:107C1C000C789C46013A0CF8014B54B1023382B1FA
:107C2C0011F8014F9C4603F8014C013A0133002C2A
:107C3C00F5D132B1002319460CF8031001339A42E6
:107C4C00FAD110BC7047043A0431032A43F804CB30
:107C5C00DDD9D3E70346DAE700B500F003F800F00E
:107C6C0095F800BDDFF81CC147F2F832C2F20002F1
:107C7C00CCEB020270B4002A4AD00023424DCCF85F
:107C8C0000C0CCF80420CCF80830CCF80C30EB68F1
:107C9C006446D318EB606B68002B3CD01E680CEB71
:107CAC008200B0420CBF1A461A4604D0D26812B1F8
:107CBC0011688842FAD1596806EB8106B44208D0A3
:107CCC00DB68002B26D05868196801EB80018C42C8
:107CDC00F6D119461346ABB1DCF804005A68821889
:107CEC00CCF804202C68284A012C23D09868002852
:107CFC0025D0DD68002D3AD0C560DB68986013682C
:107D0C00013B136021B14A68DCF80430D3184B6096
:107D1C0070BC704713462A681B48D2B90121CCF8B5
:107D2C000820CCF80C200160C0F804C0C0F808C0D2
:107D3C001146D0E70023536093601360E2E7002CF8
:107D4C00E0D05368DB68536098601368013B1360A4
:107D5C00D8E781680132C1F80CC08168CCF80810F2
:107D6C000021CCF80C10C0F808C00260B3E7002C5E
:107D7C00C8D093689B689360DD601368013B136007
:107D8C00C0E700BF040F0020EC0E002043F20C03F0
:107D9C00C4F203031A68122022F001021A6042F2A4
:107DAC000802C4F20D02116841F00801116042F2A0
:107DBC000C02C4F20D02116841F00801116042F28C
:107DCC001002C4F20D02116841F00801116043F277
:107DDC0000020021C4F20302116043F20402C4F257
:107DEC000302106043F22802C4F203024FF0FF308A
:107DFC00106043F23802C4F20302116043F218021D
:107E0C00C4F20302116841F0010111601A6842F0DA
:107E1C0001021A60704700BF0A4A0120002110B409
:107E2C0092E818001B1844EB0104012B82E818009F
:107E3C0001D010BC7047002CFBD1034A1460546075
:107E4C009460F6E708000020100000204CF220435C
:107E5C00C4F20D031A6822F0C0021A604CF20043FF
:107E6C00C4F20D031A6822F0C0021A6044F2F8033F
:107E7C000122C4F20D031A6044F2FC03C4F20D0398
:107E8C001A6042F20002C4F20D0211684FF6F87348
:107E9C00CFF6DC6301EA030343F4081342F2040156
:107EAC001360C4F20D010A6840F20003C0F2011322
:107EBC0002EA0303002BF6D142F20003C4F20D03D5
:107ECC001A6822F4E0621A6042F20402C4F20D0253
:107EDC00136813F0806FFBD0704700BF4EF614533D
:107EEC00CEF200031A6842F001021A6042F29803C3
:107EFC00C4F20D031A6842F001021A604EF60853E0
:107F0C00CEF200034FF401121A6070470A4A0120A6
:107F1C00002110B492E818001B1844EB0104012B4B
:107F2C0082E8180001D010BC7047002CFBD1034A2A
:107F3C00146054609460F6E70800002010000020E4
:107F4C000A4A0120002110B492E818001B1844EBD7
:107F5C000104012B82E8180001D010BC7047002CE2
:107F6C00FBD1034A146054609460F6E708000020CB
:107F7C001000002000B5FFF7B1FF00F077FB00F018
:107F8C002DF800F0C9F800F003F800F0ABF900BDD3
:107F9C00044B082203F5807183F8002801338B42CF
:107FAC00FAD17047C80500200A4A0120002110B4FC
:107FBC0092E818001B1844EB0104012B82E818000E
:107FCC0001D010BC7047002CFBD1034A14605460E4
:107FDC009460F6E708000020100000204EF2100319
:107FEC004EF21802CEF200030021CEF2000219600C
:107FFC0011604EF21402CEF200024FF4FA411160FD
:10800C0006221A6049F6A17140F27042C2F20002D7
:10801C00C0F22001D1631A6842F001021A60704765
:10802C000A4A0120002110B492E818001B1844EBF6
:10803C000104012B82E8180001D010BC7047002C01
:10804C00FBD1034A146054609460F6E708000020EA
:10805C001000002040F24A230022C2F200031A70E2
:10806C0040F24923C2F200031A7040F24423C2F2D8
:10807C0000030221196040F6DC63C2F200031A60AF
:10808C0040F6E863C2F2000349F2380C1A60C4F2FD
:10809C00080C032349F2400049F24C01CCF80030A3
:1080AC0030B4C4F208000424C4F2080149F24403B9
:1080BC000460C4F208030A601D6845F040051D60A9
:1080CC001D6845F008051D601D6845F008051D601C
:1080DC002023CCF8004002600B6049F25003C4F23C
:1080EC0008031A6842F080021A601A6842F0100203
:1080FC001A6049F21C03C4F2080301221A6049F207
:10810C002403C4F208031A6049F22C03C4F20803D6
:10811C001C6030BC704700BF4BF22043C4F20D030F
:10812C001A682DE9F04822F004021A604BF2004361
:10813C00C4F20D031A6842F004021A604BF21003E9
:10814C00C4F20D03FF221A6049F23C02C4F2080289
:10815C00136843F001031360136843F002031360C8
:10816C00136813F0800FFBD049F20403C4F2080328
:10817C001A6822F001021A60FFF76CFF1D4B0122F6
:10818C001A601D4A1D4BC3F8F0204EF20413CEF2B8
:10819C0000034FF480521A60EFF31087FFB207B15F
:1081AC0062B6174843F24806C4F2030690E800187A
:1081BC00316800225B4612EB010B49F20002C0F25F
:1081CC00D03243F1000C00231BEB020B4CEB030CE5
:1081DC0090E80C00316800241546621845F1000344
:1081EC009C45F5D801D19345F2D807B162B6BDE8EC
:1081FC00F08800BF440200200DA220007004002073
:10820C00FC0E00200A4A0120002110B492E818004C
:10821C001B1844EB0104012B82E8180001D010BCA0
:10822C007047002CFBD1034A146054609460F6E74D
:10823C0008000020100000200A4A0120002110B480
:10824C0092E818001B1844EB0104012B82E818007B
:10825C0001D010BC7047002CFBD1034A1460546051
:10826C009460F6E7080000201000002000B500F034
:10827C0089FA00F001F800BD704700BF0A4A0120DE
:10828C00002110B492E818001B1844EB0104012BD8
:10829C0082E8180001D010BC7047002CFBD1034AB7
:1082AC00146054609460F6E7080000201000002071
:1082BC000A4A0120002110B492E818001B1844EB64
:1082CC000104012B82E8180001D010BC7047002C6F
:1082DC00FBD1034A146054609460F6E70800002058
:1082EC001000002070B582B0944D002328680193D3
:1082FC0041680B46002900F01C814A68272A08D8DF
:10830C00182A06D0DB68002B00F013815A68272A44
:10831C00F6D9183A5A60C268183AC2605A688AB9D3
:10832C000468012C00F0B3809E68002E00F0D5800C
:10833C00D968002900F0E480F160DA68013C04603F
:10834C0096605A681B6818219C18995004340323B2
:10835C006370082363604AF22003C4F20D03E360E8
:10836C00012100224AF2204321702261C4F20D0344
:10837C00186820F0080018604AF20043A160C4F2AB
:10838C000D031968042041F0080119602178637805
:10839C00043103EBC10144F20003C4F20D0343F8B2
:1083AC002100217849F21C430903C4F20D03CB18B8
:1083BC00616819602178D4F804C00803C9000CFA6C
:1083CC0001F149F21873C4F20D03C318186820EABE
:1083DC0001011960236963B163782178204603EBAE
:1083EC00C101574B009243F8214001A96B4601F0A3
:1083FC00ABFA544EF460286841680B46002900F033
:10840C0094804A681F2A08D8102A06D0DB68002BF3
:10841C0000F08B805A681F2AF6D9103A5A60C2684D
:10842C00103AC2605A6872B90468012C34D09D6845
:10843C00002D5CD0D96800296DD0E960DA68013C68
:10844C00046095605A681B681020991898500A1D92
:10845C0005231360022353600323936049F2004306
:10846C00C4F20D03196821F02001196044F2940341
:10847C00C4F20D0301211960334BDA60F3689A687A
:10848C00022A0ED0DB6800221A6002B070BD0260B6
:10849C00426082605A6855E70260426082605A68A6
:1084AC00D1E7197849F200420903C4F20D028A1887
:1084BC001068596840EA01011160DA680021116006
:1084CC00197849F200420903C4F20D028A181168A6
:1084DC005B6821EA03031360D7E7002C3FF432AF4B
:1084EC00C968013C046041608A605A682AE7002C24
:1084FC00A9D0C968013C046041608A605A68A2E74F
:10850C00002C3FF41FAF8168013C896804608160D6
:10851C00CA605A6816E7002C95D08168013C8968BE
:10852C0004608160CA605A688DE7FFF7F9F9002290
:10853C008EE7FFF7F5F9002409E700BF10020020D1
:10854C00C0030020400400206004002040F6FC63BF
:10855C00C2F200034DF804BD93E806004FF0010B86
:10856C0011EB0B014FF0000C42EB0C0283E8060000
:10857C005DF804BB704700BF49F21803C4F208034E
:10858C001A6840F6D063C2F20003196841EA02028D
:10859C001A6049F20803C4F208031A6840F6D4635F
:1085AC00C2F20003196841EA02021A6049F2100390
:1085BC00C4F208031A6840F6D863C2F200031968C3
:1085CC0041EA02021A60704748F60C0340F2BC32D2
:1085DC00C4F20803C2F200021968106840EA0101F3
:1085EC00116000221A604EF28013CEF200034FF09D
:1085FC0080621A604EF28023CEF200031A6070473C
:10860C004EF28413CEF2000302221A604EF284233F
:10861C00CEF200031A6070470368232B0DD0252B74
:10862C0013D0272B19D0332B01BF43F22403C4F2F0
:10863C0003034FF0FF321A60704740F22403C4F278
:10864C0003034FF0FF321A60F6E741F22403C4F241
:10865C0003034FF0FF321A60EEE742F22403C4F238
:10866C0003034FF0FF321A60E6E700BF72B64EF21A
:10867C0080134FF0FF32CEF200031A604EF28413D7
:10868C00CEF200031A601B491B4A0023CA50043364
:10869C00B3F5807FFAD10023DFF860C018464CF8A0
:1086AC0003000433B3F5807F144AF8D1144BC2F89D
:1086BC008C30C2F89430C2F89C30C2F8CC30114BDC
:1086CC00C2F8A830104BC2F8C430104BC2F8F030CE
:1086DC000F4B136453649364D3640E4B0822CB602A
:1086EC000D4BC1F8CC304EF20413CEF200031A60DD
:1086FC00704700BF70040020359C20004C02002005
:10870C00258620000D862000D5852000858520003B
:10871C00CD9820006D9C2000598520000A4A01202C
:10872C00002110B492E818001B1844EB0104012B33
:10873C0082E8180001D010BC7047002CFBD1034A12
:10874C00146054609460F6E70800002010000020CC
:10875C000A4A0120002110B492E818001B1844EBBF
:10876C000104012B82E8180001D010BC7047002CCA
:10877C00FBD1034A146054609460F6E708000020B3
:10878C001000002010B5314B186841680B460029C9
:10879C0057D04A68272A07D8182A05D0DB68002B3F
:1087AC004FD05A68272AF7D9183A5A60C268183A33
:1087BC00C2605A6892B9D0F800C0BCF1010F1FD04A
:1087CC009C68002C24D0D96800292DD0E160DA688F
:1087DC000CF1FF3CC0F800C094605A68196818206E
:1087EC008B18885004331A490122196119491A60EF
:1087FC005A601A72486840B1DA60174A136010BDAB
:10880C000260426082605A68E8E74B605A68F3E79E
:10881C00BCF1000FE2D0C9680CF1FF3CC0F800C0FD
:10882C0041608A605A68D9E7BCF1000FD6D08168E4
:10883C000CF1FF3C8968C0F800C08160CA605A68BE
:10884C00CCE7FFF76DF80023CDE700BF1002002046
:10885C00F1882000C80E002050030020014B03605B
:10886C00704700BF94B42000014B0360704700BFF9
:10887C0094B420000D4B00221A605A609A600C4A86
:10888C000120002110B492E818001B1844EB0104DD
:10889C00012B82E8180001D010BC7047002CFBD1D2
:1088AC00044A146054609460F6E700BF540300203F
:1088BC00080000201000002000B5406800F0F2F91C
:1088CC0000BD00BF024B00B5036001F021FE00BDEE
:1088DC0094B42000024B00B5036001F019FE00BDFA
:1088EC0094B42000F0B572B63F4B1A6801321A608E
:1088FC003E4A13682BB1516848680138002848601B
:10890C0007DD002362B61BB1986803689B68984723
:10891C00F0BD012B3CD0CB680020536098601368ED
:10892C00013B1360CB6823B1D3F804C048686044A2
:10893C0058600B68D868B0F1FF3F03D00138D8609D
:10894C000028DFD0D3F810C02848C1F804C016683E
:10895C00002E35D047687C68A445B8BF3D4609DB7E
:10896C00F868F8B1C4EB0C0CC1F804C044680546B7
:10897C00A44514DAA868002829D0CCEB040C0136E5
:10898C00C5F804C0C160A960CD6088601660B9E705
:10899C000023536093601368013B1360C2E7C06807
:1089AC000028DFD19068C4EB0C0CC1608860C1F862
:1089BC0004C00020C8609160116801311160A1E70A
:1089CC0001228E60CE600260416081609AE7CCEB40
:1089DC00040CC5F804C08860CF60B96051601168A0
:1089EC00013111608EE700BF4C03002054030020BE
:1089FC0030B472B6DFF880C0DCF80410E9B10B6853
:108A0C00984218BF0B462BD0DB68B3B11A68904262
:108A1C00FAD1DCF80000184C012811D09D68002D0B
:108A2C0020D0DA6892B1EA60DA680138956020608B
:108A3C001AB151685B68CB18536062B630BC704792
:108A4C0000226260A2602260DA68F1E70028F4D0AC
:108A5C00A168013889682060A160CA60DA68E7E71C
:108A6C000B46D6E708B9DA68E2E7CA6801386260F3
:108A7C0020609560DA68DBE754030020C360434B49
:108A8C00F0B591E8C0001B6804465B68A26015460F
:108A9C004FF47A72B2FBF3F244F24023C0F20F03AC
:108AAC0080E8C000B3FBF2F212464FF000035F08FF
:108ABC004FEA320603C9361847EB010730463946F0
:108ACC0001F0B0FD002320616461A061E3612362C9
:108ADC0072B628B962B62B6828469B689847F0BDD9
:108AEC00DFF8ACC004F11401DCF80060002E33D0C8
:108AFC00DCF804707A689042B8BF3D461BDBFB681B
:108B0C0043B1801A48605A681D46904220DAA06929
:108B1C00824210DCDCF80830821AD960A261E36171
:108B2C0000232362DCF80030CCF808100133CCF8B9
:108B3C00003062B6D3E7AB68CBB1121A01366A606B
:108B4C00D960A9602562E361CCF8006062B6C6E723
:108B5C00DB68002BD5D1DAE70123E6612662CCF87D
:108B6C000030CCF80410CCF8081062B6B7E7121A33
:108B7C006A60E361DCF8003027620133B960CCF83D
:108B8C000030CCF8041062B6A9E700BF50030020F7
:108B9C005403002070B58FB009AC06460021204666
:108BAC0000F060F80B4B31460DAA0D93684601237B
:108BBC000E94FFF763FF204600F088F86846FFF735
:108BCC0017FF054B20466D460D9300F093F80FB040
:108BDC0070BD00BF80B4200094B42000002303605B
:108BEC0043608360037370470A4A0120002110B46C
:108BFC0092E818001B1844EB0104012B82E81800C2
:108C0C0001D010BC7047002CFBD1034A1460546097
:108C1C009460F6E7080000201000002000B572B642
:108C2C00036813B9037362B600BD00F051FCFBE797
:108C3C0000B572B64FF0010C00F10C01D1E84F2FCA
:108C4C00C1E843CF002BF9D112F0FF0F01D162B66E
:108C5C0000BD00F0A9F8FBE700B572B600F04AFBC6
:108C6C0000BD00BF0023036043608360C160704798
:108C7C000A4A0120002110B492E818001B1844EB9A
:108C8C000104012B82E8180001D010BC7047002CA5
:108C9C00FBD1034A146054609460F6E7080000208E
:108CAC001000002000B572B600F10C0151E8002F45
:108CBC0002F1010241E80023002BF7D1002A01DD6B
:108CCC0062B600BD00F004FCFBE700BF00B572B655
:108CDC0000F10C0151E8002FA2F1010241E8002340
:108CEC00002BF7D1002A01DB62B600BD00F05CF866
:108CFC00FBE700BF00B572B600F0FCFA00BD00BF88
:108D0C000A4A0120002110B492E818001B1844EB09
:108D1C000104012B82E8180001D010BC7047002C14
:108D2C00FBD1034A146054609460F6E708000020FD
:108D3C00100000200F4A0023D3601360536093602F
:108D4C000D4A0120136053600C4A002110B492E8C4
:108D5C0018001B1844EB0104012B82E8180001D009
:108D6C0010BC7047002CFBD1054A14605460946011
:108D7C00F6E700BF64030020780300200800002001
:108D8C0010000020884200B509D003694BB10023C4
:108D9C000B6150F80C3FCB68C96801F08FFB62B6D1
:108DAC0000BD01230361F2E75C492DE9F045CB6876
:108DBC00CB681A68CB68CB6802F11C069E4263D064
:108DCC000B68012B00F08380D46B002C72D0156CD7
:108DDC00002D00F081806562D2F840C0013BCCF8D8
:108DEC0020400B60D0F8008003231361B8F1000F12
:108DFC0025D0D0F804A002F12007DAF80430D2F81C
:108E0C0020C00AF104059C452EDA5346D5F800E043
:108E1C00D2F820C0E6451BDC836808F101085E62CD
:108E2C00D36300231364C0F800808660CB68506164
:108E3C00196810460122FFF7A5FFBDE8F085012354
:108E4C00C2F83C80C2F84080036046608660EDE763
:108E5C001C6A002C56D008F1010866621E6213646D
:108E6C00D463C0F80080E1E7DAF8243023B9CCE70A
:108E7C005C6A002CCAD02346D3F804E0D7F800C0B3
:108E8C001D1DE645F4DDC1E70B687BB1012B30D02D
:108E9C00D1F804C00024DCF824E0013BC1F804E064
:108EAC000B60CEF82040C1F80CC09BE79C46C1F883
:108EBC000CC097E7002B95D0D1F804C0013BDCF82F
:108ECC0024C00B60C1F804C0CCF820408AE7002312
:108EDC004B608B600B6085E7002B83D0D1F808C00A
:108EEC00013BDCF820C00B60C1F808C0CCF8245062
:108EFC0078E7D1F804C000234B608B600B60C1F89D
:108F0C000CC06FE708F10108D463C2F840A0CAF89E
:108F1C002060C0F80080466088E700BF6403002032
:108F2C002DE9F045044672B6614B6248196804F1AC
:108F3C001C0701311960C368C368002B64D0D0F8DA
:108F4C000080B8F1000F1FD0D0F804A004F1200667
:108F5C00DAF80410236A0AF10405994256DD5346E7
:108F6C00D5F800C0216A8C4569DC83685F62E363D5
:108F7C000023236403688760013303604E4B186839
:108F8C007AB9A260BDE8F0850123C4F83C80C4F82E
:108F9C004080036047608760474B18680AB9F0E768
:108FAC00013212F0030FFBD1456804320F2A98BF2F
:108FBC0010222B46002D76D0696802F1100C8C45DE
:108FCC0007D9914205D0DB68002B6CD059686145FC
:108FDC00F7D3891A5960C168891AC160596871B987
:108FEC000668012E36D09F68002F42D0DD68002D18
:108FFC004BD0FD60D968013E06608F6059681B68D4
:10900C0058185A50021DBCE7C760C5E7DAF824307F
:10901C00002BA4D0D3F804C031681D1D8C459FDCF7
:10902C00596A00299CD00B46D3F804C031681D1D29
:10903C008C45F5DDD5F800C0216A8C4595DD196AA3
:10904C0069B108F101084F621F622364E163C0F843
:10905C000080A1E70160416081605968CFE7036837
:10906C00E1630133C4F840A0CAF820700360476084
:10907C0092E7002EC3D0D5F80CC0013E0660C0F8B4
:10908C0004C0CCF808105968B9E7002EB7D0D0F856
:10909C0008C0013EDCF808C00660C0F808C0CCF877
:1090AC000C105968ABE7FEF73BFC002269E700BFE8
:1090BC00740300206403002010020020F0B572B687
:1090CC003D4BDA68DA681068DA681A68002A3DD015
:1090DC0059686FF0004CD1F804E0E64536D0012A0F
:1090EC00D3F80CE055D0D1F824C00024013AC3F8D1
:1090FC0004C01A60CCF820401E682F4AD960002E9C
:10910C002AD057680EF104057A68DEF804103C1D6D
:10911C00914243DB7A6A002A40D0D2F804C0296815
:10912C00141D8C4523DDD4F800C0DEF804108C45EA
:10913C0022DC9A68C2F824E0CEF820200022CEF877
:10914C0024201A68C3F808E001321A60DB68012297
:10915C001968FFF717FEF0BD0121CEF82060CEF89C
:10916C0024601160C2F804E0C2F808E0EEE7516A2E
:10917C000029D8D00A46D0E7116A89B10136C1F866
:10918C0024E0C2F820E0CEF82420CEF820101E6097
:10919C00DCE700225A609A601A60ADE73A46C2E7F3
:1091AC001A68CEF820100132CEF82470C7F820E0EF
:1091BC001A60C3F804E0C9E76403002030B5114D10
:1091CC00114C2A682368012B06D962B630BF002ADD
:1091DC00F8D0FFF773FFF4E772B60C4C0C48FDF7B0
:1091EC00FBFA0A250B48FDF7F7FA25600A48FDF74C
:1091FC00F3FA0848FDF7F0FA256000F04FFE30BF97
:10920C00002030BD6403002074030020F001002016
:10921C00CCB4200024B32000E8B42000344BF0B5CB
:10922C00DA681C681068DA682CB9DB6801221968E6
:10923C00FFF7A8FDF0BDD3F80CE05F680EF1040653
:10924C007A68DEF804103D1D914243DB7A6A002AED
:10925C0040D0D2F804C03168151D8C451FDDD5F8FF
:10926C0000C0DEF804108C451EDC9A681C68C2F83D
:10927C0024E0CEF8202001340022CEF824201C60FB
:10928C00C3F808E04CB1012C1BD05C680021626A69
:10929C005A6011621A68013A1A60DC60C5E7516ABB
:1092AC000029DCD00A46D4E7116AA9B10134C1F80F
:1092BC0024E0C2F820E0CEF82420CEF820101C6068
:1092CC00E0E700225C689A605A601A68DC60013A38
:1092DC001A60AAE73A46C2E71C68CEF8201001349F
:1092EC00CEF82470C7F820E01C60C3F804E0C9E78E
:1092FC00640300202DE9F04F434D0446EB680368EE
:10930C00002B74D000264FF001082F46012B40D0C3
:10931C006268013B516A236061600E621268C2F898
:10932C001080EB68EB68566102F11C0C002B26D008
:10933C00D7F800A0BAF1000F30D0D7F8049002F1A2
:10934C00200ED9F80410136A09F1040099422EDD9D
:10935C004B460068116A88423CDCAB68C3F824C0F9
:10936C00D3632B6816640133C5F808C02B60FFF774
:10937C0055FF72B62368002BC8D1BDE8F08FC7F833
:10938C000CC0FFF74BFF72B62368002BF5D0012BF6
:10939C00BED16268A66066602660BFE7D6631664BD
:1093AC00C7F80080C7F804C0C7F808C0E9E7D9F8C7
:1093BC00243023B9CCE7596A0029CAD00B46D3F81C
:1093CC0004B0DEF80010181D8B45F4DD0068116A3E
:1093DC008842C2DD196A61B10AF1010AC1F824C0E0
:1093EC00C3F820C01364D163C5F800A0C9E762B606
:1093FC00C3E72B68D1630133C2F84090C9F820C091
:10940C002B60C5F804C0BCE764030020C368036983
:10941C0010B5012B18D00369B3B12C4BDA68D9689D
:10942C0000F11C0291421CD01A68012A29D0C16B90
:10943C00002935D0046C002C3FD04C62D0F840C0D1
:10944C00013ACCF820101A600369012B01D062B6E6
:10945C0010BD026A6FF000439A42F8D0FFF7DEFEAF
:10946C00F6E71A68CAB1012A10D059680024D1F85D
:10947C0024C0013AC3F804C01A60CCF82040D9606B
:10948C00E2E700225A609A601A60DDE75968002210
:10949C005A609A601A60D960D6E71146D960D3E752
:1094AC00002AD1D0D3F804C0013ADCF824C01A60E9
:1094BC00C3F804C0CCF82010C6E7002AC4D09968C1
:1094CC00013A096A1A6099604C62BDE76403002096
:1094DC003A4BF0B5DA680268002A37D0012A43D03B
:1094EC0041684FF0000ED1F824C0013AC0F804C016
:1094FC000260CCF820E0096801200861D3F80CC0A8
:10950C00DD6800224A6101F11C042C4A002D1FD099
:10951C001668002E20D0576801F120057A68086A79
:10952C0007F1040E904225DA3A46DEF800C0086ACC
:10953C0084452EDC9A685462CA6300220A641A6855
:10954C009C6001321A60FFF769FE00E062B6F0BD64
:10955C00D460FFF763FEFAE7CE630E6410605460CC
:10956C009460FFF75BFEF2E7002241688260426084
:10957C000260C0E77A6A22B9D6E7506A0028D4D0D4
:10958C000246D2F804C0286802F1040E8445F4DDCA
:10959C00CBE7106A40B10136446214620A64C863B6
:1095AC001E60FFF73BFED2E71A68C86301320F64F6
:1095BC003C621A605C60FFF731FEC8E76403002070
:1095CC002DE9F04172B69E4BDA68DA68D9681268F8
:1095DC00D3F80CC002F11C018C4500F09E80196878
:1095EC00012900F0DF80D46B002C00F0AE80156CEC
:1095FC00002D00F0EA806562D2F840C00139CCF849
:10960C002040196091680860042111618D49086837
:10961C00013808609169002900F09180916901245A
:10962C000C61D2F818C0D868D86885490CF11C05B3
:10963C0070B30F68002F00F0A180D1F804800CF1FA
:10964C002006D8F80410DCF8200008F10404884245
:10965C00C0F2DD80D8F82410002900F0D880D1F8B1
:10966C0004E030680C1D86457DDDD4F800E0DCF8A4
:10967C002000864500F38A8099681C684D62CCF8FE
:10968C003C1001340021CCF840101C609D6001E0BE
:10969C000C68CD60002191616949D8683CB9DB68E0
:1096AC00104619680122FFF76DFBBDE8F081D1F877
:1096BC000CE04F680EF104067868DEF804103D1DCE
:1096CC00884200F3A280796A002900F09E80D1F8CC
:1096DC0004C030680D1D84454BDDD5F800C0DEF8A4
:1096EC000400844563DC99681C68C1F824E0CEF85A
:1096FC00201001340021CEF824101C60C3F808E0BF
:10970C004CB1012C6FD05C680020616A5960086212
:10971C00196801391960DC60C1E7196889B1012940
:10972C006AD0D3F804C00024DCF824E00139C3F873
:10973C0004E01960CEF82040C3F80CC062E71C6846
:10974C00AAE78C46C3F80CC05CE700293FF45AAF7B
:10975C00D3F804C00139DCF824C01960C3F804C084
:10976C00CCF820404EE7486A00283FF47EAF014613
:10977C0075E7486A0028B0D00146A8E7CCF83C70E1
:10978C00CCF840700C604D608D6083E7086A00284F
:10979C003FD07C1C45620D62CCF84010CCF83C00EC
:1097AC001C6077E700215960996019602AE7086A04
:1097BC00002839D00134C0F824E0C1F820E0CEF8FC
:1097CC002410CEF820001C609AE700293FF41AAF51
:1097DC00D3F808C00139DCF820C01960C3F808C000
:1097EC00CCF824500EE700215C6899605960196828
:1097FC00DC600139196052E7D3F804C000215960CC
:10980C0099601960C3F80CC0FCE6394665E741461F
:10981C002BE71C68CCF83C000134CCF84080C8F82D
:10982C0020501C605D6035E71C68CEF820000134C8
:10983C00CEF82470C7F820E01C60C3F804E05FE7A2
:10984C006403002074030020704700BF174A0120F6
:10985C00002110B492E818001B1844EB0104012BF2
:10986C0082E818001AD0124A012092E81800002150
:10987C001B1844EB0104012B82E8180001D010BC2A
:10988C007047002CFBD10B4A146054609460D46078
:10989C0054619461D46114625462F0E7002CE2D1FB
:1098AC00054A146054609460DDE700BF0800002096
:1098BC008C0300209403002010000020704700BF90
:1098CC002DE9F04F016840F2C903C0F20403CB1834
:1098DC0081B09B020093A1F11002009903F58373F0
:1098EC0001F5E37B9B004FEA8B0B164D1F68DBF8F1
:1098FC00009080464FEAC20A05EB4215002401266F
:10990C0016FA04F33B4204D103FA0AF313EA090FE3
:10991C0005D02B681BB11B690BB14046984701342D
:10992C000435082CECD1009A02F5827303339B00AA
:10993C004FF0FF321A60DBF80030CBF8003001B08A
:10994C00BDE8F08FC00300202DE9F00790F800C0AF
:10995C00D2B2BCF11F0F0CF1100800F2AB80012544
:10996C0005FA0CF54EF28014CEF2000425604EF28E
:10997C008024CEF20004256040F2D904C0F2040425
:10998C006444A40204F58277BD004068D5F800A0B9
:10999C00C6430AEA060AC5F800A0DFF85C91DFF8B6
:1099AC005CA109684AF8289004F5807A0AF101084C
:1099BC004FEA8808D8F80090012909EA0609C8F886
:1099CC00009063D002295AD000293CD04FEACC0633
:1099DC0010FA06F60337BF0004F5E371386089000E
:1099EC00D1F80080F74308EA0708C1F8008029681D
:1099FC0041EA0000286092B11B68012B6DD03BB985
:109A0C0004F5E07301339B001A6802EA07071F6034
:109A1C0004F5E274A400236843EA06062660BCF150
:109A2C001F0F22D9BCF13F0F0AD80123ACF1200C37
:109A3C0003FA0CFC4EF20413CEF20003C3F800C080
:109A4C00BDE8F007704704F581718900D1F80080FA
:109A5C000AF1030A08EA06060E604FEA8A0ADAF8E7
:109A6C0000100143CAF80010B0E7012303FA0CFC04
:109A7C004EF20013CEF20003C3F800C0E0E704F589
:109A8C00817189000E6806430E609FE704F58171B1
:109A9C008900D1F800800AF1030A08EA0608C1F827
:109AAC0000804FEA8A0ADAF8001001EA0606CAF8C2
:109ABC0000608BE7BCF13F0F3FF65EAFACF12004CA
:109ACC000125A5404EF28414CEF2000425604EF21E
