:020000040020DA
:10400000F87F00201D4120009D9620009D962000F5
:104010009D9620009D9620009D9620009D96200054
:104020009D9620009D9620009D962000D39620000E
:104030009D9620009D9620009D9620009D96200034
:104040009D9620009D9620009D9620009D96200024
:104050009D9620009D9620009D9620009D96200014
:104060009D9620009D9620009D9620009D96200004
:104070009D9620009D9620009D9620009D962000F4
:104080009D9620009D9620009D9620009D962000E4
:104090009D9620009D9620009D9620009D962000D4
:1040A0009D9620009D9620009D9620009D962000C4
:1040B0009D9620009D9620009D9620009D962000B4
:1040C0009D9620009D9620009D9620009D962000A4
:1040D0009D9620009D9620009D9620009D96200094
:1040E0009D9620009D9620009D9620009D96200084
:1040F0009D9620009D96200010B5074C54F8043C76
:10410000B3F1FF3F06D0043C984754F8043DB3F1A7
:0C411000FF3FF9D110BD00BF9CB12000A2
:10411C0040400949094A086004319142FBDBFFF732
:10412C00E5FF00BF00F046FA00F0E2FF01B406F034
:10413C00FFFB02F01BF90000040000204C0D0020D6
:10414C0043680A1D5BB1D0F80CC00133CCF80420D5
:10415C004FF0000CC1F808C04360C26070478B6020
:10416C0001238260C2604360F8E700BF10B444686A
:10417C00012C17D0836801F1040C9C4517D04BB16E
:10418C005A682AB1944503D013465268002AF9D1D3
:10419C008A685A60C268944508BFC360013C446099
:1041AC0010BC704700238360C3604360F8E7002CA9
:1041BC00F6D08B68013C83604460F1E730B58468CD
:1041CC0005464CB12068294603681B68984764680B
:1041DC00002CF7D1012030BD2046FCE7F0B54B6A2E
:1041EC0081B004460D461746002B37D0AC462360F1
:1041FC005CF8043B04F1200E2361BCE80F00AEE830
:10420C000F009CE807008EE807000026AA6A66618A
:10421C00A661E461E663266405F12001204604F002
:10422C00FDFBAB6AA2686660D218A2F140034FF0A6
:10423C00807142F8401C0B4A01A942F001029A63BA
:10424C0047F00102DA63204641F8047DE3606946D9
:10425C004FF4406204F058FE01B0F0BD024B1B68F5
:10426C00C4E700BF6D632000A8010020294B30B5C6
:10427C00186844682246002C47D06368572B07D82F
:10428C00482B11D0D268002A3FD05368572BF7D94E
:10429C00483B5360C1684839C16053B1126848212A
:1042AC00D018D150043030BD00235360C168483958
:1042BC00C160016801290BD0956875B1D468BCB197
:1042CC00EC60D2F80CC00139CCF808500160E5E77D
:1042DC000021416081600160E0E70029DED0D4F864
:1042EC000CC00139C0F804C00160CCF80850D5E707
:1042FC000029D3D0D0F808C00139DCF808C001601F
:10430C00C0F808C0CCF80C40C8E703F05DF80020FA
:10431C00C9E700BF58000020F0B598B00024002277
:10432C00002316940692079304920593029203932A
:10433C00169B4FF4406701930094089409940A97D4
:10434C00FFF794FF69461B4A0546FFF747FF6FF0DE
:10435C000043002217930023119212930F92109393
:10436C000D920E93179B01260C93139414940B9699
:10437C001597FFF77BFF0BA90F4AFFF72FFF0F4B8A
:10438C00E8681E7005F076FD0D4A012092E81800D1
:10439C0000211B1844EB0104B34282E8180001D041
:1043AC0018B0F0BD002CFBD1064A14605460946028
:1043BC00F6E700BF30412000C58C2000C80100206A
:1043CC0008000020100000202DE9F007754E7368DE
:1043DC00002B78D05968002975D0DFF8CC81B24613
:1043EC0000270022D8F800505A60F268521AF26086
:1043FC005A68C2B9DAF80040012C00F08480986841
:10440C00002800F0A880D3F80CC0BCF1000F00F01D
:10441C00B280C0F80CC0DA689060DAF80020013A7B
:10442C00CAF800205A681C68A41849D00F2947D92B
:10443C0061602460A760E760EB6859186B68E960FD
:10444C00D4F800C06068002B4DD0D3F800906044C5
:10445C0048450CBF1A461A4604D0D26812B11168EE
:10446C008842FAD159688944CC4507D0DB68002BC7
:10447C0038D01868596841188C45F7D1194613463D
:10448C00CBB160685A68821862602868012802BF44
:10449C006F60AF602F600ED09A68002A3BD0D3F8C3
:1044AC000CC0BCF1000F40D0C2F80CC0DB689A60A5
:1044BC002B68013B2B6019B14A686368D3184B60B9
:1044CC007368002B1AD1394A012092E81800002198
:1044DC001B1844EB0104012B82E818005BD0BDE8EB
:1044EC00F007704713462968002929D1A160E160C3
:1044FC002A686C600132AC602A60C1E759680029F7
:10450C007FF46FAFDFE7CAF80420CAF80820CAF8B6
:10451C0000205A6887E70028CDD06B68DB686B6099
:10452C009A602B68013B2B60C5E70028C3D0AB68B1
:10453C009B68AB60C3F80CC02B68013B2B60BAE7DF
:10454C00AA683946D460AA68E760A2602A68AC60A1
:10455C0001322A6094E7002C3FF465AFDAF80400CE
:10456C00C068CAF804008260DAF80020013ACAF880
:10457C0000205A6857E7002C3FF455AFDAF80800D2
:10458C008068CAF80800C260DAF80020013ACAF85C
:10459C0000205A6847E7002CA1D1054A14605460EA
:1045AC0094609CE7340D0020580000200800002087
:1045BC0010000020704700BF0E4B0A2100221A7118
:1045CC0019600D4B01201A710C4A196010B492E855
:1045DC00180000211B1844EB0104012B82E8180081
:1045EC0001D010BC7047002CFBD1054A14605460FC
:1045FC009460F6E72800002020000020080000202E
:10460C00100000200D4B0A221A6000221A710C4A6D
:10461C000120002110B492E818001B1844EB01048F
:10462C00012B82E8180001D010BC7047002CFBD184
:10463C00044A146054609460F6E700BF3000002018
:10464C000800002010000020F0B58AB0044668462F
:10465C001F460E4602F0F0FD23686D469A68022A4A
:10466C005BD0DB68FF221A6033689A68022A71D02B
:10467C00DB68FF221A6048F280420023C0F21E025F
:10468C0007A80792089304F003F807F1040206CA7E
:10469C00614BD3F800C02368D3F808E0BEF1020FD9
:1046AC0072D0DB684FF0000EC3F800E03368D3F82B
:1046BC0008E0BEF1020F00F08E80DB684FF0000EB8
:1046CC00C3F800E000264FF00103ADF80430ADF85C
:1046DC0006308DF8083068461CEB01033146009318
:1046EC008DF8096002F094FD684602F0B3FD4B486A
:1046FC0001F044FE304601F041FE0A2309A88DF872
:10470C0024308DF8256001F039FE05F10C0004F021
:10471C006FF8344630460AB0F0BD197849F20042C1
:10472C000903C4F20D028A18106859680843106016
:10473C00DA68FF2010601A7849F200431203C4F2C1
:10474C000D03D3181A6822EA0101196033689A68BC
:10475C00022A8DD1197849F200420903C4F20D02E4
:10476C008A181068596808431060DA68FF201060D6
:10477C001A7849F200431203C4F20D03D3181A68D5
:10478C0022EA0101196076E71C7849F2004E2403F5
:10479C00C4F20D0EA644DEF800705C682743CEF818
:1047AC000070D3F80CE00027CEF8007093F800E00E
:1047BC0049F200434FEA0E3EC4F20D037344D3F8A2
:1047CC0000E02EEA04041C603368D3F808E0BEF164
:1047DC00020F7FF472AF1C7849F2004E2403C4F22E
:1047EC000D0EA644DEF800605C682643CEF800602F
:1047FC00D3F80CE00026CEF8006093F800E049F204
:10480C0000434FEA0E3EC4F20D037344D3F800E0AC
:10481C002EEA04041C6055E700040020A8A920001F
:10482C0070B56C4B01228CB01A7000230A936A4B42
:10483C000D46186841680B46002900F0C7804A688D
:10484C00272A08D8182A06D0DB68002B00F0BE8077
:10485C005A68272AF6D9183A5A60C268183AC260C0
:10486C005A688AB90468012C00F096809E68002E64
:10487C0000F09780D968002900F09D80F160DA681B
:10488C00013C046096605A681B6818219C1899506A
:10489C0004340223237003236370082363604BF2F8
:1048AC002003C4F20D03E36000224BF2204322618B
:1048BC00C4F20D031968042021F0080119600123CA
:1048CC00A3604BF20043C4F20D03196841F00801D8
:1048DC00196021786378043103EBC10144F20003C1
:1048EC00C4F20D0343F82100217849F21C4309035B
:1048FC00C4F20D03CB18616819602178D4F804C098
:10490C000803C9000CFA01F149F21873C4F20D0343
:10491C00C318186820EA01011960236963B1637830
:10492C002178204603EBC1012C4B099243F821401E
:10493C000AA909AB04F086FD684607AE0B9402F099
:10494C007BFC30460BA96A4601F042FFAB786A78D3
:10495C001B0443EA02232A7830461343EA786C4658
:10496C0043EA026300936A792B7943EA0223ADF898
:10497C000430EA79AB7943EA0223ADF806302B7A9E
:10498C008DF808306B7A8DF8093002F07BF903A8AA
:10499C0003F02EFF0CB070BD0260426082605A685A
:1049AC0072E7002C3FF470AFC968013C04604160B1
:1049BC008A605A6868E7002C3FF466AF8168013C56
:1049CC00896804608160CA605A685DE702F0FCFC8B
:1049DC0000245EE76400002058000020080200203C
:1049EC002DE9F04F40F25801DFF8C036C2F2000159
:1049FC0001220868ADB01A7000232A9343684BB1AA
:104A0C005A68272A00F29882182A00F09582DB68EF
:104A1C00002BF5D102F0D8FC0024022323700133C3
:104A2C006370053363604BF22003C4F20D03E36043
:104A3C0000224BF220432261C4F20D0319680420BA
:104A4C0021F0080119600123A3604BF20043C4F26A
:104A5C000D03196841F0080119602178637804315D
:104A6C0003EBC10144F20003C4F20D0343F821002F
:104A7C00217849F21C430903C4F20D03CB18616879
:104A8C0019602178D4F804C00803C9000CFA01F1AC
:104A9C0049F21873C4F20D03C318186820EA010117
:104AAC0019602369002B00F0DD82DFF80436DFF893
:104ABC000056089321786378204603EBC10345F830
:104ACC0023402AA929AB299204F0BCFC2DAE46F850
:104ADC00044D304601F0CCFD44F24021C0F20F01F0
:104AEC00002219AC26A8269127920DF1900803F00C
:104AFC00CFFD204602F0A0FB22463146404601F095
:104B0C0067FE404601F04AFE42F22803C4F20D0350
:104B1C001A68002442F002021A6042F22C03C4F21A
:104B2C000D031A684FF0FF3142F002021A6042F294
:104B3C003003C4F20D031A68D02042F002021A604E
:104B4C0044F25C03C4F20D0302221A6044F2DC034B
:104B5C00C4F20D0306321A6044F2D803C4F20D03FA
:104B6C001C6044F20813C4F20D030E321A604BF2AF
:104B7C002043C4F20D031A6840F2B83542F0C0026B
:104B8C001A604DF23003C4F200031A68C2F2000539
:104B9C0022F001021A604DF24402C4F200021160CC
:104BAC004DF238024DF22401C4F20002C4F20001AD
:104BBC00146008604DF22801C4F200013E20086028
:104BCC004DF22C01C4F2000132300860302111602A
:104BDC001A6840F2580B42F4407242F001021A601B
:104BEC0001226A604DF20002C4F200022A601A68C7
:104BFC00DFF8C00422F080021A60C2F2000B01F050
:104C0C00BDFBDFF8B434DBF800001C6043684BB12B
:104C1C005A68232A00F2CD81142A00F0CA81DB687D
:104C2C00002BF5D102F0D0FB0025DFF890A4002179
:104C3C0000228AE806004020A960EA6004F092FF96
:104C4C0049F2380949F25007DFF87444C4F20809F4
:104C5C004FF0040BC4F208072368032BFCDDEFF3C1
:104C6C001083DBB272B6C9F800B03A6803B962B609
:104C7C0012F0010FF0D040F29002C2F20002137059
:104C8C0004F03AFF5828E7D14FF0000B4FF0000C1E
:104C9C00CDF818B0CDF81CC049F2380949F2500BC8
:104CAC000027C4F208090423C4F2080BAC46029690
:104CBC002268032AFCDDEFF31082D2B272B6C9F877
:104CCC000030DBF8001002B962B611F0010FEFD022
:104CDC0040F29001C2F200010A700593CDF804C0B5
:104CEC0004F00AFF3A4600F0FF004FF0000105F017
:104CFC000BFA06AE60CE083705430E43402F0390E7
:104D0C00049106950796059BDDF804C0D0D106AA40
:104D1C0006CA0023029ECCF80810CCF80C20002206
:104D2C008AE80C0040F25803C2F20003186865468A
:104D3C0043684BB15A68232A00F21D81142A00F0F3
:104D4C001A81DB68002BF5D102F03EFB002340F208
:104D5C0000020021C4F2030240F20C005A601960F8
:104D6C00C4F20300D0F800C02CF0010CC0F800C055
:104D7C0042F20800C4F20D00D0F800C04CF0010C57
:104D8C00C0F800C042F20C00C4F20D00D0F800C014
:104D9C004CF0010CC0F800C042F21000C4F20D003F
:104DAC00D0F800C04CF0010CC0F800C0116040F20B
:104DBC000402C4F203020220106040F2280244F6FE
:104DCC000000C4F20302C0F2E81010605A6891634C
:104DDC00BC4A002A00F02E815868D0F818C04CF05C
:104DEC00010CC0F818C05868D0F80CC04CF0010C7D
:104DFC00C0F80CC09960B449DA60C1F88C204EF24E
:104E0C000012CEF200024FF400211160AF4C6B6027
:104E1C00227801232B93AE4F49F210431203C4F2B4
:104E2C000D033D60D3181A6861684FF0000C22EA3C
:104E3C0001021A60A74B227823616378089D03EB6B
:104E4C00C20345F8234062462BA928AB2046CDF877
:104E5C00A0C0CDF804C004F0F5FA9F4801F08EFA1A
:104E6C009E4A9F4B61681A60227849F210431203E4
:104E7C00C4F20D03D3181A6840F2B83B22EA0102BF
:104E8C001A60C2F2000BDBF800304FF0FF325A64AC
:104E9C00227849F210431203C4F20D03D318196897
:104EAC006268904841EA02021A6001F067FA0DF15B
:104EBC00880909AD48F280410022C0F21E01484623
:104ECC002291239203F0E4FB874801F057FA9AE809
:104EDC0006003B68854803F1080C9CE8001811EBB0
:104EEC000B0142EB0C022B460024009402F0C2FA98
:104EFC000DF1B40B584400F8904C284601F03EFAE2
:104F0C004FF00A014FF0000228468DF824108DF85E
:104F1C00252001F033FA304601F0AAFB40F60013CD
:104F2C00C0F23D0320A800242093219403F0B0FB91
:104F3C00404601F0F3FEBDE7183A5A60C268183AD1
:104F4C00C2605A688AB90468012C00F09A8099688A
:104F5C00002900F08A80DD68002D78D0CD60DA68F9
:104F6C0091600268013A02605A681B6818219C180B
:104F7C009950043451E5143A5A60C268143AC2602C
:104F8C005A6882B90468012C00F08B80996800295A
:104F9C007CD0DF68002F42D0CF60DA689160026865
:104FAC00013A02605A68196814208B18885004332F
:104FBC00CDE6143A5A60C268143AC2605A686AB9AB
:104FCC000468012C26D09968C9B1DD6865B1CD6043
:104FDC00DA6891600268013A02605A681B68142111
:104FEC009D189950043520E6002CF7D0816889680B
:104FFC008160CA600268013A02605A68EEE7002CD0
:10500C00ECD04168C96841608A600268013A02606C
:10501C005A68E3E74260826002605A68DEE7002C5F
:10502C00C1D0816889688160CA600268013A0260F7
:10503C005A68B8E75968886920F001008861596896
:10504C00C86840F00100C8609A60DA60DEE6002CA7
:10505C008BD0816889688160CA600268013A0260FD
:10506C005A6882E7124A089230E5002C3FF47DAF73
:10507C004168C96841608A600268013A02605A68F6
:10508C0073E74260826002605A686EE7002C8AD037
:10509C004168C96841608A600268013A02605A68D6
:1050AC0081E74260826002605A687CE764000020FD
:1050BC0008020020C0A92000E8030020D40300202F
:1050CC008C000020755B2000B8020020EC0300204F
:1050DC0008040020415C2000D8A920002D482000A5
:1050EC00D003002000AA200014AA200030000020C9
:1050FC0000B5FFF775FC002000BD00BF2DE9F04F97
:10510C004AF22042CCB0012400258DF8B0408DF835
:10511C00B150C4F20D0213684AF2040723F00103E4
:10512C0013604AF20043C4F20D03196844F2000004
:10513C00214319609DF8B0C09DF8B1100CF1040C1E
:10514C00C4F20D00C4F20D0701EBCC0C04212D941C
:10515C002F9730952E9440F82C109DF8B0E049F222
:10516C001C4C4FEA0E3EC4F20D0CF444CCF800403B
:10517C009DF8B0E049F2187C4FEA0E364FEACE0E9D
:10518C0004FA0EFEC4F20D0CB444DCF80060DFF837
:10519C0070B926EA0E0ECCF800E049F2004CC4F2CD
:1051AC000D0CDCF80080022628F00408CCF80080F6
:1051BC0044F28808C4F20D08C8F800403D60DCF8E1
:1051CC0000700DF1B00827F01007CCF8007044F215
:1051DC0090074FF0030ECDF80481C4F20D070DF1CA
:1051EC00E8083A963B96CDF8F0E0CDF80881379177
:1051FC003896CDF8E4E03C6005273497DCF8007075
:10520C00359627F02007CCF8007044F2940CC4F2C9
:10521C000D0CCCF800404AF2100C8DF89C408DF827
:10522C009D60C4F20D0CCDF8A8C0D2F800C0CDF82A
:10523C00D8E02CF0040CC2F800C0D3F800C02891C0
:10524C004CEA010CC3F800C09DF89C709DF89DC001
:10525C007F180CEBC70C2B95299440F82C109DF85B
:10526C009C7049F21C4C3F03C4F20D0CBC44CCF8AE
:10527C0000109DF89C7049F2187C4FEA073807FA29
:10528C000EF711FA07F7C4F20D0CC444DCF80080D9
:10529C0028EA0707CCF800708DF888408DF889E073
:1052AC00D2F800C04FF008082CF0080CC2F800C06F
:1052BC00D3F800C04AF2200EC4F20D0E4CEA080CD2
:1052CC00CDF88C80CDF894E026952494C3F800C0DA
:1052DC009DF888709DF889C07F180CEBC70C40F8BE
:1052EC002C109DF8887049F21C4C3F03C4F20D0C35
:1052FC00BC44CCF800804CAF17F8A8AD49F2187C30
:10530C004FEA0A394FEACA0A08FA0AFAC4F20D0C33
:10531C00CC44DCF8009029EA0A0ACCF800A00DF184
:10532C00DC0CCDF84CC00DF1D00CCDF854C00DF107
:10533C009C0CCDF858C04AF2080CCEF80050C4F2C0
:10534C000D0C8DF874408DF87540CDF880C0D2F8F6
:10535C0000C012972CF0020CC2F800C0D3F800C0A9
:10536C0014974CEA060CC3F800C09DF874E09DF845
:10537C0075C08E440CEBCE0C1E9621951F9440F8F4
:10538C002C109DF874E049F21C4C4FEA0E3EC4F20E
:10539C000D0CF444CCF800609DF874E049F2187CD4
:1053AC004FEA0E374FEACE0E06FA0EFEC4F20D0C83
:1053BC00BC44DCF80070DFF84C9727EA0E0ECCF8F2
:1053CC0000E04AF2400EC4F20D0E8DF860408DF8EC
:1053DC006110CDF86CE0D2F800E04FF0100C2EF01C
:1053EC00100EC2F800E01A68CDF864C022F010026A
:1053FC001A609DF860209DF86130521803EBC203CF
:10540C001C951A9540F823109DF8602049F21C4316
:10541C001203C4F20D03D318C3F800C09DF860202A
:10542C0049F218734FEA023ED2000CFA02F2C4F2AF
:10543C000D037344D3F800E018AF2EEA02021A6091
:10544C001DAB3193DFF8C03631AA1A609DF860208D
:10545C0049F200431203C4F20D03329733951A95A7
:10546C00D3181A68DFF8A4A622F010021A609DF86F
:10547C0060209DF86130521803EBC20340F82310F2
:10548C009DF8602049F210431203C4F20D034895B5
:10549C00D3181A68384622F010021A60DFF87036FA
:1054AC009DF860201C939DF8613048A903EBC20362
:1054BC0049F823702A4646AB469503F0C3FF38469D
:1054CC002A4649A94AAB49944A9503F0BBFF42F2DC
:1054DC002803C4F20D031A684FF0FF3132431A60EF
:1054EC0042F22C03C4F20D031A68D02032431A6026
:1054FC0042F23003C4F20D031A68DFF81876324317
:10550C001A6044F25C03C4F20D031E6044F2DC0327
:10551C00C4F20D03C3F8008044F2D803C4F20D03A7
:10552C001D6044F208131622C4F20D031A604BF2EC
:10553C002043C4F20D031A68DFF8DC6542F0C002A8
:10554C001A604DF23003C4F200031A68746022F042
:10555C0001021A604DF24402C4F2000211604DF2D5
:10556C0038024DF22401C4F20002C4F200011560AD
:10557C0008604DF228013E20C4F2000108604DF293
:10558C002C013230C4F200010860302111601A681D
:10559C00DFF8880542F4407222431A604DF2000293
:1055AC00C4F2000232601A68DFF8748522F08002BF
:1055BC001A6000F0E3FE3A7849F210431203C4F289
:1055CC000D03D318C8F8004047941A687968384618
:1055DC0022EA01021A60DFF84C353A783B617B789D
:1055EC0047A903EBC20349F823702A4645AB02AC2A
:1055FC00459503F027FFDFF8300500F0BFFED8F823
:10560C0000102246584601F029FF2554204600F090
:10561C00B5FEDFF8180500F0B1FEDFF81435DFF841
:10562C001425796813603A7849F210431203C4F2D6
:10563C000D03D3181A6822EA01021A6033684FF07E
:10564C00FF325A643A7849F210431203C4F20D0344
:10565C00D31819687A6841EA02021A60DAF8000075
:10566C00456835B16B681F2B1BD8102B19D0ED6812
:10567C00F7E701F0A9FE2B46DFF8BC8400210022DD
:10568C0088E8060059609A60DAF800004568002D39
:10569C0000F0F3816A68232A2CD8142A2AD0ED68EA
:1056AC00F5E7103B6B60C368103BC3606A6882B956
:1056BC000168012900F0D980AB68002B00F0C9808B
:1056CC00EF6867B1DF60EA6893600368013B0360D1
:1056DC006A68296810208B1888500433CCE700299D
:1056EC00F7D083689B688360DA600368013B0360D2
:1056FC006A68EEE7143A6A60C268143AC2606A6873
:10570C00AAB90768012F00F0D581A968002900F01B
:10571C00C581D5F80CC0BCF1000F00F0B381C1F805
:10572C000CC0EA6891600268013A02606A682968F4
:10573C0014208D188850043540F200020021C4F268
:10574C00030240F20C006A602960C4F20300D0F836
:10575C0000C02CF0010CC0F800C042F20800C4F2EA
:10576C000D00D0F800C04CF0010CC0F800C042F2A3
:10577C000C00C4F20D00D0F800C04CF0010CC0F8C5
:10578C0000C042F21000C4F20D00D0F800C04CF082
:10579C00010CC0F800C0116040F20402C4F2030214
:1057AC000220106040F2280244F60000C4F203020A
:1057BC00C0F2E81010606A689163E04A002A00F0B9
:1057CC0085806868D0F818C04CF0010CC0F818C07F
:1057DC006868D0F80CC04CF0010CC0F80CC0A96083
:1057EC00D749EA60C1F88C204EF20012CEF20002CA
:1057FC004FF400211160D34F1D60D3483B6000F083
:10580C00BDFD23253B685A689B68134332D1CF48B2
:10581C0002F08CFF336803F11802116811F0200FAD
:10582C00FBD11D60336803F11802116811F0200FD1
:10583C00FBD17E221A60C54802F06EFF48F68051FB
:10584C00C0F25B0100223DA83D913E9202F020FF88
:10585C00D8E700293FF43DAF4368DB6843609A60AA
:10586C000368013B03606A6833E742608260026050
:10587C006A682EE7B64800F081FDB24B00251B6824
:10588C009F4803F1040206CA2346009501F0F2FD7D
:10589C002554204600F072FDAE4800F06FFD0A233F
:1058AC00CBF80030AC4800F069FDDAF80000AB4BE7
:1058BC00012244681A704495002C00F00081636842
:1058CC00272B10D8182B0ED0E468F5E76968886987
:1058DC0020F0010088616968C86840F00100C86068
:1058EC00AA60EA6087E7183B6360C368183BC36033
:1058FC00636893B90168012900F0FC80A268002A52
:10590C0000F0EC80E568002D00F0DC80D560E368E9
:10591C009A600368013B0360636822681821D418FD
:10592C00D150043402232370013363700533636058
:10593C004BF22003C4F20D03E36000224BF2204330
:10594C002261C4F20D031968042021F008011960CA
:10595C000123A3604BF20043C4F20D03196841F01C
:10596C000801196021786378043103EBC10144F21A
:10597C000003C4F20D0343F82100217849F21C43C3
:10598C000903C4F20D03CB18616819602178D4F8AF
:10599C0004C00803C9000CFA01F149F21873C4F2EF
:1059AC000D03C318186820EA0101196023695BB163
:1059BC0021786378204603EBC10349F8234044A9BE
:1059CC0043AB439203F03EFD4B940DF1FC0A0DF5F5
:1059DC00827902AC00254CF6C0720023C0F26A0238
:1059EC0050463F92409302F053FE5D4800F0C6FCD7
:1059FC0098E806003B685B4803F1040C9CE800182F
:105A0C0011EB0B0142EB0C022346009501F032FD29
:105A1C002554204600F0B2FC3B6812A931AA484636
:105A2C00FEF712FE834601F06BFE034647480193D6
:105A3C0002F07CFE019B002B0FDDD6F800E028461F
:105A4C000EF118011BF800C00A6812F0200FFBD1F0
:105A5C0001308342CEF800C0F4D1316801F1180254
:105A6C00136813F0200FFBD17E230B60374802F034
:105A7C0053FE4BA800F0FCFDADE7019301F0A4FC34
:105A8C00019B59E6002F3FF452AE81688968816012
:105A9C00CA600268013A02606A6848E6002F3FF467
:105AAC0046AE4168C96841608A600268013A02608A
:105ABC006A683CE64260826002606A6837E601F020
:105ACC0083FC2FE700293FF428AF8268926882603C
:105ADC00D3600368013B036063681EE700293FF451
:105AEC001CAF4268D268426093600368013B03605C
:105AFC00636812E743608360036063680DE700BF6F
:105B0C00E003002008020020840000205800002040
:105B1C00CD5B2000EC030020B8030020C0A92000BE
:105B2C00E80300206D5E20001CAA200028AA20009B
:105B3C000D5C2000DC03002000040020A15B200091
:105B4C00B80200200C04002048AA2000C00300204A
:105B5C006CAA200030AE200000AA200064000020B7
:105B6C0084AA20003000002040F2D433C2F200039B
:105B7C004DF804BD93E806004FF0010B11EB0B013F
:105B8C004FF0000C42EB0C0283E806005DF804BBFE
:105B9C00704700BF40F20043C2F200034DF804BD51
:105BAC0093E806004FF0010B11EB0B014FF0000CCA
:105BBC0042EB0C0283E806005DF804BB704700BFA3
:105BCC000D4B81B01B68ABB10C490A7892B998683F
:105BDC00013098600092009B42F2F172C0F209020F
:105BEC00934205D8009B01330093009B9342F9D953
:105BFC0000230B7001B0704784000020800000204F
:105C0C0030B505464AF6781081B00024C0F2200069
:105C1C008DF8034000F0B2FB284600F0AFFB0A23DE
:105C2C0068468DF800308DF8014000F0A7FB01B0FC
:105C3C0030BD00BF2DE9F04F814D8BB0814802F093
:105C4C0075FD2A7849F210431203C4F20D03D318E0
:105C5C001A6869687C4C22EA010221681A600023E8
:105C6C008DF8043001F118031A6812F0100FFBD1F3
:105C7C001A6812F0100FFBD1D1F800B05FFA8BFB51
:105C8C001A6812F0100FFBD10A68D2B20092D3F846
:105C9C00008018F01008FAD148F2A16748F29F660C
:105CAC00DFF8A8A14FF00109C0F20107C0F201060C
:105CBC001A68084612F0100F17D00BAA9044002255
:105CCC0008F8282C9DF80520002A40F0AF809DF89C
:105CDC0004C0BCF1230F3DD0009A5D4B0BEB0220AE
:105CEC001B6801A9984720688BE0B8F11E0FE4DC13
:105CFC001A6812F0100FFBD10A68D2B2B2F17E0111
:105D0C0018BF0121002A0CBF002001F00100F0B1E6
:105D1C000BA800EB080101F8282C08F101081A68FF
:105D2C0012F0100F0CD00122196811F0100F0BD0CB
:105D3C000132BA42F8D18AF80490464800F01EFBB2
:105D4C00216801F11803B3E7B242F9DDF3E700294A
:105D5C00F6D0E4E7DFF800C1DFF800E1DCF800C0C2
:105D6C00009C0CF1080999E800039EE8C00016EBB2
:105D7C0008060BEB042B47EB0907944609AC4FEADA
:105D8C00CC02C2F1200AA2F1200E07FA0AFA36FA66
:105D9C0002F227FA0EF84AEA020212EA2E0238BF81
:105DAC00424604F80C200CF1010CBCF1080FE6D1B2
:105DBC001A6812F0200FFBD15FFA8BF20A601A6896
:105DCC0012F0200FFBD1CBF3072BC1F800B0D3F8A6
:105DDC0000C01CF0200CFAD123220A6014F80CE04D
:105DEC001A6812F0200FFBD10CF1010CBCF1080F5A
:105DFC00C1F800E0F2D11A6812F0200FFBD17E231B
:105E0C000B604FF0FF3343642A7849F210431203BE
:105E1C00C4F20D03D31819686A680A4841EA0202F1
:105E2C001A6002F079FC0BB0BDE8F08F009B01A961
:105E3C000BEB0320064B1B6898472068E1E700BF7B
:105E4C00EC030020C0030020B80300203800002021
:105E5C00D00300207CA9200008040020D4030020DB
:105E6C002DE9F047DFF83C8188B04F4802F05EFC2A
:105E7C0098F8002049F210431203C4F20D03D31812
:105E8C001A68D8F80410494F22EA010239681A60DE
:105E9C0000238DF8003001F118031E6816F010066F
:105EAC00FBD148F2A16548F29F64DFF804A14FF0E2
:105EBC000109C0F20105C0F201041A68084612F08B
:105ECC00100F24D008A98E19002206F8202C9DF85A
:105EDC000030232B4DD0374B68461B6898473868E9
:105EEC004FF0FF33436498F8002049F2104312033B
:105EFC00C4F20D03D3181968D8F804202A4841EAD3
:105F0C0002021A6002F008FC08B0BDE8F0871E2EF1
:105F1C00D8DC1A6812F0100FFBD10A68D2B2B2F1B9
:105F2C007E0118BF0121002A0CBF002001F00100E6
:105F3C00E0B108A8811901F8202C01361A6812F07A
:105F4C00100F0CD00122196811F0100F0BD0013278
:105F5C00AA42F8D118488AF8049000F00FFA396870
:105F6C0001F11803A9E7A242F9DDF3E70029F6D005
:105F7C00E4E7134600240025EC4601331CF803101B
:105F8C00914008320C43082B45EAE175F5D10B4BD7
:105F9C0000211B6800225C609D60094B83E80600B1
:105FAC009EE700BFEC030020C0030020B8030020D4
:105FBC0038000020DC0300207CA920000C04002009
:105FCC000004002030B501F0C5FBB3494B68002B31
:105FDC0000F04B815A6846F20300824209D8B2F5B0
:105FEC00C04F06D0DB68002B00F03F815A6882421C
:105FFC00F5D9A2F5C0425A60CA68A748A2F5C042BA
:10600C00CA605A6892B90468012C00F0E380996860
:10601C00002900F01281DD68002D00F01A81CD609E
:10602C00DA6891600268013A02605A681968DFF810
:10603C006CC200238C18CCF80030CCF80430CCF8AF
:10604C000830CCF80C304BD04FF4C0408C50606012
:10605C00A360E360DCF80C301B18CCF80C30DCF8D7
:10606C00043051F802E06068002B00F094801D6849
:10607C007044A8420CBF1A461A4604D0D26812B11A
:10608C0011688842FAD159686D18AE4507D0DB68A3
:10609C00002B7FD01868596841188E45F7D11946E6
:1060AC001346C3B160685A6882186260DCF800005D
:1060BC00012800F087809A68002A00F09080DD6843
:1060CC00002D00F09B80D560DB689A60DCF8003016
:1060DC00013BCCF8003019B14A686368D3184B60A7
:1060EC006F4BC3F800C001F0C3FC01F03DFE6D4BDB
:1060FC0093E8300043F24803C4F20303186849F2F2
:10610C000043C4F20D031A6822F020021A6044F214
:10611C009403C4F20D0301221A6047F20803B5225E
:10612C00C4F20D031A6047F20002C4F20D021368A8
:10613C0013F0800FFBD047F21003C4F20D03D3F819
:10614C0000C047F20C03C4F20D031B68002144F697
:10615C006D6243EA0C2CC4F2C6120B1803FB02F35B
:10616C0003F540533933B3F1FF3F28BF01334E4A97
:10617C004CF30B1C8CEA030313604C4A012092E88D
:10618C00180000211B1844EB0104012B82E81800B5
:10619C0011D030BD1346DCF8001000293DD1A160B0
:1061AC00E160DCF80020CCF804400132CCF8084067
:1061BC00CCF8002075E7002CEBD13D4A14605460FC
:1061CC009460E6E70023CCF80430CCF80830CCF827
:1061DC00003080E74260826002605A6826E700283F
:1061EC003FF479AFDCF80430DB68CCF804309A600B
:1061FC00DCF80030013BCCF800306CE700283FF4B1
:10620C006AAFDCF808309B68CCF80830DD60DCF84D
:10621C000030013BCCF800305DE7DCF808200021B1
:10622C00D460DCF80820E160A260DCF80020CCF837
:10623C0008400132CCF8002033E7002C3FF4F6AED6
:10624C004168C96841608A600268013A02605A6814
:10625C00ECE6002C3FF4EAAE816889688160CA6084
:10626C000268013A02605A68E0E6124C012323717D
:10627C00114800F083F8114800F080F8DFF81CC0DA
:10628C000A2323600023CCF80030CCF80430CCF87F
:10629C000830CCF80C3023E7340D002048000020E7
:1062AC0058000020440D0020880000200800002029
:1062BC0010000020380000208CAA200030AE2000F6
:1062CC0010B501F041FB104A002313600F4A0A215C
:1062DC0013600F4A0120137111600E4A1160137183
:1062EC000D4A002192E818001B1844EB0104012B05
:1062FC0082E8180000D010BD002CFCD1074A1460B5
:10630C0054609460F7E700BFD0010020CC0100205E
:10631C004000002038000020080000201000002061
:10632C000C4B00221A605A600B4A0120002110B459
:10633C0092E818001B1844EB0104012B82E81800AA
:10634C0001D010BC7047002CFBD1044A146054607F
:10635C009460F6E75C00002008000020100000208C
:10636C0000B5004602F0AAFE00BD00BF00B502F069
:10637C00A5FE00BD00B503F02BFB00BD2DE9F045DB
:10638C00002507467C5D1C4EAA46DFF8708084B160
:10639C00092C29D00A2C18D03368204601333360DD
:1063AC0003F0E0FB33684F2B05DC01357C5D002CE2
:1063BC00EED1BDE8F0850D2003F0D4FB0A2003F0EC
:1063CC00D1FB0135C6F800A0F0E70D2003F0CAFBA5
:1063DC00204603F0C7FBD8F80030C6F800A0013304
:1063EC00C8F800300135E1E7204603F0BBFB336809
:1063FC00013508333360D9E7CC010020D0010020EF
:10640C0010B54AF6A42040F238040123C2F200046D
:10641C00C0F220002371FFF7B1FF4AF63060C0F2E2
:10642C002000FFF7ABFF0A23236010BD0A4A0120AE
:10643C00002110B492E818001B1844EB0104012B46
:10644C0082E8180001D010BC7047002CFBD1034A25
:10645C00146054609460F6E70800002010000020DF
:10646C0030B590B06A46044600F0F8FF10AB18182F
:10647C00002300F8403C6846FFF780FF6D4620463D
:10648C0010B030BD00B5344B83B01B78D3B90A22A1
:10649C0001928DF808300E2814D8DFE800F05A5617
:1064AC00524E423634302C082824201915002B4823
:1064BC000091FFF763FF01A80099FFF7D1FF28486F
:1064CC00FFF75CFF03B000BD2648FFF757FFF9E765
:1064DC0001A8FFF7C5FF2448FFF750FFF2E7234858
:1064EC00FFF74CFFEEE72248FFF748FFEAE72148A9
:1064FC00FFF744FFE6E72048FFF740FFE2E71F48BD
:10650C00FFF73CFFDEE71E48D2E71E480091FFF77D
:10651C0035FF01A80099FFF7A3FF1B48FFF72EFFDB
:10652C00D0E71A480091FFF729FF01A80099FFF75F
:10653C0097FF1748FFF722FFC4E71648FFF71EFF27
:10654C00C0E71548FFF71AFFBCE71448FFF716FF22
:10655C00B8E71348ACE700BF64000020F0AA2000A5
:10656C0030AE2000F4AC2000C0AC200098AC200071
:10657C0068AC200040AC200028AC200000AB200010
:10658C0014AC2000D4AB2000D8AB2000A8AB20006A
:10659C00ACAB200090AB200054AB200014AB20001F
:1065AC00D0AA20002DE9F04F044684B00D46904649
:1065BC0000295AD000273E460DF10809EA46BB4691
:1065CC0018E0DB68FF221A604846CDF80880039774
:1065DC0002F05EF823689A68022A2BD0DB686846C2
:1065EC00C3F800B00136CDF80080019702F050F8E6
:1065FC00B5423AD923689A68022AE2D1197849F24D
:10660C0000420903C4F20D028A1810685968DB684D
:10661C0008431060FF2018601368484623EA010104
:10662C001160CDF80880039702F032F823689A685D
:10663C00022AD3D1197849F200420903C4F20D029F
:10664C008A1810685968DB6808431060C3F800B0FA
:10665C001368684623EA010111600136CDF8008009
:10666C00019702F015F8B542C4D804B0BDE8F08F1C
:10667C00094B00B51B783BB149F2E0320321C0F263
:10668C000402FFF78FFF00BD48F2A0621E21C0F28A
:10669C000102FFF787FFF6E76400002084B070B4B6
:1066AC0003AC84E80F00079B0898022B059E049C02
:1066BC00039D069901D80C33013940F23752CFF6BD
:1066CC00F572821840F26D1000FB012048F21F5C3D
:1066DC00C5F2EB1C00EB9100ACFB012100EBD110DF
:1066EC004FEA430C00EB4310CCEB000001334CF6AB
:1066FC00CD4C03EB4303CCF6CC4CA0EB5111ACFBD3
:10670C000320A300A401E41A4FF4616303FB0644C5
:10671C0045F2801201EB9000C0F20102641902FBF9
:10672C00004070BC04B0704700B540F2E57388B00F
:10673C000593012306930793002304930B230393E0
:10674C001623029306AB93E803006B4683E8030021
:10675C0002AB0FCBFFF7A2FF08B000BD10B54AF695
:10676C00445082B0C0F22000FFF708FE0021072041
:10677C00FFF788FE48F28043C0F21E0302A80024F3
:10678C0020E91800684601F083FF4AF65C50C0F21D
:10679C002000FFF7F3FD012002B010BD10B544F24C
:1067AC00402282B00446C0F20F0202A8002320E966
:1067BC000C00684601F06CFF2046FFF7CFFF10B1CC
:1067CC00024B01221A70002002B010BD650000209F
:1067DC0010B5016042604AF6705090B0C0F22000D3
:1067EC00FFF7CCFD40F26803C2F2000340F2400018
:1067FC0059696A46C2F2000000F030FE10AB18185E
:10680C00002300F8403C6846FFF7B8FD4AF63060BC
:10681C00C0F220006C46FFF7B1FD10B010BD00BFF8
:10682C002DE9F04F4FF2FF7300F514180746C0F234
:10683C00270302EB08009EB0984203919246089001
:10684C0000F2858118F0030F40F0C681089807F517
:10685C00A023A0F50012013AD20ADB0A9342099256
:10686C0000F26F8103F58062511CC902FD4C069148
:10687C0003F500616118D20243F2080A05910292F5
:10688C000793C4F20D0A40F2FF76069B089ADDF8D6
:10689C0014C09A4294BFC8EB0202C8EB03020799DA
:1068AC009CF800300131072B0791019200F2B18066
:1068BC00032A40F243810398D8F8002003681A4059
:1068CC00934240F0A68003994346019AC8EB010C11
:1068DC0006E05CF8031018680840814240F099808B
:1068EC00043A0433032AF4D81B681C93BAB1DDF8BC
:1068FC000CC09DF870109CF800301CAD01EA03032D
:10690C008B4240F08680002306E0E95C1CF8030013
:10691C0001EA000088427CD101339342F5D358231D
:10692C001B681D93DAF8003013F0800FFAD1019830
:10693C0010F0030902BF00EB08010B91834631D123
:10694C00BBF1000F14D0002708F1040C0097C146CE
:10695C00CDF810B0CDF828C0039800991D9B00EB22
:10696C00810528464946049A984708B95F4536D3AD
:10697C00DDF82C800599069A0B780798013301F8FD
:10698C00013B0591029B099902F5006203F5006336
:10699C0088420692029300F2D480039A019BD2188B
:1069AC00039272E7019A1EAD4244C9EB02073B68A1
:1069BC000B9245F8083D284603994A4600F0ECFD39
:1069CC001D9B284639464A4698470028D0D13A683C
:1069DC001C9B9A42F4D1019B23F0030BB0E7D9F82E
:1069EC0000302A689A42B7D10A9AD3190437BB45AA
:1069FC00BED9DDF80CC0BA0853F8041B5CF82200B1
:106A0C008842F3D0C7EB0B00009207EB0809049007
:106A1C00A2E7029A424503D1089B0698834212D002
:106A2C00029A002352F8041BE150043340F2FC712B
:106A3C008B42F7D1029A40F2104CD2F8FC37C2F2DA
:106A4C00000CCCF8FC3754231B681D93DAF800506B
:106A5C0015F08005FAD1029F4FF4006907F1040B81
:106A6C001D9B38464946984708B9B5422BD9029A1E
:106A7C000599C2EB0800002320F003000B702018CE
:106A8C000399019A00F088FD58231B681D93DAF8CE
:106A9C00007017F08007FAD1DDF808904FF400630E
:106AAC0048460430BB46009304904FEA8B051D9B6F
:106ABC0060194946009A984700283CD1B74216D92C
:106ACC00019A904456E73B68B3F1FF3F08BF0BEBCC
:106ADC000503C5D10435B542C9D853F8042BB2F11E
:106AEC00FF3FF7D00298C5F500694719B8E7D9F808
:106AFC00003062599A42D8D10498C3190437B7426E
:106B0C0002D9019B984435E74FEA970B53F8042BB5
:106B1C0054F82B109142F1D00299C7F5006201EBA9
:106B2C00070900924FEA8B051D9B60194946009A94
:106B3C0098470028C2D0019988441BE74346019A24
:106B4C00D2E6A8F5141738461EB0BDE8F08F464CB7
:106B5C00012323714548FFF711FC0CAD10232A4685
:106B6C00414623602046002300F032FC1EA90B187E
:106B7C00002603F8486C2846FFF700FC3C48FFF75A
:106B8C00FDFB03992A46204600F0D6FC1EAA1318DA
:106B9C0003F8486C2846FFF7F1FB4FF00A0835481C
:106BAC00FFF7ECFB51462A463346C4F800802046DA
:106BBC0000F00EFC0DF1780C0CEB000303F8486CA4
:106BCC002846FFF7DBFB2C48FFF7D8FB2B48FFF7D9
:106BDC00D5FBC4F80080B6E7234C0123237123486E
:106BEC00FFF7CCFB0CAD10232A4641462360204610
:106BFC00002300F0EDFB1EA90B18002603F8486CCF
:106C0C002846FFF7BBFB1A48FFF7B8FB03992A4647
:106C1C00204600F091FC1EAA131803F8486C284675
:106C2C00FFF7ACFB4FF00A081248FFF7A7FB5146E1
:106C3C002A463346C4F80080204600F0C9FB0DF10B
:106C4C00780C0CEB000303F8486C2846FFF796FB16
:106C5C000B48FFF793FB0948FFF790FBC4F8008043
:106C6C0071E700BF100400203800002080AD200028
:106C7C00A0AD2000A4AD2000A8AD200030AE2000B7
:106C8C00E8AD200030B5002384B004461F488DF8D1
:106C9C000F30FFF773FB2046FFF746FD636869462C
:106CAC001860184600F0B4FA6068194C00F0D2FA7B
:106CBC00626942F6A8239A426D4623D02169521884
:106CCC0040F23101D008C3F20301A1FB00C1090A53
:106CDC0003FB112303EB4303980000F500306946D6
:106CEC000C221830FFF79CFD63690A48013363617D
:106CFC00FFF744FB4FF4003021461822FFF790FDBC
:106D0C0004B030BD0448FFF739FBF9E720AE200092
:106D1C006800002034AE200050AE20002DE9F04F6A
:106D2C00E14EA0B073694FF0000B00AF4FF00A0AB0
:106D3C005B45C7F870A087F874B040F30C81C7F8B6
:106D4C0008D0FAB0282BA8BF282305226846D749BB
:106D5C00FB6100F021FCF869E846584540F39F813F
:106D6C0040F231000DF105010DF109020DF10D0399
:106D7C00C3F20300F9607A613B616D464FF0050C7C
:106D8C0007F1700907F13004B861BBF1000F40F056
:106D9C00E7807369F3B140F26801C2F200010B693C
:106DAC00B869DA08A0FB020242F6A821120A01FB1C
:106DBC00123303EB43039B0003F51C1318331A46E1
:106DCC0052F8041BF86801605B6879690B605368C2
:106DDC003A6913604FF0000A4146042207F178002B
:106DEC00C7F800C000F04EFC87F87CA098F807109C
:106DFC0098F80630090441EA032198F8053098F810
:106E0C000A20194398F8083041EA036198F80930D0
:106E1C0043EA02233B6298F80C2098F80B3043EAC3
:106E2C0002237B6298F80D30BB6298F80E007960F3
:106E3C00F8629F48FFF7A2FA07F17800FFF79EFA75
:106E4C009C48FFF79BFA224653467968484600F067
:106E5C00BFFA07F18001081800F850AC2046FFF784
:106E6C008DFA9548FFF78AFA396A53462246484606
:106E7C0000F0AEFA07F18002101800F850AC204672
:106E8C00FFF77CFA8D48FFF779FA796A2246534668
:106E9C00484600F09DFA07F18003181800F850AC32
:106EAC002046FFF76BFA8648FFF768FA22465346EE
:106EBC00B96A484600F08CFA07F18001081800F80E
:106ECC0050AC2046FFF75AFA7E48FFF757FA534664
:106EDC00F96A2246484600F07BFA07F18002101846
:106EEC0000F850AC2046FFF749FA7748FFF746FA0E
:106EFC000A23D7F800C03B67FB690BF1010B0A357D
:106F0C009B450CF10A0CFFF640AF7048FFF736FAC0
:106F1C0040F23105D7F81CA00024C3F2030542F659
:106F2C00A828336901340133DA08A5FB0202120ADE
:106F3C0008FB1233336173696548013B7361FFF7DA
:106F4C001DFA18224FF400305749FFF769FC5445DD
:106F5C00E7DBD7F808D007F18007BD46BDE8F08F16
:106F6C0073695B451FD940F26800C2F200000369E7
:106F7C00B8695B44DA08A0FB020242F6A820120AA8
:106F8C0000FB123303EB43039B0003F51C13183374
:106F9C001A4652F8040B08EB0C0148F80C005B681D
:106FAC004B6053688B6095F807A0AB794FEA0A4A9F
:106FBC004AEA032A6B79AA7A4AEA030A2B7A4548E9
:106FCC004AEA036A6B7A43EA02233B622A7BEB7A36
:106FDC0043EA02237B62697BB962AA7BC7F800C0D3
:106FEC00FA62FFF7CBF9514622460023484600F0DF
:106FFC00EFF907F180034FF0000A181800F850ACB5
:10700C002046FFF7BBF92C48FFF7B8F92246534648
:10701C00396A484600F0DCF907F18001081800F8DD
:10702C0050AC2046FFF7AAF92448FFF7A7F9796A74
:10703C0053462246484600F0CBF907F1800210185F
:10704C0000F850AC2046FFF799F91D48FFF796F968
:10705C00B96A22465346484600F0BAF907F1800354
:10706C00181800F850AC2046FFF788F91548FFF7C0
:10707C0085F922465346F96A484600F0A9F907F10A
:10708C008001081800F850AC2046FFF777F90E483D
:10709C00FFF774F90A223A67D7F800C02CE70B48BF
:1070AC00FFF76CF955E700BF6800002074AE2000B4
:1070BC007CAE20008CAE20009CAE2000A8AE200040
:1070CC00B0AE2000B8AE200030AE2000D4AE200010
:1070DC0034AE2000C4AE20004AF6E46010B5C0F215
:1070EC002000FFF74BF940F268044AF6FC63C2F249
:1070FC000004C0F220030FCB84E80F004AF6346082
:10710C000023C0F2200023616361FFF737F92146A9
:10711C0018224FF40030FFF783FB10BD30B5274C1D
:10712C00002323616361264B0FCB84E80F002548B5
:10713C00FFF724F940F21400A4464FF41C13C0F2DC
:10714C002700E21819680433A2F51C1283421B4D68
:10715C001160F6D11B681A48CCF81430294600F09F
:10716C0067FA002820D12A6942F6A8239A4202D84D
:10717C006A699A421ED91448FFF700F9FFF7ACFF71
:10718C00124A012092E8180000211B1844EB01045C
:10719C00012B82E8180000D030BD002CFCD10C4A29
:1071AC00146054609460F7E70A48FFF7E7F8FFF7BC
:1071BC0093FFE5E70848FFF7E1F8E1E768000020F6
:1071CC00FCAE20000CAF200044AF200008000020D3
:1071DC001000002020AF200068AF20000A4A0120D8
:1071EC00002110B492E818001B1844EB0104012B89
:1071FC0082E8180001D010BC7047002CFBD1034A68
:10720C00146054609460F6E7080000201000002021
:10721C00F0B500F10C050F4606460A24284601F08D
:10722C00D3FA31462246384600F0B6F9284601F02A
:10723C00B7FA2046F0BD00BF10B50121044600F19D
:10724C000C0001F08DFA0022234643F8042B6260F7
:10725C009A8010BD2DE9F04582464AF630664AF612
:10726C008C7092B000244FF00A08C0F22006C0F2D5
:10727C002000CDF840808DF84440FFF77FF8304671
:10728C00FFF77CF812AF4AF6987047F8088DC0F2F9
:10729C002000FFF773F8BAF804106A462346384604
:1072AC0000F096F812AB181800F8484C6846FFF737
:1072BC0065F83046FFF762F84AF6A070C0F220007D
:1072CC00CDF84080FFF75AF8BAF806106A46234604
:1072DC00384600F07DF812AB181800F8484C684698
:1072EC00FFF74CF83046FFF749F84AF6A870C0F2A1
:1072FC002000CDF84080FFF741F89AF808106A4654
:10730C002346384600F064F812AB181800F8484CC5
:10731C006846FFF733F83046FFF730F84AF6B0709E
:10732C00C0F22000CDF84080FFF728F89AF8091039
:10733C006A462346384600F04BF812AB181800F892
:10734C00484C6846FFF71AF83046FFF717F84AF62C
:10735C00B870C0F22000CDF84080FFF70FF8DAF8D3
:10736C0000106A462346384600F032F812AB181863
:10737C0000F8484C6846FFF701F83046FEF7FEFF70
:10738C0030466D46CDF84080FEF7F8FF12B0BDE8F0
:10739C00F08500BF0A4A0120002110B492E81800C1
:1073AC001B1844EB0104012B82E8180001D010BC1F
:1073BC007047002CFBD1034A146054609460F6E7CC
:1073CC00080000201000002000B5FEF7D3FF00BD20
:1073DC0070B400293BD0B1F5807F1BD9D0F800C028
:1073EC00BCF1080F14BF00240124BCF1100F08BF1E
:1073FC0044F0010484B14FF0300C02F803C0D0F813
:10740C0000C00133BCF1100F06D14FF0780C02F81C
:10741C0003C00133D0F800C00C465D1CB4FBFCF477
:10742C001E462B46002CF8D10B4C9219B1FBFCF3E9
:10743C000CFB131C14F80C3002F80139D0F800C006
:10744C00B1FBFCF10029F1D1284670BC704730210A
:10745C00D154581CF9E700BFC4AF2000002900B577
:10746C0003DB0023FFF7B4FF00BD2D23137049424B
:10747C000123F7E72DE9F04F144651EA0402814647
:10748C000D469B46099E4BD0002C4ED0D9F800706F
:10749C00082F14BF00230123102F08BF43F0010352
:1074AC006BB130230BF80630D9F800700136102F71
:1074BC0005D178230BF806300136D9F800703F4619
:1074CC004FEAE778284621463A46434602F028FE22
:1074DC0006F1010A50EA010233465646F4D10BEB91
:1074EC000306DFF850B03A4643462846214602F0E0
:1074FC00C3FF1BF80030214606F80139D9F800709B
:10750C0028463F464FEAE77843463A4602F008FEE3
:10751C0050EA010305460C46E5D15046BDE8F08F14
:10752C0030230BF80630701CF8E7B1F5807FADD82E
:10753C00C3E700BFC4AF2000302310B41370084C55
:10754C0078235370072301F00F0C14F80CC0D018DB
:10755C000909013B80F802C0F5D20A2010BC704723
:10756C00C4AF20000A4A0120002110B492E8180090
:10757C001B1844EB0104012B82E8180001D010BC4D
:10758C007047002CFBD1034A146054609460F6E7FA
:10759C0008000020100000200F2A30B405460C46CD
:1075AC0042D941EA000313F0030F02BF14468C4684
:1075BC00034609D0002314F803C005F803C00133B7
:1075CC009A42F8D130BC7047DCF80050103C1D607A
:1075DC00DCF804505D60DCF808509D60DCF80C5061
:1075EC000CF1100CDD6010330F2CEDD8A2F110044F
:1075FC0004F00F0224F00F04103405190C19032A9F
:10760C0012D9002354F803C045F803C00433C3EB6C
:10761C00020CBCF1030FF5D8043A22F00303043337
:10762C00ED18E41802F00302002AC3D1CAE700BF28
:10763C0041EA000313F0030F03D103680A68934275
:10764C000CD002789AB10B789A4212D0D01A7047AB
:10765C0050F8043F51F8042F9342F2D1A3F10132B8
:10766C0022EA030313F0803FF2D00020EFE70B78FF
:10767C00ECE742780131002AF9D00B7801309A42BC
:10768C00E4D1F6E741EA000313F0030F14BF002323
:10769C000123032A94BF002303F0010310B4002B31
:1076AC002CD00346D1F800C0ACF1013424EA0C0410
:1076BC0014F0803F1BD0C2B10C789C46013A0CF8F8
:1076CC00014B54B1023382B111F8014F9C4603F8BF
:1076DC00014C013A0133002CF5D132B1002319468B
:1076EC000CF8031001339A42FAD110BC7047043ADB
:1076FC000431032A43F804CBDDD9D3E70346DAE798
:10770C0010F0030F08BF034609D0037803B30346F8
:10771C0001E01A78D2B1013313F0030FF9D11A68D2
:10772C00A2F1013121EA020212F0803F08D153F894
:10773C00042FA2F1013121EA020212F0803FF6D0AF
:10774C001A781AB113F8012F002AFBD1181A7047B6
:10775C001846FCE700B500F003F800F095F800BD02
:10776C00DFF81CC147F2F832C2F20002CCEB020285
:10777C0070B4002A4AD00023424DCCF800C0CCF89B
:10778C000420CCF80830CCF80C30EB686446D318E5
:10779C00EB606B68002B3CD01E680CEB8200B04297
:1077AC000CBF1A461A4604D0D26812B1116888422E
:1077BC00FAD1596806EB8106B44208D0DB68002B7D
:1077CC0026D05868196801EB80018C42F6D1194615
:1077DC001346ABB1DCF804005A688218CCF80420CC
:1077EC002C68284A012C23D09868002825D0DD6805
:1077FC00002D3AD0C560DB6898601368013B1360BC
:10780C0021B14A68DCF80430D3184B6070BC704767
:10781C0013462A681B48D2B90121CCF80820CCF8B1
:10782C000C200160C0F804C0C0F808C01146D0E7B5
:10783C000023536093601360E2E7002CE0D05368A0
:10784C00DB68536098601368013B1360D8E781686C
:10785C000132C1F80CC08168CCF808100021CCF8BA
:10786C000C10C0F808C00260B3E7002CC8D09368B5
:10787C009B689360DD601368013B1360C0E700BF39
:10788C004C0D0020340D002043F20C03C4F2030312
:10789C001A68122022F001021A6042F20802C4F2A5
:1078AC000D02116841F00801116042F20C02C4F2A1
:1078BC000D02116841F00801116042F21002C4F28D
:1078CC000D02116841F00801116043F20002002121
:1078DC00C4F20302116043F20402C4F2030210600A
:1078EC0043F22802C4F203024FF0FF30106043F25F
:1078FC003802C4F20302116043F21802C4F203020C
:10790C00116841F0010111601A6842F001021A601D
:10791C00704700BF0A4A0120002110B492E81800F9
:10792C001B1844EB0104012B82E8180001D010BC99
:10793C007047002CFBD1034A146054609460F6E746
:10794C0008000020100000204CF22043C4F20D036C
:10795C001A6822F0C0021A604CF20043C4F20D0304
:10796C001A6822F0C0021A6044F2F8030122C4F231
:10797C000D031A6044F2FC03C4F20D031A6042F2C8
:10798C000002C4F20D0211684FF6F873CFF6DC63F7
:10799C0001EA030343F4081342F204011360C4F236
:1079AC000D010A6840F20003C0F2011302EA03035E
:1079BC00002BF6D142F20003C4F20D031A6822F434
:1079CC00E0621A6042F20402C4F20D02136813F072
:1079DC00806FFBD0704700BF4EF61453CEF20003FD
:1079EC001A6842F001021A6042F29803C4F20D03C5
:1079FC001A6842F001021A604EF60853CEF20003E8
:107A0C004FF401121A6070470A4A0120002110B489
:107A1C0092E818001B1844EB0104012B82E81800B3
:107A2C0001D010BC7047002CFBD1034A1460546089
:107A3C009460F6E708000020100000200A4A01209C
:107A4C00002110B492E818001B1844EB0104012B20
:107A5C0082E8180001D010BC7047002CFBD1034AFF
:107A6C00146054609460F6E70800002010000020B9
:107A7C0000B5FFF7B1FF00F077FB00F02DF800F038
:107A8C00C9F800F003F800F0ABF900BD044B082274
:107A9C0003F5807183F8002801338B42FAD17047CB
:107AAC00100400200A4A0120002110B492E81800AA
:107ABC001B1844EB0104012B82E8180001D010BC08
:107ACC007047002CFBD1034A146054609460F6E7B5
:107ADC0008000020100000204EF210034EF2180295
:107AEC00CEF200030021CEF20002196011604EF2BA
:107AFC001402CEF200024FF4FA41116006221A6011
:107B0C0049F69D2140F2B822C2F20002C0F22001D7
:107B1C00D1631A6842F001021A6070470A4A0120C8
:107B2C00002110B492E818001B1844EB0104012B3F
:107B3C0082E8180001D010BC7047002CFBD1034A1E
:107B4C00146054609460F6E70800002010000020D8
:107B5C0040F292030022C2F200031A7040F2910329
:107B6C00C2F200031A7040F28C03C2F2000302212D
:107B7C00196040F62453C2F200031A6040F63053E9
:107B8C00C2F2000349F2380C1A60C4F2080C032349
:107B9C0049F2400049F24C01CCF8003030B4C4F248
:107BAC0008000424C4F2080149F244030460C4F23E
:107BBC0008030A601D6845F040051D601D6845F00E
:107BCC0008051D601D6845F008051D602023CCF8D4
:107BDC00004002600B6049F25003C4F208031A68BB
:107BEC0042F080021A601A6842F010021A6049F2E0
:107BFC001C03C4F2080301221A6049F22403C4F2E4
:107C0C0008031A6049F22C03C4F208031C6030BC50
:107C1C00704700BF4BF22043C4F20D031A682DE9E4
:107C2C00F04822F004021A604BF20043C4F20D0338
:107C3C001A6842F004021A604BF21003C4F20D03EE
:107C4C00FF221A6049F23C02C4F20802136843F0A6
:107C5C0001031360136843F002031360136813F0FD
:107C6C00800FFBD049F20403C4F208031A6822F017
:107C7C0001021A60FFF76CFF1D4B01221A601D4AAE
:107C8C001D4BC3F8F0204EF20413CEF200034FF458
:107C9C0080521A60EFF31087FFB207B162B6174833
:107CAC0043F24806C4F2030690E80018316800223B
:107CBC005B4612EB010B49F20002C0F2D03243F1E9
:107CCC00000C00231BEB020B4CEB030C90E80C009C
:107CDC00316800241546621845F100039C45F5D81F
:107CEC0001D19345F2D807B162B6BDE8F08800BF68
:107CFC008C000020099D2000B8020020440D0020BB
:107D0C000A4A0120002110B492E818001B1844EB19
:107D1C000104012B82E8180001D010BC7047002C24
:107D2C00FBD1034A146054609460F6E7080000200D
:107D3C00100000200A4A0120002110B492E818001B
:107D4C001B1844EB0104012B82E8180001D010BC75
:107D5C007047002CFBD1034A146054609460F6E722
:107D6C00080000201000002000B500F089FA00F097
:107D7C0001F800BD704700BF0A4A0120002110B471
:107D8C0092E818001B1844EB0104012B82E8180040
:107D9C0001D010BC7047002CFBD1034A1460546016
:107DAC009460F6E708000020100000200A4A012029
:107DBC00002110B492E818001B1844EB0104012BAD
:107DCC0082E8180001D010BC7047002CFBD1034A8C
:107DDC00146054609460F6E7080000201000002046
:107DEC0070B582B0944D00232868019341680B460E
:107DFC00002900F01C814A68272A08D8182A06D0C6
:107E0C00DB68002B00F013815A68272AF6D9183A40
:107E1C005A60C268183AC2605A688AB90468012C60
:107E2C0000F0B3809E68002E00F0D580D968002940
:107E3C0000F0E480F160DA68013C046096605A68F6
:107E4C001B6818219C189950043403236370082371
:107E5C0063604AF22003C4F20D03E36001210022A7
:107E6C004AF2204321702261C4F20D03186820F0FD
:107E7C00080018604AF20043A160C4F20D031968AF
:107E8C00042041F00801196021786378043103EB78
:107E9C00C10144F20003C4F20D0343F82100217820
:107EAC0049F21C430903C4F20D03CB186168196035
:107EBC002178D4F804C00803C9000CFA01F149F286
:107ECC001873C4F20D03C318186820EA0101196075
:107EDC00236963B163782178204603EBC101574BCA
:107EEC00009243F8214001A96B4601F0ABFA544EC5
:107EFC00F460286841680B46002900F094804A68B9
:107F0C001F2A08D8102A06D0DB68002B00F08B80C3
:107F1C005A681F2AF6D9103A5A60C268103AC260E1
:107F2C005A6872B90468012C34D09D68002D5CD05D
:107F3C00D96800296DD0E960DA68013C046095606D
:107F4C005A681B681020991898500A1D0523136055
:107F5C00022353600323936049F20043C4F20D03E0
:107F6C00196821F02001196044F29403C4F20D0346
:107F7C0001211960334BDA60F3689A68022A0ED03B
:107F8C00DB6800221A6002B070BD02604260826041
:107F9C005A6855E70260426082605A68D1E71978E6
:107FAC0049F200420903C4F20D028A18106859689C
:107FBC0040EA01011160DA6800211160197849F278
:107FCC0000420903C4F20D028A1811685B6821EAA9
:107FDC0003031360D7E7002C3FF432AFC968013CB0
:107FEC00046041608A605A682AE7002CA9D0C968ED
:107FFC00013C046041608A605A68A2E7002C3FF49F
:10800C001FAF8168013C896804608160CA605A684E
:10801C0016E7002C95D08168013C8968046081606A
:10802C00CA605A688DE7FFF7CFF900228EE7FFF799
:10803C00CBF9002409E700BF5800002008020020FB
:10804C0088020020A802002040F64453C2F200032C
:10805C004DF804BD93E806004FF0010B11EB0B013A
:10806C004FF0000C42EB0C0283E806005DF804BBF9
:10807C00704700BF49F21803C4F208031A6840F6AF
:10808C001853C2F20003196841EA02021A6049F25D
:10809C000803C4F208031A6840F61C53C2F200032A
:1080AC00196841EA02021A6049F21003C4F208038B
:1080BC001A6840F62053C2F20003196841EA020222
:1080CC001A60704748F60C0340F20422C4F208030D
:1080DC00C2F200021968106840EA01011160002226
:1080EC001A604EF28013CEF200034FF080621A60D9
:1080FC004EF28023CEF200031A6070474EF28413C6
:10810C00CEF2000302221A604EF28423CEF2000358
:10811C001A6070470368232B0DD0252B13D0272B07
:10812C0019D0332B01BF43F22403C4F203034FF0E5
:10813C00FF321A60704740F22403C4F203034FF07D
:10814C00FF321A60F6E741F22403C4F203034FF046
:10815C00FF321A60EEE742F22403C4F203034FF03D
:10816C00FF321A60E6E700BF72B64EF280134FF092
:10817C00FF32CEF200031A604EF28413CEF20003EB
:10818C001A601B491B4A0023CA500433B3F5807F85
:10819C00FAD10023DFF860C018464CF80300043312
:1081AC00B3F5807F144AF8D1144BC2F88C30C2F866
:1081BC009430C2F89C30C2F8CC30114BC2F8A830C5
:1081CC00104BC2F8C430104BC2F8F0300F4B136494
:1081DC0053649364D3640E4B0822CB600D4BC1F8EF
:1081EC00CC304EF20413CEF200031A60704700BF7D
:1081FC00B80200203197200094000020218120003B
:10820C0009812000D180200081802000C9932000AA
:10821C0069972000558020000A4A0120002110B4E3
:10822C0092E818001B1844EB0104012B82E818009B
:10823C0001D010BC7047002CFBD1034A1460546071
:10824C009460F6E708000020100000200A4A012084
:10825C00002110B492E818001B1844EB0104012B08
:10826C0082E8180001D010BC7047002CFBD1034AE7
:10827C00146054609460F6E70800002010000020A1
:10828C0010B5314B186841680B46002957D04A6825
:10829C00272A07D8182A05D0DB68002B4FD05A683C
:1082AC00272AF7D9183A5A60C268183AC2605A6835
:1082BC0092B9D0F800C0BCF1010F1FD09C68002C03
:1082CC0024D0D96800292DD0E160DA680CF1FF3C8C
:1082DC00C0F800C094605A68196818208B18885030
:1082EC0004331A490122196119491A605A601A7229
:1082FC00486840B1DA60174A136010BD02604260F2
:10830C0082605A68E8E74B605A68F3E7BCF1000FEB
:10831C00E2D0C9680CF1FF3CC0F800C041608A6033
:10832C005A68D9E7BCF1000FD6D081680CF1FF3C3C
:10833C008968C0F800C08160CA605A68CCE7FFF752
:10834C0043F80023CDE700BF58000020ED83200048
:10835C00100D002098010020014B0360704700BFF6
:10836C004CB02000014B0360704700BF4CB02000A4
:10837C000D4B00221A605A609A600C4A01200021B1
:10838C0010B492E818001B1844EB0104012B82E88E
:10839C00180001D010BC7047002CFBD1044A1460AB
:1083AC0054609460F6E700BF9C0100200800002098
:1083BC001000002000B5406800F0F2F900BD00BFCD
:1083CC00024B00B5036001F021FE00BD4CB0200053
:1083DC00024B00B5036001F019FE00BD4CB020004B
:1083EC00F0B572B63F4B1A6801321A603E4A1368F8
:1083FC002BB15168486801380028486007DD00231C
:10840C0062B61BB1986803689B689847F0BD012B56
:10841C003CD0CB680020536098601368013B13601C
:10842C00CB6823B1D3F804C04868604458600B682B
:10843C00D868B0F1FF3F03D00138D8600028DFD0F6
:10844C00D3F810C02848C1F804C01668002E35D0E7
:10845C0047687C68A445B8BF3D4609DBF868F8B1AD
:10846C00C4EB0C0CC1F804C044680546A44514DAEE
:10847C00A868002829D0CCEB040C0136C5F804C040
:10848C00C160A960CD6088601660B9E700235360B5
:10849C0093601368013B1360C2E7C0680028DFD10A
:1084AC009068C4EB0C0CC1608860C1F804C000205B
:1084BC00C8609160116801311160A1E701228E60E2
:1084CC00CE600260416081609AE7CCEB040CC5F889
:1084DC0004C08860CF60B9605160116801311160CF
:1084EC008EE700BF940100209C01002030B472B6CE
:1084FC00DFF880C0DCF80410E9B10B68984218BFB3
:10850C000B462BD0DB68B3B11A689042FAD1DCF879
:10851C000000184C012811D09D68002D20D0DA687D
:10852C0092B1EA60DA680138956020601AB151683E
:10853C005B68CB18536062B630BC70470022626037
:10854C00A2602260DA68F1E70028F4D0A168013853
:10855C0089682060A160CA60DA68E7E70B46D6E755
:10856C0008B9DA68E2E7CA68013862602060956091
:10857C00DA68DBE79C010020C360434BF0B591E85F
:10858C00C0001B6804465B68A26015464FF47A7203
:10859C00B2FBF3F244F24023C0F20F0380E8C000B8
:1085AC00B3FBF2F212464FF000035F084FEA3206BB
:1085BC0003C9361847EB01073046394601F0B0FDC8
:1085CC00002320616461A061E361236272B628B963
:1085DC0062B62B6828469B689847F0BDDFF8ACC0A4
:1085EC0004F11401DCF80060002E33D0DCF80470C8
:1085FC007A689042B8BF3D461BDBFB6843B1801ADA
:10860C0048605A681D46904220DAA069824210DC0C
:10861C00DCF80830821AD960A261E361002323627E
:10862C00DCF80030CCF808100133CCF8003062B61E
:10863C00D3E7AB68CBB1121A01366A60D960A96076
:10864C002562E361CCF8006062B6C6E7DB68002BFC
:10865C00D5D1DAE70123E6612662CCF80030CCF8FC
:10866C000410CCF8081062B6B7E7121A6A60E3611E
:10867C00DCF8003027620133B960CCF80030CCF85C
:10868C00041062B6A9E700BF980100209C010020ED
:10869C0070B58FB009AC06460021204600F060F89A
:1086AC000B4B31460DAA0D93684601230E94FFF730
:1086BC0063FF204600F088F86846FFF717FF054B6C
:1086CC0020466D460D9300F093F80FB070BD00BFBF
:1086DC0038B020004CB0200000230360436083605E
:1086EC00037370470A4A0120002110B492E8180065
:1086FC001B1844EB0104012B82E8180001D010BCBC
:10870C007047002CFBD1034A146054609460F6E768
:10871C00080000201000002000B572B6036813B9E1
:10872C00037362B600BD00F051FCFBE700B572B6F6
:10873C004FF0010C00F10C01D1E84F2FC1E843CFF1
:10874C00002BF9D112F0FF0F01D162B600BD00F081
:10875C00A9F8FBE700B572B600F04AFB00BD00BFFC
:10876C000023036043608360C16070470A4A0120A4
:10877C00002110B492E818001B1844EB0104012BE3
:10878C0082E8180001D010BC7047002CFBD1034AC2
:10879C00146054609460F6E708000020100000207C
:1087AC0000B572B600F10C0151E8002F02F1010284
:1087BC0041E80023002BF7D1002A01DD62B600BD91
:1087CC0000F004FCFBE700BF00B572B600F10C0131
:1087DC0051E8002FA2F1010241E80023002BF7D150
:1087EC00002A01DB62B600BD00F05CF8FBE700BFBD
:1087FC0000B572B600F0FCFA00BD00BF0A4A0120B9
:10880C00002110B492E818001B1844EB0104012B52
:10881C0082E8180001D010BC7047002CFBD1034A31
:10882C00146054609460F6E70800002010000020EB
:10883C000F4A0023D3601360536093600D4A0120EC
:10884C00136053600C4A002110B492E818001B18F6
:10885C0044EB0104012B82E8180001D010BC7047D6
:10886C00002CFBD1054A146054609460F6E700BFFD
:10887C00AC010020C00100200800002010000020E6
:10888C00884200B509D003694BB100230B6150F845
:10889C000C3FCB68C96801F08FFB62B600BD0123A9
:1088AC000361F2E75C492DE9F045CB68CB681A68A7
:1088BC00CB68CB6802F11C069E4263D00B68012B7F
:1088CC0000F08380D46B002C72D0156C002D00F05E
:1088DC0081806562D2F840C0013BCCF820400B602F
:1088EC00D0F8008003231361B8F1000F25D0D0F825
:1088FC0004A002F12007DAF80430D2F820C00AF103
:10890C0004059C452EDA5346D5F800E0D2F820C079
:10891C00E6451BDC836808F101085E62D363002323
:10892C001364C0F800808660CB68506119681046EB
:10893C000122FFF7A5FFBDE8F0850123C2F83C80BA
:10894C00C2F84080036046608660EDE71C6A002C2C
:10895C0056D008F1010866621E621364D463C0F835
:10896C000080E1E7DAF8243023B9CCE75C6A002C0C
:10897C00CAD02346D3F804E0D7F800C01D1DE64545
:10898C00F4DDC1E70B687BB1012B30D0D1F804C00A
:10899C000024DCF824E0013BC1F804E00B60CEF8C5
:1089AC002040C1F80CC09BE79C46C1F80CC097E76F
:1089BC00002B95D0D1F804C0013BDCF824C00B602F
:1089CC00C1F804C0CCF820408AE700234B608B60D0
:1089DC000B6085E7002B83D0D1F808C0013BDCF895
:1089EC0020C00B60C1F808C0CCF8245078E7D1F84F
:1089FC0004C000234B608B600B60C1F80CC06FE7A8
:108A0C0008F10108D463C2F840A0CAF82060C0F88D
:108A1C000080466088E700BFAC0100202DE9F045DE
:108A2C00044672B6614B6248196804F11C070131A7
:108A3C001960C368C368002B64D0D0F80080B8F10B
:108A4C00000F1FD0D0F804A004F12006DAF80410AF
:108A5C00236A0AF10405994256DD5346D5F800C045
:108A6C00216A8C4569DC83685F62E36300232364BD
:108A7C0003688760013303604E4B18687AB9A260B3
:108A8C00BDE8F0850123C4F83C80C4F84080036045
:108A9C0047608760474B18680AB9F0E7013212F05B
:108AAC00030FFBD1456804320F2A98BF10222B46C6
:108ABC00002D76D0696802F1100C8C4507D99142D3
:108ACC0005D0DB68002B6CD059686145F7D3891A47
:108ADC005960C168891AC160596871B90668012E5C
:108AEC0036D09F68002F42D0DD68002D4BD0FD6042
:108AFC00D968013E06608F6059681B6858185A5037
:108B0C00021DBCE7C760C5E7DAF82430002BA4D0FF
:108B1C00D3F804C031681D1D8C459FDC596A0029AF
:108B2C009CD00B46D3F804C031681D1D8C45F5DD77
:108B3C00D5F800C0216A8C4595DD196A69B108F138
:108B4C0001084F621F622364E163C0F80080A1E753
:108B5C000160416081605968CFE70368E1630133CC
:108B6C00C4F840A0CAF820700360476092E7002E5A
:108B7C00C3D0D5F80CC0013E0660C0F804C0CCF8D8
:108B8C0008105968B9E7002EB7D0D0F808C0013EDC
:108B9C00DCF808C00660C0F808C0CCF80C105968A6
:108BAC00ABE7FEF711FC002269E700BFBC01002017
:108BBC00AC01002058000020F0B572B63D4BDA68CD
:108BCC00DA681068DA681A68002A3DD059686FF0C4
:108BDC00004CD1F804E0E64536D0012AD3F80CE07D
:108BEC0055D0D1F824C00024013AC3F804C01A604F
:108BFC00CCF820401E682F4AD960002E2AD0576826
:108C0C000EF104057A68DEF804103C1D914243DB3A
:108C1C007A6A002A40D0D2F804C02968141D8C4509
:108C2C0023DDD4F800C0DEF804108C4522DC9A68F1
:108C3C00C2F824E0CEF820200022CEF824201A68B6
:108C4C00C3F808E001321A60DB6801221968FFF7EB
:108C5C0017FEF0BD0121CEF82060CEF82460116023
:108C6C00C2F804E0C2F808E0EEE7516A0029D8D057
:108C7C000A46D0E7116A89B10136C1F824E0C2F87E
:108C8C0020E0CEF82420CEF820101E60DCE7002275
:108C9C005A609A601A60ADE73A46C2E71A68CEF895
:108CAC0020100132CEF82470C7F820E01A60C3F807
:108CBC0004E0C9E7AC01002030B5114D114C2A6815
:108CCC002368012B06D962B630BF002AF8D0FFF713
:108CDC0073FFF4E772B60C4C0C48FDF74FFB0A25FA
:108CEC000B48FDF74BFB25600A48FDF747FB08488E
:108CFC00FDF744FB256000F04FFE30BF002030BD77
:108D0C00AC010020BC0100203800002084B0200001
:108D1C0030AE2000A0B02000344BF0B5DA681C68EF
:108D2C001068DA682CB9DB6801221968FFF7A8FD16
:108D3C00F0BDD3F80CE05F680EF104067A68DEF83B
:108D4C0004103D1D914243DB7A6A002A40D0D2F8D0
:108D5C0004C03168151D8C451FDDD5F800C0DEF848
:108D6C0004108C451EDC9A681C68C2F824E0CEF80E
:108D7C00202001340022CEF824201C60C3F808E027
:108D8C004CB1012C1BD05C680021626A5A601162E4
:108D9C001A68013A1A60DC60C5E7516A0029DCD018
:108DAC000A46D4E7116AA9B10134C1F824E0C2F82B
:108DBC0020E0CEF82420CEF820101C60E0E7002242
:108DCC005C689A605A601A68DC60013A1A60AAE71B
:108DDC003A46C2E71C68CEF820100134CEF8247055
:108DEC00C7F820E01C60C3F804E0C9E7AC01002020
:108DFC002DE9F04F434D0446EB680368002B74D00B
:108E0C0000264FF001082F46012B40D06268013B31
:108E1C00516A236061600E621268C2F81080EB68C0
:108E2C00EB68566102F11C0C002B26D0D7F800A081
:108E3C00BAF1000F30D0D7F8049002F1200ED9F817
:108E4C000410136A09F1040099422EDD4B460068A8
:108E5C00116A88423CDCAB68C3F824C0D3632B682E
:108E6C0016640133C5F808C02B60FFF755FF72B6C6
:108E7C002368002BC8D1BDE8F08FC7F80CC0FFF7F2
:108E8C004BFF72B62368002BF5D0012BBED1626864
:108E9C00A66066602660BFE7D6631664C7F80080DC
:108EAC00C7F804C0C7F808C0E9E7D9F8243023B9DB
:108EBC00CCE7596A0029CAD00B46D3F804B0DEF8C7
:108ECC000010181D8B45F4DD0068116A8842C2DD64
:108EDC00196A61B10AF1010AC1F824C0C3F820C0B3
:108EEC001364D163C5F800A0C9E762B6C3E72B6869
:108EFC00D1630133C2F84090C9F820C02B60C5F88B
:108F0C0004C0BCE7AC010020C368036910B5012B99
:108F1C0018D00369B3B12C4BDA68D96800F11C0284
:108F2C0091421CD01A68012A29D0C16B002935D076
:108F3C00046C002C3FD04C62D0F840C0013ACCF805
:108F4C0020101A600369012B01D062B610BD026AB1
:108F5C006FF000439A42F8D0FFF7DEFEF6E71A688E
:108F6C00CAB1012A10D059680024D1F824C0013AA2
:108F7C00C3F804C01A60CCF82040D960E2E70022A4
:108F8C005A609A601A60DDE7596800225A609A604C
:108F9C001A60D960D6E71146D960D3E7002AD1D040
:108FAC00D3F804C0013ADCF824C01A60C3F804C03A
:108FBC00CCF82010C6E7002AC4D09968013A096A97
:108FCC001A6099604C62BDE7AC0100203A4BF0B5D9
:108FDC00DA680268002A37D0012A43D041684FF082
:108FEC00000ED1F824C0013AC0F804C00260CCF8DD
:108FFC0020E0096801200861D3F80CC0DD6800226C
:10900C004A6101F11C042C4A002D1FD01668002E59
:10901C0020D0576801F120057A68086A07F1040E20
:10902C00904225DA3A46DEF800C0086A84452EDC08
:10903C009A685462CA6300220A641A689C600132FE
:10904C001A60FFF769FE00E062B6F0BDD460FFF76E
:10905C0063FEFAE7CE630E64106054609460FFF711
:10906C005BFEF2E700224168826042600260C0E76A
:10907C007A6A22B9D6E7506A0028D4D00246D2F8D0
:10908C0004C0286802F1040E8445F4DDCBE7106AB5
:10909C0040B10136446214620A64C8631E60FFF773
:1090AC003BFED2E71A68C86301320F643C621A6057
:1090BC005C60FFF731FEC8E7AC0100202DE9F04100
:1090CC0072B69E4BDA68DA68D9681268D3F80CC0AD
:1090DC0002F11C018C4500F09E801968012900F0FA
:1090EC00DF80D46B002C00F0AE80156C002D00F0EE
:1090FC00EA806562D2F840C00139CCF82040196092
:10910C0091680860042111618D4908680138086074
:10911C009169002900F09180916901240C61D2F8C9
:10912C0018C0D868D86885490CF11C0570B30F6855
:10913C00002F00F0A180D1F804800CF12006D8F8A3
:10914C000410DCF8200008F104048842C0F2DD8031
:10915C00D8F82410002900F0D880D1F804E0306849
:10916C000C1D86457DDDD4F800E0DCF8200086453A
:10917C0000F38A8099681C684D62CCF83C1001346D
:10918C000021CCF840101C609D6001E00C68CD60A3
:10919C00002191616949D8683CB9DB6810461968AF
:1091AC000122FFF76DFBBDE8F081D1F80CE04F68B0
:1091BC000EF104067868DEF804103D1D884200F3B9
:1091CC00A280796A002900F09E80D1F804C0306832
:1091DC000D1D84454BDDD5F800C0DEF80400844538
:1091EC0063DC99681C68C1F824E0CEF820100134C7
:1091FC000021CEF824101C60C3F808E04CB1012CFF
:10920C006FD05C680020616A596008621968013986
:10921C001960DC60C1E7196889B101296AD0D3F8FB
:10922C0004C00024DCF824E00139C3F804E0196020
:10923C00CEF82040C3F80CC062E71C68AAE78C4645
:10924C00C3F80CC05CE700293FF45AAFD3F804C054
:10925C000139DCF824C01960C3F804C0CCF82040F4
:10926C004EE7486A00283FF47EAF014675E7486A2E
:10927C000028B0D00146A8E7CCF83C70CCF8407080
:10928C000C604D608D6083E7086A00283FD07C1C21
:10929C0045620D62CCF84010CCF83C001C6077E7BE
:1092AC0000215960996019602AE7086A002839D0B2
:1092BC000134C0F824E0C1F820E0CEF82410CEF838
:1092CC0020001C609AE700293FF41AAFD3F808C0BD
:1092DC000139DCF820C01960C3F808C0CCF8245060
:1092EC000EE700215C68996059601968DC600139EF
:1092FC00196052E7D3F804C00021596099601960D5
:10930C00C3F80CC0FCE6394665E741462BE71C6800
:10931C00CCF83C000134CCF84080C8F820501C60DC
:10932C005D6035E71C68CEF820000134CEF824705F
:10933C00C7F820E01C60C3F804E05FE7AC01002034
:10934C00BC010020704700BF174A0120002110B457
:10935C0092E818001B1844EB0104012B82E818005A
:10936C001AD0124A012092E8180000211B1844EB75
:10937C000104012B82E8180001D010BC7047002CAE
:10938C00FBD10B4A146054609460D46054619461B6
:10939C00D46114625462F0E7002CE2D1054A1460E7
:1093AC0054609460DDE700BF08000020D401002069
:1093BC00DC01002010000020704700BF2DE9F04FA9
:1093CC00016840F2C903C0F20403CB1881B09B02C0
:1093DC000093A1F11002009903F5837301F5E37B6F
:1093EC009B004FEA8B0B164D1F68DBF800908046F4
:1093FC004FEAC20A05EB42150024012616FA04F3C3
:10940C003B4204D103FA0AF313EA090F05D02B6887
:10941C001BB11B690BB14046984701340435082C2D
:10942C00ECD1009A02F5827303339B004FF0FF32AC
:10943C001A60DBF80030CBF8003001B0BDE8F08FDB
:10944C00080200202DE9F00790F800C0D2B2BCF160
:10945C001F0F0CF1100800F2AB80012505FA0CF57A
:10946C004EF28014CEF2000425604EF28024CEF22F
:10947C000004256040F2D904C0F204046444A40240
:10948C0004F58277BD004068D5F800A0C6430AEA0F
:10949C00060AC5F800A0DFF85C91DFF85CA109684A
:1094AC004AF8289004F5807A0AF101084FEA8808F6
:1094BC00D8F80090012909EA0609C8F8009063D091
:1094CC0002295AD000293CD04FEACC0610FA06F6F5
:1094DC000337BF0004F5E37138608900D1F80080D0
:1094EC00F74308EA0708C1F80080296841EA000040
:1094FC00286092B11B68012B6DD03BB904F5E07369
:10950C0001339B001A6802EA07071F6004F5E27436
:10951C00A400236843EA06062660BCF11F0F22D97B
:10952C00BCF13F0F0AD80123ACF1200C03FA0CFC60
:10953C004EF20413CEF20003C3F800C0BDE8F007EE
:10954C00704704F581718900D1F800800AF1030A93
:10955C0008EA06060E604FEA8A0ADAF800100143A0
:10956C00CAF80010B0E7012303FA0CFC4EF200130A
:10957C00CEF20003C3F800C0E0E704F58171890066
:10958C000E6806430E609FE704F581718900D1F8DF
:10959C0000800AF1030A08EA0608C1F800804FEAC5
:1095AC008A0ADAF8001001EA0606CAF800608BE7AE
:1095BC00BCF13F0F3FF65EAFACF120040125A54096
:1095CC004EF28414CEF2000425604EF28424CEF2C6
:1095DC00000425604EE704F5E07301339B001A6824
:1095EC0004F5E27432431A60A400236843EA0606C9
:1095FC00266092E7C5932000B80200200A4A012099
:10960C00002110B492E818001B1844EB0104012B44
:10961C0082E8180001D010BC7047002CFBD1034A23
:10962C00146054609460F6E70800002010000020DD
:10963C000E4B0F4A01201A6000225A609A60DA60C1
:10964C000C4A002110B492E818001B1844EB0104DA
:10965C00012B82E8180001D010BC7047002CFBD104
:10966C00054A146054609460F6E700BF980200202D
:10967C006CA92000080000201000002040F2982364
:10968C00024AC2F200031A60704700BF6CA92000A6
:10969C00EFF3038000F03F0001B500F035F8BDE8B2
:1096AC0001404FF001034FEA03630D4941F0010102
:1096BC000C4AA2F101020EB42DE90F10BFF36F8F0B
:1096CC00704707DFFDE7079800F400704FEAD010F1
:1096DC0000F120008544BFF36F8F70477047000086
:1096EC00CE962000F596200000B540F2B82381B04C
:1096FC0001AAC2F2000342F8040D53F82030684668
:10970C00984701B000BD00BF00B5054B81B053F8C0
:10971C00203000900BB16846984701B000BD00BFE7
:10972C0094000020704700BF0A4A0120002110B4A9
:10973C0092E818001B1844EB0104012B82E8180076
:10974C0001D010BC7047002CFBD1034A146054604C
:10975C009460F6E7080000201000002000B500F02F
:10976C0037F900BD012810B51DD0D8B97048FEF7E7
:10977C00F1FF704A1369002B00F0D880117849F280
:10978C0010430803C4F20D03C3181868D2F804C0C0
:10979C0020EA0C0018605378002203EBC101664BE1
:1097AC0043F8212010BD634A022313704BF2204171
:1097BC0006235370C4F20D014BF20013D1F800C014
:1097CC00C4F20D034020D3600023136193605060FA
:1097DC002CF0400C4BF20042C1F800C0C4F20D0258
:1097EC001168DFF858C121F04001116044F2D80231
:1097FC000421C4F20D0211604BF21C42C4F20D02A2
:10980C0010604BF21872C4F20D0211684FF0FF3069
:10981C0021F4800111604A4A0A211371116042F24D
:10982C002802C4F20D0211684FF0110E41F0010133
:10983C00116042F22C02C4F20D02116841F00101D8
:10984C00116042F23002C4F20D02116841F00101C4
:10985C00116044F20402C4F20D02136044F284025B
:10986C000821C4F20D02116044F28002C4F20D0210
:10987C00136044F20012C4F20D02136049F220424C
:10988C00C4F20D02116841F0030111604CF20002A8
:10989C00C4F20002CCF800204CF23002C4F20002F8
:1098AC00116821F0010111604CF24401C4F2000175
:1098BC0008604CF238014CF22400C4F20001C4F2EE
:1098CC0000000B60C0F800E04CF22800C4F200006D
:1098DC004FF0050EC0F800E04CF22C00C4F2000072
:1098EC004FF0700EC0F800E0302008601168CCF822
:1098FC00043041F4407141F0010111600C48FEF755
:10990C00EBFE104A012092E8180000211B1844EBD2
:10991C000104012B82E818007FF444AF002C7FF483
:10992C0041AF094A1460546094603BE7117832E708
:10993C00C0030020EC03002008020020B803002024
:10994C00E0030020080000201000002000B50120DA
:10995C00FFF708FF00BD00BF00B50020FFF702FFB6
:10996C0000BD00BF0A4A0120002110B492E8180083
:10997C001B1844EB0104012B82E8180001D010BC29
:10998C007047002CFBD1034A146054609460F6E7D6
:10999C00080000201000002000B54BF2E40081B05C
:1099AC00C0F22000FCF7EAFC4AF63060C0F220005E
:1099BC00FCF7E4FC40F23803C2F200030A221A60FE
:1099CC005C231B680093009B984701B000BD00BF4F
:1099DC002DE9F04172B61E4D1E4E15F8014C4FF09C
:1099EC0000081D4F8CB1092C2AD00A2C1BD03368CF
:1099FC0020460133336000F0B5F833684F2B08DC98
:109A0C00013515F8014C002CEDD1FFF7C5FFBDE871
:109A1C00F0810D2000F0A6F80A2000F0A3F8013523
:109A2C00C6F80080EDE70D2000F09CF8204600F011
:109A3C0099F83B68C6F8008001333B600135E0E7DC
:109A4C00204600F08FF83368013508333360D8E7CF
:109A5C00F9B02000CC010020D00100200A4A0120DE
:109A6C00002110B492E818001B1844EB0104012BE0
:109A7C0082E8180001D010BC7047002CFBD1034ABF
:109A8C00146054609460F6E7080000201000002079
:109A9C0030B50B4C0546236823B1DA68013ADA601D
:109AAC00DA683AB1636823B15A682846DA601B69F0
:109ABC00984730BD5A68DA601B699847F2E700BFD7
:109ACC00100D00200A4A0120002110B492E8180061
