:020000040020DA
:10400000F87F00201D412000A9A42000A9A42000C1
:10401000A9A42000A9A42000A9A42000A9A42000EC
:10402000A9A42000A9A42000A9A42000DFA42000A6
:10403000A9A42000A9A42000A9A42000A9A42000CC
:10404000A9A42000A9A42000A9A42000A9A42000BC
:10405000A9A42000A9A42000A9A42000A9A42000AC
:10406000A9A42000A9A42000A9A42000A9A420009C
:10407000A9A42000A9A42000A9A42000A9A420008C
:10408000A9A42000A9A42000A9A42000A9A420007C
:10409000A9A42000A9A42000A9A42000A9A420006C
:1040A000A9A42000A9A42000A9A42000A9A420005C
:1040B000A9A42000A9A42000A9A42000A9A420004C
:1040C000A9A42000A9A42000A9A42000A9A420003C
:1040D000A9A42000A9A42000A9A42000A9A420002C
:1040E000A9A42000A9A42000A9A42000A9A420001C
:1040F000A9A42000A9A4200010B5074C54F8043C42
:10410000B3F1FF3F06D0043C984754F8043DB3F1A7
:0C411000FF3FF9D110BD00BF6CC42000BF
:10411C0040400949094A086004319142FBDBFFF732
:10412C00E5FF00BF00F046FA01F082FD01B407F094
:10413C00BFFC02F0AFFA000004000020500D00207C
:10414C0043680A1D5BB1D0F80CC00133CCF80420D5
:10415C004FF0000CC1F808C04360C26070478B6020
:10416C0001238260C2604360F8E700BF10B444686A
:10417C00012C17D0836801F1040C9C4517D04BB16E
:10418C005A682AB1944503D013465268002AF9D1D3
:10419C008A685A60C268944508BFC360013C446099
:1041AC0010BC704700238360C3604360F8E7002CA9
:1041BC00F6D08B68013C83604460F1E730B58468CD
:1041CC0005464CB12068294603681B68984764680B
:1041DC00002CF7D1012030BD2046FCE7F0B54B6A2E
:1041EC0081B004460D461746002B37D0AC462360F1
:1041FC005CF8043B04F1200E2361BCE80F00AEE830
:10420C000F009CE807008EE807000026AA6A66618A
:10421C00A661E461E663266405F12001204605F001
:10422C0003FBAB6AA2686660D218A2F140034FF0A0
:10423C00807142F8401C0B4A01A942F001029A63BA
:10424C0047F00102DA63204641F8047DE3606946D9
:10425C004FF4406205F05EFD01B0F0BD024B1B68EF
:10426C00C4E700BF95662000AC010020294B30B597
:10427C00186844682246002C47D06368572B07D82F
:10428C00482B11D0D268002A3FD05368572BF7D94E
:10429C00483B5360C1684839C16053B1126848212A
:1042AC00D018D150043030BD00235360C168483958
:1042BC00C160016801290BD0956875B1D468BCB197
:1042CC00EC60D2F80CC00139CCF808500160E5E77D
:1042DC000021416081600160E0E70029DED0D4F864
:1042EC000CC00139C0F804C00160CCF80850D5E707
:1042FC000029D3D0D0F808C00139DCF808C001601F
:10430C00C0F808C0CCF80C40C8E703F08DFF0020C3
:10431C00C9E700BF58000020F0B598B00024002277
:10432C00002316940692079304920593029203932A
:10433C00169B4FF4406701930094089409940A97D4
:10434C00FFF794FF69461B4A0546FFF747FF6FF0DE
:10435C000043002217930023119212930F92109393
:10436C000D920E93179B01260C93139414940B9699
:10437C001597FFF77BFF0BA90F4AFFF72FFF0F4B8A
:10438C00E8681E7006F07CFC0D4A012092E81800CB
:10439C0000211B1844EB0104B34282E8180001D041
:1043AC0018B0F0BD002CFBD1064A14605460946028
:1043BC00F6E700BF30412000D19A2000CC0100204C
:1043CC0008000020100000202DE9F007754E7368DE
:1043DC00002B78D05968002975D0DFF8CC81B24613
:1043EC0000270022D8F800505A60F268521AF26086
:1043FC005A68C2B9DAF80040012C00F08480986841
:10440C00002800F0A880D3F80CC0BCF1000F00F01D
:10441C00B280C0F80CC0DA689060DAF80020013A7B
:10442C00CAF800205A681C68A41849D00F2947D92B
:10443C0061602460A760E760EB6859186B68E960FD
:10444C00D4F800C06068002B4DD0D3F800906044C5
:10445C0048450CBF1A461A4604D0D26812B11168EE
:10446C008842FAD159688944CC4507D0DB68002BC7
:10447C0038D01868596841188C45F7D1194613463D
:10448C00CBB160685A68821862602868012802BF44
:10449C006F60AF602F600ED09A68002A3BD0D3F8C3
:1044AC000CC0BCF1000F40D0C2F80CC0DB689A60A5
:1044BC002B68013B2B6019B14A686368D3184B60B9
:1044CC007368002B1AD1394A012092E81800002198
:1044DC001B1844EB0104012B82E818005BD0BDE8EB
:1044EC00F007704713462968002929D1A160E160C3
:1044FC002A686C600132AC602A60C1E759680029F7
:10450C007FF46FAFDFE7CAF80420CAF80820CAF8B6
:10451C0000205A6887E70028CDD06B68DB686B6099
:10452C009A602B68013B2B60C5E70028C3D0AB68B1
:10453C009B68AB60C3F80CC02B68013B2B60BAE7DF
:10454C00AA683946D460AA68E760A2602A68AC60A1
:10455C0001322A6094E7002C3FF465AFDAF80400CE
:10456C00C068CAF804008260DAF80020013ACAF880
:10457C0000205A6857E7002C3FF455AFDAF80800D2
:10458C008068CAF80800C260DAF80020013ACAF85C
:10459C0000205A6847E7002CA1D1054A14605460EA
:1045AC0094609CE7380D0020580000200800002083
:1045BC0010000020704700BF0E4B0A2100221A7118
:1045CC0019600D4B01201A710C4A196010B492E855
:1045DC00180000211B1844EB0104012B82E8180081
:1045EC0001D010BC7047002CFBD1054A14605460FC
:1045FC009460F6E72800002020000020080000202E
:10460C00100000200D4B0A221A6000221A710C4A6D
:10461C000120002110B492E818001B1844EB01048F
:10462C00012B82E8180001D010BC7047002CFBD184
:10463C00044A146054609460F6E700BF3000002018
:10464C0008000020100000202DE9F0438CB00E462D
:10465C00044668469046139F03F0DAFC33686D46B7
:10466C009A68022A5CD0DB68FF221A60D8F8003006
:10467C009A68022A72D0DB68FF221A6048F28042E4
:10468C0000230CA8C0F21E0220E90C0004F006FF67
:10469C00614B186833689A68022A79D0DB6800226B
:1046AC001A60D8F800309A68022A00F09580DB680E
:1046BC0000221A60594B1968594B01F1040999E809
:1046CC0000030CCB4FF0010112EB08028DF808101F
:1046DC008DF8090000923B88ADF80410ADF80A3053
:1046EC007A88ADF80610ADF80C20BB882146ADF8E1
:1046FC000E30FA886846ADF810203B89ADF81230C0
:10470C007F89ADF8147003F021FC684603F096FC29
:10471C0005F1180004F072FF16200CB0BDE8F08310
:10472C00197849F200420903C4F20D028A18106884
:10473C00596808431060DA68FF2010601A7849F253
:10474C0000431203C4F20D03D3181A6822EA0101C4
:10475C001960D8F800309A68022A8CD1197849F27D
:10476C0000420903C4F20D028A1810685968084304
:10477C001060DA68FF2010601A7849F200431203C7
:10478C00C4F20D03D3181A6822EA0101196075E707
:10479C00197849F200420903C4F20D028A18D2F8C2
:1047AC0000C059684CEA010CC2F800C0DA684FF03E
:1047BC00000CC2F800C01A7849F200431203C4F28C
:1047CC000D03D3181A6822EA01011960D8F80030D9
:1047DC009A68022A7FF46BAF197849F200420903F8
:1047EC00C4F20D028A18D2F800C059684CEA010CC8
:1047FC00C2F800C0DA684FF0000CC2F800C01A789A
:10480C0049F200431203C4F20D03D3181A6822EACA
:10481C00010119604EE700BFEC03002010040020DA
:10482C0004040020F0B5854B01228FB01A700023D0
:10483C000D93834B0C46186841680B46002900F019
:10484C00F9804A68272A08D8182A06D0DB68002B7A
:10485C0000F0F0805A68272AF6D9183A5A60C268D4
:10486C00183AC2605A688AB90568012D00F0C880F0
:10487C009E68002E00F0C980D968002900F0CF8016
:10488C00F160DA68013D056096605A681B68182172
:10489C009D189950043502232B7003236B70082349
:1048AC006B604BF22003C4F20D03EB6000224BF261
:1048BC0020432A61C4F20D031968042021F0080179
:1048CC0019600123AB604BF20043C4F20D0319686D
:1048DC0041F00801196029786B78043103EBC101B0
:1048EC0044F20003C4F20D0343F82100297849F285
:1048FC001C430903C4F20D03CB18696819602978AD
:10490C00D5F804C00803C9000CFA01F149F2187378
:10491C00C4F20D03C318186820EA010119602B6951
:10492C0063B16B782978284603EBC101454B0C9297
:10493C0043F821500DA90CAB05F08AFC68460AAF70
:10494C000EAE0E9503F064FB314638466A4602F013
:10495C0057FBA37862781B0443EA0223227838467B
:10496C001343E2786D4643EA02630093627923793C
:10497C0043EA0223ADF80430E279A37943EA022337
:10498C00ADF80630237AE27A8DF80830637A8DF828
:10499C000930237B1B0443EA0223A27A1343627B74
:1049AC0043EA0263ADF80A301B0CADF80C30237CE3
:1049BC00E27B1B0443EA0223A27B1343627C43EA9F
:1049CC000263ADF80E301B0CADF81030237DE27C89
:1049DC001B0443EA0223A27C1343627D43EA026375
:1049EC00ADF812301B0CADF8143002F0D1FA304691
:1049FC00012101F0D1FF06A804F000FE0FB0F0BDBC
:104A0C000260426082605A6840E7002D3FF43EAF7E
:104A1C00C968013D056041608A605A6836E7002D1F
:104A2C003FF434AF8168013D896805608160CA60DC
:104A3C005A682BE703F0F8FB00252CE764000020F4
:104A4C00580000200C0200202DE9F04FDFF8FCB6D6
:104A5C00DFF8FC360122DBF80000A3B01A7000234B
:104A6C00209343684BB15A68272A00F2BD82182A5A
:104A7C0000F0BA82DB68002BF5D103F0D5FB0024E3
:104A8C000223237001336370053363604BF2200300
:104A9C00C4F20D03E36000224BF220432261C4F206
:104AAC000D031968042021F0080119600123A3608B
:104ABC004BF20043C4F20D03196841F00801196070
:104ACC0021786378043103EBC10144F20003C4F292
:104ADC000D0343F82100217849F21C430903C4F269
:104AEC000D03CB18616819602178D4F804C0080351
:104AFC00C9000CFA01F149F21873C4F20D03C31882
:104B0C00186820EA010119602369002B00F00D835D
:104B1C00DFF84036DFF83C6607932178637820464F
:104B2C0003EBC10346F8234020A91FAB1F9205F0ED
:104B3C008FFB23AE46F8044D304601F069FF44F27A
:104B4C004021C0F20F01002208AD1CA81C911D923F
:104B5C001AAC04F0A3FC284603F05AFA31462A4654
:104B6C00204602F04DFA204601F0A6FF42F228033F
:104B7C00C4F20D031A68002542F002021A6042F2D8
:104B8C002C03C4F20D031A684FF0FF3142F00202FD
:104B9C001A6042F23003C4F20D031A68D02042F0BE
:104BAC0002021A6044F25C03C4F20D0302221A6082
:104BBC0044F2DC03C4F20D0306321A6044F2D8034B
:104BCC00C4F20D031D6044F20813C4F20D030E323F
:104BDC001A604BF22043C4F20D031A6840F2BC3643
:104BEC0042F0C0021A604DF23003C4F200031A689E
:104BFC00C2F2000622F001021A604DF24402C4F225
:104C0C00000211604DF238024DF22401C4F2000290
:104C1C00C4F20001156008604DF22801C4F20001D5
:104C2C003E2008604DF22C01C4F2000132300860C5
:104C3C00302111601A68DFF8200542F4407242F00E
:104C4C0001021A60012272604DF20002C4F20002ED
:104C5C0032601A6822F080021A6001F023FDDFF83E
:104C6C00FC34DBF800001D6043684BB15A68232A02
:104C7C0000F2D781142A00F0D481DB68002BF5D127
:104C8C0003F0D2FA002640F2D83300220021C2F2FF
:104C9C00000383E806004020B160F26049F2500A3C
:104CAC0005F066FEC4F2080A49F23803C4F20803A0
:104CBC0052464EF260384FF00009DFF8A4C4DFF81A
:104CCC00A45405969A46C0F216084E4613469CF814
:104CDC0000102A68032A40F36181EFF31081C9B2F6
:104CEC0072B60427CAF800701A6801B962B612F0DD
:104CFC00010F00F05381B8F1000F8CF8001040F355
:104D0C00B4810093CDF810C005F0FCFD009BDDF8DC
:104D1C0010C00646462E00F0A08101224FF000097B
:104D2C00582E0CBF002102F001010029CFD1B9F19E
:104D3C00030F059E49D08A46002200210591069258
:104D4C0049F2380849F25009C4F208080423C4F2A5
:104D5C00080901962A68032AFCDDEFF31082D2B20F
:104D6C0072B6C8F80030D9F8001002B962B611F06A
:104D7C00010FEFD08CF800200093CDF810C005F097
:104D8C00C1FD524600F0FF004FF0000106F0C2F8E2
:104D9C0005AFC0CF0AF1080A06430F43BAF1400F22
:104DAC000290039105960697009BDDF810C0D1D1B7
:104DBC00019E40F2D83705AA06CA0023B160F26002
:104DCC00C2F20007002287E80C00DBF80000436801
:104DDC004BB15A68232A00F2E980142A00F0E680CD
:104DEC00DB68002BF5D103F01FFA002340F2000220
:104DFC000021C4F2030240F20C005A601960C4F2A4
:104E0C000300D0F800C02CF0010CC0F800C042F236
:104E1C000800C4F20D00D0F800C04CF0010CC0F832
:104E2C0000C042F20C00C4F20D00D0F800C04CF0EF
:104E3C00010CC0F800C042F21000C4F20D00D0F812
:104E4C0000C04CF0010CC0F800C0116040F204022C
:104E5C00C4F203020220106040F2280244F6000063
:104E6C00C4F20302C0F2E81010605A689163BE4AA3
:104E7C00002A00F05D815868D0F818C04CF0010C85
:104E8C00C0F818C05868D0F80CC04CF0010CC0F831
:104E9C000CC09960B549DA60C1F88C204EF2001252
:104EAC00CEF200024FF4002111607360B04BB14D93
:104EBC004AF220111E60C0F20701002212A81291C2
:104ECC00139204F0EBFA2A780123219349F2104350
:104EDC001203C4F20D03D3181A686968284622EA33
:104EEC0001021A60A44B2A782B616B7821A903EB81
:104EFC00C203079A40F2BC3642F8235000221EAB84
:104F0C001E9205F0A5F99D4801F0CCFB9C4A9D4BE7
:104F1C0069681A602A7849F210431203C4F20D032F
:104F2C00D3181A68C2F2000622EA01021A6033682A
:104F3C004FF0FF325A642A7849F210431203C4F23C
:104F4C000D03D31819686A688F4841EA02021A6087
:104F5C0001F0A8FB4AF22011C0F20701002218A8A8
:104F6C001891199204F09AFA16AE14AD48F28042D8
:104F7C000023C0F21E0230461692179304F08EFAEC
:104F8C0040F60011C0F23D01002228461491159202
:104F9C0004F084FA204602F005FDE7E708F1FF383B
:104FAC0008F10102002A3FF794AEA4E6143A5A60C5
:104FBC00C268143AC2605A6882B90568012D78D06B
:104FCC00996800296AD0DF68002F00F0A280CF60BA
:104FDC00DA6891600268013A02605A681968142014
:104FEC008B188850043301E7183A5A60C268183A93
:104FFC00C2605A687AB90468012C6AD09968002991
:10500C005CD0DD68002D79D0CD60DA6891600268E3
:10501C00013A02605A681B6818219C189950043494
:10502C002EE5143A5A60C268143AC2605A6872B9D2
:10503C000568012D5DD0996800294FD0DE6816B344
:10504C00CE60DA6891600268013A02605A681B68A7
:10505C0014219E189950043615E609F10109B9F18D
:10506C00020FCCBF002201225AE640204EF26038DB
:10507C000093CDF810C0C0F2160805F079FCDDF8ED
:10508C0010C0009B46E6002DE1D0816889688160E4
:10509C00CA600268013A02605A68D8E7002D9DD0B8
:1050AC004168C96841608A600268013A02605A68C6
:1050BC0094E74260826002605A688FE7002CAAD0A5
:1050CC004168C96841608A600268013A02605A68A6
:1050DC00A1E74260826002605A689CE7002DB6D05E
:1050EC004168C96841608A600268013A02605A6886
:1050FC00ADE74260826002605A68A8E7002C8AD053
:10510C00816889688160CA600268013A02605A68E5
:10511C0081E7002D3FF462AF816889688160CA60C5
:10512C000268013A02605A6858E70A49079100E59B
:10513C005968886920F0010088615968C86840F096
:10514C000100C8609A60DA60AFE600BF580000202A
:10515C00640000200C02002064BB2000EC03002043
:10516C009400002090000020715E2000BC02002002
:10517C000C040020F00300203D5F20007CBB2000CD
:10518C0031482000D4030020A4BB20002DE9F04FAF
:10519C004AF22042D8B0012400258DF8D4408DF875
:1051AC00D550C4F20D0213684AF2040723F0010330
:1051BC0013604AF20043C4F20D03196844F2000074
:1051CC00214319609DF8D4C09DF8D5100CF1040C46
:1051DC00C4F20D00C4F20D0701EBCC0C0421369483
:1051EC0038973995379440F82C109DF8D4E049F253
:1051FC001C4C4FEA0E3EC4F20D0CF444CCF80040AB
:10520C009DF8D4E049F2187C4FEA0E364FEACE0EE8
:10521C0004FA0EFEC4F20D0CB444DCF80060DFF8A6
:10522C00A8B926EA0E0ECCF800E049F2004CC4F204
:10523C000D0CDCF80080022628F00408CCF8008065
:10524C0044F28808C4F20D08C8F800403D60DCF850
:10525C0000700DF1D40827F01007CCF8007044F260
:10526C0090074FF0030ECDF83481C4F20D070DF505
:10527C008C7846964796CDF820E1CDF8388143914D
:10528C004496CDF814E13C6005274097DCF800709B
:10529C00419627F02007CCF8007044F2940CC4F22D
:1052AC000D0CCCF800404AF2100C8DF8C0408DF873
:1052BC00C160C4F20D0CCDF8CCC0D2F800C0CDF852
:1052CC0008E12CF0040CC2F800C0D3F800C03191F6
:1052DC004CEA010CC3F800C09DF8C0709DF8C1C029
:1052EC007F180CEBC70C3495329440F82C109DF8B9
:1052FC00C07049F21C4C3F03C4F20D0CBC44CCF8FA
:10530C0000109DF8C07049F2187C4FEA073807FA74
:10531C000EF711FA07F7C4F20D0CC444DCF8008048
:10532C0028EA0707CCF800708DF8AC408DF8ADE09A
:10533C00D2F800C04FF008082CF0080CC2F800C0DE
:10534C00D3F800C04AF2200EC4F20D0E4CEA080C41
:10535C00CDF8B080CDF8B8E02F952D94C3F800C0EF
:10536C009DF8AC709DF8ADC07F180CEBC70C40F8E5
:10537C002C109DF8AC7049F21C4C3F03C4F20D0C80
:10538C00BC44CCF800809DF8AC7049F2187C4FEA14
:10539C00073AFF0008FA07F7C4F20D0CD444DCF806
:1053AC0000A02AEA0707CCF800700DF1540C2BAFC3
:1053BC00CCF80070CCF808700DF5867A40AFCCF8BC
:1053CC000C70CCF804A00DF1C00CCDF864C04AF2FE
:1053DC00080CCEF80050C4F20D0C8DF898408DF8E6
:1053EC009940CDF8A4C0D2F800C027962CF0020C3E
:1053FC00C2F800C0D3F800C02A954CEA060CC3F8DA
:10540C0000C09DF898E09DF899C08E440CEBCE0C32
:10541C00289440F82C109DF898E049F21C4C4FEA67
:10542C000E3EC4F20D0CF444CCF800609DF898E0EC
:10543C0049F2187C4FEA0E374FEACE0E06FA0EFEF2
:10544C00C4F20D0CBC44DCF8007027EA0E0ECCF84C
:10545C0000E04AF2400EC4F20D0E8DF884408DF837
:10546C008510CDF890E0D2F800E04FF0100C2EF043
:10547C00100EC2F800E01A68CDF888C022F01002B5
:10548C001A609DF884209DF88530521803EBC203F6
:10549C002595239540F823109DF8842049F21C4350
:1054AC001203C4F20D03D318C3F800C09DF8842076
:1054BC0049F218734FEA023ED2000CFA02F2C4F21F
:1054CC000D037344D3F800E021AF2EEA02021A60F8
:1054DC0026AB3D93DFF8F4363DAA1A609DF8842084
:1054EC0049F200431203C4F20D033E973F952395F6
:1054FC00D3181A6822F010021A609DF884209DF8C7
:10550C008530521803EBC20340F823109DF8842019
:10551C0049F210431203C4F20D035495D3181A68C0
:10552C00384622F010021A60DFF8A4369DF8842069
:10553C0025939DF8853054A903EBC2034BF82370D7
:10554C002A4652AB529504F083FE38462A4655A99A
:10555C0056AB5594569504F07BFE42F22803C4F2E8
:10556C000D031A684FF0FF3132431A6042F22C03DC
:10557C00C4F20D031A68D02032431A6042F2300391
:10558C00C4F20D031A68DFF84C7632431A6044F209
:10559C005C03C4F20D031E6044F2DC03C4F20D0381
:1055AC00C3F8008044F2D803C4F20D031D6044F22A
:1055BC0008131622C4F20D031A604BF22043C4F2F6
:1055CC000D031A68DFF8108642F0C0021A604DF223
:1055DC003003C4F200031A68C8F8044022F0010238
:1055EC001A604DF24402C4F2000211604DF238020E
:1055FC004DF22401C4F20002C4F2000115600860EF
:10560C004DF228013E20C4F2000108604DF22C013D
:10561C003230C4F200010860302111601A68DFF8E2
:10562C00BC0542F4407222431A604DF20002C4F2EF
:10563C000002C8F800201A68DFF8A46522F0800286
:10564C001A6001F02FF84AF29433C0F239233A93DE
:10565C0047F61033CFF672533B9343F2067332780E
:10566C00CFF647633C9349F210431203C4F20D0387
:10567C003C605394D3181A687168304622EA0102D0
:10568C001A60DFF8603532783361737853A903EB15
:10569C00C2034BF823602A4651AB05AC519504F07C
:1056AC00D7FDDFF8440500F0FDFF39682246DFF82E
:1056BC003C0502F003FE2554204600F0F3FFDFF812
:1056CC00300500F0EFFFDFF82C35DFF82C25716882
:1056DC001360327849F210431203C4F20D03D3184D
:1056EC001A6822EA01021A60D8F800304FF0FF3233
:1056FC005A64327849F210431203C4F20D03D318E2
:10570C0019687268DFF8F46441EA02021A603068C2
:10571C00456835B16B681F2B1AD8102B18D0ED6863
:10572C00F7E702F081FD2F46DFF8D494002000212A
:10573C0089E803007860B96030684568002D00F096
:10574C000E826B68232B2CD8142B2AD0ED68F5E72E
:10575C00103B6B60C368103BC3606B6883B9016816
:10576C00012900F0D980AA68002A00F0C980EF68EE
:10577C0067B1D760EB689A600368013B03606B68A4
:10578C002A681021D718D1500437CDE70029F7D05B
:10579C00826892688260D3600368013B03606B6827
:1057AC00EEE7143B6B60C368143BC3606B68ABB92A
:1057BC000168012900F0EE81AA68002A00F0DE8160
:1057CC00D5F80CC0BCF1000F00F0CC81C2F80CC0B5
:1057DC00EB689A600368013B03606B682A681421CC
:1057EC00D518D150043540F200030022C4F2030353
:1057FC0040F20C016B602A60C4F20301086820F0CF
:10580C000100086042F20801C4F20D01086840F082
:10581C000100086042F20C01C4F20D01086840F06E
:10582C000100086042F21001C4F20D01086840F05A
:10583C00010008601A6040F20403C4F20303022161
:10584C00196040F2280344F60001C4F20303C0F2CD
:10585C00E81119606B689A63EA4B002B00F090809A
:10586C006968886940F0010088616968C86840F01F
:10587C000100C860AA60E44AEB60C2F88C304EF2BA
:10588C000013CEF200034FF400221A60DFF87CA361
:10589C003D60DF48CAF8007000F004FF49AF2325D3
:1058AC00DAF800305A689B6813433AD1D94803F0B0
:1058BC0043FED8F8002002F118010B6813F0200306
:1058CC00FBD11560D8F8002002F11801086810F01F
:1058DC00200FFBD101334FF07E0C042BC2F800C01B
:1058EC00F4D1CC4803F01EFE48F68050C0F25B00A9
:1058FC00002149AA82E80300384603F0CFFDCFE728
:10590C0000293FF43DAF4268D2684260936003685F
:10591C00013B03606B6833E74360836003606B6833
:10592C002EE7BD4800F0BEFEB84B00251B68AF4803
:10593C0003F1040206CA2346009502F0CBFC255461
:10594C00204600F0AFFEB54800F0ACFE40F2E43C5F
:10595C000A23C2F2000CCCF80030B14800F0A2FED1
:10596C003068B04B012244681A705095002C00F03E
:10597C0016816368272B10D8182B0ED0E468F5E736
:10598C006A68916921F0010191616A68D16841F0FE
:10599C000101D160AB60EB6078E7183B6360C368D2
:1059AC00183BC360636893B90168012900F0068154
:1059BC00A268002A00F0F680E568002D00F0C38094
:1059CC00D560E3689A600368013B036063682268F2
:1059DC001821D418D150043402232370013363707E
:1059EC00053363604BF22003C4F20D03E360002225
:1059FC004BF220432261C4F20D031968042021F0FC
:105A0C00080119600123A3604BF20043C4F20D039B
:105A1C00196841F00801196021786378043103EBAF
:105A2C00C10144F20003C4F20D0343F821002178B4
:105A3C0049F21C430903C4F20D03CB1861681960C9
:105A4C002178D4F804C00803C9000CFA01F149F21A
:105A5C001873C4F20D03C318186820EA0101196009
:105A6C0023695BB121786378204603EBC1034BF8C3
:105A7C00234050A94FAB4F9204F0EAFB579405AF6B
:105A8C001BAC00267E254CF6C07000214BAAC0F240
:105A9C006A0082E80300104603F000FD624800F043
:105AAC0001FE99E80018DAF8003003F1040103C98B
:105ABC001BEB00024CEB01030192029311465B4875
:105ACC001A463B46009602F005FC3E54384600F060
:105ADC00E9FD524800F0E6FD40F23003C2F200034B
:105AEC004FF00A0B0DF1E80CC3F800B04DA915AA44
:105AFC003DAB2046CDF800C0FEF7A6FD454803F0AF
:105B0C001BFDD8F800C031460CF11802605C13681C
:105B1C0013F02003FBD101311629CCF80000F5D18C
:105B2C00D8F8000000F118010A6812F0200FFBD120
:105B3C000133042B0560F7D1364803F0F3FC57A86A
:105B4C0000F066FF9FE700293FF441AF826892683E
:105B5C008260D3600368013B0360636837E702F03F
:105B6C0063FB40E600293FF439AE8268926882609C
:105B7C00D3600368013B03606B682FE600293FF498
:105B8C002DAE4268D268426093600368013B0360AB
:105B9C006B6823E64360836003606B681EE602F06B
:105BAC0043FB19E700293FF412AF4268D268426008
:105BBC0093600368013B0360636808E7436083609C
:105BCC000360636803E700BF0C020020880000201C
:105BDC00C95E2000EC030020BC03002064BB200045
:105BEC00F003002079612000B8BB2000E403002002
:105BFC00C4BB2000095F2000E003002058000020F7
:105C0C00040400209D5E2000BC0200201004002033
:105C1C00E4BB2000C403002008BC200030BE2000E0
:105C2C00A4BB20006400002020BC20003000002019
:105C3C0000B5FFF7ABFA002000BD00BF2DE9F04F17
:105C4C00854B01229CB01A7000231A93834B186861
:105C5C0044682346002C00F0DA806268272A08D8B2
:105C6C00182A06D0DB68002B00F0D1805A68272A4E
:105C7C00F6D9183A5A60C268183AC2605A688AB99A
:105C8C000168012900F0E3809D68002D00F0D280AE
:105C9C00DC68002C00F0BF80EC60DA680139016030
:105CAC0095605A681B6818219C189950043402237B
:105CBC00237001336370053363604BF22003C4F22D
:105CCC000D03E36000224BF220432261C4F20D036A
:105CDC001968042021F0080119600123A3604BF21C
:105CEC000043C4F20D03196841F0080119602178D2
:105CFC006378043103EBC10144F20003C4F20D03D9
:105D0C0043F82100217849F21C430903C4F20D0326
:105D1C00CB18616819602178D4F804C00803C90055
:105D2C000CFA01F149F21873C4F20D03C318186888
:105D3C0020EA01011960236963B163782178204658
:105D4C0003EBC101464B199243F821401AA919AB38
:105D5C0004F07EFA0AAE30461B9402F059F91BACE3
:105D6C00684602F055F9204600F052FE0DF15C0B2E
:105D7C000DF150094FF0010A4FF000086FF07F470A
:105D8C0048F28042C0F21E02002358461792189324
:105D9C0003F084FB204600F03BFE4FF0010330463D
:105DAC004946ADF82C30ADF82E308DF830A08DF87A
:105DBC0031800A9702F0CAF89DF852309DF85120B4
:105DCC001B0443EA02239DF85020684613439DF8B8
:105DDC00532043EA026300939DF855209DF85430FC
:105DEC0043EA0223ADF804309DF857209DF8563055
:105DFC0043EA0223ADF806309DF858308DF8083090
:105E0C009DF859308DF8093002F018F9B8E702F016
:105E1C000BFA00244BE700293FF444AFD0F808C03C
:105E2C000139DCF808C00160C0F808C0CCF80C20BF
:105E3C005A6837E700293FF435AFD4F80CC0013964
:105E4C000160C0F804C0CCF808205A682AE7026048
:105E5C00426082605A6825E76400002058000020E8
:105E6C000C02002040F2D833C2F200034DF804BDFE
:105E7C0093E806004FF0010B11EB0B014FF0000CF7
:105E8C0042EB0C0283E806005DF804BB704700BFD0
:105E9C0040F20443C2F200034DF804BD93E806003F
:105EAC004FF0010B11EB0B014FF0000C42EB0C020D
:105EBC0083E806005DF804BB704700BF0D4B81B052
:105ECC001B68ABB10C490A7892B99868013098609C
:105EDC000092009B42F2F172C0F20902934205D883
:105EEC00009B01330093009B9342F9D900230B7064
:105EFC0001B07047880000208400002030B50546B2
:105F0C004BF6F82081B00024C0F220008DF803403D
:105F1C0000F0C8FB284600F0C5FB0A2368468DF844
:105F2C0000308DF8014000F0BDFB01B030BD00BF6A
:105F3C002DE9F04F854D8EB0854803F0FDFA2A7897
:105F4C0049F210431203C4F20D03D3181A6869689E
:105F5C00804C22EA01021A60226800238DF8083076
:105F6C0002F11803196811F0100FFBD1196811F028
:105F7C00100FFBD11168C9B20191196811F0100F03
:105F8C00FBD11168C9B20091196811F01007FBD14F
:105F9C0044F2412A44F23F28DFF8BCB13E460DF1F1
:105FAC000809C0F20F0AC0F20F081968104611F068
:105FBC00100F2CD00EA98E19002106F8341C9DF858
:105FCC000910002940F0B7809DF808C0BCF1230FE0
:105FDC0053D00199009A614B01EB02201B6802A976
:105FEC00984720684FF0FF3343642A7849F21043F6
:105FFC001203C4F20D03D31819686A68544841EAB5
:10600C0002021A6003F08EFA0EB0BDE8F08F282E53
:10601C008CBF00210121032FCCBF002101F0010115
:10602C000029C7D0196811F01001FBD11268D2B247
:10603C007E2A09F8062018BF0F461AD01A6812F0EB
:10604C00100F0ED00122196811F0100F0ED0013272
:10605C005245F8D14FF001018BF80410404800F084
:10606C0021FB2268013602F118039EE74245F8DD58
:10607C00F0E70137042FF4D0E0E7DFF8E8C0019C2B
:10608C00009EDCF800C0DFF8E0E00CF1080B9BE8A8
:10609C00000C04EB06299EE8C00016EB0A0647EB41
:1060AC000B078C460CAC4FEACC01C1F1200AA1F1D4
:1060BC00200E07FA0AFA36FA01F127FA0EF84AEA24
:1060CC00010111EA2E0138BF414604F80C100CF105
:1060DC00010CBCF1080FE6D1196811F0200FFBD1AF
:1060EC005FFA89F11160196811F0200FFBD1C9F327
:1060FC000729C2F80090196811F0200CFBD123215C
:10610C00116014F80CE0196811F02001FBD10CF1AE
:10611C00010CBCF1080FC2F800E0F2D14FF07E0E7A
:10612C00D3F800C01CF0200FFAD101310429C2F8B9
:10613C0000E0F5D156E7019B009E02A903EB062077
:10614C00064B1B68984720684CE700BFF003002003
:10615C00C4030020BC03002038000020D40300201E
:10616C00FCBA20000C040020D80300202DE9F04FCD
:10617C0057488AB003F0E0F940F2F030C2F2000068
:10618C00027849F210431203C4F20D03D3181A68B3
:10619C004168DFF840A122EA0102DAF800101A6027
:1061AC0000238DF8003001F11802176817F0100762
:1061BC00FBD144F2412644F23F25DFF81C913C46CA
:1061CC00E8464FF0010BC0F20F06C0F20F05136842
:1061DC00084613F0100345D0043C0AA90A19002301
:1061EC0002F8283C9DF80020232A14BF002201222B
:1061FC00092C8CBF002402F00104002C36D01A4666
:10620C0000240025013218F80210994008330C4381
:10621C00082A45EAE175F5D1304B00211B680022B4
:10622C005C609D602E4B83E806004FF0FF334364A7
:10623C0040F2F033C2F200031A7849F21043120311
:10624C00C4F20D0340F2F030D318C2F2000019680A
:10625C0042681F4841EA02021A6003F063F90AB06F
:10626C00BDE8F08F292C08D18DF825301D4B6846E0
:10627C001B689847DAF80000D7E7136813F010038F
:10628C00FBD10968C9B27E2908F8041018BF1F4653
:10629C0019D0136813F0100F0CD00123116811F0F2
:1062AC00100F0DD00133B342F8D10F4889F804B068
:1062BC0000F0F8F9DAF80010013401F1180286E761
:1062CC00AB42F7DDF1E70137032FF3DCE1E700BF69
:1062DC00C4030020BC030020380000201004002060
:1062EC0004040020E003002028BB200030B502F09D
:1062FC0037F9B3494B68002B00F04B815A6846F2D2
:10630C000300824209D8B2F5C04F06D0DB68002BDF
:10631C0000F03F815A688242F5D9A2F5C0425A601A
:10632C00CA68A748A2F5C042CA605A6892B9046804
:10633C00012C00F0E3809968002900F01281DD68DF
:10634C00002D00F01A81CD60DA6891600268013A84
:10635C0002605A681968DFF86CC200238C18CCF8FC
:10636C000030CCF80430CCF80830CCF80C304BD0E2
:10637C004FF4C0408C506060A360E360DCF80C30DC
:10638C001B18CCF80C30DCF8043051F802E06068D3
:10639C00002B00F094801D687044A8420CBF1A4674
:1063AC001A4604D0D26812B111688842FAD15968E1
:1063BC006D18AE4507D0DB68002B7FD01868596884
:1063CC0041188E45F7D119461346C3B160685A6817
:1063DC0082186260DCF80000012800F087809A685F
:1063EC00002A00F09080DD68002D00F09B80D560C5
:1063FC00DB689A60DCF80030013BCCF8003019B156
:10640C004A686368D3184B606F4BC3F800C002F046
:10641C0035FA02F0AFFB6D4B93E8300043F24803C2
:10642C00C4F20303186849F20043C4F20D031A685E
:10643C0022F020021A6044F29403C4F20D030122EC
:10644C001A6047F20803B522C4F20D031A6047F232
:10645C000002C4F20D02136813F0800FFBD047F258
:10646C001003C4F20D03D3F800C047F20C03C4F2BE
:10647C000D031B68002144F66D6243EA0C2CC4F238
:10648C00C6120B1803FB02F303F540533933B3F177
:10649C00FF3F28BF01334E4A4CF30B1C8CEA03031D
:1064AC0013604C4A012092E8180000211B1844EBA1
:1064BC000104012B82E8180011D030BD1346DCF822
:1064CC00001000293DD1A160E160DCF80020CCF87F
:1064DC0004400132CCF80840CCF8002075E7002CC1
:1064EC00EBD13D4A146054609460E6E70023CCF88D
:1064FC000430CCF80830CCF8003080E74260826081
:10650C0002605A6826E700283FF479AFDCF80430C3
:10651C00DB68CCF804309A60DCF80030013BCCF836
:10652C0000306CE700283FF46AAFDCF808309B6859
:10653C00CCF80830DD60DCF80030013BCCF80030E2
:10654C005DE7DCF808200021D460DCF80820E1606D
:10655C00A260DCF80020CCF808400132CCF8002016
:10656C0033E7002C3FF4F6AE4168C96841608A609D
:10657C000268013A02605A68ECE6002C3FF4EAAE7D
:10658C00816889688160CA600268013A02605A6851
:10659C00E0E6124C01232371114800F083F81148F6
:1065AC0000F080F8DFF81CC00A2323600023CCF82D
:1065BC000030CCF80430CCF80830CCF80C3023E7A1
:1065CC00380D00204800002058000020480D002005
:1065DC008C00002008000020100000203800002053
:1065EC0028BC200030BE200010B502F0B3F8104AD1
:1065FC00002313600F4A0A2113600F4A0120137104
:10660C0011600E4A116013710D4A002192E81800B6
:10661C001B1844EB0104012B82E8180000D010BDBC
:10662C00002CFCD1074A146054609460F7E700BF5B
:10663C00D4010020D00100204000002038000020B0
:10664C0008000020100000200C4B00221A605A6039
:10665C000B4A0120002110B492E818001B1844EBDF
:10666C000104012B82E8180001D010BC7047002CEB
:10667C00FBD1044A146054609460F6E75C0000207F
:10668C00080000201000002000B5004603F01CFCA0
:10669C0000BD00BF00B503F017FC00BD00B504F051
:1066AC009DF800BD2DE9F045002507467C5D1C4E8C
:1066BC00AA46DFF8708084B1092C29D00A2C18D096
:1066CC00336820460133336004F052F933684F2BA2
:1066DC0005DC01357C5D002CEED1BDE8F0850D208C
:1066EC0004F046F90A2004F043F90135C6F800A07D
:1066FC00F0E70D2004F03CF9204604F039F9D8F805
:10670C000030C6F800A00133C8F800300135E1E7CD
:10671C00204604F02DF93368013508333360D9E78E
:10672C00D0010020D401002010B54BF6404040F2BF
:10673C0038040123C2F20004C0F220002371FFF7D9
:10674C00B1FF4BF63060C0F22000FFF7ABFF0A231D
:10675C00236010BD0A4A0120002110B492E81800F1
:10676C001B1844EB0104012B82E8180001D010BC6B
:10677C007047002CFBD1034A146054609460F6E718
:10678C00080000201000002030B590B06A46044686
:10679C0001F094FD10AB1818002300F8403C68463B
:1067AC00FFF780FF6D46204610B030BD00B5344B6E
:1067BC0083B01B78D3B90A2201928DF808300E28C9
:1067CC0014D8DFE800F05A56524E423634302C08BA
:1067DC002824201915002B480091FFF763FF01A80E
:1067EC000099FFF7D1FF2848FFF75CFF03B000BD0D
:1067FC002648FFF757FFF9E701A8FFF7C5FF244824
:10680C00FFF750FFF2E72348FFF74CFFEEE7224873
:10681C00FFF748FFEAE72148FFF744FFE6E7204887
:10682C00FFF740FFE2E71F48FFF73CFFDEE71E489B
:10683C00D2E71E480091FFF735FF01A80099FFF73A
:10684C00A3FF1B48FFF72EFFD0E71A480091FFF774
:10685C0029FF01A80099FFF797FF1748FFF722FFC0
:10686C00C4E71648FFF71EFFC0E71548FFF71AFFED
:10687C00BCE71448FFF716FFB8E71348ACE700BFB6
:10688C00640000208CBC200030BE200090BE200094
:10689C005CBE200034BE200004BE2000DCBD200005
:1068AC00C4BD20009CBC2000B0BD200070BD2000E9
:1068BC0074BD200044BD200048BD20002CBD20002C
:1068CC00F0BC2000B0BC20006CBC20002DE9F04FC7
:1068DC00044684B00D46904600295AD000273E4607
:1068EC000DF10809EA46BB4618E0DB68FF221A6086
:1068FC004846CDF80880039702F0D0FD23689A68CB
:10690C00022A2BD0DB686846C3F800B00136CDF8FC
:10691C000080019702F0C2FDB5423AD923689A680B
:10692C00022AE2D1197849F200420903C4F20D029D
:10693C008A1810685968DB6808431060FF201860DB
:10694C001368484623EA01011160CDF808800397CB
:10695C0002F0A4FD23689A68022AD3D1197849F26F
:10696C0000420903C4F20D028A1810685968DB68EA
:10697C0008431060C3F800B01368684623EA0101AD
:10698C0011600136CDF80080019702F087FDB54209
:10699C00C4D804B0BDE8F08F1C4B70B51C7806460B
:1069AC000D469CB9012912D040F640520521C0F287
:1069BC000302FFF78BFF08202146FFF7F7FE336831
:1069CC009A68022A0FD0DB68FF221A6070BD40F66D
:1069DC0040520221C0F20302FFF778FF062029463D
:1069EC00FFF7E4FEF2E7197849F200420903C4F21A
:1069FC000D028A1810685968DB6808431060FF2084
:106A0C001860136823EA01011160DFE764000020BD
:106A1C00094B00B51B783BB149F2E0320321C0F2BF
:106A2C000402FFF753FF00BD48F2A0621E21C0F222
:106A3C000102FFF74BFFF6E76400002030B5054676
:106A4C0090B040F238006A46C2F2000001F0A4FC9B
:106A5C0010AB1818002300F8403C6846FFF722FEE4
:106A6C006C46284610B030BD30B590B06A46002355
:106A7C00044601F0DDFB10AB1818002300F8403C75
:106A8C006846FFF70FFE6D46204610B030BD00BFC4
:106A9C0010B5072082B00021FFF788FE48F2804332
:106AAC0002A8C0F21E03002420E91800684602F078
:106ABC00F5FC012002B010BD10B544F2402282B0AA
:106ACC000446C0F20F0202A8002320E90C0068461D
:106ADC0002F0E4FC2046FFF7DBFF10B1024B012271
:106AEC001A70002002B010BD650000202DE9F04F97
:106AFC004FF2FF7300F514180546C0F2270308F196
:106B0C00180090B098420391089000F2858118F01B
:106B1C00030F40F0A581089905F5A025A1F50013F8
:106B2C00013BED0ADB0A9D420795099300F26E8149
:106B3C0005F580635A1CD202DB4C069205F5006207
:106B4C00A218DB0243F2080A05920293C4F20D0A62
:106B5C0040F2FF76089B0698DDF814C0834294BF80
:106B6C00C8EB0303C8EB0003079A01939CF80030B1
:106B7C000132072B079200F2B1800198032840F2F2
:106B8C0042810399D8F800200B681A40934240F0D8
:106B9C00A5800398019A4346C8EB000C06E05CF80C
:106BAC00031018680840814240F09880043A04337E
:106BBC00032AF4D81B680C93BAB1DDF80CC09DF80D
:106BCC0030109CF800300CAD01EA0303994240F000
:106BDC008580002306E0E95C1CF8030001EA000054
:106BEC0081427BD101339342F5D358231B680D931B
:106BFC00DAF8003013F0800FFAD1019911F0030983
:106C0C0002BF01EB08020B928B4630D1BBF1000F97
:106C1C0013D0002708F104010097C146CDF810B03D
:106C2C000A91039A00980D9B02EB80052846494671
:106C3C00049A984708B95F4536D3DDF82C8005993E
:106C4C00069A0B780998013301F8013B0591029BD8
:106C5C00079902F5006203F50063884206920293DD
:106C6C00C0F0D480039A019BD218039272E7019B67
:106C7C0010AD4344C9EB03070B933B68039945F8EC
:106C8C00103D28464A4601F0B7FB0D9B2846394675
:106C9C004A4698470028D0D13A680C9B9A42F4D1C6
:106CAC00019820F0030BB1E7D9F800302A689A421A
:106CBC00B7D10A99CB190437BB45BED9DDF80CC046
:106CCC00BA0853F8041B5CF822008842F3D0C7EBD7
:106CDC000B00009207EB08090490A2E702994145CA
:106CEC0003D1089A069B9A4212D0029A002352F8BA
:106CFC00041B40F2FC70E15004338342F7D102993B
:106D0C0040F21442D1F8FC37C2F20002C2F8FC3750
:106D1C0054231B680D93DAF8005015F08005FAD156
:106D2C00029F4FF4006907F1040B0D9B384649464E
:106D3C00984708B9B5422DD90299DDF814C0C1EBBA
:106D4C000800002320F003008CF800302018039971
:106D5C00019A01F051FB58231B680D93DAF800706F
:106D6C0017F08007FAD1DDF808904FF400624B461B
:106D7C000433BB46009204934FEA8B050D9B6019BC
:106D8C004946009A984700283AD1B74216D901993A
:106D9C00884454E73B68B3F1FF3F08BF0BEB050396
:106DAC00C3D10435B542C7D853F8042BB2F1FF3F19
:106DBC00F7D0029BC5F500695F19B6E7D9F800302A
:106DCC0062599A42D8D1049AD3190437B74217D8CA
:106DDC004FEA970B53F8042B54F82B109142F4D034
:106DEC00029BC7F5006C03EB0709CDF800C04FEA16
:106DFC008B050D9B60194946009A98470028C4D012
:106E0C00019880441BE7019A4346D3E6A8F5141574
:106E1C00284610B0BDE8F08F244C01232371244880
:106E2C00FFF740FC1023236041462046FFF71CFE71
:106E3C002048FFF737FC03990EA8FFF7FFFD0A2641
:106E4C001D48FFF72FFC182126602046FFF70CFE8B
:106E5C001A48FFF727FC1A48FFF724FC2660D7E7EF
:106E6C00124C012323711248FFF71CFC10232360E2
:106E7C0041462046FFF7F8FD0E48FFF713FC039937
:106E8C000FA8FFF7DBFD0A260B48FFF70BFC1821B8
:106E9C0026602046FFF7E8FD0A48FFF703FC084888
:106EAC00FFF700FC2660B3E7140400203800002034
:106EBC00F8BE200018BF20001CBF200020BF2000FF
:106ECC0030BE200060BF200000B540F26C0C4BF6C9
:106EDC009873C2F2000CC0F220030FCB8CE80F00A9
:106EEC00002361464FF40030CCF81030CCF814304D
:106EFC00FFF7FCFD00BD00BF10B5DFF884C0002318
:106F0C00CCF81030CCF814301E4BE6460FCB8CE886
:106F1C000F0040F214004FF41C13C0F22700196844
:106F2C000CEB03020433A2F51C128342144C1160C7
:106F3C00F5D11B681348CEF81430214601F0A8FA9D
:106F4C00A0B9226941F254539A420FD862699A420D
:106F5C000CD80D4A012092E8180000211B1844EBB4
:106F6C000104012B82E8180003D010BDFFF7ACFF21
:106F7C00EFE7002CF9D1054A146054609460F4E7F3
:106F8C006C00002098BF200008000020100000209A
:106F9C0030B5194C87B00023406869468DF81B301A
:106FAC0001F022F8626941F254539A426D461ED0A8
:106FBC002169521840F261019008C6F20601A1FB4A
:106FCC0000C1490A03FB112303EB4303D80000F56E
:106FDC00003069461830FFF789FD63694FF40030C3
:106FEC00013321466361FFF781FD07B030BD0348D3
:106FFC00FFF758FBF9E700BF6C000020A8BF20008A
:10700C002DE9F04F7D4C93B025780160426025B19D
:10701C000123237013B0BDE8F08F7948FFF742FBD2
:10702C00784B01AE59693246774801F047F913AAFB
:10703C00101800F8485C3046FFF734FB7348FFF734
:10704C0031FB734B186841680B46002900F0D28065
:10705C004A68BB2A08D8AC2A06D0DB68002B00F0A3
:10706C00C9805A68BB2AF6D9AC3A5A60C268AC3AA5
:10707C00C2605A688AB90568012D00F0A1809E682B
:10708C00002E00F0A280D968002900F0A880F160E1
:10709C00DA68013D056096605A681B68AC219F1840
:1070AC00995004374FF00003A7F8A4304FF0FF328B
:1070BC00012347F823200133292BFAD1252044F250
:1070CC00402549F2380949F2500ADFF84881524EFE
:1070DC0003F04EFCC0F20F050023C4F208094FF078
:1070EC00040BC4F2080A98F800103268032A55DD24
:1070FC00EFF31081C9B272B6C9F800B0DAF800200B
:10710C0001B962B612F0010F48D0002D88F80010BA
:10711C004CDD03F0F7FB0346252BE4D13F4E002555
:10712C00705D013503F024FC082DF9D1582003F0D3
:10713C001FFC582003F01CFC582003F019FC384E9F
:10714C000025705D013503F013FC082DF9D1582092
:10715C0003F00EFC582003F00BFC582003F008FC45
:10716C00304E0025705D013503F002FC092DF9D17C
:10717C00582003F0FDFB582003F0FAFB582003F0D5
:10718C00F7FB41F68022002313A8C0F2060220E987
:10719C000C0002F083F9244B1F6039E7013D6A1C97
:1071AC00002AA2DC002D88F80010B2DC252044F265
:1071BC0040250093C0F20F0503F0DAFB009BABE710
:1071CC000260426082605A6867E7002D3FF465AF49
:1071DC00C968013D056041608A605A685DE7002D11
:1071EC003FF45BAF8168013D896805608160CA60CE
:1071FC005A6852E701F018F8002753E765000020A1
:10720C00CCBF20006C0000204000002030BE2000CD
:10721C00580000209400002090000020ECBE2000BC
:10722C0040C22000E0BE2000680000202DE9F04F95
:10723C00002A97B0019240F32F8349F2380A49F2A1
:10724C005008DFF83457DFF8349701F10E064FF091
:10725C00000B0DAC0427C4F2080AC4F20808112371
:10726C008DF83430F378B2781B0443EA0222737839
:10727C00149942EA0303327901F07F4143EA026335
:10728C00119A8DF8433002F07F4242EA1323119396
:10729C00F379B2791B0443EA0222737942EA0303BD
:1072AC00327A43EA0263129A8DF8473002F07F4239
:1072BC0042EA13231293F37AB27A1B0443EA0222B2
:1072CC00737A42EA0303327B43EA0263139A8DF822
:1072DC004B3002F07F4242EA1323139316F8073C1B
:1072EC0016F8082C1B0443EA022216F8093C42EA61
:1072FC00030316F8062C43EA026212464FEAE273C5
:10730C0041EA1221149115998DF8533001F07F4107
:10731C0041EA13238DF84F20159333788DF85730AD
:10732C00169B9DF8342003F07F43169342F20043E2
:10733C00C9F2496342EA03030D936FF07B038DF8A6
:10734C00383016F8033C16F8020C43EA002003F020
:10735C003FFF9DF838308DF8417043EA0023000E52
:10736C000E93C3B243EA01235220090E0F938DF8FA
:10737C0040108DF8427003F0FBFA0023CDF800802A
:10738C00B0461E46A05D013603F0F2FA272EF9D165
:10739C0058204646DDF8008003F0EAFA582003F046
:1073AC00E7FA582003F0E4FA2B68032BFCDDEFF32B
:1073BC001083DBB272B6CAF80070D8F8002003B99B
:1073CC0062B612F0010FEFD089F8003003F09AFA90
:1073DC00532800F08A8140F26803C2F20003D3F80C
:1073EC0000E096F800C0BEF8A40078B1DEF80430D6
:1073FC009C4500F055827246002304E091680432EB
:10740C008C4500F04D8201338342F7DB01304EF89E
:10741C0020C0AEF8A4001123119A8DF808309DF805
:10742C00433043EA02239DF80C2042EA03221B0E50
:10743C008DF8103003929DF84730129A43EA0223DC
:10744C009DF8102042EA03221B0E8DF81430049292
:10745C009DF84B30139A43EA02239DF8142042EA1C
:10746C0003221B0EDBB243F41C1343F4805306932C
:10747C004FF000038DF81C3005929DF84F30149A94
:10748C0043EA02209DF85330159A43EA02214FF645
:10749C001842CFF6FF7212184FF0FF3343EB010383
:1074AC009DF81C10532041EA02210791110EC9B21C
:1074BC0041EA03211B0E8DF82430099B4FF0FF325B
:1074CC006FEA03638DF828206FEA136309930A9B14
:1074DC008DF82C206FEA03636FEA1363169A0A93F4
:1074EC009DF85730089143EA02239DF82C2042EA7C
:1074FC0003221B0E0B929DF808208DF8303042F2BF
:10750C000043C9F2496342EA030302936FF07B0321
:10751C008DF80C3003F02CFA0023CDF80080B04627
:10752C001E4602AB985D013603F022FA292EF8D1E3
:10753C0058204646DDF8008003F01AFA582003F074
:10754C0017FA582003F014FA2B68032BFCDDEFF329
:10755C001083DBB272B6CAF80070D8F8002003B9F9
:10756C0062B612F0010FEFD089F8003003F0CAF9BF
:10757C00462800F0D8819DF8082042F60043C9F255
:10758C00492342EA0303029353206FF07B038DF8E7
:10759C000C3003F0EDF90023CDF80080B0461E4608
:1075AC0002AB985D013603F0E3F9292EF8D158208F
:1075BC004646DDF8008003F0DBF9582003F0D8F9DB
:1075CC00582003F0D5F92B68032BFCDDEFF3108367
:1075DC00DBB272B6CAF80070D8F8002003B962B6F4
:1075EC0012F0010FEFD089F8003003F08BF99DF801
:1075FC00082042F20043C9F2496342EA03030293B2
:10760C006FF07B038DF80C309DF830300B9A1B0615
:10761C0043EA122303F5FE630F3302F0FF0242EA42
:10762C00032253201B0E8DF830300B9203F0A0F97F
:10763C000023CDF80080B0461E4602AB985D0136A3
:10764C0003F096F9292EF8D158204646DDF8008033
:10765C0003F08EF9582003F08BF9582003F088F9C9
:10766C002B68032BFCDDEFF31083DBB272B6CAF888
:10767C000070D8F8002003B962B612F0010FEFD0F9
:10768C0089F8003003F03EF9522003F071F9002321
:10769C00CDF80080B0461E46A05D013603F068F9B7
:1076AC00272EF9D158204646DDF8008003F060F90A
:1076BC00582003F05DF9582003F05AF92B68032B7E
:1076CC00FCDDEFF31083DBB272B6CAF80070D8F8A9
:1076DC00002003B962B612F0010FEFD089F8003028
:1076EC0003F010F9532840F0EC80A548FEF7DAFFC0
:1076FC009DF8342042F60043C9F2492342EA0303C1
:10770C000D936FF07B038DF8383016F8073C16F8A4
:10771C00080C1B0443EA002016F8093C40EA03035A
:10772C0016F8060C43EA006003F052FD9DF8383061
:10773C0043EA0023000E0E93C3B243EA01230F93D6
:10774C00090E032352208DF841308DF842308DF80C
:10775C00401003F00DF90023CDF80080B0461E4612
:10776C00A05D013603F004F9272EF9D158204646C6
:10777C00DDF8008003F0FCF8582003F0F9F85820ED
:10778C0003F0F6F82B68032BFCDDEFF31083DBB270
:10779C0072B6CAF80070D8F8002003B962B612F0BD
:1077AC00010FEFD089F8003003F0ACF8532840F00B
:1077BC0083807448FEF776FF9DF8342042F2004334
:1077CC00C9F2496342EA03030D936FF07B038DF812
:1077DC00383016F8053C16F8040C43EA002003F088
:1077EC00F7FC9DF83830169A43EA0023000E0E93EE
:1077FC00C3B243EA01230F9302238DF841308DF875
:10780C0042309DF85730090E43EA022303F5FE631C
:10781C000F3302F07F428DF85730522042EA132387
:10782C0016938DF8401003F0A3F80023CDF80080D8
:10783C00B0461E46A05D013603F09AF8272EF9D10A
:10784C0058204646DDF8008003F092F8582003F0EB
:10785C008FF8582003F08CF82B68032BFCDDEFF32A
:10786C001083DBB272B6CAF80070D8F8002003B9E6
:10787C0062B612F0010FEFD089F8003003F042F835
:10788C00532814D14048FEF70DFF019B0BF1010B5F
:10789C0016365B453FF7E3AC012017B0BDE8F08F1F
:1078AC003A48FEF7FFFE3A48FEF7FCFEB3E53948CE
:1078BC00FEF7F8FE0020F0E73748FEF7F3FE002055
:1078CC00EBE73648FEF7EEFE40F26803C2F2000327
:1078DC001F683578B7F8A40018B33B460122002482
:1078EC009CB1D3F808C01146C3F804C0013204336C
:1078FC008842F5DCACB14FF0FF32431C8018A7F87E
:10790C00A40047F823200020C7E759688D4209BF1F
:10791C00D3F808C011461146C3F804C008BF0124AF
:10792C00E4E70020B9E71E48FEF7BCFE40F268030E
:10793C00C2F200031F683578B7F8A4000028F0D015
:10794C0000243B46012254B1D3F808C01146C3F8B9
:10795C0004C0013204338842CCDD002CF4D15968C8
:10796C008D4209BFD3F808C011461146C3F804C0B4
:10797C0008BF0124EDE700BF900000209400002018
:10798C000CC120004CC1200088C12000DCBF2000AD
:10799C0028C0200064C1200028C12000C8C02000DD
:1079AC0080C020002DE9F04FDFF83085A2B0D8F868
:1079BC0014304FF0000B00AF4FF00A095B45F86034
:1079CC00C7F8789087F87CB040F34081C7F808D0AE
:1079DC00ADF5727D282BA8BF2823DFF804150522EE
:1079EC006846BB6100F008FDB9696E46594540F325
:1079FC00FC8040F26103721DC6F206033A616D46CB
:107A0C004FF0050C07F1780A07F138047B61BBF1E4
:107A1C00000F40F02081D8F81430002B40F0ED819D
:107A2C004FF000090422314607F18000C7F800C06E
:107A3C0000F058FD87F88490F179B379090441EA94
:107A4C0003217379B27A1943337ADFF8980441EA47
:107A5C000361737A43EA0223FB61327BF37A43EAD4
:107A6C0002233B62737B7B62B27BBA62737C327C97
:107A7C001B0443EA0223F27B1343B27C43EA026207
:107A8C00FA62737D327D1B0443EA0223F27C1343BA
:107A9C00B27D43EA02623A63737E327E1B0443EA90
:107AAC000223F27D1343B27E796043EA02627A6369
:107ABC00FEF7F8FD07F18000FEF7F4FDDFF828046F
:107ACC00FEF7F0FD796822464B46504600F0B0FBBD
:107ADC0007F18803181800F8509C2046FEF7E2FDC9
:107AEC00DFF80804FEF7DEFD22464B46F9695046E6
:107AFC0000F09EFB07F18801081800F8509C204606
:107B0C00FEF7D0FDFA48FEF7CDFD396A4B4622460A
:107B1C00504600F08DFB07F18802101800F8509CBD
:107B2C002046FEF7BFFDF348FEF7BCFD796A2246FE
:107B3C004B46504600F07CFB07F18803181800F800
:107B4C00509C2046FEF7AEFDEB48FEF7ABFD4B46D6
:107B5C002246B96A504600F06BFB07F18801081801
:107B6C0000F8509C2046FEF79DFDE448FEF79AFD78
:107B7C00F96A2246504600F0A1FB07F18802101862
:107B8C0000F8509C2046FEF78DFDDD48FEF78AFD7F
:107B9C00396B2246504600F091FB07F18803181808
:107BAC0000F8509C2046FEF77DFDD548FEF77AFD87
:107BBC002246796B504600F081FB07F188010818CA
:107BCC0000F8509C2046FEF76DFDCE48FEF76AFD8E
:107BDC000A22D7F800C0BA67B9690BF1010B163548
:107BEC008B450CF1160CFFF612AFF8683146BA69EA
:107BFC00FFF71CFB0446002800F04781C248FEF743
:107C0C0051FDBA69002A1FDD40F261050024C6F25D
:107C1C00060541F254569246D8F810304FF4003015
:107C2C0001339A08A5FB0212520A06FB1233C8F85C
:107C3C001030D8F81430A949013B0134C8F814307D
:107C4C00FEF754FF5445E7DBD7F808D007F1880757
:107C5C00BD46BDE8F08FD8F814309B45C0F0F080DD
:107C6C0095F80790AB794FEA094949EA03296B79F2
:107C7C00AA7A49EA03092B7AA44849EA03696B7A80
:107C8C0043EA0223FB612A7BEB7A43EA02233B6241
:107C9C006A7B7A62AB7BBB626B7C2A7C1B0443EAFB
:107CAC000223EA7B1343AA7C43EA0262FA626B7DED
:107CBC002A7D1B0443EA0223EA7C1343AA7D43EA90
:107CCC0002623A636B7E2A7E1B0443EA0223EA7D3E
:107CDC001343AA7EC7F800C043EA02627A63FEF738
:107CEC00E1FC002322464946504600F0A1FA07F178
:107CFC0088014FF00009081800F8509C2046FEF748
:107D0C00D1FC7A48FEF7CEFCF9694B462246504628
:107D1C0000F08EFA07F18802101800F8509C2046EB
:107D2C00FEF7C0FC7248FEF7BDFC396A22464B4692
:107D3C00504600F07DFA07F18803181800F8509CA3
:107D4C002046FEF7AFFC6B48FEF7ACFC22464B46D8
:107D5C00796A504600F06CFA07F18801081800F8AF
:107D6C00509C2046FEF79EFC6348FEF79BFC4B465E
:107D7C00B96A2246504600F05BFA07F188021018E7
:107D8C0000F8509C2046FEF78DFC6148FEF78AFCFB
:107D9C00F96A2246504600F091FA07F18803181848
:107DAC0000F8509C2046FEF77DFC5548FEF77AFC07
:107DBC002246396B504600F081FA07F18801081809
:107DCC0000F8509C2046FEF76DFC4D48FEF76AFC0F
:107DDC00796B2246504600F071FA07F188021018B0
:107DEC0000F8509C2046FEF75DFC4648FEF75AFC16
:107DFC000A23BB67D7F800C0EEE640F26C01C2F272
:107E0C0000010B6979699A08A1FB021241F25451E5
:107E1C00520A01FB123303EB4303D80000F51C108C
:107E2C001830D7F810E002465B4652F8041B4EF8A7
:107E3C0003100433142BF8D143693A695361EFE50D
:107E4C0040F26C01C2F200010B6979695B449A083B
:107E5C00A1FB021241F25451520A01FB123303EB03
:107E6C0043034FEAC30E0EF51C1E0EF1180E06EB63
:107E7C000C007246002352F8041BC1500433142B1F
:107E8C00F9D1DEF814304361EAE62248FEF70AFC29
:107E9C00BA69002A7FF7D8AE40F26105C6F2060532
:107EAC0041F254569246D8F810304FF4003001335A
:107EBC009A08A5FB0212520A06FB1233C8F81030BE
:107ECC00D8F814300549013B0134C8F81430FEF7DA
:107EDC000DFE5445E7DBD7F808D0B7E66C00002060
:107EEC00A4C12000ACC12000B4C12000C4C120003A
:107EFC00D0C12000D8C12000E0C12000ECC120007E
:107F0C00F8C1200030BE200018C22000FCC12000A7
:107F1C000CC2200028C220000A4A0120002110B403
:107F2C0092E818001B1844EB0104012B82E818009E
:107F3C0001D010BC7047002CFBD1034A1460546074
:107F4C009460F6E708000020100000202DE9F04FA7
:107F5C0000F1180B044682B058460D4601F03AFB6E
:107F6C006189A789268A41EA0747E189227A637ADF
:107F7C00D4F80080B4F80490B4F806A041EA0646A0
:107F8C00618AA48A584641EA04440092019301F0A4
:107F9C000DFB019B009A2846002128FA01FC80F871
:107FAC0000C047FA01FC80F80AC046FA01FC80F8D0
:107FBC000EC044FA01FC083180F812C001302029AF
:107FCC00EBD185F8049085F806A04FEA19294FEA01
:107FDC001A2A85F8059085F807A02A726B7216206C
:107FEC0002B0BDE8F08F00BFF0B500F118050F46E8
:107FFC0006461624284601F0EDFA3146224638464C
:10800C0000F0FAF9284601F0D1FA2046F0BD00BF85
:10801C0010B50121044600F1180001F0A7FA002266
:10802C00234643F8042B0433626043F8042B43F8D3
:10803C00042B43F8042B1A8010BD00BF2DE9F04728
:10804C0006464BF630684CF24C2092B000254FF0AF
:10805C000A0AC0F22008C0F22000CDF840A08DF82A
:10806C004450FEF71FFB404612AFFEF71BFB4CF2D1
:10807C00602047F808ADC0F22000FEF713FBB18872
:10808C006A462B46384600F0D3F812AB181800F8A5
:10809C00485C6846FEF706FB4046FEF703FB4CF2D5
:1080AC006820C0F22000CDF840A0FEF7FBFAF18862
:1080BC006A462B46384600F0BBF812AB181800F88D
:1080CC00485C6846FEF7EEFA4046FEF7EBFA4CF2D7
:1080DC007020C0F22000CDF840A0FEF7E3FA317A10
:1080EC006A462B46384600F0A3F812AB181800F875
:1080FC00485C6846FEF7D6FA4046FEF7D3FA4CF2D7
:10810C007820C0F22000CDF840A0FEF7CBFA717AAF
:10811C006A462B46384600F08BF812AB181800F85C
:10812C00485C6846FEF7BEFA4046FEF7BBFA4CF2D6
:10813C008020C0F22000CDF840A0FEF7B3FA3168E1
:10814C006A462B46384600F073F812AB181800F844
:10815C00485C6846FEF7A6FA4046FEF7A3FA4CF2D6
:10816C008C20C0F22000CDF840A0FEF79BFA73895A
:10817C00B1896A4643EA0141384600F09FF812ABD8
:10818C0018184CF2F81900F8485CC0F2200968463F
:10819C00FEF788FA4846FEF785FAF389318A6A4673
:1081AC0043EA0141384600F089F812AB181800F880
:1081BC00485C6846FEF776FA4846FEF773FA738A0F
:1081CC00B18A6A4643EA0141384600F077F812ABAF
:1081DC00181800F8485C6846FEF764FA4046FEF74B
:1081EC0061FA40466C46CDF840A0FEF75BFA12B03F
:1081FC00BDE8F0870A4A0120002110B492E818006B
:10820C001B1844EB0104012B82E8180001D010BCB0
:10821C007047002CFBD1034A146054609460F6E75D
:10822C00080000201000002000B5FEF737FA00BD52
:10823C0070B400293BD0B1F5807F1BD9D0F800C0B9
:10824C00BCF1080F14BF00240124BCF1100F08BFAF
:10825C0044F0010484B14FF0300C02F803C0D0F8A4
:10826C0000C00133BCF1100F06D14FF0780C02F8AE
:10827C0003C00133D0F800C00C465D1CB4FBFCF409
:10828C001E462B46002CF8D10B4C9219B1FBFCF37B
:10829C000CFB131C14F80C3002F80139D0F800C098
:1082AC00B1FBFCF10029F1D1284670BC704730219C
:1082BC00D154581CF9E700BF94C22000002900B526
:1082CC0003DB0023FFF7B4FF00BD2D2313704942DD
:1082DC000123F7E72DE9F04F144651EA04028146D9
:1082EC000D469B46099E4BD0002C4ED0D9F8007001
:1082FC00082F14BF00230123102F08BF43F00103E4
:10830C006BB130230BF80630D9F800700136102F02
:10831C0005D178230BF806300136D9F800703F46AA
:10832C004FEAE778284621463A46434602F0B8FF22
:10833C0006F1010A50EA010233465646F4D10BEB22
:10834C000306DFF850B03A4643462846214603F070
:10835C0053F91BF80030214606F80139D9F80070A2
:10836C0028463F464FEAE77843463A4602F098FFE4
:10837C0050EA010305460C46E5D15046BDE8F08FA6
:10838C0030230BF80630701CF8E7B1F5807FADD8C0
:10839C00C3E700BF94C22000302310B41370084C04
:1083AC0078235370072301F00F0C14F80CC0D0186D
:1083BC000909013B80F802C0F5D20A2010BC7047B5
:1083CC0094C220000A4A0120002110B492E818003F
:1083DC001B1844EB0104012B82E8180001D010BCDF
:1083EC007047002CFBD1034A146054609460F6E78C
:1083FC0008000020100000200F2A30B405460C465F
:10840C0042D941EA000313F0030F02BF14468C4615
:10841C00034609D0002314F803C005F803C0013348
:10842C009A42F8D130BC7047DCF80050103C1D600B
:10843C00DCF804505D60DCF808509D60DCF80C50F2
:10844C000CF1100CDD6010330F2CEDD8A2F11004E0
:10845C0004F00F0224F00F04103405190C19032A30
:10846C0012D9002354F803C045F803C00433C3EBFE
:10847C00020CBCF1030FF5D8043A22F003030433C9
:10848C00ED18E41802F00302002AC3D1CAE700BFBA
:10849C0041EA000313F0030F03D103680A68934207
:1084AC000CD002789AB10B789A4212D0D01A70473D
:1084BC0050F8043F51F8042F9342F2D1A3F101324A
:1084CC0022EA030313F0803FF2D00020EFE70B7891
:1084DC00ECE742780131002AF9D00B7801309A424E
:1084EC00E4D1F6E741EA000313F0030F14BF0023B5
:1084FC000123032A94BF002303F0010310B4002BC3
:10850C002CD00346D1F800C0ACF1013424EA0C04A1
:10851C0014F0803F1BD0C2B10C789C46013A0CF889
:10852C00014B54B1023382B111F8014F9C4603F850
:10853C00014C013A0133002CF5D132B1002319461C
:10854C000CF8031001339A42FAD110BC7047043A6C
:10855C000431032A43F804CBDDD9D3E70346DAE729
:10856C0000B500F003F800F095F800BDDFF81CC171
:10857C0047F2F832C2F20002CCEB020270B4002ACD
:10858C004AD00023424DCCF800C0CCF80420CCF8E3
:10859C000830CCF80C30EB686446D318EB606B6891
:1085AC00002B3CD01E680CEB8200B0420CBF1A466C
:1085BC001A4604D0D26812B111688842FAD15968AF
:1085CC0006EB8106B44208D0DB68002B26D0586835
:1085DC00196801EB80018C42F6D119461346ABB1F8
:1085EC00DCF804005A688218CCF804202C68284A5D
:1085FC00012C23D09868002825D0DD68002D3AD0B6
:10860C00C560DB6898601368013B136021B14A6850
:10861C00DCF80430D3184B6070BC704713462A68E2
:10862C001B48D2B90121CCF80820CCF80C200160F1
:10863C00C0F804C0C0F808C01146D0E7002353604E
:10864C0093601360E2E7002CE0D05368DB68536062
:10865C0098601368013B1360D8E781680132C1F858
:10866C000CC08168CCF808100021CCF80C10C0F8B4
:10867C0008C00260B3E7002CC8D093689B68936075
:10868C00DD601368013B1360C0E700BF500D002094
:10869C00380D002043F20C03C4F203031A681220B5
:1086AC0022F001021A6042F20802C4F20D021168B3
:1086BC0041F00801116042F20C02C4F20D02116883
:1086CC0041F00801116042F21002C4F20D0211686F
:1086DC0041F00801116043F200020021C4F20302D0
:1086EC00116043F20402C4F20302106043F2280248
:1086FC00C4F203024FF0FF30106043F23802C4F2B0
:10870C000302116043F21802C4F20302116841F033
:10871C00010111601A6842F001021A60704700BF33
:10872C000A4A0120002110B492E818001B1844EBEF
:10873C000104012B82E8180001D010BC7047002CFA
:10874C00FBD1034A146054609460F6E708000020E3
:10875C00100000204CF22043C4F20D031A6822F0E2
:10876C00C0021A604CF20043C4F20D031A6822F0E6
:10877C00C0021A6044F2F8030122C4F20D031A601D
:10878C0044F2FC03C4F20D031A6042F20002C4F27C
:10879C000D0211684FF6F873CFF6DC6301EA0303A0
:1087AC0043F4081342F204011360C4F20D010A6889
:1087BC0040F20003C0F2011302EA0303002BF6D1CE
:1087CC0042F20003C4F20D031A6822F4E0621A604C
:1087DC0042F20402C4F20D02136813F0806FFBD056
:1087EC00704700BF4EF61453CEF200031A6842F0E5
:1087FC0001021A6042F29803C4F20D031A6842F0A7
:10880C0001021A604EF60853CEF200034FF4011227
:10881C001A6070470A4A0120002110B492E818002F
:10882C001B1844EB0104012B82E8180001D010BC8A
:10883C007047002CFBD1034A146054609460F6E737
:10884C0008000020100000200A4A0120002110B46A
:10885C0092E818001B1844EB0104012B82E8180065
:10886C0001D010BC7047002CFBD1034A146054603B
:10887C009460F6E7080000201000002000B5FFF718
:10888C00B1FF00F077FB00F02DF800F0C9F800F014
:10889C0003F800F0ABF900BD044B082203F580711E
:1088AC0083F8002801338B42FAD17047140400205E
:1088BC000A4A0120002110B492E818001B1844EB5E
:1088CC000104012B82E8180001D010BC7047002C69
:1088DC00FBD1034A146054609460F6E70800002052
:1088EC00100000204EF210034EF21802CEF20003DC
:1088FC000021CEF20002196011604EF21402CEF289
:10890C0000024FF4FA41116006221A604AF6A901DE
:10891C0040F2BC22C2F20002C0F22001D1631A68FC
:10892C0042F001021A6070470A4A0120002110B47B
:10893C0092E818001B1844EB0104012B82E8180084
:10894C0001D010BC7047002CFBD1034A146054605A
:10895C009460F6E7080000201000002040F2960317
:10896C000022C2F200031A7040F29503C2F2000317
:10897C001A7040F29003C2F200030221196040F613
:10898C002853C2F200031A6040F63453C2F20003BB
:10899C0049F2380C1A60C4F2080C032349F2400067
:1089AC0049F24C01CCF8003030B4C4F20800042475
:1089BC00C4F2080149F244030460C4F208030A60DB
:1089CC001D6845F040051D601D6845F008051D60DB
:1089DC001D6845F008051D602023CCF8004002609E
:1089EC000B6049F25003C4F208031A6842F080028B
:1089FC001A601A6842F010021A6049F21C03C4F2A1
:108A0C00080301221A6049F22403C4F208031A6015
:108A1C0049F22C03C4F208031C6030BC704700BF41
:108A2C004BF22043C4F20D031A682DE9F04822F0F2
:108A3C0004021A604BF20043C4F20D031A6842F0B0
:108A4C0004021A604BF21003C4F20D03FF221A60E9
:108A5C0049F23C02C4F20802136843F001031360AC
:108A6C00136843F002031360136813F0800FFBD0FC
:108A7C0049F20403C4F208031A6822F001021A60D6
:108A8C00FFF76CFF1D4B01221A601D4A1D4BC3F8EA
:108A9C00F0204EF20413CEF200034FF480521A6011
:108AAC00EFF31087FFB207B162B6174843F24806DE
:108ABC00C4F2030690E80018316800225B4612EB02
:108ACC00010B49F20002C0F2D03243F1000C00233A
:108ADC001BEB020B4CEB030C90E80C0031680024F0
:108AEC001546621845F100039C45F5D801D1934514
:108AFC00F2D807B162B6BDE8F08800BF9000002044
:108B0C0015AB2000BC020020480D00200A4A0120B1
:108B1C00002110B492E818001B1844EB0104012B3F
:108B2C0082E8180001D010BC7047002CFBD1034A1E
:108B3C00146054609460F6E70800002010000020D8
:108B4C000A4A0120002110B492E818001B1844EBCB
:108B5C000104012B82E8180001D010BC7047002CD6
:108B6C00FBD1034A146054609460F6E708000020BF
:108B7C001000002000B500F089FA00F001F800BDEB
:108B8C00704700BF0A4A0120002110B492E8180077
:108B9C001B1844EB0104012B82E8180001D010BC17
:108BAC007047002CFBD1034A146054609460F6E7C4
:108BBC0008000020100000200A4A0120002110B4F7
:108BCC0092E818001B1844EB0104012B82E81800F2
:108BDC0001D010BC7047002CFBD1034A14605460C8
:108BEC009460F6E7080000201000002070B582B0F9
:108BFC00944D00232868019341680B46002900F02E
:108C0C001C814A68272A08D8182A06D0DB68002B52
:108C1C0000F013815A68272AF6D9183A5A60C268AC
:108C2C00183AC2605A688AB90468012C00F0B38003
:108C3C009E68002E00F0D580D968002900F0E480F1
:108C4C00F160DA68013C046096605A681B68182170
:108C5C009C189950043403236370082363604AF210
:108C6C002003C4F20D03E360012100224AF22043E9
:108C7C0021702261C4F20D03186820F008001860FE
:108C8C004AF20043A160C4F20D031968042041F0BC
:108C9C000801196021786378043103EBC10144F2B7
:108CAC000003C4F20D0343F82100217849F21C4360
:108CBC000903C4F20D03CB18616819602178D4F84C
:108CCC0004C00803C9000CFA01F149F21873C4F28C
:108CDC000D03C318186820EA01011960236963B1F8
:108CEC0063782178204603EBC101574B009243F87F
:108CFC00214001A96B4601F0ABFA544EF460286890
:108D0C0041680B46002900F094804A681F2A08D855
:108D1C00102A06D0DB68002B00F08B805A681F2AC3
:108D2C00F6D9103A5A60C268103AC2605A6872B9E1
:108D3C000468012C34D09D68002D5CD0D9680029C2
:108D4C006DD0E960DA68013C046095605A681B6874
:108D5C001020991898500A1D0523136002235360A4
:108D6C000323936049F20043C4F20D03196821F008
:108D7C002001196044F29403C4F20D03012119601F
:108D8C00334BDA60F3689A68022A0ED0DB68002253
:108D9C001A6002B070BD0260426082605A6855E78A
:108DAC000260426082605A68D1E7197849F2004249
:108DBC000903C4F20D028A181068596840EA0101CF
:108DCC001160DA6800211160197849F20042090338
:108DDC00C4F20D028A1811685B6821EA0303136060
:108DEC00D7E7002C3FF432AFC968013C0460416006
:108DFC008A605A682AE7002CA9D0C968013C046033
:108E0C0041608A605A68A2E7002C3FF41FAF81686A
:108E1C00013C896804608160CA605A6816E7002CBE
:108E2C0095D08168013C896804608160CA605A6889
:108E3C008DE7FFF7F9F900228EE7FFF7F5F900242B
:108E4C0009E700BF580000200C0200208C02002013
:108E5C00AC02002040F64853C2F200034DF804BDAA
:108E6C0093E806004FF0010B11EB0B014FF0000CD7
:108E7C0042EB0C0283E806005DF804BB704700BFB0
:108E8C0049F21803C4F208031A6840F61C53C2F2E4
:108E9C000003196841EA02021A6049F20803C4F29D
:108EAC0008031A6840F62053C2F20003196841EA1D
:108EBC0002021A6049F21003C4F208031A6840F661
:108ECC002453C2F20003196841EA02021A60704787
:108EDC0048F60C0340F20822C4F20803C2F2000266
:108EEC001968106840EA0101116000221A604EF204
:108EFC008013CEF200034FF080621A604EF2802392
:108F0C00CEF200031A6070474EF28413CEF20003C7
:108F1C0002221A604EF28423CEF200031A607047CC
:108F2C000368232B0DD0252B13D0272B19D0332BD3
:108F3C0001BF43F22403C4F203034FF0FF321A6063
:108F4C00704740F22403C4F203034FF0FF321A605F
:108F5C00F6E741F22403C4F203034FF0FF321A6028
:108F6C00EEE742F22403C4F203034FF0FF321A601F
:108F7C00E6E700BF72B64EF280134FF0FF32CEF22E
:108F8C0000031A604EF28413CEF200031A601B49E0
:108F9C001B4A0023CA500433B3F5807FFAD1002357
:108FAC00DFF860C018464CF803000433B3F5807F3B
:108FBC00144AF8D1144BC2F88C30C2F89430C2F871
:108FCC009C30C2F8CC30114BC2F8A830104BC2F810
:108FDC00C430104BC2F8F0300F4B136453649364DD
:108FEC00D3640E4B0822CB600D4BC1F8CC304EF243
:108FFC000413CEF200031A60704700BFBC020020BD
:10900C003DA52000980000202D8F2000158F2000FA
:10901C00DD8E20008D8E2000D5A1200075A52000AE
:10902C00618E20000A4A0120002110B492E8180039
:10903C001B1844EB0104012B82E8180001D010BC72
:10904C007047002CFBD1034A146054609460F6E71F
:10905C0008000020100000200A4A0120002110B452
:10906C0092E818001B1844EB0104012B82E818004D
:10907C0001D010BC7047002CFBD1034A1460546023
:10908C009460F6E7080000201000002010B5314B6A
:10909C00186841680B46002957D04A68272A07D818
:1090AC00182A05D0DB68002B4FD05A68272AF7D92D
:1090BC00183A5A60C268183AC2605A6892B9D0F825
:1090CC0000C0BCF1010F1FD09C68002C24D0D968C3
:1090DC0000292DD0E160DA680CF1FF3CC0F800C02B
:1090EC0094605A68196818208B18885004331A49F0
:1090FC000122196119491A605A601A72486840B104
:10910C00DA60174A136010BD0260426082605A68D0
:10911C00E8E74B605A68F3E7BCF1000FE2D0C9688E
:10912C000CF1FF3CC0F800C041608A605A68D9E776
:10913C00BCF1000FD6D081680CF1FF3C8968C0F8F7
:10914C0000C08160CA605A68CCE7FFF76DF8002355
:10915C00CDE700BF58000020F9912000140D00202D
:10916C009C010020014B0360704700BF1CC3200012
:10917C00014B0360704700BF1CC320000D4B002245
:10918C001A605A609A600C4A0120002110B492E8CF
:10919C0018001B1844EB0104012B82E8180001D0C5
:1091AC0010BC7047002CFBD1044A146054609460CE
:1091BC00F6E700BFA00100200800002010000020EE
:1091CC0000B5406800F0F2F900BD00BF024B00B5DD
:1091DC00036001F021FE00BD1CC32000024B00B552
:1091EC00036001F019FE00BD1CC32000F0B572B67F
:1091FC003F4B1A6801321A603E4A13682BB1516812
:10920C00486801380028486007DD002362B61BB1AE
:10921C00986803689B689847F0BD012B3CD0CB68DD
:10922C000020536098601368013B1360CB6823B136
:10923C00D3F804C04868604458600B68D868B0F133
:10924C00FF3F03D00138D8600028DFD0D3F810C01E
:10925C002848C1F804C01668002E35D047687C68D1
:10926C00A445B8BF3D4609DBF868F8B1C4EB0C0C5B
:10927C00C1F804C044680546A44514DAA86800285F
:10928C0029D0CCEB040C0136C5F804C0C160A96030
:10929C00CD6088601660B9E7002353609360136853
:1092AC00013B1360C2E7C0680028DFD19068C4EBB3
:1092BC000C0CC1608860C1F804C00020C8609160CB
:1092CC00116801311160A1E701228E60CE6002604D
:1092DC00416081609AE7CCEB040CC5F804C088604F
:1092EC00CF60B96051601168013111608EE700BF29
:1092FC0098010020A001002030B472B6DFF880C0C5
:10930C00DCF80410E9B10B68984218BF0B462BD05F
:10931C00DB68B3B11A689042FAD1DCF80000184C43
:10932C00012811D09D68002D20D0DA6892B1EA6036
:10933C00DA680138956020601AB151685B68CB1807
:10934C00536062B630BC704700226260A26022603B
:10935C00DA68F1E70028F4D0A16801388968206048
:10936C00A160CA60DA68E7E70B46D6E708B9DA68A5
:10937C00E2E7CA680138626020609560DA68DBE772
:10938C00A0010020C360434BF0B591E8C0001B68FE
:10939C0004465B68A26015464FF47A72B2FBF3F296
:1093AC0044F24023C0F20F0380E8C000B3FBF2F29A
:1093BC0012464FF000035F084FEA320603C9361815
:1093CC0047EB01073046394601F06AFF0023206164
:1093DC006461A061E361236272B628B962B62B683E
:1093EC0028469B689847F0BDDFF8ACC004F1140127
:1093FC00DCF80060002E33D0DCF804707A68904200
:10940C00B8BF3D461BDBFB6843B1801A48605A6805
:10941C001D46904220DAA069824210DCDCF808304C
:10942C00821AD960A261E36100232362DCF8003068
:10943C00CCF808100133CCF8003062B6D3E7AB6837
:10944C00CBB1121A01366A60D960A9602562E3615A
:10945C00CCF8006062B6C6E7DB68002BD5D1DAE742
:10946C000123E6612662CCF80030CCF80410CCF86D
:10947C00081062B6B7E7121A6A60E361DCF80030D4
:10948C0027620133B960CCF80030CCF8041062B616
:10949C00A9E700BF9C010020A001002070B58FB08F
:1094AC0009AC06460021204600F060F80B4B314613
:1094BC000DAA0D93684601230E94FFF763FF204617
:1094CC0000F088F86846FFF717FF054B20466D46FD
:1094DC000D9300F093F80FB070BD00BF08C32000CF
:1094EC001CC3200000230360436083600373704738
:1094FC000A4A0120002110B492E818001B1844EB12
:10950C000104012B82E8180001D010BC7047002C1C
:10951C00FBD1034A146054609460F6E70800002005
:10952C001000002000B572B6036813B9037362B65D
:10953C0000BD00F051FCFBE700B572B64FF0010C1A
:10954C0000F10C01D1E84F2FC1E843CF002BF9D12A
:10955C0012F0FF0F01D162B600BD00F0A9F8FBE7D5
:10956C0000B572B600F04AFB00BD00BF00230360DB
:10957C0043608360C16070470A4A0120002110B427
:10958C0092E818001B1844EB0104012B82E8180028
:10959C0001D010BC7047002CFBD1034A14605460FE
:1095AC009460F6E7080000201000002000B572B6A9
:1095BC0000F10C0151E8002F02F1010241E80023F7
:1095CC00002BF7D1002A01DD62B600BD00F004FCCF
:1095DC00FBE700BF00B572B600F10C0151E8002F9B
:1095EC00A2F1010241E80023002BF7D1002A01DB94
:1095FC0062B600BD00F05CF8FBE700BF00B572B6C8
:10960C0000F0FCFA00BD00BF0A4A0120002110B492
:10961C0092E818001B1844EB0104012B82E8180097
:10962C0001D010BC7047002CFBD1034A146054606D
:10963C009460F6E708000020100000200F4A002379
:10964C00D3601360536093600D4A01201360536024
:10965C000C4A002110B492E818001B1844EB0104CA
:10966C00012B82E8180001D010BC7047002CFBD1F4
:10967C00054A146054609460F6E700BFB001002006
:10968C00C40100200800002010000020884200B512
:10969C0009D003694BB100230B6150F80C3FCB6828
:1096AC00C96801F08FFB62B600BD01230361F2E7CC
:1096BC005C492DE9F045CB68CB681A68CB68CB6860
:1096CC0002F11C069E4263D00B68012B00F08380D4
:1096DC00D46B002C72D0156C002D00F0818065626B
:1096EC00D2F840C0013BCCF820400B60D0F8008091
:1096FC0003231361B8F1000F25D0D0F804A002F1B8
:10970C002007DAF80430D2F820C00AF104059C4591
:10971C002EDA5346D5F800E0D2F820C0E6451BDC23
:10972C00836808F101085E62D36300231364C0F8F8
:10973C0000808660CB685061196810460122FFF7E3
:10974C00A5FFBDE8F0850123C2F83C80C2F840803B
:10975C00036046608660EDE71C6A002C56D008F169
:10976C00010866621E621364D463C0F80080E1E7EE
:10977C00DAF8243023B9CCE75C6A002CCAD0234633
:10978C00D3F804E0D7F800C01D1DE645F4DDC1E7B1
:10979C000B687BB1012B30D0D1F804C00024DCF86D
:1097AC0024E0013BC1F804E00B60CEF82040C1F886
:1097BC000CC09BE79C46C1F80CC097E7002B95D0DA
:1097CC00D1F804C0013BDCF824C00B60C1F804C024
:1097DC00CCF820408AE700234B608B600B6085E758
:1097EC00002B83D0D1F808C0013BDCF820C00B6003
:1097FC00C1F808C0CCF8245078E7D1F804C0002395
:10980C004B608B600B60C1F80CC06FE708F101086E
:10981C00D463C2F840A0CAF82060C0F8008046604B
:10982C0088E700BFB00100202DE9F045044672B670
:10983C00614B6248196804F11C0701311960C36857
:10984C00C368002B64D0D0F80080B8F1000F1FD093
:10985C00D0F804A004F12006DAF80410236A0AF107
:10986C000405994256DD5346D5F800C0216A8C4553
:10987C0069DC83685F62E3630023236403688760A9
:10988C00013303604E4B18687AB9A260BDE8F085CD
:10989C000123C4F83C80C4F84080036047608760B3
:1098AC00474B18680AB9F0E7013212F0030FFBD1ED
:1098BC00456804320F2A98BF10222B46002D76D013
:1098CC00696802F1100C8C4507D9914205D0DB6810
:1098DC00002B6CD059686145F7D3891A5960C1685F
:1098EC00891AC160596871B90668012E36D09F6813
:1098FC00002F42D0DD68002D4BD0FD60D968013EB1
:10990C0006608F6059681B6858185A50021DBCE7D6
:10991C00C760C5E7DAF82430002BA4D0D3F804C014
:10992C0031681D1D8C459FDC596A00299CD00B4663
:10993C00D3F804C031681D1D8C45F5DDD5F800C089
:10994C00216A8C4595DD196A69B108F101084F62ED
:10995C001F622364E163C0F80080A1E701604160ED
:10996C0081605968CFE70368E1630133C4F840A014
:10997C00CAF820700360476092E7002EC3D0D5F878
:10998C000CC0013E0660C0F804C0CCF80810596841
:10999C00B9E7002EB7D0D0F808C0013EDCF808C0FB
:1099AC000660C0F808C0CCF80C105968ABE7FEF79D
:1099BC003BFC002269E700BFC0010020B001002081
:1099CC0058000020F0B572B63D4BDA68DA681068C2
:1099DC00DA681A68002A3DD059686FF0004CD1F84B
:1099EC0004E0E64536D0012AD3F80CE055D0D1F886
:1099FC0024C00024013AC3F804C01A60CCF82040FB
:109A0C001E682F4AD960002E2AD057680EF1040523
:109A1C007A68DEF804103C1D914243DB7A6A002A16
:109A2C0040D0D2F804C02968141D8C4523DDD4F82D
:109A3C0000C0DEF804108C4522DC9A68C2F824E0E1
:109A4C00CEF820200022CEF824201A68C3F808E0B3
:109A5C0001321A60DB6801221968FFF717FEF0BDAE
:109A6C000121CEF82060CEF824601160C2F804E029
:109A7C00C2F808E0EEE7516A0029D8D00A46D0E7D0
:109A8C00116A89B10136C1F824E0C2F820E0CEF8A1
:109A9C002420CEF820101E60DCE700225A609A6069
:109AAC001A60ADE73A46C2E71A68CEF820100132C8
:109ABC00CEF82470C7F820E01A60C3F804E0C9E7B8
:109ACC00B001002030B5114D114C2A682368012BD0
